:020000041000EA
:1000000000B5324B212058609868022188439860DF
:10001000D860186158612E4B002199600221596106
:100020000121F02299502B49196001219960352056
:1000300000F044F80222904214D00621196600F024
:1000400034F8196E01211966002018661A6600F04E
:100050002CF8196E196E196E052000F02FF8012189
:100060000842F9D1002199601B49196000215960AB
:100070001A491B48016001219960EB211966A021F2
:10008000196600F012F800219960164914480160C1
:100090000121996001BC002800D000471248134993
:1000A000086003C880F30888084703B5996A0420EC
:1000B0000142FBD001200142F8D103BD02B5186610
:1000C0001866FFF7F2FF186E186E02BD00000240BE
:1000D000000000180000070000035F00212200005C
:1000E000F4000018222000A00001001008ED00E03C
:1000F00000000000000000000000000074B24E7A12
:1001000000200420F7010010C3010010C5010010F9
:10011000C1010010C1010010C1010010C101001097
:10012000C1010010C1010010C1010010C701001081
:10013000C1010010C1010010C9010010CB01001065
:10014000CD010010CD010010CD010010CD01001037
:10015000CD010010CD010010CD010010CD01001027
:10016000CD010010CD010010CD010010CD01001017
:10017000CD010010CD010010CD010010CD01001007
:10018000CD010010CD010010CD010010CD010010F7
:10019000CD010010CD010010CD010010CD010010E7
:1001A000CD010010CD010010CD010010CD010010D7
:1001B000CD010010CD010010CD010010CD010010C7
:1001C00000BE00BE00BE00BE00BE00BEEFF3058054
:1001D000103800BEF2EB8871C8430010F0430010E5
:1001E0003802001090A31AE71E481F49086006C88D
:1001F00081F3088810471D480068002801D019487D
:10020000F3E70DA40ECC002902D000F012F8F9E7B4
:100210001749184A002000E001C19142FCD116495B
:100220008847164988471649884700BEFDE701C937
:1002300001C29A42FBD37047F0430010C000002077
:10024000E0100020105400100000042000000420E2
:1002500010540010001004200010042000000000C2
:10026000704700000000000008ED00E0000000D032
:10027000E0100020041C0020F52100101D040010D7
:10028000ED210010F8B5C0460448054B10B5834277
:1002900003D0044B002B00D0984710BDE010002085
:1002A000E01000200000000006480749091A8B10E2
:1002B000C90FC91810B5491003D0044B002B00D04A
:1002C000984710BDE0100020E01000200000000062
:1002D00010B5074C2378002B09D1FFF7D5FF054B4C
:1002E000002B02D0044800E000BF0123237010BDA2
:1002F0006014002000000000A43F0010054B10B562
:10030000002B03D00449054800E000BFFFF7CCFFF5
:1003100010BDC0460000000064140020A43F00107F
:10032000FA22024B92001A607047C0460810002063
:10033000FA22014B1A60704708100020014B024A54
:100340001A60704708100020C409000010B502F0C0
:1003500083FB431E9841034B40421840024BFA3046
:10036000186010BDEE0200000810002030B583B008
:1003700001F0D2F800290BD0FA220023920001F0FC
:100380003DFC244A1368C01A09280AD803B030BDBE
:10039000FA21890001F0F4FB1E4A1368C01A0928EB
:1003A000F4D90A33136003F03BFD050002F05CFB57
:1003B000041E0DD0002D22D1002003F05DF900288D
:1003C000E4D0154C2378002B1CD100232370DDE7EB
:1003D000002003F051F90028D8D0002DF1D06B4651
:1003E0006A469C80042300940121137000206B4610
:1003F000002203F0A5F90122074B1A70C6E702F0AC
:100400003BFBC3E7002300220121002003F098F901
:10041000DBE7C046E81B0020FE1B002070B503F0A0
:10042000DDFC002002F040FB174B002B01D000E068
:1004300000BF164C164D174E14E0FA22002392000E
:1004400001F0DCFB2B682268C01A904208D39B188D
:1004500030782B6003F0DAFC01223378534033709C
:10046000FFF784FF01200021404202F08BFB23684C
:10047000002BF5D001F050F80029DED1FA218900D7
:1004800001F07EFBDEE7C0460000000008100020FF
:10049000E41B0020001C002030B50C7889B001342A
:1004A000E4B2042C01D909B030BD03F0B9FC050059
:1004B000002003F0E1F80028F5D0032C2BD0042C09
:1004C00017D0012C0CD0022CEDD100230293019304
:1004D0000533002202210093002003F07DF9E2E7BA
:1004E000002D44D12D4C2378002B4FD100232370B5
:1004F000D9E70B22002105A801F04AFE002D18D1F2
:10050000274C2378002BF1D00B23042105AA0020CF
:1005100003F0D0F8EAE705AA002D1DD1214C158083
:100520002378002BE2D002230321002003F0C2F83D
:10053000DCE701246B469C761B2300226B445A7037
:100540009A70DA701C7004210B23002005AA03F0B6
:10055000B1F8134B1C70A6E7EA2303211380002097
:10056000E83B03F0A7F801220E4B1A709BE700232B
:100570006A460593138304331375012105AB0022EA
:10058000002003F0DDF8054B1C708CE700230022EF
:100590000121002003F0D4F8A8E7C046FE1B00208C
:1005A000FD1B0020FC1B00200020704710B502A896
:1005B0000088022A00D010BD0129FCD10028FAD001
:1005C0001B781A4206D00022064B01201A6003F065
:1005D0001DFCF0E7002003F019FCFA22014B920009
:1005E0001A60E8E70810002000487047F83F001044
:1005F000004870470C40001000487047D43F00107E
:10060000F0B5DE4657464E464546E0B58DB000286B
:100610002CD0032836D000D983E0454B8000C55844
:10062000280003F005FC0400202800D977E000280A
:1006300000D178E03F4B98469A1C0023E95C0133D7
:10064000118002329C42F9D8C02301349B0064001F
:100650001C43A3B2039343464046039A1A800DB04D
:10066000F0BCBB46B246A946A046F0BD314B0222C3
:10067000981C98462E4B196801F090FDC1239B00F1
:100680000393E8E72C4B002B3FD004AD102128004A
:1006900003F092FB8446102801D910239C460028C1
:1006A00041D063469A00C02302329B0013439BB2A1
:1006B00003930F22002691461E4B019698469C1CE0
:1006C000009508AB18001D4F62CF62C04D463968D7
:1006D000029001600099194E087805405D5D8346DF
:1006E00065801D0007CE07C53D68029A15605A4611
:1006F0001111595C019A2180009901320131019256
:10070000009104346245DDD3A5E70D4B0D4A04ADDD
:10071000049205930C4B039308239C46C9E72024BD
:1007200085E700209BE7094B0393024B984692E72D
:100730000C10002094140020B93D0010A43F0010BC
:1007400089ABCDEF012345672203000002030000BF
:1007500010B54024084A83009A181268C00054401B
:10076000C0222240054CA44663441A60044B9C46B8
:100770006044416010BDC04604C0014004D0014047
:10078000004001400123D0228340402112069362A1
:100790009361094A83009A181268C0005140C02230
:1007A0000A4006498C4663441A60054B9C46052363
:1007B000604443607047C04604C0014004D001401B
:1007C000004001408023DB051868000F7047C046D9
:1007D0000FB400B5084883B001F068FE049B002BFD
:1007E00007D005A91800019101F0E6FC034801F0CB
:1007F0005DFE012001F0F8FCFC4000100C410010EF
:1008000070B5EFF3108C72B60D4D2B68002BFCD039
:10081000BFF35F8F0724CB08C618C05C01230C40D0
:10082000A3401C000440034207D103433370BFF3CD
:100830005F8F2C608CF3108870BD1000FFF7C8FF2D
:100840002C0100D0F8B54746CE46884680B5EFF378
:10085000108C72B6214D2C68002CFCD0BFF35F8F3A
:100860009A422CD8D4080727055D061901241740A1
:10087000BC402C421FD007210127894609E0D4083B
:10088000055D06194C4639001440A1400C00294270
:1008900011D001329342F2D201204042BFF35F8F68
:1008A00000220E4B1A608CF3108800280FDBC0BCAE
:1008B000B946B046F8BD2C4310003470EEE7BFF3E4
:1008C0005F8F00232B608CF3108801204042434649
:1008D000002BECD00898FFF77BFFC0462C0100D01E
:1008E000044A1078431CDBB2172B00D91023137075
:1008F0007047C0461C10002000B5054B83B00100B6
:10090000009318221F230348FFF79CFF03B000BD8C
:1009100010410010801700200021044B044ABFF34F
:100920005F8F02C39342FAD17047C046000100D0E6
:10093000800100D0054B064A1360064A13605360DD
:100940009360D360136153619361704780808080AE
:1009500000E400E004E400E01F2318401E3B834055
:10096000002905D0C021044A490053501360704744
:10097000802201498B50FAE700E100E070B50D00DC
:10098000EFF3108672B60F4A1368002BFCD0BFF34A
:100990005F8F0D4B10309B6884001B590B4A9342AC
:1009A00003D09D4201D001F00DF8074B9B681D510B
:1009B000BFF35F8FBFF35F8F0022024B1A6086F395
:1009C000108870BD240100D000ED00E0CD010010C2
:1009D000F0B557464E46DE464546E0B585B00600C2
:1009E00002911700EFF3108B72B6674A1368002B61
:1009F000FCD0BFF35F8F0025644B5D579A46002DF6
:100A000000DAA4E06B00624C03935B199B009846EC
:100A1000A146C1444B4652469B79103613705D4B3C
:100A2000B2009B68019299580B1B2F2B34D95A4B5B
:100A3000994200D0A4E0039B584A9C46584B654419
:100A4000AD006353434602336519E418554B012149
:100A5000043B1B1B1B055B0D13436B80524BEF715B
:100A6000AB80FF23AB71029BAB604B460B4319007D
:100A7000484B019A9B689950BFF35F8FBFF35F8F1C
:100A80000022414B1A608BF3108805B0F0BCBB46C6
:100A9000B246A946A046F0BD01200A008243D379A0
:100AA000BB422FD845464E46130040491B1B5B41B5
:100AB0005943090D3A4B63533A4B02356519043BD0
:100AC0005B1B1B05354D5B0D2B4373800426B44621
:100AD000E0444444131F1B1B4C46A17102991B05A3
:100AE000A16049465B0D2B43A380314BE771014365
:100AF0001360BDE75800C01880002018C679BE42B8
:100B00002BD902000623D356002BF3DA101D8246A0
:100B10002848804604267642B446E14450464E4674
:100B2000361A3005400D824656461C4895710643DC
:100B30009680039A944665441D4AAD00641922606C
:100B40004246A371029BA280E771A36090E700F088
:100B500039FF002553465D5754E7101D82469088A3
:100B60004005001584464046D444664604302018AB
:100B7000301AE0260005400D360230438046C9E7B2
:100B800000F020FF57E7C046240100D0FF1B0020E3
:100B90002010002000ED00E0CD01001000E0FFFF7C
:100BA00000A1FFFF5010002001BDFFFFAAAA000016
:100BB0000148804701BD0000F0B5DE4657464E466D
:100BC0004546E0B50C0083B0EFF3108972B65F4A7A
:100BD0001368002BFCD0BFF35F8F5D4B9A68030056
:100BE00010339F00D5595B4A904695423DD0A542AF
:100BF0004ED0594EAA1B2F2A37D8584A934612680E
:100C00009446012261469246824011401F221040C4
:100C10005246824092460191802251465846815068
:100C2000BFF35F8FEFF305829346002A32D1012391
:100C30002A009A439068844208D17CE04B005B18FC
:100C40009B00F318986884422ED01A000621515652
:100C50000029F3DA84424DD0019B002B1FD0C02223
:100C600051463E4B520099501960394B9B68DD51FB
:100C7000BFF35F8FBFF35F8F0022344B1A6089F39D
:100C8000108803B0F0BCBB46B246A946A046F0BDF2
:100C90001500EAE79342CAD000F094FEC7E780232C
:100CA00051462E4AD150E0E706215956002922DB51
:100CB0004A005018800034188046A0689860E07997
:100CC000D871062020569871002825DBA488F01AD8
:100CD0006405241544440019E0240005400D240255
:100CE0002043988052181E4B9200B6181A7819703B
:100CF000B271B1E71300594600290FD1FF3191714C
:100D00001849918016490A789A71174A9B1B5B41D2
:100D10005A43120D0A709FE71448E2E7144A154936
:100D2000D21A083A5002400D0143998012495208E4
:100D30000A43DA8090E70621515613000029B7DAFA
:100D40005A46002AEAD14546DCE7C046240100D0D5
:100D500000ED00E0CD0100102010002000E100E0D7
:100D6000FF1B002001BDFFFFAAAA000001BD00007B
:100D70005A10002000F0FFFF00F8FFFF70B50124BB
:100D80000443EFF30581EFF3108C72B6214A136828
:100D9000002BFCD0BFF35F8F1F4B05001F4AED1ADD
:100DA0006D416A43120D1E4D8900AE6852B27658ED
:100DB000A6421CD00621595691421CD012215956E8
:100DC000914222D01E215956914220D02A215956B3
:100DD0000324914210D0134B19781A708171BFF31C
:100DE0005F8F00220B4B1A608CF3108870BDAB68CC
:100DF0000D4C5C50EFE700246100091989005B1875
:100E0000FF21997109499980E5E70124F4E702245B
:100E1000F2E7C046240100D020100020AAAA00005A
:100E200000ED00E0FF1B0020CD01001001BDFFFF21
:100E3000024B9C46614489000160704740000034C9
:100E4000F8B5134D134E2C00FF27B5421ED2236870
:100E5000002B0FD0FFF744FD01002800FFF7E8FF4B
:100E6000A780BFF35F8F0834B4420FD223682500F8
:100E7000002BEFD1FFF734FD01002800FFF7D8FF6A
:100E80002771BFF35F8F0834B442EFD3F8BDC0467B
:100E9000D8100020E010002010B50400FFF720FD5E
:100EA00001002000FFF7C4FFFF232371BFF35F8F12
:100EB00010BDC04610B504000120FFF71DFD044B16
:100EC0009C46604480002060BFF35F8F10BDC04629
:100ED000400000340A4B1968EFF3108072B60A68BC
:100EE000002AFCD0BFF35F8F1B68BFF35F8F002227
:100EF0001A6080F3108840BF002000217047C04670
:100F0000E01B0020F0B5DE4657464E464546E0B5AC
:100F100085B0EFF30582032313409A00110003927A
:100F2000B64A5258904601229A40B54B91461A60F3
:100F300031E043469B881BB2002B00DB9DE043461B
:100F40009B79002B00D0EFE0434608241C5F002C67
:100F500000DA17E142465269630094461B19DB0030
:100F600063449C68DD68631C00D113E1A54B0399C1
:100F70009C4661449A6A0B69A01A9B1A984200D257
:100F80000C61A04800F0C0FA241A8D41002D00DD4C
:100F9000F8E000D12EE14B469A48436343460822CD
:100FA0009B5E9A46002BC4DB424652695B00934627
:100FB0005344DB009B445B469E68DF6800F0A4FA64
:100FC000801BB9410029B4DB002F00DAEDE05B465D
:100FD0008D4A1B69934200D1E0E041465A46082001
:100FE000085E5288000410435A465169984704002D
:100FF0000D0023002B4300D1D7E0002D00DBF0E0F3
:10100000361BAF4134003D005B469C60DD60002133
:10101000595E00298DDB43465B6922009C462B000C
:1010200048004018C00060448668C768921BBB41F6
:10103000002B00DA7DE743466646020000940195E6
:1010400019810CE07B00DB19DB00F3180098019993
:101050009C68DD68001BA941002904DB1A000023FD
:10106000D75E002FEEDA5B461F805346138043465F
:101070009B881BB2002B00DA61E743461A69EFF345
:10108000108172B61368002BFCD0BFF35F8F43460C
:101090009B8842461BB29A4601235B4293801369A8
:1010A000BFF35F8F00221A6081F310885346002B34
:1010B00000DA44E743465B699C46082343449B4669
:1010C00053465F0043465744FF0008229A5E674438
:1010D0005E46BC68FD68002A19DB3B000094019560
:1010E00067469C4604E01E000023F25E002A0BDBEC
:1010F0000098019953009B18DB00FB189C68DD6881
:10110000001BA9410029EEDA6346BC461F00534686
:10111000338000217B5E3A809A46002BD0DA43462A
:101120009B79002B00D10FE7002342469371434681
:1011300046460821595E08364B1C23D047468C464C
:10114000556902E006004B1C17D04B005B18DB0012
:10115000E8180A00E95E43881BB2002BF2DA01238B
:101160005B42DC178360C4606245ECD031803B8910
:10117000944603803A814B1CE7D16446B846002C64
:1011800000DBE7E640BF05B0F0BCBB46B246A9466F
:10119000A046F0BD6B1C00D0E8E6F2E65B465C6959
:1011A000200023699847002821D15B4642461B88CE
:1011B00013811269EFF3108372B611680029FCD015
:1011C000BFF35F8F4246594652880A8042465146D5
:1011D00051801269BFF35F8F0021116083F3108883
:1011E000A7E6084800F090F924184D410CE765681F
:1011F0002468FEE6002C00D1CDE6C3E7C41B002026
:101200003C70054000400540050F001070B52E4CA5
:101210002569002D04D00A212C48FFF709FE70BD76
:101220002B4E0321300000F065F9E660FFF758FB14
:10123000284B03229C46D02322701B061B680121E9
:101240006370254B6044A3600F238000206102205F
:10125000638063694942A180198002311986473150
:101260001D83585218315A5275325C3999521832CE
:101270000131995218320131995218320131995283
:10128000083518329D520231183299521832013104
:10129000995218320131995218320131995218324B
:1012A000013199521832013199520C4B0C49DC60D2
:1012B00001303562FFF762FB01210320FFF74CFB91
:1012C000084B1D60A7E7C04668100020E01B002007
:1012D0000040054040000034FFFF1000C41B002008
:1012E000050F00103860054070B5C646010000B516
:1012F0000469EFF3108C72B620680028FCD0BFF3AD
:101300005F8F02200D5E48696C0080466419E4001E
:101310004444002D01DB208848800869BFF35F8FBB
:10132000002606608CF31088002D30DBE3606388B4
:101330000598013320615B0406985B0CA260606134
:101340001A1C002B21D090B22B04628018430A692A
:10135000EFF3108672B61368002BFCD0BFF35F8FDB
:101360008B8823808D800B69BFF35F8F00221A600A
:1013700086F310880B7801329A40CB6805498C4679
:1013800063441A6040BCB04670BD0122DBE7012017
:101390004042F7E73C20000010B543890A1493420D
:1013A00033DD53009B184269DB00944604696344B3
:1013B000EFF3108C72B62268002AFCD0BFF35F8F67
:1013C0005A88090494B2090C8A4208D00369BFF311
:1013D0005F8F00221A608CF31088002010BD8022DD
:1013E000120214435C80012302698371BFF35F8F93
:1013F000002111608CF31088054902788C469340D7
:10140000C268012062441360E8E70020E6E7C046B6
:101410003C200000F0B5CE46474680B504000D00E4
:1014200083B0EFF30587002F3BD12F4E81463378F1
:10143000F26804339B00916A9B58421A5B1A9A42E5
:101440000ED320BF294A0020536AAB4203D3926ACD
:10145000013091453CD803B0C0BCB946B046F0BDA0
:1014600000F05AF822002B00121A8B41002B26DBC9
:101470001F4B2200009330002B000197FFF734FF31
:10148000011E1CDD194BA8465A6A954225D920BF7A
:101490003000FFF781FF154A0020536A9845DAD8DB
:1014A000D5E7124A0020536A8B42D4D3926A0130A6
:1014B000A242D0D2581A421E9041C0B2CBE70B4A8A
:1014C0000020536AAB42C6D3926A01209145C2D92B
:1014D000E81A421E9041C0B2BDE79B6A9C42D7D930
:1014E0009542D5D1D3E7C0466810002000400540A2
:1014F000D50E001010B5024A0248FFF781F910BD61
:101500002C410010841700200300416A0A00986AE9
:10151000596A8A42FAD17047034B596A0A00986A9D
:10152000596A9142FAD170470040054070B50400F5
:101530000D00124A536A1900966A536A8B42FAD117
:101540003000190024184D41AB4211D80ED02B00A9
:101550000A494A6A9A42FCD307D1084A02E0516A12
:10156000994202D1916AA142F9D370BDA642EED947
:10157000012301246442E5175B42E9E7004005408E
:10158000F8B5040006200D0000F076F9002842D0DE
:10159000364B3749E21853425A418023DB039C46BD
:1015A0009205344B62441A60334B1A6010000B688A
:1015B0009843FBD12D4B8021E3185A4253412F4AC7
:1015C0005B0049009952062000F056F92900C0003E
:1015D00000F0D6FA0130C3091ED140270122626211
:1015E000A362266BF30722D4E36A254B0620E51895
:1015F00000232B60266300F03FF93900800000F0E3
:10160000BFFA7022E36A5A407E2313402B601D4BC1
:1016100023630323A364F8BD1B4A93421ED900230E
:101620001A4A1B4F6262A362266BF307DCD5194B83
:10163000144AE3181A60656AA26A0620AD01AD1863
:1016400000F01AF9144900F09BFAAD0201002800DD
:1016500000F096FA0021FFF769FFC5E74006800E0B
:101660009F011A003F180300B9E7C0460080FCBF85
:1016700008C0004000E0004000F00040EC1B0020EB
:101680002C10000001030000FEFF0000FFFF00001F
:10169000C0FF3F00303000004E0E0000F8B5DE46BF
:1016A0004E4657464546E0B58B4605000A99180058
:1016B000160000F065FA0A9B6C001F02324B641999
:1016C0009C46A4006444636881469F4200D96760D9
:1016D0002B1FDBB29846012B30D9C02380229B01FF
:1016E000E31812011A60294BAD0059599A46002996
:1016F0001BD1226876017240E026802316404246C4
:101700005B01E3181E60012A30D9802380229B01EF
:10171000E31812011A6053464A4667605A51F0BCFA
:10172000BB46B246A946A046F8BD586900F028FA63
:10173000431C5800C0180338FDD2DAE75B46012B82
:10174000CBD1C02303229B01E3181A60023AA3689D
:101750001A42FCD0E0232268760156401E408023C6
:101760000A4A5B019246E3181E60AD005A462168A2
:10177000514003220A401A6001225B469A40A36846
:101780001A42FCD0C1E7C046008000408817002004
:10179000F0B546464F46D646C0B51F00344B440010
:1017A0009C462418A4006444636888461600FF2BF6
:1017B00002D880235B006360031FDBB29A46012BD3
:1017C00030D9C02380229B01E31812011A60294BF3
:1017D00085005959994600291BD12268760172402B
:1017E000E0268023164052465B01E3181E60012A62
:1017F00030D9802380229B01E31812011A608023D4
:101800005B0063604B465F51E0BCBA46B146A846F8
:10181000F0BD586900F0B4F9431C5800C0180338F3
:10182000FDD2DAE74346012BCBD1C02303229B0133
:10183000E3181A60023AA3681A42FCD0E023226837
:10184000760156401E4080230A4A5B019146E31808
:101850001E60850042462168514003220A401A60FA
:10186000012342469340A2681342FCD0C1E7C04620
:101870000080004088170020014B8000C05870474E
:1018800088170020F8B5040020481D0017000E003E
:1018900000F076F90100380000F072F9069B290487
:1018A0001B0319432368002B1EDB194B194DE2184B
:1018B00053425A4180235B019C461203164B6244FB
:1018C0001A60164B1A6017002B689F43FBD1144B0C
:1018D0002660E2182123A06013602368002BFCDA45
:1018E0000823E1601360F8BD3F2322681340B34230
:1018F000DBD1A3681B051B0D8342D6D1EE22E36822
:10190000D20213408B42D0D1EDE7C046001BB70096
:101910000040FDBF08C0004000E0004000F0004073
:10192000043000008023024A9B000B43D3627047BF
:1019300000800540142310B50100188804331B886B
:10194000984710BD162310B50100188802331B8874
:10195000984710BDF8B54746CE4680B50F1E19D042
:1019600014239946043304000025012698464B466B
:101970001888434621681B88984701C4431E984134
:10198000013540420640AF42F1D13000C0BCB946FB
:10199000B046F8BD0126F8E7AA23064A1B011360EA
:1019A0002F230549D360054B19605368002BFCDADF
:1019B0007047C0460040024000B0FA00006002409C
:1019C0007047C04610B50148FEF702FF50410010B5
:1019D00070B5074D074EB54209D20024013E761B73
:1019E000B60808CD984723000134B342F9D170BD41
:1019F000603F00109C3F0010054B064A06491A60E4
:101A0000064A074B1A6010000B689843FBD17047D9
:101A100000E00040BFCDFBFE08C00040FE7F3C0060
:101A200000F00040044BDB6C002B03D18022034B01
:101A3000D2021A607047C046000011504C2011506D
:101A4000044A054B1A60054A1368DB018033FBD159
:101A50007047C046FFFFFF0100F0004008C0004093
:101A60004022034B9A675A671A67DA667047C04686
:101A700000F0014010B5FEF74FFF10BD70B5044DEA
:101A8000044C2800C022A16800F088FBA56070BD4E
:101A90000000002000ED00E0002310B5294C82B0CA
:101AA000A367FFF779FF0122274B1A60636C012BB4
:101AB000FCD10322254B1A60224A936B012BFCD1E7
:101AC000013300930121224A22480433FFF7DAFE52
:101AD000052301210093204A2048FFF7D3FE00226E
:101AE000022104201E4BFFF753FE00220121052096
:101AF0001C4BFFF74DFE0022002107201A4BFFF779
:101B000047FE002200210820174BFFF741FE8023EB
:101B1000DB000093002200210920134BFFF7BEFDDC
:101B20000022104B00210620FFF732FE0420FFF7B1
:101B3000A3FE0E4900F024F801000020FFF7F2FE9A
:101B400002B010BD008000403CB0004030B000400A
:101B5000002F685900800240008C864700C0024078
:101B6000001BB70040597307006CDC0240420F00B5
:101B700001480421014B184780100020551900101E
:101B8000114A936F9B0813D210665166002905D045
:101B9000FFE7FFE7FFE7516F106F704704B50028BC
:101BA00001D00020C04302F093F9002104BDC046DB
:101BB000F0B5146E556E576F166FFFF7E5FF14669C
:101BC000556657671667F0BD000000D094464A4A34
:101BD000926F9208624601D228E0C046F0B5464EA8
:101BE000346E756E776F366F00F020F89446424A77
:101BF00014665566576716676246F0BD94463E4ABE
:101C0000926F9208624601D254E0C046F0B53A4E57
:101C1000346E756E776F366F00F04CF89446364A26
:101C200014665566576716676246F0BD002B24DBC5
:101C300011D000293EDA00B5C943404200D101313C
:101C400000F038F8C943404200D10131DB43524231
:101C500000D1013300BD002AEBD1002801D10029B9
:101C600005D00020C90FC90701D1C043410800B504
:101C700002F026F90022002300BD00B500290ADB8E
:101C8000DB43524200D1013300F014F8C943404213
:101C900000D1013100BDC943404200D10131DB43D5
:101CA000524200D1013300F005F8DB43524200D12B
:101CB000013300BD002923D1002B18D1002A0CD0FC
:101CC000BC460D4F38667A6600210023FFE7FFE728
:101CD000FFE77A6F386F67467047002801D00748E2
:101CE000010000B502F0ECF80022002300BD020064
:101CF0000B00002000217047000000D0FFFFFFFF15
:101D0000002B00D0BFE0130C28D1002AE7D080B40C
:101D1000114F39667A66FFE7FFE730B4040C7B6F3A
:101D2000396F1B0423433B667A66FFE7FFE7FFE753
:101D3000C04684B27B6F3D6F1B0423433B667A66CB
:101D4000FFE7FFE7C04600232C042D0C7A6F386FA5
:101D500000196941B0BC7047000000D0F0B594464E
:101D60000025140E01D112020835140F01D1120101
:101D70000435940F01D192000235D40F01D15200E5
:101D80000135D40B0134254F7C66254C3C660E0C86
:101D900093B2FFE7FFE7FFE73C6F6643360C77033C
:101DA000BE467343DF0B5B04C01AB941130C734387
:101DB000DB18C91ACE086643360CB64493B2734397
:101DC0001F0F1B01C01AB941130C73431F0B1B05D6
:101DD000C01AB941860D8F023E436643360C092D69
:101DE00024DB520A7243801A7703460A6643360C94
:101DF00016235B1BDE40DF40BF1964466643821B2F
:101E00007046043506330100D940A840C01900D3FC
:101E10000131A24206D20023F0BD0000000000D034
:101E2000FFFFFFFF121B0130F3D3F1E709277F1BF0
:101E3000FE406446A2B27243801A00D20139220CDD
:101E40007243130C1204821A99410B007046043538
:101E500013370100F940A840801900D30131002B4D
:101E600002D1A2420AD2F0BD013000D30131121BCF
:101E7000FAD2013BF8D1A24200D2F0BD013000D32A
:101E80000131121BF7E7F0B51C0C00D080E00CB458
:101E900000251C0A04D11B02160E3343120208351A
:101EA0001C0B04D11B01160F3343120104359C0B8C
:101EB00004D19B00960F334392000235DC0B02D114
:101EC00092185B4101351C00971864410134464F5C
:101ED0007C66464C3C660E0CFFE7FFE7FFE7C0461A
:101EE0003C6F6643360C7703BE4697B27743C01B00
:101EF00000D20139C01B00D201399FB27743C91B00
:101F0000C91B170C77437E04FF0B801BB941CE0819
:101F10006643360C0C2D33DBB644120B1F053A43D7
:101F20001B0B97B27743C01B00D201399FB2774396
:101F3000C91B170C77433E043F0C801BB941860D2B
:101F40008F023E43664329277F1BFE400C3D7746A8
:101F5000AF40BF1930BCA2B2ABB272437343801A18
:101F60009941220C7243130C1204801A9941020009
:101F70000B000137001BA941F9D2781E0021F0BDEA
:101F80000C277F1BFE4077467F0BAF40FF19E0E731
:101F900000245D1C07D0144F7D663966FFE7FFE71C
:101FA000FFE7FFE73C6F95B29EB265436643401B77
:101FB000B141150C1E0C6543664336042F0C3E439D
:101FC0002D04401BB141994204D202000B002000B5
:101FD0000021F0BD01D19042F7D3801A994101341C
:101FE0009942F2D3F6E70000000000D0FFFFFFFFA8
:101FF000132370B51D78012D19D014DD1E48FFF78D
:10200000A1FC06001D48FFF79DFC1D4C80223100FD
:10201000200000F0C3F8022D06D01A48FFF78AFC12
:10202000194B186070BD164C184BA364F5E7174B9D
:10203000134C23606360A360E36023616361A36169
:10204000E36123626362A362E36223636363A36366
:10205000E36323646364A364E36423656365A36546
:10206000E36523666366A366E36623676367A36726
:10207000E367A364D1E7C046534400005346000021
:10208000601200204C330000DC1B00209120001067
:1020900007B5604601880A0A0230DF2AFAD1C9B2C0
:1020A000820804D3028840880004104300E00068DE
:1020B000014A5050039007BD601200205143434332
:1020C000C9188C46110C83B24B4310B4040C614305
:1020D00092B280B2504362431C041B0C001910BC26
:1020E00059411304120CC01851416144704700005B
:1020F000132310B512481C78FFF724FC0100012CB3
:102100000AD003DD80220F4800F048F80E48FFF7A0
:1021100011FC0E4B186010BD0A4C5422200000F038
:102120003DF80B4B6365A365E36523666366A366B1
:10213000E36623676367A367E3672362E361E5E719
:1021400053460000601300204C330000DC1B0020CD
:102150005521001007B5604601880A0A0230DF2ABF
:10216000FAD1C9B2820804D302884088000410431F
:1021700000E00068014A5050039007BD6013002042
:1021800001480421014B18479010002055190010F8
:10219000014B1B681847000090100020014B5B6842
:1021A000184700009010002010B5002800D110BD85
:1021B00000F030F9FBE7C04610B5094A0300146887
:1021C00084B0002C08D0012200910648524203A995
:1021D000A047012004B010BD00F068F90020F9E725
:1021E000BC1B0020A921001000BEFDE710B5FFF7C1
:1021F000FBFFC04670B5FFF7EBFB074D074EB5423E
:1022000009D20024013E761BB60808CD984723006A
:102210000134B342F9D170BD9C3F0010A43F0010BF
:10222000030010B5080011001B68984710BDC04698
:10223000F0B546464F46D646C0B5437D80460E00B3
:102240001700002B46D0002A3FDD4B1E9946244B39
:102250000125002400209A460DE04B461B5D0D3BF6
:102260005A425341325DDBB20A2A0BD02B000134B3
:1022700001359F421ADD002CEFD14346325D1B7DB4
:102280000A2AF3D1002BF1D1A04204DA4346211AE5
:102290001B6830189847434650461B6802219847F0
:1022A000013428002B0001359F42E4DC874204DD25
:1022B0004346391A1B6830189847F619013E33789F
:1022C0000D3B5A42534142461375E0BCBA46B146F3
:1022D000A846F0BD0368110030009847F5E7C046F6
:1022E00058420010F0B5DE4657464E464546E0B52A
:1022F00085B017001C0006000D00FFF70DF9002344
:10230000314A12184B41002B59DB304908008A46EC
:1023100001F0EEFD01906B1C03D1300001F088FD4F
:102320000500002C26D12A4B98462A4B1C68002C0D
:1023300015D0002F21D1284F02E02469002C0ED0A7
:102340002368002BF9D03B68002B01D0A342F4D1C5
:1023500020002A003100C0472469002CF0D1019BE5
:10236000002B28D1280005B0F0BCBB46B246A946D8
:10237000A046F0BD194B9846D7E7174B994602ABDC
:10238000DF1D0A239B4602E02469002CE7D0236866
:10239000002BF9D04B461B68002B01D0A342F3D190
:1023A0002A0031002000C0475B460122390020008E
:1023B0003B70C047E8E7504601F07AFDD2E70122C2
:1023C000074B5242A1E7C04640420F00D810002000
:1023D00021220010B0170020B81700203122001071
:1023E000FFFFFF7F0A4A1368002B05D10CE01A009B
:1023F0001B691032002B07D09842F8D1002902D176
:1024000003691360016170470029FCD01060FAE78E
:10241000B0170020F0B5CE46474680B583B06B4676
:102420000600DD1D2870FFF777F800231A4A1218FE
:102430004B41002B2BDB19490800884601F058FD61
:10244000174B81461C68002C14D0164F02E02469FB
:10245000002C0FD02368002BF9D03B68002B01D053
:10246000A342F4D1200001222900FFF7E1FE2469F4
:10247000002CEFD14B46002B05D1300003B0C0BC7F
:10248000B946B046F0BD404601F012FDF5E7012225
:10249000054B5242CFE7C04640420F00D810002003
:1024A000B0170020B8170020FFFFFF7F70B50400B1
:1024B00001F0BEFC01230100050001222000FFF70E
:1024C00011FF084B1C68002C06D06368002B05D058
:1024D00098472469002CF8D1280070BD2469002C8D
:1024E000F3D1F9E7B0170020F0B50D1E15DD0E4B46
:1024F0000D271A680D4B4519D31859424B410C4909
:102500005B005E5E20210478A64207D093691942E1
:10251000FCD101301460A842F5D1F0BD9369194295
:10252000FCD11760F2E7C046F41B00200080FCBF1E
:10253000EC1B002030B504000D1E24DD002010210E
:102540001A4B013C1A689369194217D101309369FB
:102550001942FCD1136823548542F4D1144B1B68F3
:10256000002B0AD050239363516B183B0B40114949
:102570008C4662441360002814D030BD0C4B1B689D
:10258000002BEFD1F7E70A4B1B68002B0AD0502233
:10259000064B1B689A63596B183A0A4005498C46EA
:1025A00063441A6003204042E7E7C046F41B002062
:1025B0007817002034100000064B10B51B68002B64
:1025C00006D00021044A12689163044A10689847B3
:1025D00010BDC04678170020F41B00207C17002097
:1025E0000822034B19688B691A42FCD17047C04618
:1025F000F41B002070B51B4E1B4B32680500D3182E
:102600005842434114331C00002D04D0174B1A6864
:10261000002A11D070BD154E3368002BFAD000216E
:1026200020009563FEF798F920001149FEF7C4FADF
:10263000104B35601D60EDE71D600E4B20001960EA
:102640000B49FEF79BF901212000FEF785F9502286
:1026500033689A63596B183A0A4007498C466344B9
:102660001A60D7E7F41B00200080FCBF7817002019
:10267000B92500107C1700203410000070B50C4EF6
:102680000D001C003060002A03DB02211000FEF761
:102690005FF8002C03DB02212000FEF759F8290027
:1026A0003068FEF76DFF01210248FFF79BFE70BD09
:1026B000F41B0020A010002010B5024800F00CF818
:1026C00010BDC046D41B002010B508220149FFF7F9
:1026D00065FD10BDD41B002030B5002589B0040075
:1026E0000922002101A80095FFF752FD09220021CF
:1026F00005A80495FFF74CFD4B236A466846137006
:1027000004A90D2201F0CCFB152108222000694408
:10271000FFF744FD09B030BDF8B500F049F90C23CE
:10272000184DFF22AB6705201749FEF751F9174CEA
:10273000402200212000FFF72BFD40270023012627
:102740002121134A66702783A260136063545F31AE
:102750006184453963540F4A0F496360E2602787FB
:10276000A1620B606362E26201F0D2FB80239B05F1
:102770002E64EB649023094AEA508022084B5202EF
:10278000DA64F8BD00001150B5040020BC17002029
:1027900084001050000110508000105010D0010033
:1027A0000020115010B501210520FEF7D5F810BD0D
:1027B00010B500220021024800F01AF910BDC046F1
:1027C000DC17002080219022034B8902995080223F
:1027D0005201DA647047C04600201150044B197052
:1027E000002904D080219023024A8902D1507047E9
:1027F000F91B0020002011500B785B0602D14B78AA
:10280000052B00D070478A78014B1A60FAE7C04662
:1028100000001150F0B5C64600B54B790C791B028B
:1028200088782343CC787F21A4070140C509A20FF3
:102830004F001400324E7A195201B21890700120E4
:102840006840507000205B055B0DD0701383D47618
:102850008046CA00012D33D02A488446880162444C
:102860008446B4446046826040461060002933D0FC
:10287000254AC90090466246414451603F223F3399
:102880009343022C00D15B0020487A190168520161
:10289000B218D1601E4ACB180360514053408022C9
:1028A00088465201934228D84346A4061C438023FD
:1028B0007F197F011B06F6191C4373681C6011E029
:1028C00014488446880162448446B4446046826267
:1028D00040461060002909D100236D01761973600C
:1028E0000D4BF360012080BCB846F0BD084AC9001A
:1028F0009046624641445162C0E7FFF763F8D3E770
:10290000BC1700208400105004001050C01B002091
:1029100000001050800010500001105010B501F060
:10292000F7FA10BD10B57F200C0020404000E409EC
:10293000110000191A00034B4001C01800F058F8AC
:10294000012010BDBC1700207F22130010B50B40E2
:102950000A420BD0C909802258004018064940019C
:1029600040181201002101F0EBFA10BD02220348C9
:10297000C909521A8266EEE7BC17002000201150E8
:102980007F22100010B508400A4200D110BD00237C
:10299000C9094000401804494001081800220349B1
:1029A000C37001F0CDFAF1E7BC170020FFF7FFFF7D
:1029B00080220A4B520410B51A60094B09491A606B
:1029C00010000B689843FBD1802200215201064879
:1029D000FFF7DEFB0922054B5A6710BD00E00040FF
:1029E00000F0004008C000400000105000001150EE
:1029F00070B5837E04000D001600002B17D1002354
:102A0000E38201332000A682A376256101F040FA1B
:102A1000002804D080219023084A8902D150200048
:102A200001F086FA002805D00123237770BD01F05C
:102A300077FAE4E7200001F063FAF7E7002011508D
:102A4000002070477047C0467047C046002070475E
:102A50000020704700207047024B5878431E984171
:102A6000C0B270475C150020024B18784007C00FB9
:102A70007047C0465C150020094A10B513785B0703
:102A8000DC0F002B05DA182312781340182B02D024
:102A90000024200010BD034B1878FFF793FEF8E7E1
:102AA0005C150020D4100020F8B54746CE4680B50E
:102AB000294F80463B780120FF2B03D0C0BCB9468C
:102AC000B046F8BD002154222448FFF761FB0022E4
:102AD000234C244B20001A70FEF7DEF9224B1C60B9
:102AE000224C20001430FEF7E5F9200001F044F9F3
:102AF0001F4B204D1C60204B002B04D0280000E011
:102B000000BF1E4B18601E4A002491462B781B4EB6
:102B10000EE03268630194466344002B10D05B687A
:102B2000002B0DD0984701342B78E4B2A34209D38F
:102B30009C42EED3E31A5B014B445B68002BF1D15E
:102B40000020BBE7434640463B70FFF7E5FD4046AB
:102B5000FFF728FE0120B1E7D41000205C1500200B
:102B600014150020FA1B0020B0150020B81000201A
:102B7000B4150020F81B0020000000007C14002089
:102B800060430010F0B5DE4657464E464546E0B578
:102B9000BC4B87B01B78FF2B00D124E1BA4D03ACAE
:102BA0002E687269EFF3108172B61368002BFCD0A7
:102BB000BFF35F8FB1613000210001F049F8726905
:102BC000B369BFF35F8F0021116083F31088002881
:102BD00000D108E16378082BE2D8AC4A9B00D358B7
:102BE0009F466368002BDBD0A0689847D8E77F2317
:102BF0002179A74E0B405800CA093618B618320082
:102C0000012730321079B843107110790337B84377
:102C10001071002B00D1EFE09E4A337D1278934271
:102C200000D3DEE09C4A5B011268D318002B00D170
:102C3000D9E09E6962792078A368B047B0E7974AE7
:102C40001378002B00D1CEE01378013BDBB2137078
:102C50001378002BA4D101228D4B01201B788C49C5
:102C600013438B4A8A4E13703423D25C8243CA5476
:102C7000CA5C04218A43F2540133F25C8243F25469
:102C8000F25C00208A43F254267800F063FC602254
:102C900023791A40602A0DD0402A00D1B4E0DB0627
:102CA000DB0E012B00D101E1022B00D1C6E0002B8D
:102CB00000D1B5E020780021FFF746FE8021207882
:102CC000FFF742FE6CE7724E3378DB0700D467E70C
:102CD000FDF73CFB64E76E4BDB78DB0700D45FE776
:102CE0006068FFF7B1FE5BE7694E3378DB0700D41D
:102CF00056E730780007C00FFDF720FB50E7684A21
:102D0000644F23789246644A984691463A003B784D
:102D10000026474690460FE04A46126873019446E3
:102D20006344002B66D0DB68380098474346013681
:102D30001B78F6B2B3423ED3B342EDD8F31A5B012F
:102D40005344F0E7564A534F23789246524A9846E6
:102D500091463A003B780026474690460FE04A46A7
:102D60001268730194466344002B1FD0DB6838005F
:102D70009847434601361B78F6B2B34205D39E42CC
:102D8000EDD3F31A5B015344F0E7414E5422002186
:102D90003000FFF7FDF91022FF21301DFFF7F8F991
:102DA00030002022FF211430FFF7F2F900F0C8FBB9
:102DB000FDF7BEFAF4E6364E542200213000FFF74C
:102DC000E7F91022FF21301DFFF7E2F93000202241
:102DD000FF211430FFF7DCF900F0B2FB2379B37068
:102DE000DEE693420ED007B0F0BCBB46B246A94621
:102DF000A046F0BD264EEFE762792078A36800F088
:102E0000BDFBCDE6264B14E7264800F0A3FB0121CD
:102E1000300004AAFFF714FE002800D0C0E649E7FE
:102E2000202A00D143E1002A00D043E76379092B2F
:102E300000D93FE71C4A9B00D3589F467023217A54
:102E40000B4200D036E77F27CB0999460F40104B45
:102E50007F001048DB194B441B7D0078834256D31A
:102E600000D040E10E4B9846002A00D140E1434695
:102E7000586900F06FFB4346012130005B6904AAEA
:102E80009847C9E7D4100020B4150020B8420010BC
:102E90005C150020F81B00207C140020FA1B002089
:102EA00060430010412A0010DC420010237A0F2BEF
:102EB00000D9FFE6D74A9446D74A63441B79127873
:102EC000934231D300D0F5E6D44F786900F042FB4D
:102ED000012130007B6904AA9847002800D05FE6F2
:102EE0006022170023791F401A4200D0E2E663797E
:102EF0000A3B012B00D9DDE600F02CFB63790A2B9D
:102F000000D14FE1300004A900F0A4FA48E6C4481B
:102F10005B01006880469844002A00D1E8E04346FF
:102F2000002B00D1C6E6A2E7BD4A5B011768FF1877
:102F3000002F00D1BEE6C8E7A3799846B54B5B7871
:102F40009845DFD0B34B5B78002B00D04EE1424672
:102F5000B04B5A70002A00D145E140460138C0B25A
:102F6000FDF74AFB002800D139E14378022B00D05D
:102F700035E10121C2790700931152110B400A403B
:102F800012015B011343A34A2F311278B3468A43DF
:102F90001343A04A09371370C37882781B02134386
:102FA000C31801939E4B9946019BBB4200D854E144
:102FB00001227B7890460B2B04D1FB7898463B7816
:102FC000FF187B78042B00D009E1019B0026DB1B56
:102FD0009BB29A46904B1B7819E04A4612687301DF
:102FE00094466344002B00D1F9E05246390058461C
:102FF0001B699847082803D95346834200D3DAE077
:10300000854B01361B78F6B2B34200D2E7E0B342FB
:10301000E3D8824AF31A94465B016344E5E77D4BAB
:1030200002AA5B78023213703000012304A900F079
:1030300029FAB5E5E088030AC0B20F2B00D939E6BA
:1030400078499A008A58974604A800F089FA300017
:10305000A179FFF7ADFB02226E4B1B7813436D4A3B
:1030600013709DE5E388012B00D023E60822694B0D
:103070001B789343674A137044E70220654B197825
:1030800002AB9A1C8B068908DB0F01400B431380AF
:103090003000022304A900F0F5F981E5E388012B53
:1030A00000D007E608225B4B1B781343E2E7237A44
:1030B0000F2B00D9FEE5574A944663441F79564BBF
:1030C0001B789F422BD2564A7B011768FF18002FAE
:1030D00000D1EFE5786900F03DFA012130007B690D
:1030E00004AA984798E6002A00D0E3E50023984612
:1030F00063799A4602239B4653465A469343012BD3
:1031000012D05346002B00D0D4E5424B02AADB1963
:103110004B4430331B7902329B07DB0FB7E79F42EA
:1031200000D0C7E53D4FD5E7E388002B12D15346C9
:10313000012B26D03C4B1878FFF706FC0221354BBB
:10314000DB194B4430331A790A4301211A711A7979
:103150000A431A714346002B00D121E5586900F05B
:10316000F9F9434604AA5B69012130009847002021
:1031700000F0F0F93523274AD35CDB0700D50FE5D3
:10318000C0E6294B1878FFF7FBFB5946214BDB19AA
:103190004B4430331A798A4351461A711A798A435B
:1031A0001A71D7E702AB9A1C3000012304A91770EB
:1031B00000F068F9F4E443468246002B00D186E033
:1031C000BA78D318DBB205E00132D2B20E71934265
:1031D00000D17CE00F4989180879FF28F4D000233A
:1031E0000C4A537066E5FDF7A3F88BE6300000212A
:1031F000FFF7F4FA3000FFF791FB00229146084AEE
:10320000044B93464A469B78034F9A46B1463B7817
:1032100016001AE05C150020F81B00206043001027
:103220007C14002004430010D41000205A46126879
:10323000730194466344002B6BD0DB684846984783
:1032400001363B78F6B2B3424ED39E42EED3324AB9
:10325000F31A94465B016344EFE75E46FDF760F8BE
:1032600050E6FFF7F5FB021E00D123E5300013788E
:1032700004A900F007F9CFE52189FDF7C1F9021E85
:10328000F4D117E5022B18D0FFF7E4FB021E00D1A2
:1032900010E5D37891781B020B43300004A900F0AD
:1032A000F1F8B9E5FDF7A0F9021E00D102E51223FD
:1032B000300004A900F0E6F8AEE5FDF79DF9021E26
:1032C000E7D1F7E4FFF7C2FB021EE2D1F2E43300DC
:1032D00039005246114800F0A1FC114B57441B78AD
:1032E000B34200D360E67AE7542200210D48FEF78E
:1032F0004FFF0C4B1022FF21181DFEF749FF202223
:10330000FF2106484E46FEF743FF5246054B9A7092
:103310001DE64E46F9E7C0466043001070150020D8
:10332000F81B00205C150020F8B557464E46DE46D7
:1033300045460C00E0B516001F00002A3CD0702363
:1033400098461E4B00259B461D4B9A461AE05B464D
:103350001B78200099465346997800F023FC0028FA
:103360001CD021004846FFF755FA002816D0A37854
:10337000DA09012A19D00A9A013513702378E41862
:10338000B54219DA6378052B08D1E3789B079B0FC8
:10339000BB4203D14246A3781A42D8D00020F0BCE9
:1033A000BB46B246A946A046F8BD0B9A013513703C
:1033B0002378E418B542E5DB0120F0E7D4100020C3
:1033C0005C150020074B080019687F2310B50340E7
:1033D000C0095B0034301818034B181800F0BAFB12
:1033E00010BDC046B01500205C1500207F2070B5D0
:1033F00008400F4C4000CD09241864193034257959
:103400000020ED0700D570BD012625790948354318
:1034100000782571FFF786FA0028F4D1012223797C
:10342000934323712379033293432371EBE7C0461F
:103430005C150020D41000207F22CB090A400449EB
:1034400052008918C91830310879C007C00F704779
:103450005C15002070B50A4E0500300008220C00F3
:10346000FEF79CFE00237F21F3602278B360914237
:103470005B412800D90100220023FFF7B7FF70BD90
:1034800080140020F8B5CE46474691462A4E80B5B6
:103490000822070030000D009846FEF77FFE4B46DD
:1034A000B3600023F381EC79A97924020C43231C37
:1034B000444500D943469AB29046B381002C13D0BC
:1034C000002A1FD04B46002B34D0131C402A1FD893
:1034D0009BB2984633787F2B20D80021174A434669
:1034E0003800FFF783FF09E07F222B7838009A42EB
:1034F000644100230022E101FFF778FFC0BCB94618
:10350000B046F8BD33787F2B11D980210022E6E741
:1035100040239BB2984633787F2BDED9074C424636
:1035200049462000FEF73AFE80212200D7E700211D
:103530000022D4E70020E1E7801400201C150020C1
:1035400010B5142200210248FEF722FE10BDC0462D
:1035500080140020014B18617047C0468014002081
:1035600010B5054C010008222000FEF717FE0023CD
:10357000A360E36010BDC04680140020F8B5394C4C
:103580001D0023780600DA09C9098A4210D00020FC
:10359000002D00D0F8BD21003000FFF72DF9236980
:1035A000002B42D022000321300098470120F1E790
:1035B0007F2B06D8A068002839D02A002A49FEF7B8
:1035C000EDFDA368E28959195219E38892B2E281AC
:1035D000A160934214D03F2D12D9A589A81A071CC7
:1035E00080B240282FD82378BFB27F2B2DD800215E
:1035F000AA4235D01C4A3B003000FFF7F7FEC9E76E
:103600002369002B05D022000221300098470028B2
:103610000FD07F220021237830009A4249410023B5
:103620000022C901FFF7E2FEB4E70120B2E7002063
:10363000B0E700213000FFF787F930008021FFF765
:1036400083F90120A6E74027CDE7AA4207D0064C20
:103650003A002000FEF7A2FD80212200CBE7802166
:103660000022C8E7801400201C1500207047C046C7
:10367000012070477047C04603011B1A0C489B008D
:1036800010B5C3185C78FFF7E7F9002801D10020D6
:1036900010BDFFF7E9F90028F9D1002CF7D021007F
:1036A0000020FFF7C9FE01235840C0B2F0E7C04632
:1036B000D8140020F8B557464E464546DE46E0B5DC
:1036C0001D0003011C1A1D4FA40098463B1906005B
:1036D0008A460020597891469B46FFF773FE0028E2
:1036E0002AD05346002B18D11C343C19102D23D856
:1036F0002A0049462000FEF751FD4346981B8000F2
:10370000381841782B0022000020FFF76FFEF0BC34
:10371000BB46B246A946A046F8BD5B4652461C349D
:103720003C191A77601C0F2D06D82A00494601352E
:10373000FEF734FDADB2E0E70020E8E7D814002042
:10374000F0B54F46D6464646C0B582B06F4689466C
:10375000190000233A70050006227B70002933D03F
:10376000B81CFEF71BFD2E011A4B741BA4009846D3
:10377000A246C244534600205978FFF723FE002892
:1037800010D04B46002B13D11C344444230006CFE9
:1037900006C30823761BB600464422000020717839
:1037A000FFF724FE02B0E0BCBA46B146A846F0BD21
:1037B00053464A461C3444441A7739000822601C98
:1037C000FEF7ECFC0923E5E70021B81CFEF7E0FC5E
:1037D000C9E7C046D8140020F0B557464E464546C6
:1037E000DE469246002288460021E0B585B0994623
:1037F0000EAB1B7806015BB201930FAB9A56341ADD
:103800001F4F029210AB5956A40005003819834689
:10381000039141780020FFF7D5FD002817D04046DE
:1038200000281BD1220053461C32BA1813704B4695
:103830005370019B9370029BD370039B13710523FC
:10384000761BB600BE1900207178FFF7CFFD05B0DA
:10385000F0BCBB46B246A946A046F0BD584642461B
:10386000027750461C343A1950704846019B039920
:10387000D370029B9070137151710623E0E7C0462C
:10388000D814002010B53C2200210248FEF780FC2D
:1038900010BDC046D81400200120704710B53C224E
:1038A00000210248FEF774FC10BDC046D814002069
:1038B000F0B54B7906000D0083B0032B0AD10879CF
:1038C000C400241A1234A4B2944203D81A4F7B784D
:1038D000002B03D00024200003B0F0BD0978691844
:1038E0004B78212BF6D1B9600B780200C9187B1CEC
:1038F0000193BB1C009330000323FFF715FD002844
:10390000E8D0AB79012B13D00123BB71AB78BA6837
:103910003B70137AD1791B020B43B978BB80002925
:10392000D9D03A00102330002C32FFF75FFDD2E7E8
:10393000EB79FB70E8E7C046D81400201F23F0B5F0
:1039400014001278060083B01340012B18D15F4F8A
:1039500020793B78984213D160231800104013421D
:1039600008D020280CD163780B2B09D8584A9B002B
:10397000D3589F460125012903D16378062B03D034
:103980000025280003B0F0BDE378212B00D186E0AC
:10399000222BF5D10020FCF72BFE21000200BB8872
:1039A0003000FFF76FFDECE7012912D00125032954
:1039B000E7D1A1780020B971FFF758FEE1E70125B2
:1039C0000129DED1E1780020F971FFF751FE0028CE
:1039D000D6D021003000FFF73DFD0125D1E70129B8
:1039E00068D001250329CCD1E079A37900021843DE
:1039F000E278A178041C102800D910243B00A4B25E
:103A00000C33002908D0012806D9387B884203D11D
:103A10003B00013CA4B20D3300200094FCF7C6FD2E
:103A20000125AEE701250129ABD10123210030009A
:103A3000BA1DFFF727FDA4E701250129A1D1012324
:103A400021003000FA1DFFF71DFD9AE7012501292D
:103A500097D1E379A0791B020343E278A178181C7F
:103A6000102B00D9102080B200292BD0012B29D98E
:103A70003B0001250138397380B20D3300900020DE
:103A8000FCF792FD2D18ABB2002B00D178E73A007D
:103A9000210030000C32FFF7F5FC012571E7BA6810
:103AA000002A00D16CE7210030001378FFF7EAFC10
:103AB000050066E7E379A2791B021343102B00D9B6
:103AC0005EE7E4E73B0000250C33D7E7D81400207D
:103AD0008043001030B51E4C0500A07883B08842AA
:103AE00017D16178814218D0002A20D121009BB2E1
:103AF0002C31009300200B0002320021FCF756FD10
:103B0000220010232800A1782C32FFF76FFC03B0AD
:103B100030BD657800208D42F9D1002A0FD12100F7
:103B200000209AB21C31FCF7B7FC0120EFE722001D
:103B3000022100209BB22C32FFF79CFDE0E722001F
:103B4000002001219BB21C32FFF794FD0120DEE72B
:103B5000D8140020037870B5DB0704000E00DD0FD9
:103B6000002B17D103785B0701D5280070BD012118
:103B70003000494200F0B4F92378DB07DD0F002B59
:103B80000AD123785B0708D4042223780125134344
:103B9000237002E00025E8E70025300000F088F9F6
:103BA000E3E7C04610B5437904791B0223435B0564
:103BB0005A0DC3789B079B0F022B05D0032B15D002
:103BC0000020012B08D010BD02291CD0002040236A
:103BD00093424041C0B2F6E702394B4259410D4B86
:103BE0009C46614491424041C0B2ECE702394B42ED
:103BF0005941F023002049429B0019404031914235
:103C00004041C0B2DFE7044BD3185A425341D8B207
:103C1000D9E7C046FF03000000FEFFFF8A1870B519
:103C2000914207D27F264C78052C04D00C780919D4
:103C30008A42F8D870BD34008D782C406400041995
:103C4000ED0963550C7809198A42ECD8F2E7C046B1
:103C500070B5040000690E00002803D0012149421C
:103C600000F03EF925896089A288A9B283B2854215
:103C70002CD3CD1AADB2002D2ED0AA4208D291423B
:103C800031D38B1A9BB263819A4203D89B1A9BB2A1
:103C90009A42FBD9E28821685204520C5343300007
:103CA000C918FEF77BFA618901254B1C9BB2A288DB
:103CB000994214D9002352009B1A9BB22069638158
:103CC000002801D000F0F4F8280070BD5500ED1A6E
:103CD0004D19ADB2002DD0D1002563899BB25200A1
:103CE0009342EBDBE8E789188BB26381CCE7C046EF
:103CF000F8B50400C0680E00002803D00121494235
:103D000000F0EEF8258920896189A288ADB283B2DE
:103D10008FB2884228D3DB1B9BB29A4209D8E7793D
:103D2000FF0906D1E068002801D000F0C1F8380092
:103D3000F8BD2B00954203D39B1A9BB29342FBD252
:103D4000E28821685204520C5343C8183100FEF730
:103D500025FAA2886B1C9BB252009D4209D99B1A7E
:103D60009BB201272381DDE75100C91B5B189BB281
:103D7000D3E79342F5DBF2E710B50400C0680028F2
:103D800003D00121494200F0ABF82069002803D09C
:103D90000121494200F0A4F80023E06863812381F7
:103DA000002801D000F084F82069002801D000F03C
:103DB0007FF8012010BDC04630B583B005006846CD
:103DC0000C00FEF781FC072C00D90824220069466C
:103DD0002800FEF7E3F9200003B030BD10B519202C
:103DE000FCF7D0FCD0238022E1211B0692045A620A
:103DF0000448054B0022186049020123FEF73EFCEF
:103E000010BDC04600400340F01B0020D02380229C
:103E10001B069204002801D05A6170479A61FCE7A2
:103E200010B500F095F801235840C0B210BDC0464F
:103E300010B583070AD00300032102E001330B42CF
:103E400005D01A78002AF9D1181A10BD0300196894
:103E50000C4A0D4C8A188A4322420FD15968094AEC
:103E600004338A188A43224208D15968054A043328
:103E70008A188A432242F1D000E001331A78002ADE
:103E8000FBD1E1E7FFFEFEFE80808080F8B5C046F2
:103E900001B40248844601BC604700BFD90B002032
:103EA00001B40248844601BC604700BF8D02002077
:103EB00001B40248844601BC604700BFED01002008
:103EC00001B40248844601BC604700BF850F002052
:103ED00001B40248844601BC604700BF850F002042
:103EE00001B40248844601BC604700BF5D01002068
:103EF00001B40248844601BC604700BFC1000020F5
:103F000001B40248844601BC604700BF910C002008
:103F100001B40248844601BC604700BF5103002041
:103F200001B40248844601BC604700BF350C002044
:103F300001B40248844601BC604700BF010C002068
:103F400001B40248844601BC604700BF410C002018
:103F500001B40248844601BC604700BF250F002021
:103F6000F9190010251A0010711B00108121001092
:103F7000F11F0010F1200010991A0010411A0010D2
:103F8000611A0010751A0010410E00107D1A001001
:103F90000D120010C119001035090010FD020010AB
:043FA000B92600102E
:103FA400303132333435363738394142434445466B
:103FB4000000000054696E795553420054696E79CB
:103FC4005553422044657669636500000904000086
:103FD40009022200010100A03209040000010300CB
:103FE400000009211101000122EF000705810310DF
:103FF400000500001201000200000040FECA044057
:10400400000101020301000005010906A101850167
:10401400050719E029E715002501950875018102B6
:104024009501750881010508190129059505750192
:104034009102950175039101050719002AFF0015E6
:104044000026FF00950675088100C005010902A13C
:104054000185020901A10005091901290515002599
:104064000195057501810295017503810105010919
:104074003009311581257F950275088106093815A7
:1040840081257F950175088106050C0A3802158182
:10409400257F950175088106C0C0050C0901A101A1
:1040A4008503150026FF0319002AFF0395017510E7
:1040B4008100C005010905A1018504050109300934
:1040C4003109320935093309341581257F9506757F
:1040D40008810205010939150125083500463B010F
:1040E400950175088102050919012920150025018A
:1040F400952075018102C0000A2A2A2A2050414EC7
:104104004943202A2A2A0A000A0000004E6F20731D
:1041140070696E6C6F636B73206172652061766188
:10412400696C61626C6500004861726477617265F4
:1041340020616C61726D20256420616C726561641C
:104144007920636C61696D65640000004861726484
:10415400206173736572740052656C6561736500E8
:10416400626F6F74325F773235713038300000001F
:1041740068747470733A2F2F6769746875622E635C
:104184006F6D2F72617370626572727970692F70CE
:1041940069636F2D6578616D706C65732F747265DA
:1041A400652F484541442F7573622F6465766963B2
:1041B400652F6465765F6869645F636F6D706F73A4
:1041C40069746500322E312E300000007069636F0F
:1041D400000000006465765F6869645F636F6D70FA
:1041E4006F736974650000004665622020342032D4
:1041F4003032350005005250DE65F468105400106A
:10420400060052505422A29DEC4100100600525068
:10421400861C0302D841001006005250BBFF3CB676
:10422400D041001006005250ABB36053C841001097
:10423400060052509A23561874410010060052503A
:10424400E182887F6441001006005250D3F0754229
:104254005C4100100D0A0000556E68616E646C6567
:10426400642049525120307825780A006570202551
:104274003032582077617320616C726561647920F3
:10428400617661696C61626C6500000043616E2750
:104294007420636F6E74696E75652078666572202C
:1042A4006F6E20696E616374697665206570202580
:1042B40030325800A02B0010FE2C0010442D0010AA
:1042C400D62C0010E82C0010C62C00103E2C001038
:1042D400EE2B0010E22B00107A3000106430001036
:1042E400B42C00109C300010B42C00104830001086
:1042F40034300010B42C00101E300010382F001081
:10430400B42C0010A4320010843200107832001053
:10431400B42C0010B42C001062320010843200104F
:10432400B42C0010B42C0010B42C0010B42C0010C9
:10433400B42C0010B42C0010B42C0010C4320010A3
:10434400760D0020760D0020580D0020CC0D0020A5
:10435400D20E0020E60E0020C00D00200000000058
:1043640085380010993800109D380010B1380010BD
:104374003D390010D53A00100000000080390010CB
:104384004C3A0010383A0010243A001080390010DA
:1043940080390010803900108039001080390010F5
:1043A400DE390010BE390010A83900104C45440015
:1043B4000900525000000002B0430010080052509F
:0443C40012100200D1
:1043C800F841001004420010104200101C42001076
:1043D8002842001034420010404200104C420010A5
:0843E800B4430010C0430010B3
:1043F000F0B5C646150000B504001E000268EFF3D4
:10440000108172B61368002BFCD0BFF35F8F0423BA
:10441000E356002B2DDB2268BFF35F8F0020106076
:1044200081F31088D0221206127852B290469A4236
:1044300003D1002080BCB846F0BD00270BE0236804
:10444000BFF35F8F1F6081F310882800310000F0F8
:1044500033FF0028EDD12268EFF3108172B61368A4
:10446000002BFCD0BFF35F8F23797F2BE7D9434626
:1044700002E0D0231B061B6823712368BFF35F8F04
:1044800000221A6081F310880120D3E7F0B5C646F8
:1044900000B50D00040000F03FFFFA2206000F00F7
:1044A000002328000021920000F03EFF36184F4103
:1044B000002F2CDBD0231B061B68002598460BE041
:1044C0002368BFF35F8F1D6081F3108830003900CF
:1044D00000F0F2FE002818D12268EFF3108172B6C6
:1044E0001368002BFCD0BFF35F8F23797F2BE7D9B4
:1044F000434623712368BFF35F8F00221A6081F364
:104500001088012080BCB846F0BD0020FAE70126E3
:10451000014F7642CEE7C046FFFFFF7F0268EFF310
:10452000108172B61368002BFCD0BFF35F8FFF239E
:1045300003710368BFF35F8F00221A6081F3108854
:1045400040BF704710B5084C2378002B0AD1802358
:10455000064807495B051A68C25004338B42FAD1FA
:104560000123237010BDC046FB1B002078160010ED
:104570000001001010B5024B0133984710BDC04632
:1045800078160020034B1A68C0239B009343024A0D
:10459000136070470C8001400C900140054B1A6875
:1045A00080239B005340C02292001340024A1360B4
:1045B0007047C0460C8001400C9001401423F0B5B8
:1045C000D6464F4646469A46814618880433C0B5BB
:1045D00098460E001B882749140098475346070049
:1045E0001888434624491B88984753460500188875
:1045F000434622491B8898478046FFF7A3FFB847E8
:10460000A847FFF7CBFF002C1BD0C02122000827B2
:10461000022049053D008B6A1D4018420BD0002C3A
:1046200009D0131B0D2B1FD84B461B78013C0B6682
:1046300001239C46E1442300002D0CD11343002BA1
:10464000E8D1FFF79FFFC047FFF794FFE0BCBA46F1
:10465000B146A846F0BD002AF1D00B6E013A337086
:10466000130001362343EAE7002DD3D0002AD1D02E
:10467000F3E7C046494600004558000046430000A5
:1046800000231C4A10B59360D3601B4A002193603D
:10469000D3601A4A1A489360D3601A4A9360D36071
:1046A000194A9360D360194A9360D360184A9360A3
:1046B000D360184A9360D360174A9360D360174A57
:1046C0009360D360164A9360D360164A9360D360B8
:1046D000154A9360D360154A9360D360144A93607F
:1046E000D360F022920000F0FFFD124B124A1A60D4
:1046F00010BDC046000010500800105010001050AF
:10470000FC170020180010502000105028001050F6
:104710003000105038001050400010504800105029
:104720005000105058001050600010506800105099
:1047300070001050C01B002080011050F0B557468B
:10474000DE464E464546E0B5234B87B09F6D002FB1
:1047500023D0224B0024994601239846204B012662
:104760009A4604E001347600E4B2202C15D03E4293
:10477000F8D04B469E65434665086D00A343ED188F
:104780006D015544280000F051FC00280CD1013483
:10479000B743E4B27600002FE7D107B0F0BCBB46C8
:1047A000B246A946A046F0BDAB7808229B46EB8AEC
:1047B000002103A8019300F097FD0723594602AAA0
:1047C0005371019B117203A80121059300F04EFC67
:1047D000280000F0C7FBDAE700001150003011504C
:1047E000BC1700209823F0B54646D6464F46CD4A22
:1047F000C0B5D55880232C009B02102684B01C40E5
:104800001D4278D0C84BC94C9A6AC94B00261A6021
:104810003B23E35C022B00D110E17B23E35C022B02
:1048200000D12EE1BB23E35C022B00D117E1FB2377
:10483000E35C022B00D197E13C23FF33E35C022BC6
:1048400000D15AE17C23FF33E35C022B00D13FE12E
:10485000BC23FF33E35C022B00D124E1FC23FF33B4
:10486000E35C022B00D11FE2B24BE35C022B00D1D0
:1048700006E2B14BE35C022B00D1EDE1AF4BE35C10
:10488000022B00D1D4E1AE4BE35C022B00D1BBE1A3
:10489000AC4BE35C022B00D1A2E1AB4BE35C022BFF
:1048A00000D189E1A94BE35C022B00D16EE1A84B5A
:1048B000E35C022B00D10CE2002E08D1A54B1B7843
:1048C000002B04D18021A44A90338902D15001AE3B
:1048D000944B0C22002130009C6C00F005FD03235A
:1048E0006405640D7370300002940121802400F08F
:1048F000BDFB9A4EA402EB0600D593E080235B0239
:104900001D4237D01C430023984602339946944BEE
:10491000864E9A46B37E002B17D04B4642469F1ACE
:1049200000F0F2FC012800D980E0C0220021300014
:10493000920100F01DFB300000F014FB00F0E4FCDD
:10494000012802D9844B5F661F660123F37043463A
:104950002036012B23D1C023824ADB00019302AB16
:1049600003CA03C3012101A800F080FB80227A4B17
:1049700092021A6580235B011D4213D18023DB0163
:104980001D4229D180231B021D4239D1AC4200D0E7
:10499000B9E104B0E0BCBA46B146A846F0BD012377
:1049A0009846B7E700221C435E4B01AE1A60FFF742
:1049B00067FE0C220021300000F096FC012301214B
:1049C0007370300000F052FB8022634B12031A65B3
:1049D0008023DB011D42D5D001AE0C220021300026
:1049E0001C4300F081FC042301217370300000F0AF
:1049F0003DFB1022584B1A6580231B021D42C5D077
:104A000001AE0C22002130001C4300F06DFC052398
:104A100001217370300000F029FB80224E4B1201FF
:104A20001A65B3E7FFF78AFE340067E753463D4A4D
:104A30001F66536E3B40BB42FBD176E73833E65CE2
:104A4000002E00D1E9E60233E25C002A00D1E4E660
:104A500000222000E254203000F0B2FADDE6B83344
:104A6000E35C002B00D1E2E6BC22A15C1E00002921
:104A700000D1DCE600232000A354A03000F0A0FA0F
:104A8000D5E67833E35C002B00D1CBE67C22A15C39
:104A90001E00002900D1C5E600232000A354603089
:104AA00000F08EFABEE6B933FF33E35C002B00D191
:104AB000D4E6DE225200A15C1E00002900D1CDE622
:104AC00020000023A130A354FF3000F079FAC5E69E
:104AD0007933FF33E35C002B00D1B9E6BE225200EC
:104AE000A15C1E00002900D1B2E620000023613045
:104AF000A354FF3000F064FAAAE63933FF33E35CD5
:104B0000002B00D19EE69E225200A15C1E000029CF
:104B100000D197E6200000232130A354FF3000F09D
:104B20004FFA8FE60000115000400540BC170020EE
:104B3000B41700203B0200007B020000BB02000013
:104B4000FB0200003B0300007B030000BB030000EE
:104B5000FB030000F91B0020003011501000020080
:104B60000020115000001050F833E35C002B00D1FE
:104B700062E6FC22A15C1E00002900D15CE6002355
:104B80002000A354E03000F01BFA55E6604BE35CD4
:104B9000002B00D18BE6EF239B00E25C002A00D0C3
:104BA000A9E05C4BE35C022B00D090E65A4BE35C3F
:104BB000002B00D092E08AE6584BE35C002B00D13A
:104BC00070E6DF229200A15C1E00002900D169E698
:104BD0000023A354D8239B00E01800F0F1F961E60C
:104BE0004F4BE35C002B00D157E6CF229200A15C33
:104BF0001E00002900D150E60023A354C8239B00C7
:104C0000E01800F0DDF948E6464BE35C002B00D1EC
:104C10003EE6BF229200A15C1E00002900D137E6CB
:104C20000023A354B8239B00E01800F0C9F92FE635
:104C30003D4BE35C002B00D125E6AF229200A15C46
:104C40001E00002900D11EE60023A354A8239B00C8
:104C5000E01800F0B5F916E6344BE35C002B00D108
:104C60000CE69F229200A15C1E00002900D105E6FF
:104C70000023A35498239B00E01800F0A1F9FDE560
:104C80002B4BE35C002B00D1F3E58F229200A15C5B
:104C90001E00002900D1ECE50023A35488239B00CB
:104CA000E01800F08DF9E4E5F933FF33E35C002B05
:104CB00000D1D9E5FE225200A15C1E00002900D1DE
:104CC000D2E520000023E130A354FF3000F078F952
:104CD000CAE5114BE35C002B00D1EDE5FF239B00FF
:104CE000E25C002A00D1F2E50022E2541C3BE0180D
:104CF00000F066F9EBE50022E254E8239B00E0189F
:104D000000F05EF94DE721000A48694000F0DCFA46
:104D1000BA030000FB030000FA0300007A0300005E
:104D20003A030000FA020000BA0200007A02000012
:104D30003A0200005C420010F0B5D6464F464646A7
:104D40000300C0B51C8B808A8A46221C844200D98D
:104D5000021C802692B2801ADD7884B2F6009C8212
:104D60001643002D02D09026B601164301277D4040
:104D7000DD705D783000002D41D151468801D96841
:104D80001F698C46511E88468444002A32D06146F1
:104D900002207C1C0C1BA042804108244445A441F5
:104DA00040426442044238D060463843810734D1DF
:104DB000151FAD08691C89460020002461463D5836
:104DC00001340D500430A145F8D849468D006146A4
:104DD0004C1941467F19481BAA4209D03D782570DD
:104DE000002805D07D786570012801D0B878A070C2
:104DF0001F699C8A8020BA1800021A613043002C77
:104E000002D18023DB0118435346002B00D000045D
:104E1000E0BCBA46B146A846F0BD002061463C5C05
:104E20000C5401308242F9D1E2E7C04682680300A7
:104E3000F0B51068002900D0000C5A788005800D6C
:104E4000002A08D1DA8A8218DA821A8B824201D9C2
:104E500000229A82F0BDDA688901451EAC461C69C1
:104E6000561800282ED00131511825000222611A4F
:104E70008A428941354301322A4055426A414942BA
:104E80000A4225D06246082A22D900220021051FA5
:104E9000AD080135B7580131A75004328D42F9D819
:104EA0006246AD0076196419571BA84209D03278C2
:104EB0002270002F05D072786270012F01D0B27875
:104EC000A2701C69DA8A24188218DA821C61BCE795
:104ED0000022B15CA15401329042FAD11C69F1E781
:104EE00010B50400836800211B68FFF79FFF63680B
:104EF0001B685B0002D5238B834200D010BD0121CB
:104F00002000FFF793FFF9E7084A0300126C002026
:104F1000920703D49A78D209012A00D07047D87E2C
:104F2000023843425841C0B2F8E7C0460000115071
:104F300010B5FFF7E9FF00280CD00749074B8C4656
:104F4000074A9B6A126863449B1A0020C6229A4251
:104F50004041C0B210BDC046E0FCFFFF004005402C
:104F6000B417002000238376436103617047C04675
:104F700010B58368002901D01C682140002A12D096
:104F80008024E400114322420DD01A6822420CD141
:104F9000084A0A401A60084A126C920703D40C238C
:104FA000033BFDD28368196010BD8178034800F08F
:104FB0008BF9C046FFFBFFFF00001150704200104C
:104FC000436870B5002180251E680400FFF7B4FE19
:104FD000134B6D011B6C05439B070FD5A3785B0634
:104FE0000FD0104B1E4080239B0533436268002185
:104FF000136020002A00FFF7BBFF70BDA378DB0918
:10500000EFD0A38A002BECD001212000FFF794FE03
:10501000A023054ADB05324005431343E6E7C046BB
:1050200000001150FFFFFFAFFFFFFFDF70B5857E6F
:105030000400002D13D0FFF753FFA38A002B01D1EA
:10504000280070BD2000FFF773FF051E03D0012369
:1050500000252377F4E72000FFF7B2FFF0E781781F
:10506000014800F031F9C04690420010F0B5CE463C
:10507000474680B5437805000E0085B0062B12D850
:105080006D4A9B00D3589F4601216C4B1A788A4386
:105090001A701A7801318A431A7000225A701A78ED
:1050A00002318A431A70664B1C686269EFF3108103
:1050B00072B61368002BFCD0BFF35F8FA161200094
:1050C000290000F009F96269A369BFF35F8F00212D
:1050D000116083F31088002804D105B0C0BCB94624
:1050E000B046F0BD32006978287800F005F9F4E7A1
:1050F000544A13780133DBB21370D4E7524B534F49
:105100009946534B002498463A780AE0414609688C
:1051100063018C466344002B08D10134E4B294420D
:105120000FD8A242F2D8A31A5B014B44DB69002BD3
:10513000F3D028786968984701343A78E4B2944209
:10514000EFD93E4F3B785B072AD504223B7801AC70
:1051500093430021200008323B7000F0C5F82B7803
:10516000237005236370364B1B6898465A69EFF32A
:10517000108172B61368002BFCD0BFF35F8F4346DB
:1051800040469961210000F0A7F843465A699B699F
:10519000BFF35F8F0021116083F31088002844D192
:1051A000FB78DB0700D498E701AC0C22002120003B
:1051B00000F09AF82B782370032363706B686360A8
:1051C0001F4B1D686A69EFF3108172B61368002BDC
:1051D000FCD0BFF35F8FA9612800210000F07CF8AC
:1051E0006A69AB69BFF35F8F0021116083F3108898
:1051F000002800D171E732006178207800F07CF857
:105200006BE70E4B1A78D20700D466E704211A78B0
:105210000A431A7047E7094B1A78D20700D45CE7B3
:1052200004211A788A431A703DE7320061782078A9
:1052300000F062F8B4E7C046444300105C1500205B
:10524000B4150020FA1B002060430010F81B00205A
:105250007C14002082B0EFF3108172B6134B1A68F1
:1052600080239B015340C02292011340104A1360D7
:105270000023FA220193019B9200934205DA019BDD
:1052800001330193019B9342F9DBD023C0221B061B
:105290009868064B92011B681340054A136081F31E
:1052A00010888007C00F02B07047C0460C800140D4
:1052B0000C9001407047C04601B40248844601BCCE
:1052C000604700BF1514001001B40248844601BCB9
:1052D000604700BFD107001001B40248844601BCFA
:1052E000604700BFF13C001001B40248844601BC95
:1052F000604700BF9121001001B40248844601BC00
:10530000604700BF452A001001B40248844601BC32
:10531000604700BFC507001001B40248844601BCC5
:10532000604700BF1915001001B40248844601BC53
:10533000604700BFBD200010FA000000D03F001001
:10534000B83F0010C03F0010000000001000000037
:10535000000000000000010000000000000000004C
:105360000000020000000000000000000000030038
:1053700000000000000000000000FF00000000002E
:1053800001B5486801318E46004770460938014929
:10539000884701BD7D0D00100000000000000000E6
:1053A000000000000000000000000000E0100020ED
:1053B000503300004C3300005433000052330000DF
:1053C0004D5300004D4300005334000043340000AF
:1053D000E9240010E125001035250010F525001006
:1053E0000000000000010000B815002010000C00B3
:1053F00000000000000000000000000000000000AD
:1054000000000000FF00000000000000000000009D
:04000005100001E9FD
:00000001FF
