:020000041000EA
:1000000000B5324B212058609868022188439860DF
:10001000D860186158612E4B002199600221596106
:100020000121F02299502B49196001219960352056
:1000300000F044F80222904214D00621196600F024
:1000400034F8196E01211966002018661A6600F04E
:100050002CF8196E196E196E052000F02FF8012189
:100060000842F9D1002199601B49196000215960AB
:100070001A491B48016001219960EB211966A021F2
:10008000196600F012F800219960164914480160C1
:100090000121996001BC002800D000471248134993
:1000A000086003C880F30888084703B5996A0420EC
:1000B0000142FBD001200142F8D103BD02B5186610
:1000C0001866FFF7F2FF186E186E02BD00000240BE
:1000D000000000180000070000035F00212200005C
:1000E000F4000018222000A00001001008ED00E03C
:1000F00000000000000000000000000074B24E7A12
:1001000000200420F7010010C3010010C5010010F9
:10011000C1010010C1010010C1010010C101001097
:10012000C1010010C1010010C1010010C701001081
:10013000C1010010C1010010C9010010CB01001065
:10014000CD010010CD010010CD010010CD01001037
:10015000CD010010CD010010CD010010CD01001027
:10016000CD010010CD010010CD010010CD01001017
:10017000CD010010CD010010CD010010CD01001007
:10018000CD010010CD010010CD010010CD010010F7
:10019000CD010010CD010010CD010010CD010010E7
:1001A000CD010010CD010010CD010010CD010010D7
:1001B000CD010010CD010010CD010010CD010010C7
:1001C00000BE00BE00BE00BE00BE00BEEFF3058054
:1001D000103800BEF2EB88718C260010BC2600108F
:1001E0003802001090A31AE71E481F49086006C88D
:1001F00081F3088810471D480068002801D019487D
:10020000F3E70DA40ECC002902D000F012F8F9E7B4
:100210001749184A002000E001C19142FCD116495B
:100220008847164988471649884700BEFDE701C937
:1002300001C29A42FBD37047BC260010C0000020C8
:100240004802002044280010000004200000042080
:1002500044280010001004200010042000000000BA
:10026000704700000000000008ED00E0000000D032
:100270004802002048060020651B0010D103001032
:100280005D1B0010F8B5C0460448054B10B583420D
:1002900003D0044B002B00D0984710BD480200202B
:1002A000480200200000000006480749091A8B1088
:1002B000C90FC91810B5491003D0044B002B00D04A
:1002C000984710BD480200204802002000000000AE
:1002D00010B5074C2378002B09D1FFF7D5FF054B4C
:1002E000002B02D0044800E000BF0123237010BDA2
:1002F000C80500200000000010230010054B10B5B9
:10030000002B03D00449054800E000BFFFF7CCFFF5
:1003100010BDC04600000000CC05002010230010D6
:1003200070B5144C92B021000500342205A801F0EC
:10033000EDFB6B461A00343443CC43C203CC03C2FA
:10034000032108000C4A525D1040114208D10020E0
:10035000520701D412B070BD303D6D00E85AF9E784
:10036000022800D1203D6B461422413D6D009B18B0
:10037000585BEFE7802300108925001030B585B069
:100380006A4621230025D3730F22104C6A44702142
:1003900020000095203B01F049FF6A46A023D3735B
:1003A0000F2270216A44200000959F3B01F03EFF20
:1003B0006A468123D3730F22702120000095803B71
:1003C0006A4401F033FF05B030BDC046380200205A
:1003D000F0B5DE464E4657464546E0B595B001F0CD
:1003E000D1FCB04FB049380001F0F6FE03210420E3
:1003F00000F068F90321052000F064F900220121D2
:10040000042000F079F900220121052000F074F9A0
:10041000A64801F009FD0024FFF7B0FF32266B4625
:1004200000251C869B191D70702103230CAA38001F
:10043000009401F0FBFE6A460223138693191D7097
:10044000702103230CAA3800009401F0EFFE6A46E5
:100450000423138693191D70702103230CAA3800FE
:10046000009401F0E3FE6A460623138693191D707B
:1004700070210323380000940CAA01F0D7FE00235A
:10048000994603AD8A4B98464646307800240028AA
:1004900015D0FFF745FF00236870000AA8702C7084
:1004A0002A000093702138000136033301F0BEFEAC
:1004B0003078002803D00234E4B20A2CE9D1962027
:1004C00000F04EFE01239C467A4BE0449845DBD178
:1004D000794B04AA483313CB13C213CB13C203CBFB
:1004E00003C29B239B4604AB9A4653461B680024D9
:1004F000DBB2984653461B689EB2360A3300464626
:1005000098464346AB704B462C7002346E702A00FE
:100510000093702103233800E4B201F087FE0A2C17
:10052000EFD1584600F01CFE04239C460CABE2447D
:100530005345DAD10F235B429C46E3445B46052BCF
:10054000D1D15D4B0CAA683313CB13C213CB13C2AA
:1005500003CB03C20CAB9846924643461E68002468
:100560003078002815D0FFF7DBFE00236870000A02
:10057000A8702C702A0000937021380001360333D4
:1005800001F054FE3078002803D00234E4B20A2C83
:10059000E9D1FA20400000F0E3FD04239C46E0444A
:1005A000D045DAD1FA200026FF24800000F0D8FDE3
:1005B000424B2A002B8004337021AC70FF3300962D
:1005C000380001F033FEFE235B422B8002332A0009
:1005D0007021AC70FF330096380001F027FEFC2339
:1005E0005B422B802A007021AC70FF3300963800EC
:1005F00001F01CFEFA235B422B80AC702A000096AF
:1006000070213800FD3301F011FE203E002433003C
:1006100023432B7000232A007021009338000133FC
:1006200001F004FE01341E2000F09AFD0F2CEED1E3
:10063000013C330023432B7000232A0000937021D8
:100640003800013301F0F2FD1E2000F089FD013C6D
:10065000EFD201235B429C46E3445B46002BD5D19D
:10066000EF232B705B462A00009370210123380092
:1006700001F0DCFD83232B705B462A007021009380
:100680003800012301F0D2FD0D4800F069FD8123FF
:100690002B705B462A00009370210123380001F083
:1006A000C5FDEFE638020020A086010048230010B7
:1006B0005C230010792300108023001000FFFFFF4F
:1006C0008813000010B54024084A83009A18126865
:1006D000C0005440C0222240054CA44663441A6026
:1006E000044B9C466044416010BDC04604C00140BC
:1006F00004D00140004001400B4B80009C46604408
:1007000000290ED100230431002A00D119008022D3
:1007100003685201594094460C2360440B40036027
:1007200070470C210823EFE704C001400FB400B567
:10073000084883B001F078FB049B002B07D005A983
:100740001800019101F0F0F9034801F06DFB012060
:1007500001F002FA102400102024001070B5EFF30D
:10076000108C72B60D4D2B68002BFCD0BFF35F8F41
:100770000724CB08C618C05C01230C40A3401C0012
:100780000440034207D103433370BFF35F8F2C60F3
:100790008CF3108870BD1000FFF7C8FF2C0100D04B
:1007A000044A1078431CDBB2172B00D910231370B6
:1007B0007047C046980100200021044B044ABFF353
:1007C0005F8F02C39342FAD17047C046000100D048
:1007D000800100D0054B064A1360064A136053603F
:1007E0009360D36013615361936170478080808010
:1007F00000E400E004E400E01F2318401E3B8340B7
:10080000002905D0C021044A4900535013607047A5
:10081000802201498B50FAE700E100E070B50D003D
:10082000EFF3108672B60F4A1368002BFCD0BFF3AB
:100830005F8F0D4B10309B6884001B590B4A93420D
:1008400003D09D4201D000F08DFF074B9B681D51E6
:10085000BFF35F8FBFF35F8F0022024B1A6086F3F6
:10086000108870BD240100D000ED00E0CD01001023
:10087000F0B5DE4657464E464546E0B50C0083B01F
:10088000EFF3108972B65F4A1368002BFCD0BFF3F8
:100890005F8F5D4B9A68030010339F00D5595B4A08
:1008A000904695423DD0A5424ED0594EAA1B2F2AC4
:1008B00037D8584A934612689446012261469246B8
:1008C000824011401F2210405246824092460191C0
:1008D0008022514658468150BFF35F8FEFF3058267
:1008E0009346002A32D101232A009A439068844219
:1008F00008D17CE04B005B189B00F3189868844299
:100900002ED01A00062151560029F3DA84424DD028
:10091000019B002B1FD0C02251463E4B52009950E4
:100920001960394B9B68DD51BFF35F8FBFF35F8F59
:100930000022344B1A6089F3108803B0F0BCBB4628
:10094000B246A946A046F0BD1500EAE79342CAD0D8
:1009500000F008FFC7E7802351462E4AD150E0E758
:1009600006215956002922DB4A005018800034180D
:100970008046A0689860E079D8710620205698716A
:10098000002825DBA488F01A6405241544440019C6
:10099000E0240005400D24022043988052181E4B8D
:1009A0009200B6181A781970B271B1E7130059465F
:1009B00000290FD1FF3191711849918016490A78A9
:1009C0009A71174A9B1B5B415A43120D0A709FE7AD
:1009D0001448E2E7144A1549D21A083A5002400D69
:1009E00001439980124952080A43DA8090E70621B0
:1009F000515613000029B7DA5A46002AEAD1454673
:100A0000DCE7C046240100D000ED00E0CD0100107D
:100A10009C01002000E100E04406002001BDFFFF32
:100A2000AAAA000001BD0000D601002000F0FFFFCF
:100A300000F8FFFF70B501240443EFF30581EFF3E5
:100A4000108C72B6214A1368002BFCD0BFF35F8F65
:100A50001F4B05001F4AED1A6D416A43120D1E4DD2
:100A60008900AE6852B27658A6421CD0062159566B
:100A700091421CD012215956914222D01E21595622
:100A8000914220D02A2159560324914210D0134B71
:100A900019781A708171BFF35F8F00220B4B1A60B7
:100AA0008CF3108870BDAB680D4C5C50EFE70024F0
:100AB0006100091989005B18FF2199710949998022
:100AC000E5E70124F4E70224F2E7C046240100D060
:100AD0009C010020AAAA000000ED00E044060020CE
:100AE000CD01001001BDFFFF024B9C46614489000F
:100AF0000160704740000034F8B5134D134E2C00D0
:100B0000FF27B5421ED22368002B0FD0FFF748FE07
:100B100001002800FFF7E8FFA780BFF35F8F0834CC
:100B2000B4420FD223682500002BEFD1FFF738FE27
:100B300001002800FFF7D8FF2771BFF35F8F08344B
:100B4000B442EFD3F8BDC046400200204802002066
:100B50000A4B1968EFF3108072B60A68002AFCD0BD
:100B6000BFF35F8F1B68BFF35F8F00221A6080F3B3
:100B7000108840BF002000217047C0463806002082
:100B8000F0B5DE4657464E464546E0B585B0EFF334
:100B90000582032313409A0011000392B64A52586B
:100BA000904601229A40B54B91461A6031E0434687
:100BB0009B881BB2002B00DB9DE043469B79002BFA
:100BC00000D0EFE0434608241C5F002C00DA17E158
:100BD00042465269630094461B19DB0063449C68DB
:100BE000DD68631C00D113E1A54B03999C46614469
:100BF0009A6A0B69A01A9B1A984200D20C61A0480D
:100C000000F042FB241A8D41002D00DDF8E000D1F8
:100C10002EE14B469A484363434608229B5E9A4620
:100C2000002BC4DB424652695B0093465344DB0011
:100C30009B445B469E68DF6800F026FB801BB94141
:100C40000029B4DB002F00DAEDE05B468D4A1B691A
:100C5000934200D1E0E041465A460820085E52889F
:100C6000000410435A465169984704000D002300C0
:100C70002B4300D1D7E0002D00DBF0E0361BAF4165
:100C800034003D005B469C60DD600021595E002918
:100C90008DDB43465B6922009C462B0048004018D0
:100CA000C00060448668C768921BBB41002B00DA15
:100CB0007DE74346664602000094019519810CE0E9
:100CC0007B00DB19DB00F318009801999C68DD6854
:100CD000001BA941002904DB1A000023D75E002F66
:100CE000EEDA5B461F805346138043469B881BB257
:100CF000002B00DA61E743461A69EFF3108172B600
:100D00001368002BFCD0BFF35F8F43469B8842469D
:100D10001BB29A4601235B4293801369BFF35F8F36
:100D200000221A6081F310885346002B00DA44E752
:100D300043465B699C46082343449B4653465F00F9
:100D400043465744FF0008229A5E67445E46BC68EB
:100D5000FD68002A19DB3B000094019567469C461C
:100D600004E01E000023F25E002A0BDB00980199CC
:100D700053009B18DB00FB189C68DD68001BA94131
:100D80000029EEDA6346BC461F005346338000213B
:100D90007B5E3A809A46002BD0DA43469B79002B43
:100DA00000D10FE70023424693714346464608218F
:100DB000595E08364B1C23D047468C46556902E0E5
:100DC00006004B1C17D04B005B18DB00E8180A002C
:100DD000E95E43881BB2002BF2DA01235B42DC1789
:100DE0008360C4606245ECD031803B8994460380C7
:100DF0003A814B1CE7D16446B846002C00DBE7E69D
:100E000040BF05B0F0BCBB46B246A946A046F0BD07
:100E10006B1C00D0E8E6F2E65B465C6920002369C3
:100E20009847002821D15B4642461B8813811269EE
:100E3000EFF3108372B611680029FCD0BFF35F8F07
:100E40004246594652880A804246514651801269AC
:100E5000BFF35F8F0021116083F31088A7E6084875
:100E600000F012FA24184D410CE765682468FEE68C
:100E7000002C00D1CDE6C3E7240600203C700540DD
:100E800000400540810B001070B52E4C2569002DE7
:100E900004D00A212C48FFF727FE70BD2B4E0321FA
:100EA000300000F0E7F9E660FFF77AFC284B0322F8
:100EB0009C46D02322701B061B6801216370254BC2
:100EC0006044A3600F238000206102206380636977
:100ED0004942A18019800231198647311D83585239
:100EE00018315A5275325C3999521832013199527F
:100EF000183201319952183201319952083518329D
:100F00009D520231183299521832013199521832D9
:100F100001319952183201319952183201319952E6
:100F20001832013199520C4B0C49DC6001303562AA
:100F3000FFF774FC01210320FFF75EFC084B1D60E6
:100F4000A7E7C046E4010020380600200040054025
:100F500040000034FFFF100024060020810B001029
:100F60003860054070B5C646010000B50469EFF36E
:100F7000108C72B620680028FCD0BFF35F8F02206F
:100F80000D5E48696C0080466419E4004444002DFD
:100F900001DB208848800869BFF35F8F0026066068
:100FA0008CF31088002D30DBE360638805980133F3
:100FB00020615B0406985B0CA26060611A1C002B28
:100FC00021D090B22B04628018430A69EFF3108697
:100FD00072B61368002BFCD0BFF35F8F8B88238021
:100FE0008D800B69BFF35F8F00221A6086F3108833
:100FF0000B7801329A40CB6805498C4663441A60ED
:1010000040BCB04670BD0122DBE701204042F7E75B
:101010003C20000010B543890A14934233DD53008D
:101020009B184269DB00944604696344EFF3108C1B
:1010300072B62268002AFCD0BFF35F8F5A88090479
:1010400094B2090C8A4208D00369BFF35F8F002273
:101050001A608CF31088002010BD80221202144305
:101060005C80012302698371BFF35F8F00211160EF
:101070008CF31088054902788C469340C2680120A1
:1010800062441360E8E70020E6E7C0463C20000029
:10109000F0B504000D0006267642F717C64636194D
:1010A0006F4100B582B08F4214D811D000F0F4F82F
:1010B00032003B00121A8B41002B15DC002B44D070
:1010C0002000290000F01CF902B080BCB846F0BD39
:1010D0008642EBD90026002700F0DEF832003B0004
:1010E000121A8B41002BE9DD00F0D6F832003B00EC
:1010F000121A8B41002B0ADB00230193144B3200A0
:10110000009314483B00FFF72DFF0028D8DBB046C2
:101110000026BC46104A114F7B6A9C4504D8B96A28
:101120008845CDD99C45CBD11168EFF3108072B6BC
:101130000B68002BFCD0BFF35F8F1368BFF35F8F8A
:101140001E6080F3108820BFE6E7002AB8D0CBE706
:10115000510B0010E401002038060020004005403B
:1011600070B5060000F098F8FA2204000D00002384
:1011700030000021920000F05FFC00196941002955
:1011800002DBFFF785FF70BD012001494042F8E70F
:10119000FFFFFF7FF0B5CE46474680B504000D0047
:1011A00083B0EFF30587002F3BD12F4E8146337874
:1011B000F26804339B00916A9B58421A5B1A9A4268
:1011C0000ED320BF294A0020536AAB4203D3926A50
:1011D000013091453CD803B0C0BCB946B046F0BD23
:1011E00000F05AF822002B00121A8B41002B26DB4C
:1011F0001F4B2200009330002B000197FFF7B2FE37
:10120000011E1CDD194BA8465A6A954225D920BFFC
:101210003000FFF7FFFE154A0020536A9845DAD8E0
:10122000D5E7124A0020536A8B42D4D3926A013028
:10123000A242D0D2581A421E9041C0B2CBE70B4A0C
:101240000020536AAB42C6D3926A01209145C2D9AD
:10125000E81A421E9041C0B2BDE79B6A9C42D7D9B2
:101260009542D5D1D3E7C046E401002000400540B7
:10127000510B001010B5024A0248FFF76FFA10BD7B
:1012800024240010EC0500200300416A0A00986A3B
:10129000596A8A42FAD17047034B596A0A00986A20
:1012A000596A9142FAD170470040054070B5040078
:1012B0000D00124A536A1900966A536A8B42FAD19A
:1012C0003000190024184D41AB4211D80ED02B002C
:1012D0000A494A6A9A42FCD307D1084A02E0516A95
:1012E000994202D1916AA142F9D370BDA642EED9CA
:1012F000012301246442E5175B42E9E70040054011
:10130000064A536A9942FCD807D1044B02E05A6A54
:10131000914202D19A6A8242F9D370470040054057
:10132000F8B5040006200D0000F076F9002842D040
:10133000364B3749E21853425A418023DB039C461F
:101340009205344B62441A60334B1A6010000B68EC
:101350009843FBD12D4B8021E3185A4253412F4A29
:101360005B0049009952062000F056F92900C000A0
:1013700000F0D6FA0130C3091ED140270122626273
:10138000A362266BF30722D4E36A254B0620E518F7
:1013900000232B60266300F03FF93900800000F045
:1013A000BFFA7022E36A5A407E2313402B601D4B24
:1013B00023630323A364F8BD1B4A93421ED9002371
:1013C0001A4A1B4F6262A362266BF307DCD5194BE6
:1013D000144AE3181A60656AA26A0620AD01AD18C6
:1013E00000F01AF9144900F09BFAAD020100280040
:1013F00000F096FA0021FFF759FFC5E74006800E7E
:101400009F011A003F180300B9E7C0460080FCBFE7
:1014100008C0004000E0004000F000403C06002012
:101420002C10000001030000FEFF0000FFFF000081
:10143000C0FF3F00303000004E0E0000F8B5DE4621
:101440004E4657464546E0B58B4605000A991800BA
:10145000160000F065FA0A9B6C001F02324B6419FB
:101460009C46A4006444636881469F4200D967603B
:101470002B1FDBB29846012B30D9C02380229B0161
:10148000E31812011A60294BAD0059599A460029F8
:101490001BD1226876017240E02680231640424626
:1014A0005B01E3181E60012A30D9802380229B0152
:1014B000E31812011A6053464A4667605A51F0BC5D
:1014C000BB46B246A946A046F8BD586900F028FAC6
:1014D000431C5800C0180338FDD2DAE75B46012BE5
:1014E000CBD1C02303229B01E3181A60023AA36800
:1014F0001A42FCD0E0232268760156401E40802329
:101500000A4A5B019246E3181E60AD005A46216804
:10151000514003220A401A6001225B469A40A368A8
:101520001A42FCD0C1E7C04600800040F005002010
:10153000F0B546464F46D646C0B51F00344B440072
:101540009C462418A4006444636888461600FF2B58
:1015500002D880235B006360031FDBB29A46012B35
:1015600030D9C02380229B01E31812011A60294B55
:1015700085005959994600291BD12268760172408D
:10158000E0268023164052465B01E3181E60012AC4
:1015900030D9802380229B01E31812011A60802336
:1015A0005B0063604B465F51E0BCBA46B146A8465B
:1015B000F0BD586900F0B4F9431C5800C018033856
:1015C000FDD2DAE74346012BCBD1C02303229B0196
:1015D000E3181A60023AA3681A42FCD0E02322689A
:1015E000760156401E4080230A4A5B019146E3186B
:1015F0001E60850042462168514003220A401A605D
:10160000012342469340A2681342FCD0C1E7C04682
:1016100000800040F0050020014B8000C05870475A
:10162000F0050020F8B5040020481D0017000E004A
:1016300000F076F90100380000F072F9069B2904E9
:101640001B0319432368002B1EDB194B194DE218AD
:1016500053425A4180235B019C461203164B62445D
:101660001A60164B1A6017002B689F43FBD1144B6E
:101670002660E2182123A06013602368002BFCDAA7
:101680000823E1601360F8BD3F2322681340B34292
:10169000DBD1A3681B051B0D8342D6D1EE22E36884
:1016A000D20213408B42D0D1EDE7C046001BB700F9
:1016B0000040FDBF08C0004000E0004000F00040D6
:1016C000043000008023024A9B000B43D362704722
:1016D00000800540142310B50100188804331B88CE
:1016E000984710BD162310B50100188802331B88D7
:1016F000984710BDF8B54746CE4680B50F1E19D0A5
:1017000014239946043304000025012698464B46CD
:101710001888434621681B88984701C4431E984196
:10172000013540420640AF42F1D13000C0BCB9465D
:10173000B046F8BD0126F8E7AA23064A1B0113604C
:101740002F230549D360054B19605368002BFCDA41
:101750007047C0460040024000B0FA0000600240FE
:101760007047C04610B50148FEF7E0FF482400105E
:1017700070B5074D074EB54209D20024013E761BD5
:10178000B60808CD984723000134B342F9D170BDA3
:10179000D02200100C230010054B064A06491A609F
:1017A000064A074B1A6010000B689843FBD170473C
:1017B00000E00040BFCDFBFE08C00040FE7F3C00C3
:1017C00000F00040044BDB6C002B03D18022034B64
:1017D000D2021A607047C046000011504C201150D0
:1017E000044A054B1A60054A1368DB018033FBD1BC
:1017F0007047C046FFFFFF0100F0004008C00040F6
:101800004022034B9A675A671A67DA667047C046E8
:1018100000F0014010B5FEF7CFFF10BD70B5044DCC
:10182000044C2800C022A16800F070F9A56070BDCA
:101830000000002000ED00E0002310B5294C82B02C
:10184000A367FFF779FF0122274B1A60636C012B16
:10185000FCD10322254B1A60224A936B012BFCD149
:10186000013300930121224A22480433FFF7DAFEB4
:10187000052301210093204A2048FFF7D3FE0022D0
:10188000022104201E4BFFF753FE002201210520F8
:101890001C4BFFF74DFE0022002107201A4BFFF7DB
:1018A00047FE002200210820174BFFF741FE80234E
:1018B000DB000093002200210920134BFFF7BEFD3F
:1018C0000022104B00210620FFF732FE0420FFF714
:1018D000A3FE0E4900F024F801000020FFF7F2FEFD
:1018E00002B010BD008000403CB0004030B000406D
:1018F000002F685900800240008C864700C00240DB
:10190000001BB70040597307006CDC0240420F0017
:1019100001480421014B184700020020F516001071
:10192000114A936F9B0813D210665166002905D0A7
:10193000FFE7FFE7FFE7516F106F704704B500281E
:1019400001D00020C04300F0B3FC002104BDC0461C
:10195000F0B5146E556E576F166FFFF7E5FF1466FE
:10196000556657671667F0BD000000D0132370B5A9
:101970001D78012D19D014DD1E48FFF7B3FE0600B7
:101980001D48FFF7AFFE1D4C80223100200000F003
:10199000BDF8022D06D01A48FFF79CFE194B1860BF
:1019A00070BD164C184BA364F5E7174B134C23601E
:1019B0006360A360E36023616361A361E361236209
:1019C0006362A362E36223636363A363E3632364E9
:1019D0006364A364E36423656365A365E3652366C9
:1019E0006366A366E36623676367A367E367A3642D
:1019F000D1E7C0465344000053460000C80300200E
:101A00004C330000340600200D1A001007B5604664
:101A100001880A0A0230DF2AFAD1C9B2820804D347
:101A2000028840880004104300E00068014A5050DA
:101A3000039007BDC803002051434343C9188C4697
:101A4000110C83B24B4310B4040C614392B280B2C8
:101A5000504362431C041B0C001910BC5941130471
:101A6000120CC0185141614470470000132310B597
:101A700012481C78FFF736FE0100012C0AD003DD66
:101A800080220F4800F042F80E48FFF723FE0E4B6D
:101A9000186010BD0A4C5422200000F037F80B4BA0
:101AA0006365A365E36523666366A366E3662367F0
:101AB0006367A367E3672362E361E5E753460000DA
:101AC000C80400204C33000034060020D11A001056
:101AD00007B5604601880A0A0230DF2AFAD1C9B286
:101AE000820804D3028840880004104300E00068A4
:101AF000014A5050039007BDC8040020014804214A
:101B0000014B184710020020F5160010014B5B68CE
:101B1000184700001002002010B5002800D110BDA9
:101B200000F036F9FBE7C04610B5094A0300146817
:101B300084B0002C08D0012200910648524203A92B
:101B4000A047012004B010BD00F06EF90020F9E7B5
:101B500020060020191B001000BEFDE710B5FFF79E
:101B6000FBFFC04670B5FFF703FE074D074EB542B9
:101B700009D20024013E761BB60808CD9847230001
:101B80000134B342F9D170BD0C23001010230010B2
:101B9000030010B5080011001B68984710BDC0462F
:101BA000F0B546464F46D646C0B5437D80460E004A
:101BB0001700002B46D0002A3FDD4B1E9946244BD0
:101BC0000125002400209A460DE04B461B5D0D3B8D
:101BD0005A425341325DDBB20A2A0BD02B0001344A
:101BE00001359F421ADD002CEFD14346325D1B7D4B
:101BF0000A2AF3D1002BF1D1A04204DA4346211A7C
:101C00001B6830189847434650461B680221984786
:101C1000013428002B0001359F42E4DC874204DDBB
:101C20004346391A1B6830189847F619013E337835
:101C30000D3B5A42534142461375E0BCBA46B14689
:101C4000A846F0BD0368110030009847F5E7C0468C
:101C50003C250010F0B5DE4657464E464546E0B5F9
:101C600085B017001C0006000D00FFF715FB0023D0
:101C7000314A12184B41002B59DB304908008A4683
:101C800000F01EFB01906B1C03D1300000F0D8FA6D
:101C90000500002C26D12A4B98462A4B1C68002CA4
:101CA00015D0002F21D1284F02E02469002C0ED03E
:101CB0002368002BF9D03B68002B01D0A342F4D15C
:101CC00020002A003100C0472469002CF0D1019B7C
:101CD000002B28D1280005B0F0BCBB46B246A9466F
:101CE000A046F0BD194B9846D7E7174B994602AB73
:101CF000DF1D0A239B4602E02469002CE7D02368FD
:101D0000002BF9D04B461B68002B01D0A342F3D126
:101D10002A0031002000C0475B4601223900200024
:101D20003B70C047E8E7504600F0BAFAD2E701221C
:101D3000074B5242A1E7C04640420F00400200203C
:101D4000911B0010180600201C060020A11B00108B
:101D5000FFFFFF7F0A4A1368002B05D10CE01A0031
:101D60001B691032002B07D09842F8D1002902D10C
:101D700003691360016170470029FCD01060FAE725
:101D80001806002010B500F037F9012010BDC0463C
:101D9000F0B5CE46474680B583B06B460600DD1DE4
:101DA0002870FFF779FA00231A4A12184B41002BCA
:101DB0002BDB19490800884600F082FA174B814650
:101DC0001C68002C14D0164F02E02469002C0FD0A0
:101DD0002368002BF9D03B68002B01D0A342F4D13B
:101DE000200001222900FFF7DBFE2469002CEFD13F
:101DF0004B46002B05D1300003B0C0BCB946B046FD
:101E0000F0BD404600F04CFAF5E70122054B524286
:101E1000CFE7C04640420F004002002018060020D5
:101E20001C060020FFFFFF7F70B5040000F008FAD9
:101E300001230100050001222000FFF70BFF084BE2
:101E40001C68002C06D06368002B05D098472469D5
:101E5000002CF8D1280070BD2469002CF3D1F9E7DB
:101E600018060020F0B50D1E15DD0E4B0D271A6863
:101E70000D4B4519D31859424B410C495B005E5E2E
:101E800020210478A64207D093691942FCD1013081
:101E90001460A842F5D1F0BD93691942FCD11760D6
:101EA000F2E7C046400600200080FCBF3C06002050
:101EB00030B504000D1E24DD002010211A4B013C1A
:101EC0001A689369194217D1013093691942FCD1FC
:101ED000136823548542F4D1144B1B68002B0AD09D
:101EE00050239363516B183B0B4011498C4662445D
:101EF0001360002814D030BD0C4B1B68002BEFD1B1
:101F0000F7E70A4B1B68002B0AD05022064B1B68D0
:101F10009A63596B183A0A4005498C4663441A6023
:101F200003204042E7E7C04640060020E4050020C9
:101F300034100000064B10B51B68002B06D00021A2
:101F4000044A12689163044A1068984710BDC0465D
:101F5000E405002040060020E80500200822034B8D
:101F600019688B691A42FCD17047C04640060020B0
:101F700070B51B4E1B4B32680500D31858424341C5
:101F800014331C00002D04D0174B1A68002A11D0FE
:101F900070BD154E3368002BFAD0002120009563E8
:101FA000FEF72AFC20001149FEF762FC104B356059
:101FB0001D60EDE71D600E4B200019600B49FEF718
:101FC0002DFC01212000FEF717FC502233689A6394
:101FD000596B183A0A4007498C4663441A60D7E7A0
:101FE000400600200080FCBFE4050020351F0010E3
:101FF000E8050020341000000D4B10B51B780D4B88
:102000000D4C1B780D4B02211B780D4B00202360DB
:10201000FEF758FB02210120FEF754FBE121206866
:102020004902FFF77DF901210648FFF793FE10BD35
:10203000B0260010B426001040060020B82600107C
:102040000040034020020020F0B557464E4645466A
:10205000DE4690460022E0B583B01E000CAB1B7834
:1020600084469A460368DA6601325960DA66002EC1
:102070004FDD51464A405202019280229146320081
:102080008025771E0020464610219046AD00002492
:10209000002804D162461479621E9441A4020022F1
:1020A000934687421AD0325C22435C4622431A612F
:1020B0005A6B1142FCD04A469C58002C11D18742E1
:1020C00022D001308045E2D1634652461A7103B0F6
:1020D000F0BCBB46B246A946A046F0BD019A934665
:1020E000E1E75A6D012293465A6B2A42FCD01A6EE0
:1020F0005A46002AE5D0002C03D0E30701D4230779
:10210000E2D401204042DFE75246002AD9D1D3462B
:10211000EAE70020D8E7C046F8B5DE4657464E4607
:1021200045468346E0B505200C00FFF775FA06002A
:10213000600821008019FFF7F3FB430098468044B4
:10214000070005214046FFF7EBFB3B1A9A461E4B62
:102150008146700080199C4231D81C49FFF7E0FB92
:10216000451C5B461C6800230422E36623680120AB
:102170005A400623134080225201A218136053468E
:10218000E3614B46236243464F2B03D9502140461F
:10219000FFF7C6FBA023E050E06F0D4B45402D0438
:1021A0002D0CE3181D60012339003000E366FFF7B2
:1021B000B7FBF0BCBB46B246A946A046F8BD0549F0
:1021C000FFF7AEFB451CCCE73F420F00809698001E
:1021D0007C10000040787D01104A70B5821A53428D
:1021E0005A41072352429A430D4B10321A600D4B4D
:1021F0000D4C1A60150023689D432B1EFAD16624EE
:102200000268FF340571D5661460633C8833FF3C77
:10221000D5639563D450FFF77FFF70BD380200206F
:1022200000E0004000F0004008C0004010B582B05F
:1022300004AC24780094FFF707FF02B010BDC0463D
:1022400010B583070AD00300032102E001330B42DB
:1022500005D01A78002AF9D1181A10BD03001968A0
:102260000C4A0D4C8A188A4322420FD15968094AF8
:1022700004338A188A43224208D15968054A043334
:102280008A188A432242F1D000E001331A78002AEA
:10229000FBD1E1E7FFFEFEFE80808080F8B5C046FE
:1022A00001B40248844601BC604700BF5D010020C4
:1022B00001B40248844601BC604700BF850100208C
:1022C00001B40248844601BC604700BFC100002041
:1022D00099170010C517001011190010FD1A0010F1
:1022E0006D1900106D1A001039180010E117001058
:1022F0000118001015180010F90A00101D18001020
:10230000890E001061170010D5070010FD020010A3
:1023100048656C70000000004920616D00000000FD
:10232000696E206100000000616E64200000000002
:1023300043616E74000000006765742000000000B7
:102340006F7574200000000057656C636F6D652029
:10235000746F20485433336B3136210057656C63FA
:102360006F6D6520746F20746865205261737062B0
:1023700065727279205069205069636F0000000017
:10238000F7008F1239000F12F900F100BD00F600BE
:1023900009121E0070243800360536213F00F30074
:1023A0003F20F3208D0101123E00300C3628002D15
:1023B0000015090C3F0C0604DB008F00E600ED0061
:1023C000FD000114FF00E7004000000000010000D4
:1023D0000002000000040000800000000020000057
:1023E0000010000000080000102300101823001047
:1023F0002023001078230010282300103023001021
:102400003823001040230010080052501A520A00CE
:102410000A2A2A2A2050414E4943202A2A2A0A0001
:102420000A000000486172647761726520616C6126
:10243000726D20256420616C726561647920636C23
:1024400061696D65640000004861726420617373A6
:102450006572740052656C6561736500626F6F74BC
:10246000325F773235713038300000006874747034
:10247000733A2F2F6769746875622E636F6D2F72C0
:10248000617370626572727970692F7069636F2D04
:102490006578616D706C65732F747265652F484542
:1024A00041442F6932632F687431366B33335F696F
:1024B00032630000322E312E300000007069636FED
:1024C00000000000687431366B33335F693263009B
:1024D00046656220203420323032350005005250EB
:1024E000DE65F46844280010060052505422A29D74
:1024F000D024001006005250861C0302C424001091
:1025000006005250BBFF3CB6BC24001006005250DF
:10251000ABB36053B4240010060052509A235618EF
:102520006C24001006005250E182887F5C24001069
:1025300006005250D3F07542542400100D0A0000DA
:102540005541525420737464696E000055415254D1
:10255000207374646F757400554152542073746411
:10256000696E202F207374646F75740006005250DA
:1025700053B4F4A158250010080052501200000076
:10258000080052509210000000202020202020201F
:102590002020282828282820202020202020202013
:1025A0002020202020202020208810101010101023
:1025B000101010101010101010040404040404046F
:1025C0000404041010101010101041414141414109
:1025D00001010101010101010101010101010101EB
:1025E00001010101101010101010424242424242FB
:1025F00002020202020202020202020202020202BB
:102600000202020210101010200000000000000062
:1026100000000000000000000000000000000000BA
:1026200000000000000000000000000000000000AA
:10263000000000000000000000000000000000009A
:10264000000000000000000000000000000000008A
:10265000000000000000000000000000000000007A
:10266000000000000000000000000000000000006A
:10267000000000000000000000000000000000005A
:0C2680000000000000000000000000004E
:10268C0008240010DC240010E8240010F4240010AE
:10269C00002500100C250010182500102425001012
:1026AC00302500106C2500107825001080250010B6
:1026BC00F0B5C646150000B504001E000268EFF325
:1026CC00108172B61368002BFCD0BFF35F8F04230C
:1026DC00E356002B2DDB2268BFF35F8F00201060C8
:1026EC0081F31088D0221206127852B290469A4288
:1026FC0003D1002080BCB846F0BD00270BE0236856
:10270C00BFF35F8F1F6081F310882800310000F049
:10271C0033F80028EDD12268EFF3108172B61368FC
:10272C00002BFCD0BFF35F8F23797F2BE7D9434677
:10273C0002E0D0231B061B6823712368BFF35F8F55
:10274C0000221A6081F310880120D3E70268EFF3AE
:10275C00108172B61368002BFCD0BFF35F8FFF2380
:10276C0003710368BFF35F8F00221A6081F3108836
:10277C0040BF70477047C04601B40248844601BC54
:10278C00604700BF95110010100000000000000011
:10279C00000001000000000000000000000002002A
:1027AC00000000000000000000000300000000001A
:1027BC00000000000000FF000000000001B54868A8
:1027CC0001318E460047704609380149884701BDE2
:1027DC00350A00100000000000000000000000009E
:1027EC000000000000000000480200200000000073
:1027FC00503300004C3300005433000052330000BF
:10280C004D5300004D43000053340000433400008E
:10281C00651E00105D1F0010B11E0010711F00100E
:10282C000000000000010000004004400000000017
:08283C00000000000000000094
:04000005100001E9FD
:00000001FF
