:020000041000EA
:1000000000B5324B212058609868022188439860DF
:10001000D860186158612E4B002199600221596106
:100020000121F02299502B49196001219960352056
:1000300000F044F80222904214D00621196600F024
:1000400034F8196E01211966002018661A6600F04E
:100050002CF8196E196E196E052000F02FF8012189
:100060000842F9D1002199601B49196000215960AB
:100070001A491B48016001219960EB211966A021F2
:10008000196600F012F800219960164914480160C1
:100090000121996001BC002800D000471248134993
:1000A000086003C880F30888084703B5996A0420EC
:1000B0000142FBD001200142F8D103BD02B5186610
:1000C0001866FFF7F2FF186E186E02BD00000240BE
:1000D000000000180000070000035F00212200005C
:1000E000F4000018222000A00001001008ED00E03C
:1000F00000000000000000000000000074B24E7A12
:1001000000200420F7010010C3010010C5010010F9
:10011000C1010010C1010010C1010010C101001097
:10012000C1010010C1010010C1010010C701001081
:10013000C1010010C1010010C9010010CB01001065
:10014000CD010010CD010010CD010010CD01001037
:10015000CD010010CD010010CD010010CD01001027
:10016000CD010010CD010010CD010010CD01001017
:10017000CD010010CD010010CD010010CD01001007
:10018000CD010010CD010010CD010010CD010010F7
:10019000CD010010CD010010CD010010CD010010E7
:1001A000CD010010CD010010CD010010CD010010D7
:1001B000CD010010CD010010CD010010CD010010C7
:1001C00000BE00BE00BE00BE00BE00BEEFF3058054
:1001D000103800BEF2EB88719C5A0010CC5A001007
:1001E0003802001090A31AE71E481F49086006C88D
:1001F00081F3088810471D480068002801D019487D
:10020000F3E70DA40ECC002902D000F012F8F9E7B4
:100210001749184A002000E001C19142FCD116495B
:100220008847164988471649884700BEFDE701C937
:1002300001C29A42FBD37047CC5A0010C000002084
:10024000C0100020CC6A0010000004200000042030
:10025000CC6A0010001004200010042000000000F0
:10026000704700000000000008ED00E0000000D032
:10027000C0100020882100208924001015040010DF
:1002800081240010F8B5C0460448054B10B58342E0
:1002900003D0044B002B00D0984710BDC0100020A5
:1002A000C01000200000000006480749091A8B1002
:1002B000C90FC91810B5491003D0044B002B00D04A
:1002C000984710BDC0100020C010002000000000A2
:1002D00010B5074C2378002B09D1FFF7D5FF054B4C
:1002E000002B02D0044800E000BF0123237010BDA2
:1002F0004014002000000000EC550010054B10B524
:10030000002B03D00449054800E000BFFFF7CCFFF5
:1003100010BDC0460000000044140020EC55001041
:100320007047C04610B5040090B0002004F022FAD7
:10033000002801D110B010BD002004F035FA0028CB
:10034000F8D040226946200004F03EFA69460200D7
:10035000200004F0C7FA200004F088FA002002F020
:100360004DFB01F023FA00294ED0FA22002392001F
:1003700001F08EFD04000CE0FA220023920001F04F
:1003800087FD001B31280FD801200021404202F0D8
:1003900039FE01F00BFA0029EED1FA21890001F0B3
:1003A00039FD001B3128EFD9012002F027FB01F0B5
:1003B000FDF9002922D0FA220023920001F068FD05
:1003C00004000CE0FA220023920001F061FD001B02
:1003D00031280FD801200021404202F013FE01F025
:1003E000E5F90029EED1FA21890001F013FD001B87
:1003F0003128EFD9002002F001FB9BE7FA218900A8
:1004000001F008FD0400EAE7FA21890001F002FD8D
:100410000400BEE710B502F0D9FA002002F080FD1A
:1004200002F042F901200021404202F0EBFD00F011
:100430004FF9F7E7FA22024B92001A607047C04664
:10044000D80F0020FA22014B1A607047D80F002005
:10045000014B024A1A607047D80F0020C4090000FF
:10046000FA22024B92001A607047C046D80F002053
:10047000F0B5C64600B54B7905000C0088B0042BDA
:1004800007D00026022B13D0300008B080BCB8463D
:10049000F0BDCB78012B21D00026022BF4D14B7874
:1004A000012BF1D101AA137004F086F80600EBE7E6
:1004B000CB78012B3AD0022BE6D14B78022B4CD0D3
:1004C000012BE1D18B782B495B005B5A01AA138089
:1004D0002100022304F070F80600D5E74F78012FC1
:1004E00032D00026022FCFD101AB98461222002134
:1004F00003A801F097FF43461F806B461E4A1E81EA
:10050000DA800A236B441A805E8012231B4A6B44F4
:100510001A805E8016236B441A805E8042461A233E
:100520002100280004F048F80600ADE74B78012BC5
:10053000AAD18B78124901AACB5C21001370012348
:1005400004F03AF806009FE70E4B01AA1B680193DE
:10055000042304F031F8060096E701AA11000A4BC3
:1005600041CB41C108232100280004F025F80600F2
:100570008AE7C0467C21002044ACFFFF80BBFFFF20
:100580007C200020DC0F0020EC55001010B54B79CA
:10059000022B1DD00020042B00D010BD4B78012B66
:1005A000FBD1CB78012BF8D1CB798C791B0223437B
:1005B000042BF2D151781378907809021943D3783B
:1005C00000040143154A1B060B4301201360E4E7B6
:1005D0004B780020012BE0D1CB78012B11D0022BDE
:1005E000DBD1CB798C791B022343022BD5D15378F5
:1005F00010788A781B020A490343520001208B526B
:10060000CBE7CB798C791B022343012BC5D100208A
:100610008B781056034AD0540120BEE7DC0F00202F
:100620007C2100207C2000200B79012B01D00120AF
:1006300070478B78002BFAD1FA22024B92001A6095
:10064000F5E7C046D80F00200B798A78012B0CD033
:1006500000210F4B1960002A05D00E4B9B18013B5F
:100660001A780D4B1A7001207047002A0CD01921FE
:100670000A4B19600021064B1960064B9B18013B81
:100680001A78054B1A70EEE7014B1A60EBE7C0468B
:1006900068210020F455001084210020D80F00208C
:1006A00070B5084D0C000A000020290003F066FB1D
:1006B000054B290018602200002003F06FFB012089
:1006C00070BDC046A820002068210020012070478E
:1006D00010B501F06BF8002916D0FA220023920021
:1006E00001F0D6FB0B4A0C4913680968C01A88420E
:1006F00009D30A4C5B182078136002F07FF90122BD
:1007000023785340237010BDFA21890001F082FB49
:10071000E8E7C0466C210020D80F00208621002089
:1007200000487047E0570010004870475C560010C2
:10073000F0B5DE4657464E464546E0B58DB000283A
:100740002DD0032837D0062800D983E0454B800000
:10075000C558280004F096FE0400202800D977E050
:10076000002800D178E0404B98469A1C0023E95CB1
:100770000133118002329C42F9D8C02301349B001E
:1007800064001C43A3B2039343464046039A1A8075
:100790000DB0F0BCBB46B246A946A046F0BD324BF8
:1007A0000222981C98462F4B196801F041FEC12384
:1007B0009B000393E8E72D4B002B3FD004AD1021A5
:1007C000280002F0F1F88446102801D910239C4635
:1007D000002841D063469A00C02302329B00134395
:1007E0009BB203930F22002691461F4B0196984619
:1007F0009C1C009508AB18001D4F62CF62C04D468F
:100800003968029001600099194E087805405D5DD5
:10081000834665801D0007CE07C53D68029A1560B6
:100820005A461111595C019A218000990132013117
:100830000192009104346245DDD3A5E70D4B0E4AC9
:1008400004AD049205930D4B039308239C46C9E71E
:10085000202485E700209BE7094B0393024B984631
:1008600092E7C046E00F002020160020A9290010C2
:10087000F855001089ABCDEF012345672203000036
:100880000203000010B54024084A83009A18126839
:10089000C0005440C0222240054CA44663441A6064
:1008A000044B9C466044416010BDC04604C00140FA
:1008B00004D0014000400140034BC0009C4660440E
:1008C00043681F2018407047004001400B4B8000D8
:1008D0009C46604400290ED100230431002A00D137
:1008E0001900802203685201594094460C23604449
:1008F0000B40036070470C210823EFE704C0014060
:10090000064BC000C3181B6809045940C0239B0252
:100910001940034B9C46604401607047044001400D
:1009200004500140064BC000C3181B68090359401E
:10093000C0239B011940034B9C46604401607047F3
:1009400004400140045001400123D0228340402153
:10095000120693629361094A83009A181268C000D4
:100960005140C0220A4006498C4663441A60054B38
:100970009C460523604443607047C04604C0014064
:1009800004D00140004001408023DB051868000FBF
:100990007047C0460FB400B5084883B001F0D6FEDA
:1009A000049B002B07D005A91800019101F04EFD12
:1009B000034801F0CBFE012001F060FDF457001068
:1009C0000458001070B5EFF3108C72B60D4D2B6803
:1009D000002BFCD0BFF35F8F0724CB08C618C05C88
:1009E00001230C40A3401C000440034207D10343F1
:1009F0003370BFF35F8F2C608CF3108870BD1000D4
:100A0000FFF7C8FF2C0100D0F8B54746CE46884610
:100A100080B5EFF3108C72B6214D2C68002CFCD001
:100A2000BFF35F8F9A422CD8D4080727055D0619BB
:100A300001241740BC402C421FD0072101278946C2
:100A400009E0D408055D06194C4639001440A14060
:100A50000C00294211D001329342F2D201204042CF
:100A6000BFF35F8F00220E4B1A608CF310880028B2
:100A70000FDBC0BCB946B046F8BD2C431000347043
:100A8000EEE7BFF35F8F00232B608CF3108801200B
:100A900040424346002BECD00898FFF77BFFC0464E
:100AA0002C0100D0044A1078431CDBB2172B00D96C
:100AB000102313707047C046FC0F002000B5054B93
:100AC00083B00100009318221F230348FFF79CFF07
:100AD00003B000BD085800105C1A00200021044B30
:100AE000044ABFF35F8F02C39342FAD17047C046F6
:100AF000000100D0800100D0054B064A1360064A71
:100B0000136053609360D3601361536193617047C6
:100B10008080808000E400E004E400E01F231840AF
:100B20001E3B8340002905D0C021044A4900535090
:100B300013607047802201498B50FAE700E100E022
:100B400070B50D00EFF3108672B60F4A1368002BD4
:100B5000FCD0BFF35F8F0D4B10309B6884001B5996
:100B60000B4A934203D09D4201D001F075F8074B28
:100B70009B681D51BFF35F8FBFF35F8F0022024B55
:100B80001A6086F3108870BD240100D000ED00E0EB
:100B9000CD010010F0B557464E46DE464546E0B55D
:100BA00085B0060002911700EFF3108B72B6674A0A
:100BB0001368002BFCD0BFF35F8F0025644B5D579B
:100BC0009A46002D00DAA4E06B00624C03935B1997
:100BD0009B009846A146C1444B4652469B7910362D
:100BE00013705D4BB2009B68019299580B1B2F2B21
:100BF00034D95A4B994200D0A4E0039B584A9C46F2
:100C0000584B6544AD006353434602336519E418FD
:100C1000554B0121043B1B1B1B055B0D13436B80D4
:100C2000524BEF71AB80FF23AB71029BAB604B4625
:100C30000B431900484B019A9B689950BFF35F8F93
:100C4000BFF35F8F0022414B1A608BF3108805B011
:100C5000F0BCBB46B246A946A046F0BD01200A0042
:100C60008243D379BB422FD845464E4613004049B4
:100C70001B1B5B415943090D3A4B63533A4B0235F9
:100C80006519043B5B1B1B05354D5B0D2B437380C6
:100C90000426B446E0444444131F1B1B4C46A17178
:100CA00002991B05A16049465B0D2B43A380314B84
:100CB000E77101431360BDE75800C0188000201899
:100CC000C679BE422BD902000623D356002BF3DA95
:100CD000101D82462848804604267642B446E144E8
:100CE00050464E46361A3005400D824656461C4840
:100CF000957106439680039A944665441D4AAD005B
:100D0000641922604246A371029BA280E771A3602E
:100D100090E700F0A1FF002553465D5754E7101DF2
:100D2000824690884005001584464046D444664675
:100D300004302018301AE0260005400D36023043FA
:100D40008046C9E700F088FF57E7C046240100D07D
:100D5000852100200010002000ED00E0CD010010F2
:100D600000E0FFFF00A1FFFF3010002001BDFFFFEA
:100D7000AAAA00000148804701BD0000F0B5DE4688
:100D800057464E464546E0B50C0083B0EFF3108958
:100D900072B65F4A1368002BFCD0BFF35F8F5D4BC8
:100DA0009A68030010339F00D5595B4A90469542DC
:100DB0003DD0A5424ED0594EAA1B2F2A37D8584AAB
:100DC0009346126894460122614692468240114041
:100DD0001F22104052468240924601918022514685
:100DE00058468150BFF35F8FEFF305829346002A88
:100DF00032D101232A009A439068844208D17CE0D2
:100E00004B005B189B00F318986884422ED01A00A0
:100E1000062151560029F3DA84424DD0019B002B64
:100E20001FD0C02251463E4B520099501960394B99
:100E30009B68DD51BFF35F8FBFF35F8F0022344BA0
:100E40001A6089F3108803B0F0BCBB46B246A946CD
:100E5000A046F0BD1500EAE79342CAD000F0FCFEC0
:100E6000C7E7802351462E4AD150E0E70621595664
:100E7000002922DB4A005018800034188046A06800
:100E80009860E079D871062020569871002825DBFB
:100E9000A488F01A6405241544440019E0240005D0
:100EA000400D24022043988052181E4B9200B61821
:100EB0001A781970B271B1E71300594600290FD1A1
:100EC000FF3191711849918016490A789A71174A31
:100ED0009B1B5B415A43120D0A709FE71448E2E7DF
:100EE000144A1549D21A083A5002400D014399801C
:100EF000124952080A43DA8090E70621515613003E
:100F00000029B7DA5A46002AEAD14546DCE7C0464E
:100F1000240100D000ED00E0CD0100100010002001
:100F200000E100E08521002001BDFFFFAAAA00002A
:100F300001BD00003A10002000F0FFFF00F8FFFFA5
:100F400070B501240443EFF30581EFF3108C72B602
:100F5000214A1368002BFCD0BFF35F8F1F4B0500A5
:100F60001F4AED1A6D416A43120D1E4D8900AE688D
:100F700052B27658A6421CD00621595691421CD036
:100F800012215956914222D01E215956914220D009
:100F90002A2159560324914210D0134B19781A7004
:100FA0008171BFF35F8F00220B4B1A608CF31088A6
:100FB00070BDAB680D4C5C50EFE70024610009196F
:100FC00089005B18FF21997109499980E5E701249F
:100FD000F4E70224F2E7C046240100D0001000200C
:100FE000AAAA000000ED00E085210020CD0100103C
:100FF00001BDFFFF024B9C466144890001607047C0
:1010000040000034F8B5134D134E2C00FF27B542B5
:101010001ED22368002B0FD0FFF744FD01002800EB
:10102000FFF7E8FFA780BFF35F8F0834B4420FD209
:1010300023682500002BEFD1FFF734FD01002800C5
:10104000FFF7D8FF2771BFF35F8F0834B442EFD3A7
:10105000F8BDC046B8100020C010002010B5040034
:10106000FFF720FD01002000FFF7C4FFFF232371DD
:10107000BFF35F8F10BDC04610B504000120FFF71D
:101080001DFD044B9C46604480002060BFF35F8FD1
:1010900010BDC046400000340A4B1968EFF31080C1
:1010A00072B60A68002AFCD0BFF35F8F1B68BFF3DB
:1010B0005F8F00221A6080F3108840BF002000215B
:1010C0007047C046A4200020F0B5DE4657464E4685
:1010D0004546E0B585B0EFF30582032313409A003F
:1010E00011000392B64A5258904601229A40B54BDD
:1010F00091461A6031E043469B881BB2002B00DB0F
:101100009DE043469B79002B00D0EFE04346082446
:101110001C5F002C00DA17E14246526963009446D6
:101120001B19DB0063449C68DD68631C00D113E17C
:10113000A54B03999C4661449A6A0B69A01A9B1AB5
:10114000984200D20C61A04800F028FB241A8D417F
:10115000002D00DDF8E000D12EE14B469A484363B4
:10116000434608229B5E9A46002BC4DB42465269E6
:101170005B0093465344DB009B445B469E68DF68FC
:1011800000F00CFB801BB9410029B4DB002F00DA12
:10119000EDE05B468D4A1B69934200D1E0E0414699
:1011A0005A460820085E5288000410435A46516986
:1011B000984704000D0023002B4300D1D7E0002DF9
:1011C00000DBF0E0361BAF4134003D005B469C6025
:1011D000DD600021595E00298DDB43465B692200FA
:1011E0009C462B0048004018C00060448668C768D1
:1011F000921BBB41002B00DA7DE7434666460200A6
:101200000094019519810CE07B00DB19DB00F318D9
:10121000009801999C68DD68001BA941002904DB46
:101220001A000023D75E002FEEDA5B461F8053467C
:10123000138043469B881BB2002B00DA61E74346CC
:101240001A69EFF3108172B61368002BFCD0BFF35C
:101250005F8F43469B8842461BB29A4601235B42FE
:1012600093801369BFF35F8F00221A6081F31088A7
:101270005346002B00DA44E743465B699C4608234B
:1012800043449B4653465F0043465744FF000822B1
:101290009A5E67445E46BC68FD68002A19DB3B0025
:1012A0000094019567469C4604E01E000023F25E10
:1012B000002A0BDB0098019953009B18DB00FB18F8
:1012C0009C68DD68001BA9410029EEDA6346BC4634
:1012D0001F005346338000217B5E3A809A46002BE4
:1012E000D0DA43469B79002B00D10FE7002342461A
:1012F0009371434646460821595E08364B1C23D05D
:1013000047468C46556902E006004B1C17D04B003F
:101310005B18DB00E8180A00E95E43881BB2002B6B
:10132000F2DA01235B42DC178360C4606245ECD0D3
:1013300031803B89944603803A814B1CE7D1644657
:10134000B846002C00DBE7E640BF05B0F0BCBB466A
:10135000B246A946A046F0BD6B1C00D0E8E6F2E616
:101360005B465C69200023699847002821D15B46D1
:1013700042461B8813811269EFF3108372B611681D
:101380000029FCD0BFF35F8F4246594652880A803D
:101390004246514651801269BFF35F8F00211160B0
:1013A00083F31088A7E6084800F0F8F924184D41A7
:1013B0000CE765682468FEE6002C00D1CDE6C3E7A3
:1013C000882000203C70054000400540C9100010F6
:1013D00070B52E4C2569002D04D00A212C48FFF74A
:1013E00009FE70BD2B4E0321300000F0CDF9E66000
:1013F000FFF758FB284B03229C46D02322701B0684
:101400001B6801216370254B6044A3600F2380009B
:1014100020610220638063694942A1801980023102
:10142000198647311D83585218315A5275325C392A
:1014300099521832013199521832013199521832A9
:1014400001319952083518329D52023118329952A1
:101450001832013199521832013199521832013142
:1014600099521832013199521832013199520C4B6C
:101470000C49DC6001303562FFF762FB012103207B
:10148000FFF74CFB084B1D60A7E7C0464810002043
:10149000A42000200040054040000034FFFF100061
:1014A00088200020C91000103860054000487047AF
:1014B00048100020F8B51F0008AB1B780400160088
:1014C000002B07D100F072F932003B00121A8B4159
:1014D000002B4CDB2269EFF3108072B61368002BEF
:1014E000FCD0BFF35F8F62690223E15E94464B003C
:1014F0005B18DB006344002901DB1A8862802269E3
:10150000BFF35F8F0025156080F31088002930DB62
:10151000069A9E60DF601A61079A5A615A88013202
:101520005204520C161C002A1FD0B0B20A045E806E
:1015300010432669EFF3108572B63268002AFCD09A
:10154000BFF35F8FA2881A80A1802369BFF35F8FEA
:1015500000221A6085F31088074923788C460132EF
:101560009A40E36863441A60F8BD0126DDE7002075
:10157000FAE701204042F7E73C20000070B5C6467C
:10158000010000B50469EFF3108C72B620680028E2
:10159000FCD0BFF35F8F02200D5E48696C0080466F
:1015A0006419E4004444002D01DB20884880086968
:1015B000BFF35F8F002606608CF31088002D30DBB0
:1015C000E36063880598013320615B0406985B0C37
:1015D000A26060611A1C002B21D090B22B046280A3
:1015E00018430A69EFF3108672B61368002BFCD01B
:1015F000BFF35F8F8B8823808D800B69BFF35F8F74
:1016000000221A6086F310880B7801329A40CB686A
:1016100005498C4663441A6040BCB04670BD012247
:10162000DBE701204042F7E73C20000010B543898A
:101630000A14934233DD53009B184269DB00944641
:1016400004696344EFF3108C72B62268002AFCD060
:10165000BFF35F8F5A88090494B2090C8A4208D0FC
:101660000369BFF35F8F00221A608CF3108800209B
:1016700010BD8022120214435C8001230269837131
:10168000BFF35F8F002111608CF310880549027849
:101690008C469340C268012062441360E8E7002052
:1016A000E6E7C0463C200000F0B5CE46474680B590
:1016B00004000D0083B0EFF30587002F3BD12F4EC0
:1016C00081463378F26804339B00916A9B58421A32
:1016D0005B1A9A420ED320BF294A0020536AAB42BC
:1016E00003D3926A013091453CD803B0C0BCB946DF
:1016F000B046F0BD00F05AF822002B00121A8B41C0
:10170000002B26DB1F4B2200009330002B0001979B
:10171000FFF734FF011E1CDD194BA8465A6A95429B
:1017200025D920BF3000FFF781FF154A0020536AFA
:101730009845DAD8D5E7124A0020536A8B42D4D3B1
:10174000926A0130A242D0D2581A421E9041C0B2D1
:10175000CBE70B4A0020536AAB42C6D3926A012002
:101760009145C2D9E81A421E9041C0B2BDE79B6ABA
:101770009C42D7D99542D5D1D3E7C0464810002026
:10178000004005409910001010B5024A0248FFF7CA
:1017900019F910BD24580010601A00200300416A96
:1017A0000A00986A596A8A42FAD17047034B596A0B
:1017B0000A00986A596A9142FAD170470040054080
:1017C00070B504000D00124A536A1900966A536AF4
:1017D0008B42FAD13000190024184D41AB4211D888
:1017E0000ED02B000A494A6A9A42FCD307D1084A14
:1017F00002E0516A994202D1916AA142F9D370BDC7
:10180000A642EED9012301246442E5175B42E9E7D1
:1018100000400540F8B5040006200D0000F076F900
:10182000002842D0364B3749E21853425A418023B0
:10183000DB039C469205344B62441A60334B1A60BA
:1018400010000B689843FBD12D4B8021E3185A42BE
:1018500053412F4A5B0049009952062000F056F987
:101860002900C00000F0D6FA0130C3091ED140277C
:1018700001226262A362266BF30722D4E36A254B3E
:101880000620E51800232B60266300F03FF939009D
:10189000800000F0BFFA7022E36A5A407E231340B2
:1018A0002B601D4B23630323A364F8BD1B4A9342A3
:1018B0001ED900231A4A1B4F6262A362266BF307EC
:1018C000DCD5194B144AE3181A60656AA26A06202F
:1018D000AD01AD1800F01AF9144900F09BFAAD0201
:1018E0000100280000F096FA0021FFF769FFC5E724
:1018F0004006800E9F011A003F180300B9E7C0465A
:101900000080FCBF08C0004000E0004000F0004044
:10191000702100202C10000001030000FEFF0000D9
:10192000FFFF0000C0FF3F00303000004E0E0000FF
:10193000F8B5DE464E4657464546E0B58B460500AF
:101940000A991800160000F065FA0A9B6C001F0245
:10195000324B64199C46A4006444636881469F42EC
:1019600000D967602B1FDBB29846012B30D9C0230A
:1019700080229B01E31812011A60294BAD005959CE
:101980009A4600291BD1226876017240E026802306
:10199000164042465B01E3181E60012A30D98023BD
:1019A00080229B01E31812011A6053464A46676081
:1019B0005A51F0BCBB46B246A946A046F8BD58698C
:1019C00000F028FA431C5800C0180338FDD2DAE7AB
:1019D0005B46012BCBD1C02303229B01E3181A6085
:1019E000023AA3681A42FCD0E023226876015640EE
:1019F0001E4080230A4A5B019246E3181E60AD0038
:101A00005A462168514003220A401A6001225B466F
:101A10009A40A3681A42FCD0C1E7C046008000404B
:101A2000641A0020F0B546464F46D646C0B51F00A2
:101A3000344B44009C462418A400644463688846E0
:101A40001600FF2B02D880235B006360031FDBB20C
:101A50009A46012B30D9C02380229B01E318120142
:101A60001A60294B85005959994600291BD12268D3
:101A700076017240E0268023164052465B01E3184F
:101A80001E60012A30D9802380229B01E3181201B5
:101A90001A6080235B0063604B465F51E0BCBA462E
:101AA000B146A846F0BD586900F0B4F9431C58008F
:101AB000C0180338FDD2DAE74346012BCBD1C0234F
:101AC00003229B01E3181A60023AA3681A42FCD071
:101AD000E0232268760156401E4080230A4A5B01BB
:101AE0009146E3181E60850042462168514003225A
:101AF0000A401A60012342469340A2681342FCD078
:101B0000C1E7C04600800040641A0020014B8000FD
:101B1000C0587047641A0020F8B5040020481D0022
:101B200017000E0000F076F90100380000F072F99D
:101B3000069B29041B0319432368002B1EDB194B4A
:101B4000194DE21853425A4180235B019C4612030F
:101B5000164B62441A60164B1A6017002B689F439D
:101B6000FBD1144B2660E2182123A0601360236888
:101B7000002BFCDA0823E1601360F8BD3F232268E4
:101B80001340B342DBD1A3681B051B0D8342D6D1A2
:101B9000EE22E368D20213408B42D0D1EDE7C0467B
:101BA000001BB7000040FDBF08C0004000E000403F
:101BB00000F00040043000008023024A9B000B43E9
:101BC000D362704700800540142310B501001888C7
:101BD00004331B88984710BD162310B501001888E0
:101BE00002331B88984710BDF8B54746CE4680B5EE
:101BF0000F1E19D014239946043304000025012632
:101C000098464B461888434621681B88984701C46C
:101C1000431E9841013540420640AF42F1D13000A9
:101C2000C0BCB946B046F8BD0126F8E7AA23064A6B
:101C30001B0113602F230549D360054B19605368BE
:101C4000002BFCDA7047C0460040024000B0FA00AA
:101C5000006002407047C04610B50148FEF79AFE8A
:101C60004858001070B5074D074EB54209D2002400
:101C7000013E761BB60808CD984723000134B342D5
:101C8000F9D170BDA8550010E4550010054B064A67
:101C900006491A60064A074B1A6010000B68984301
:101CA000FBD1704700E00040BFCDFBFE08C0004004
:101CB000FE7F3C0000F00040044BDB6C002B03D1A6
:101CC0008022034BD2021A607047C04600001150B8
:101CD0004C201150044A054B1A60054A1368DB0179
:101CE0008033FBD17047C046FFFFFF0100F000408A
:101CF00008C000404022034B9A675A671A67DA66A9
:101D00007047C04600F0014010B5FEF7E7FE10BD79
:101D100070B5044D044C2800C022A16800F088FB77
:101D2000A56070BD0000002000ED00E0002310B5AC
:101D3000294C82B0A367FFF779FF0122274B1A6075
:101D4000636C012BFCD10322254B1A60224A936B52
:101D5000012BFCD1013300930121224A2248043394
:101D6000FFF7DAFE052301210093204A2048FFF700
:101D7000D3FE0022022104201E4BFFF753FE002257
:101D8000012105201C4BFFF74DFE002200210720FA
:101D90001A4BFFF747FE002200210820174BFFF7E0
:101DA00041FE8023DB000093002200210920134B19
:101DB000FFF7BEFD0022104B00210620FFF732FE88
:101DC0000420FFF7A3FE0E4900F024F801000020D4
:101DD000FFF7F2FE02B010BD008000403CB00040B2
:101DE00030B00040002F685900800240008C8647C8
:101DF00000C00240001BB70040597307006CDC02B2
:101E000040420F0001480421014B18476010002098
:101E1000E91B0010114A936F9B0813D2106651669C
:101E2000002905D0FFE7FFE7FFE7516F106F70470C
:101E300004B5002801D00020C04303F075FB002149
:101E400004BDC046F0B5146E556E576F166FFFF7A0
:101E5000E5FF1466556657671667F0BD000000D0B1
:101E600094464A4A926F9208624601D228E0C046E0
:101E7000F0B5464E346E756E776F366F00F020F811
:101E80009446424A14665566576716676246F0BD27
:101E900094463E4A926F9208624601D254E0C04690
:101EA000F0B53A4E346E756E776F366F00F04CF8C1
:101EB0009446364A14665566576716676246F0BD03
:101EC000002B24DB11D000293EDA00B5C943404283
:101ED00000D1013100F038F8C943404200D101314E
:101EE000DB43524200D1013300BD002AEBD1002870
:101EF00001D1002905D00020C90FC90701D1C04375
:101F0000410800B503F008FB0022002300BD00B526
:101F100000290ADBDB43524200D1013300F014F800
:101F2000C943404200D1013100BDC943404200D104
:101F30000131DB43524200D1013300F005F8DB43AD
:101F4000524200D1013300BD002923D1002B18D10A
:101F5000002A0CD0BC460D4F38667A66002100235B
:101F6000FFE7FFE7FFE77A6F386F674670470028A3
:101F700001D00748010000B503F0CEFA002200238B
:101F800000BD02000B00002000217047000000D0BF
:101F9000FFFFFFFF002B00D0BFE0130C28D1002A69
:101FA000E7D080B4114F39667A66FFE7FFE730B4B7
:101FB000040C7B6F396F1B0423433B667A66FFE793
:101FC000FFE7FFE7C04684B27B6F3D6F1B042343EE
:101FD0003B667A66FFE7FFE7C04600232C042D0C22
:101FE0007A6F386F00196941B0BC7047000000D0AB
:101FF000F0B594460025140E01D112020835140FD5
:1020000001D112010435940F01D192000235D40F91
:1020100001D152000135D40B0134254F7C66254C8B
:102020003C660E0C93B2FFE7FFE7FFE73C6F6643A9
:10203000360C7703BE467343DF0B5B04C01AB9410D
:10204000130C7343DB18C91ACE086643360CB6442A
:1020500093B273431F0F1B01C01AB941130C734392
:102060001F0B1B05C01AB941860D8F023E43664304
:10207000360C092D24DB520A7243801A7703460A74
:102080006643360C16235B1BDE40DF40BF196446F7
:102090006643821B7046043506330100D940A840D0
:1020A000C01900D30131A24206D20023F0BD0000C6
:1020B000000000D0FFFFFFFF121B0130F3D3F1E758
:1020C00009277F1BFE406446A2B27243801A00D2E9
:1020D0000139220C7243130C1204821A99410B002D
:1020E0007046043513370100F940A840801900D329
:1020F0000131002B02D1A2420AD2F0BD013000D33F
:102100000131121BFAD2013BF8D1A24200D2F0BD3C
:10211000013000D30131121BF7E7F0B51C0C00D0E1
:1021200080E00CB400251C0A04D11B02160E3343B8
:10213000120208351C0B04D11B01160F3343120188
:1021400004359C0B04D19B00960F3343920002355B
:10215000DC0B02D192185B4101351C0097186441D9
:102160000134464F7C66464C3C660E0CFFE7FFE7A9
:10217000FFE7C0463C6F6643360C7703BE4697B216
:102180007743C01B00D20139C01B00D201399FB276
:102190007743C91BC91B170C77437E04FF0B801BB9
:1021A000B941CE086643360C0C2D33DBB644120B16
:1021B0001F053A431B0B97B27743C01B00D201396E
:1021C0009FB27743C91B170C77433E043F0C801B1B
:1021D000B941860D8F023E43664329277F1BFE408F
:1021E0000C3D7746AF40BF1930BCA2B2ABB27243D0
:1021F0007343801A9941220C7243130C1204801A03
:10220000994102000B000137001BA941F9D2781E49
:102210000021F0BD0C277F1BFE4077467F0BAF40AF
:10222000FF19E0E700245D1C07D0144F7D66396676
:10223000FFE7FFE7FFE7FFE73C6F95B29EB265431C
:102240006643401BB141150C1E0C654366433604C2
:102250002F0C3E432D04401BB141994204D2020091
:102260000B0020000021F0BD01D19042F7D3801A6D
:10227000994101349942F2D3F6E70000000000D002
:10228000FFFFFFFF132370B51D78012D19D014DD5A
:102290001E48FFF7A1FC06001D48FFF79DFC1D4CE2
:1022A00080223100200000F0C3F8022D06D01A4829
:1022B000FFF78AFC194B186070BD164C184BA364CD
:1022C000F5E7174B134C23606360A360E360236161
:1022D0006361A361E36123626362A362E3622363D8
:1022E0006363A363E36323646364A364E3642365B8
:1022F0006365A365E36523666366A366E366236798
:102300006367A367E367A364D1E7C0465344000053
:1023100053460000401200204C330000A020002053
:102320002523001007B5604601880A0A0230DF2A1B
:10233000FAD1C9B2820804D302884088000410434D
:1023400000E00068014A5050039007BD4012002091
:1023500051434343C9188C46110C83B24B4310B40C
:10236000040C614392B280B2504362431C041B0CC4
:10237000001910BC59411304120CC018514161449A
:1023800070470000132310B512481C78FFF724FC97
:102390000100012C0AD003DD80220F4800F048F82C
:1023A0000E48FFF711FC0E4B186010BD0A4C54226A
:1023B000200000F03DF80B4B6365A365E3652366E1
:1023C0006366A366E36623676367A367E3672362C5
:1023D000E361E5E753460000401300204C33000062
:1023E000A0200020E923001007B5604601880A0AF2
:1023F0000230DF2AFAD1C9B2820804D302884088A9
:102400000004104300E00068014A5050039007BDEB
:102410004013002001480421014B18477010002090
:10242000E91B0010014B1B681847000070100020CA
:10243000014B5B68184700007010002010B50028A1
:1024400000D110BD00F036F9FBE7C04610B5094ACF
:102450000300146884B0002C08D0012200910648C3
:10246000524203A9A047012004B010BD00F06EF94C
:102470000020F9E7F01E00203D24001000BEFDE71B
:1024800010B5FFF7FBFFC04670B5FFF7EBFB074D3C
:10249000074EB54209D20024013E761BB60808CD8E
:1024A000984723000134B342F9D170BDE4550010C0
:1024B000EC550010030010B5080011001B68984788
:1024C00010BDC046F0B546464F46D646C0B5437D22
:1024D00080460E001700002B46D0002A3FDD4B1E21
:1024E0009946244B0125002400209A460DE04B46D6
:1024F0001B5D0D3B5A425341325DDBB20A2A0BD0C1
:102500002B00013401359F421ADD002CEFD14346E8
:10251000325D1B7D0A2AF3D1002BF1D1A04204DAEF
:102520004346211A1B6830189847434650461B689B
:1025300002219847013428002B0001359F42E4DC3A
:10254000874204DD4346391A1B6830189847F6194C
:10255000013E33780D3B5A42534142461375E0BC6D
:10256000BA46B146A846F0BD03681100300098474E
:10257000F5E7C046F4580010F0B5DE4657464E4623
:102580004546E0B585B017001C0006000D00FFF7BA
:102590000DF90023314A12184B41002B59DB304909
:1025A00008008A4602F0D0FF01906B1C03D1300076
:1025B00002F068FF0500002C26D12A4B98462A4BD2
:1025C0001C68002C15D0002F21D1284F02E024696F
:1025D000002C0ED02368002BF9D03B68002B01D0D3
:1025E000A342F4D120002A003100C0472469002C06
:1025F000F0D1019B002B28D1280005B0F0BCBB46D0
:10260000B246A946A046F0BD194B9846D7E7174BEE
:10261000994602ABDF1D0A239B4602E02469002C89
:10262000E7D02368002BF9D04B461B68002B01D064
:10263000A342F3D12A0031002000C0475B460122AB
:10264000390020003B70C047E8E7504602F054FFD5
:10265000D2E70122074B5242A1E7C04640420F0099
:10266000B8100020B5240010D01A0020E81A00206D
:10267000C5240010FFFFFF7F0A4A1368002B05D115
:102680000CE01A001B691032002B07D09842F8D1D9
:10269000002902D103691360016170470029FCD051
:1026A0001060FAE7D01A002010B500F037F90120C9
:1026B00010BDC046F0B5CE46474680B583B06B46E8
:1026C0000600DD1D2870FFF771F800231A4A121862
:1026D0004B41002B2BDB19490800884602F034FFE0
:1026E000174B81461C68002C14D0164F02E0246959
:1026F000002C0FD02368002BF9D03B68002B01D0B1
:10270000A342F4D1200001222900FFF7DBFE246957
:10271000002CEFD14B46002B05D1300003B0C0BCDC
:10272000B946B046F0BD404602F0E6FEF5E70122AC
:10273000054B5242CFE7C04640420F00B810002080
:10274000D01A0020E81A0020FFFFFF7F70B50400B8
:1027500002F098FE01230100050001222000FFF78E
:102760000BFF084B1C68002C06D06368002B05D0BB
:1027700098472469002CF8D1280070BD2469002CEA
:10278000F3D1F9E7D01A0020F0B50D1E15DD0E4B80
:102790000D271A680D4B4519D31859424B410C4966
:1027A0005B005E5E20210478A64207D0936919423F
:1027B000FCD101301460A842F5D1F0BD93691942F3
:1027C000FCD11760F2E7C046782100200080FCBFF2
:1027D0007021002030B504000D1E24DD00201021E2
:1027E0001A4B013C1A689369194217D10130936959
:1027F0001942FCD1136823548542F4D1144B1B6851
:10280000002B0AD050239363516B183B0B401149A6
:102810008C4662441360002814D030BD0C4B1B68FA
:10282000002BEFD1F7E70A4B1B68002B0AD0502290
:10283000064B1B689A63596B183A0A4005498C4647
:1028400063441A6003204042E7E7C0467821002035
:10285000541A002034100000064B10B51B68002BE2
:1028600006D00021044A12689163044A1068984710
:1028700010BDC046541A002078210020581A0020AC
:102880000822034B19688B691A42FCD17047C04675
:102890007821002070B51B4E1B4B32680500D31801
:1028A0005842434114331C00002D04D0174B1A68C2
:1028B000002A11D070BD154E3368002BFAD00021CC
:1028C00020009563FEF72AF920001149FEF756FA19
:1028D000104B35601D60EDE71D600E4B2000196048
:1028E0000B49FEF72DF901212000FEF717F95022C0
:1028F00033689A63596B183A0A4007498C46634417
:102900001A60D7E7782100200080FCBF541A00200D
:1029100059280010581A0020341000000D4B10B533
:102920001B780D4B0D4C1B780D4B02211B780D4B6A
:1029300000202360FDF7A6FF02210120FDF7A2FF82
:10294000E12120684902FEF765FF01210648FFF7F3
:1029500093FE10BDC05A0010C45A00107821002008
:10296000C85A0010004003408010002070B50C4E83
:102970000D001C003060002A03DB02211000FDF76F
:1029800081FF002C03DB02212000FDF77BFF2900E3
:102990003068FEF73FFF01210248FFF76DFE70BD72
:1029A000782100208010002030B583B005006846F3
:1029B0000C0000F035F8072C00D9082422006946E5
:1029C0002800FFF735FD200003B030BD10B51920F9
:1029D000FDF7BAFFD0238022E1211B0692045A6240
:1029E0000448054B0022186049020123FFF7BEFF8F
:1029F00010BDC0460040034074210020D023802237
:102A00001B069204002801D05A6170479A61FCE7C6
:102A100010B5024800F00CF810BDC0469820002008
:102A200010B508220149FFF703FD10BD98200020D2
:102A300030B5002589B004000922002101A80095C5
:102A4000FFF7F0FC0922002105A80495FFF7EAFC36
:102A50004B236A466846137004A90D2202F044FD18
:102A60001521082220006944FFF7E2FC09B030BDBF
:102A7000F8B500F0EBF90C23184DFF22AB670520E9
:102A80001749FEF787F8174C402200212000FFF776
:102A9000C9FC4027002301262121134A66702783A1
:102AA000A260136063545F316184453963540F4AF7
:102AB0000F496360E2602787A1620B606362E26294
:102AC00002F06AFD80239B052E64EB649023094A83
:102AD000EA508022084B5202DA64F8BD000011501F
:102AE000B5040020F01A002084001050000110509E
:102AF0008000105010D001000020115010B50121AD
:102B00000520FEF70BF810BD10B500220021024889
:102B100000F0BCF910BDC046101B0020044B19701A
:102B2000002904D080219023024A8902D1507047A5
:102B300081210020002011500B785B0602D14B78D8
:102B4000052B00D070478A78014B1A60FAE7C0461F
:102B500000001150F0B5C64600B54B790C791B0248
:102B600088782343CC787F21A4070140C509A20FB0
:102B70004F001400324E7A195201B21890700120A1
:102B80006840507000205B055B0DD0701383D476D5
:102B90008046CA00012D33D02A4884468801624409
:102BA0008446B4446046826040461060002933D0B9
:102BB000254AC90090466246414451603F223F3356
:102BC0009343022C00D15B0020487A19016852011E
:102BD000B218D1601E4ACB18036051405340802286
:102BE00088465201934228D84346A4061C438023BA
:102BF0007F197F011B06F6191C4373681C6011E0E6
:102C000014488446880162448446B4446046826223
:102C100040461060002909D100236D0176197360C8
:102C20000D4BF360012080BCB846F0BD084AC900D6
:102C30009046624641445162C0E7FFF70DF8D3E782
:102C4000F01A002084001050040010508020002052
:102C500000001050800010500001105010B502F01C
:102C60009BFC10BD10B57F200C0020404000E40903
:102C7000110000191A00034B4001C01800F006F9BA
:102C8000012010BDF01A00207F22130010B50B4068
:102C90000A420BD0C9098022580040180649400159
:102CA00040181201002102F06FFC10BD02220348FF
:102CB000C909521A8266EEE7F01A0020002011506E
:102CC0007F22100010B508400A4200D110BD002339
:102CD000C90940004018044940010818002203496E
:102CE000C37002F051FCF1E7F01A0020FFF7FFFF7C
:102CF0007F20002308404000C90910B54018504CFF
:102D0000400120184268002113608268136020226D
:102D1000FFF788FBE36C002B00D090E0E36E002B04
:102D200000D08CE08C33E358002B00D087E0AC332C
:102D3000E358002B00D082E0CC33E358002B7ED147
:102D4000EC33E358002B7AD10D33FF33E358002BDB
:102D500075D12D33FF33E358002B70D14D33FF3342
:102D6000E358002B6BD16D33FF33E358002B66D152
:102D70008D33FF33E358002B61D1AD33FF33E3587C
:102D8000002B5CD1CD33FF33E358002B57D1ED330B
:102D9000FF33E358002B52D183239B00E358002BD1
:102DA0004DD18B239B00E358002B48D193239B00EC
:102DB000E358002B43D19B239B00E358002B3ED1CB
:102DC000A3239B00E358002B39D1AB239B00E3588E
:102DD000002B34D1B3239B00E358002B2FD1BB230E
:102DE0009B00E358002B2AD1C3239B00E358002B00
:102DF00025D1CB239B00E358002B20D1D3239B006C
:102E0000E358002B1BD1DB239B00E358002B16D18A
:102E1000E3239B00E358002B11D1EB239B00E358E5
:102E2000002B0CD1F3239B00E358002B07D1FB238D
:102E30009B00E358002B02D1024B034A1A6010BDDD
:102E4000F01A0020802000208001105080220A4BC0
:102E5000520410B51A60094B09491A6010000B683A
:102E60009843FBD18022002152010648FFF7DAFA8D
:102E70000922054B5A6710BD00E0004000F00040F9
:102E800008C00040000010500000115070B5837E53
:102E900004000D001600002B17D10023E38201333C
:102EA0002000A682A376256102F02EFB002804D024
:102EB00080219023084A8902D150200002F04CFB67
:102EC000002805D00123237770BD02F055FBE4E70D
:102ED000200002F049FBF7E7002011500020704766
:102EE0007047C0467047C0460020704700207047BA
:102EF00000207047014B98787047C046AC16002000
:102F0000024B5878431E9841C0B27047AC1600205F
:102F1000024B18784007C00F7047C046AC1600201F
:102F2000F8B54746CE4680B52B4F80463B7801200A
:102F3000FF2B03D0C0BCB946B046F8BD00215422D7
:102F40002648FFF76FFA0022254C264B20001A7006
:102F5000FEF784F8244B1C60244C20001430FEF74C
:102F60008BF8200002F062F9214B224D1C60224BAD
:102F7000002B04D0280000E000BF204B186020493F
:102F80000024002389462A781C4E10E03268630131
:102F900094466344002B12D05B68002B0FD09847F7
:102FA0002A780134E4B2511C2300A14209DBA24279
:102FB000ECD89B1A5B014B445B68002BEFD10020DF
:102FC000B8E7434640463B70FFF752FD4046FFF7E7
:102FD00095FD0120AEE7C046B4100020AC160020DD
:102FE0006416002082210020001700209810002085
:102FF0000417002080210020000000005C14002045
:103000005C5A0010F0B5DE4657464E464546E0B5E0
:10301000C44B8BB01B78FF2B00D12EE1C24BC34DAC
:103020009A4607AC2E687269EFF3108172B6136886
:10303000002BFCD0BFF35F8FB1613000210001F0A5
:1030400037FF7269B369BFF35F8F0021116083F3AB
:103050001088002800D110E16378082BE2D852468E
:103060009B00D3589F466368002BDBD0A06898472D
:10307000D8E77F232179AE4E0B405800CA09361895
:10308000B6183200012730321079B8431071107928
:103090000337B8431071002B00D1F7E0A54A337D08
:1030A0001278934200D3E5E0A34A5B011268D3187B
:1030B000002B00D1E1E09E6962792078A368B047D7
:1030C000B0E79E4A1378002B00D1D6E01378013B7D
:1030D000DBB213701378002BA4D10122944B012191
:1030E0001B7893481343924A914E13703423D25C59
:1030F0008A43C254C25C04208243F2540133F25C1E
:103100008A43F254F25C8243F254237800209B46B7
:1031100000F0EAFC602223791A40602A0DD0402A90
:1031200000D1BEE0DB06DB0E012B00D10EE1022B4D
:1031300000D1D0E0002B00D1BFE020780021FFF7C4
:10314000A3FD80212078FFF79FFD6BE7784E337851
:10315000DB0700D466E7FDF783F963E7744BDB78A0
:10316000DB0700D45EE76068FFF7BCFE5AE7704EED
:103170003378DB0700D455E730780007C00FFDF740
:1031800067F94FE76E496B4E23788B466A4998463C
:10319000894631003278002346460027884611E0F0
:1031A0004A4612687B0194466344002B6CD0DB686E
:1031B0003000984743461A780137FFB2511C3B0054
:1031C0008F4241DC9742EBD39B1A5B015B44EEE7F5
:1031D0005B49584E23788B465749984689463100BB
:1031E0003278002346460027884611E04A46126896
:1031F0007B0194466344002B21D0DB683000984764
:1032000043461A780137FFB2511C3B008F4205DC60
:10321000BA42EBD89B1A5B015B44EEE7444E542262
:1032200000213000FFF7FEF81022FF21301DFFF7CC
:10323000F9F830002022FF211430FFF7F3F800F0F6
:1032400049FCFDF7FFF8EDE6394E5422002130002D
:10325000FFF7E8F81022FF21301DFFF7E3F83000F8
:103260002022FF211430FFF7DDF800F033FC237932
:10327000B370D7E6501C98420EDA0BB0F0BCBB46D8
:10328000B246A946A046F0BD294EEEE76279207805
:10329000A36800F03DFCC5E69B1A294A5B01D318E0
:1032A00009E7284800F020FC0121584608AAFFF74A
:1032B00015FE002800D0B5E63FE7202A00D14EE1F8
:1032C000002A00D039E76379092B00D935E71E4A77
:1032D0009B00D3589F467023217A0B4200D02CE7E5
:1032E0007F26CB0998460E40114B76009B1943442C
:1032F0001F7D104B1B789F425ED3581CB84200DAEA
:1033000049E1FF1A0E4B7F01DF19002A00D146E187
:10331000786900F0E9FB012158467B6908AA9847C3
:10332000C7E7C046B4100020B459001004170020AD
:10333000AC160020802100205C1400208221002097
:103340005C5A0010DD2E0010D8590010237A0F2B84
:1033500000D9F2E6D64A9446D64A63441B791278DD
:10336000934234D3511C994200DAE6E6D24E9B1ABE
:103370005B01F618706900F0B7FB012158467369CC
:1033800008AA9847002800D04CE66022160023794E
:103390001E401A4200D0D0E663790A3B012B00D9C7
:1033A000CBE600F0A1FB63790A2B00D150E158462F
:1033B00008A900F019FB35E6C04B7F011B68DF1937
:1033C000002A00D1EBE0002F00D1B6E6A0E7BB4A0F
:1033D0005B011668F618002E00D1AEE6CAE7B44BC2
:1033E000A7795B789F42E2D0B14B5B78002B00D08D
:1033F0006AE1AF4B5F70002F00D155E1781EC0B27B
:10340000FDF792F9002800D14AE143780493022B9A
:1034100000D045E10121C279931152110B400A40BD
:1034200012015B011343A24A2F3112788A431343DE
:103430009F4A137009239946C37882781B0213436D
:10344000C31802939D4B814498464F46029BBB4252
:1034500000D806E101227B7800920B2B04D1FB7887
:1034600000933B78FF187B78042B00D018E1029B77
:10347000B946DB1B9BB203938E4B1E7800231F00C3
:1034800001931BE0424612687B01D618002E00D142
:1034900006E149465846039A33699847059008283B
:1034A00003D9039A824200D3DEE0824B01371E78B3
:1034B000FFB2731C01979F4200DDF1E0BE42E1D8EC
:1034C000019B9E1B7C4B76019C466644E1E7784B52
:1034D00006AA5B78023213705846012308A900F04F
:1034E0009BFA9FE5E088030AC0B20F2B00D924E6BF
:1034F00073499A008A58974608A800F0FBFA584684
:10350000A179FFF701FB0222694B1B781343684A3C
:10351000137087E5E388012B00D00EE60822644B88
:103520001B789343624A137041E70220604B19787D
:1035300006AB9A1C8B068908DB0F01400B431380F6
:103540005846022308A900F067FA6BE5E388012BCF
:1035500000D0F2E50822564B1B781343E2E7237AAA
:103560000F2B00D9E9E5524A9446524A63441B792D
:103570001278934227D2514A5B011668F618002E42
:1035800000D1DAE5706900F0AFFA0121584673699D
:1035900008AA98478DE60027002A00D0CDE5022230
:1035A000637999469343012B16D04B46002B00D0EC
:1035B000C3E53F4B06AA9B19434430331B790232C3
:1035C0009B07DB0FBBE7511C994200DAB5E53A4E89
:1035D0009B1A5B01F618D5E7E388002B12D14B4606
:1035E000012B24D0374B1878FFF74EFB0221304BCC
:1035F0009B19434430331A790A4301211A711A790D
:103600000A431A71002F00D10CE5786900F06CFABA
:103610007B6908AA012158469847002000F064FA07
:103620003523234AD35CDB0700D5FBE4BFE6254BFB
:103630001878FFF745FB02211D4B9B19434430339B
:103640001A798A4349461A711A798A431A71D9E755
:1036500006AB9A1C5846012308A9167000F0DCF945
:10366000E0E4FCF7E7FEA2E63B004F469946009BEC
:10367000012B00D189E0009B002B75D000234E4622
:10368000B97805E016710133009ADBB293426AD231
:1036900007485A188446D2B262441079FF28F1D004
:1036A0000023034A537048E5FCF7CCFE7FE6C04692
:1036B000AC160020802100205C5A00105C14002011
:1036C000005A0010B410002000215846FFF726FAD7
:1036D0005846FFF7C3FA454B454E9B784549009342
:1036E000894600233100327888461E0011E04A46A0
:1036F0001268730194466344002B22D0DB6858465D
:10370000984743461A780136F6B2511C33008E4270
:1037100007DCB242EBD89B1A374A5B0194466344FC
:10372000ECE7542200213148FEF77CFE2F4B10229B
:10373000FF21181DFEF776FE2022FF212F48FEF7FD
:1037400071FE2A4B009A9A7053E6FFF7CDFB021EDA
:1037500000D1F2E4D37891781B020B43584608A9B4
:1037600000F05AF9A5E5B146059E4B4632003900F6
:10377000224801F017FBB4461D4B019A1B786744A1
:103780000133934200DB61E68AE71D4B32699A42BE
:1037900000D073E7049B009370E7FFF7A7FB021EBE
:1037A00000D1CAE45846137808A900F035F980E53D
:1037B0002189FCF7BDFF021EF4D1BEE4022B0FD01D
:1037C000FFF796FB021EC5D1B7E4FCF7A9FF021E66
:1037D00000D1B2E41223584608A900F01DF968E5AB
:1037E000FCF7A2FF021EB5D1A7E4C046AC1600202C
:1037F000802100205C1400205C5A0010C0160020BC
:10380000114A0010F8B557464E46DE4645460C00B4
:10381000E0B516001F00002A3CD0702398461E4BCE
:1038200000259B461D4B9A461AE05B461B782000FC
:1038300099465346997801F079FA00281CD0210066
:103840004846FFF787F9002816D0A378DA09012A3D
:1038500019D00A9A013513702378E418B54219DAA1
:103860006378052B08D1E3789B079B0FBB4203D1FC
:103870004246A3781A42D8D00020F0BCBB46B246DC
:10388000A946A046F8BD0B9A013513702378E418B9
:10389000B542E5DB0120F0E7B4100020AC160020B3
:1038A000702270B58B780C001A4201D0002070BDD8
:1038B000064B20001D78064B997801F037FA002856
:1038C000F4D021002800FFF745F9F0E7B4100020FC
:1038D000AC160020074B080019687F2310B5034081
:1038E000C0095B0034301818034B181801F0DAF9DE
:1038F00010BDC04600170020AC160020074B080082
:1039000019687F2310B50340C0095B0034301818D4
:10391000034B181801F0EEF910BDC0460017002047
:10392000AC1600207F2070B508400F4C4000CD0938
:1039300024186419303425790020ED0700D570BDB6
:10394000012625790948354300782571FFF78AF962
:103950000028F4D101222379934323712379033280
:1039600093432371EBE7C046AC160020B41000204F
:1039700010B50B4B0C001878FFF7A2F97F2102223B
:1039800021404B000749E409C918091930310B7966
:1039900093430B710B79013A93430B7110BDC046F1
:1039A000B4100020AC16002010B50D4B0C00187898
:1039B000FFF79EF97F21022221404B000949E409CB
:1039C000C918091930310B7993430B710B79013AFE
:1039D00093430B710B79033293430B7110BDC046B7
:1039E000B4100020AC16002070B50A4E050030005F
:1039F00008220C00FEF71CFD00237F21F3602278D3
:103A0000B36091425B412800D90100220023FFF7F7
:103A100089FF70BD0C160020F8B5CE46474691468A
:103A20002A4E80B50822070030000D009846FEF7A8
:103A3000FFFC4B46B3600023F381EC79A9792402A3
:103A40000C43231C444500D943469AB29046B381A7
:103A5000002C13D0002A1FD04B46002B34D0131C4F
:103A6000402A1FD89BB2984633787F2B20D800215C
:103A7000174A43463800FFF755FF09E07F222B78AD
:103A800038009A42644100230022E101FFF74AFF17
:103A9000C0BCB946B046F8BD33787F2B11D9802120
:103AA0000022E6E740239BB2984633787F2BDED98D
:103AB000074C424649462000FEF7BAFC802122000E
:103AC000D7E700210022D4E70020E1E70C16002010
:103AD0006C16002010B5142200210248FEF7A2FC4B
:103AE00010BDC0460C160020014B18617047C0463F
:103AF0000C16002010B5054C010008222000FEF72E
:103B000097FC0023A360E36010BDC0460C160020A4
:103B1000F8B5394C1D0023780600DA09C9098A4234
:103B200010D00020002D00D0F8BD21003000FFF79C
:103B300003F82369002B42D022000321300098476C
:103B40000120F1E77F2B06D8A068002839D02A0091
:103B50002A49FEF76DFCA368E28959195219E388D6
:103B600092B2E281A160934214D03F2D12D9A5896F
:103B7000A81A071C80B240282FD82378BFB27F2B09
:103B80002DD80021AA4235D01C4A3B003000FFF757
:103B9000C9FEC9E72369002B05D0220002213000AD
:103BA000984700280FD07F220021237830009A42C6
:103BB000494100230022C901FFF7B4FEB4E7012008
:103BC000B2E70020B0E700213000FFF75DF83000D9
:103BD0008021FFF759F80120A6E74027CDE7AA4248
:103BE00007D0064C3A002000FEF722FC802122007C
:103BF000CBE780210022C8E70C1600206C160020BD
:103C000001207047F0B54546DE4657464E46E0B5C2
:103C1000534C0500636883B0002B24D0618A1A7866
:103C2000083959189B18DA799879120202439B18BF
:103C3000CA1A002A17DD0026207B04E01A789B1898
:103C4000CA1A002A0FDD5A78042AF7D1DA78002A36
:103C5000F4D19A7882420ED01A7801369B18F6B2C7
:103C6000CA1A002AEFDC002003B0F0BCBB46B24603
:103C7000A946A046F0BDE36A9B5D002BF3D000216E
:103C80002800227AFCF722FD0028ECD020004430E6
:103C900001F0DAF863899B46638B002B38D048210A
:103CA000615A8F00BB4233DC278BBC46002760453E
:103CB00016D3A78B4908B846FF1ABFB2CA1B914654
:103CC000284A48452BDA914612689246002A41D18B
:103CD0000A234A465F461360E34500D96746BFB2F0
:103CE00020003A00E16D443001F032F93B00280039
:103CF000217AE26DFFF716FE0028B4D0E26A237A3B
:103D0000925D3900009228000022FFF779FFABE7AF
:103D1000071C80B25845E2D95F46BFB2E0E7914642
:103D20001268C919924688420CDD002A12D16345F7
:103D300002D00A234A4613605F46C345CFD947469F
:103D4000BFB2CDE7002A05D15F469B45C7D91F1CEE
:103D5000BFB2C5E751464A4601391160F4E7C04693
:103D6000601400208C1A002001207047002070474A
:103D700000207047002070470020704710B50028D1
:103D800007D105484368002B03D0303001F0E0F83C
:103D900000E0002010BDC0466014002010B50028CF
:103DA00007D105484368002B03D0443001F08AF95D
:103DB00000E0002010BDC0466014002070B5194C12
:103DC00082B0602200212000FEF72CFB164B40221F
:103DD0006362282301252000E254144B1449E36256
:103DE000823201230095443000F0F6FF114E30007E
:103DF000FDF734F92665200000260F4BC222E3654B
:103E00000E49012366653030009500F0E5FF0C4D4A
:103E10002800FDF723F90B4BE6632564A36502B088
:103E200070BDC04660140020901A0020C817002002
:103E3000CC170020D81A0020F41E00209018002073
:103E4000E01A0020B81F00200020704710B5074C72
:103E5000242200212000FEF7E5FA2000443001F082
:103E6000E5F92000303001F0E1F910BD60140020C8
:103E70004A790300F0B50020012A02D18A79012A8B
:103E800000D0F0BDCA79202AFBD10A79002AF8D1E6
:103E9000CA78002AF5D11D4C6268002AF1D10A00C7
:103EA00023709C2302275B0031320325302661609A
:103EB0006382FF32FF3706E0242B15D00B78C91838
:103EC000531A002B1CDD4B78052BF5D12800CB783D
:103ED00018400128F2D11E42F0D18B78DB09012B6A
:103EE000ECD18B79E377E9E78B78032BE6D14B793B
:103EF00008791B020343BB42E0D10B7AA377DDE7CD
:103F00000123982063744000BBE7C0466014002082
:103F1000F0B54546DE4657464E46E0B5140005006E
:103F200083B0012909D00120022918D003B0F0BCC8
:103F3000BB46B246A946A046F0BD602311781A00E0
:103F40000A4090460B423AD160780A2800D198E0A6
:103F50000B2870D0013843425841C0B2E6E71378CD
:103F60001F22190091432029E0D1DB06DB0E012B33
:103F700000D1ACE0022B24D1B94F20797B68002B13
:103F80001FD01A78798A59189B18DA799E7912020B
:103F900032439B18CA1A002A05DC12E01A789B18D3
:103FA000CA1A002A0DDD5A78052AF7D19A7882427A
:103FB000F4D1210028007A6AFFF7D8FEB6E7202A5C
:103FC00001D00020B2E7637926791B02CA06334389
:103FD000D20E012A00D1A5E1022AF2D1A04F7B68BE
:103FE000002BEED0788A1A78804698449B189A79EC
:103FF00094466046DA79120202439B184246D21A6E
:10400000002ADEDD404604E01A789B18C21A002A16
:10401000D7DD5A78052AF7D19A78B242F4D149B25D
:10402000002900DA2BE2282321002800FB5C7A6AB1
:10403000FFF7F2FC7AE78A4F7E68002EC1D0798ABA
:10404000337808397118F618F379B0791B020343F5
:10405000F6188B1B002BB4DD2379A4461C0004E06A
:104060003378F6188B1B002BABDD7378042BF7D15C
:10407000F378002BF4D1B078A04272D00132D2B2E2
:10408000EEE7774F7B68002B9BD0798A1A78083946
:1040900059189B18DA799E79120232439B18CA1A72
:1040A000002A8EDD4646207904E01A789B18CA1A49
:1040B000002A86DD5A78042AF7D1DA78002AF4D16A
:1040C0009A78824200D1C2E00136F6B2EDE761791A
:1040D0002679002926D0624FC9B27B68002B00D117
:1040E0006FE79A78B24200D06BE71A789B18D879BC
:1040F0009A79000210431A78861A002E00DC60E7D5
:1041000018189B1805E01A789B18C21A002A00DCC0
:1041100057E7DA788A42F6D1210028007A6AFCF75C
:1041200035FA03E74E4F7868002800D149E77B8ACB
:10413000083BC118002B00DC43E7030005E01A78B8
:104140009B18CA1A002A00DC3BE75A78042AF6D1E9
:104150008278B242F3D1210028007A6AFFF708FE84
:10416000E4E6A34664469946E3789046A2781B02AB
:1041700013439A463B7B5B4500D128E13B7C5B4582
:1041800000D13AE153464246D9B2FB6A99547A6863
:104190007B8A9046083B984443469B1B002B62DD7C
:1041A000A44640460C00594604E03378F618831BB9
:1041B000002B57DD7278042AF7D1B2788A42F4D105
:1041C000F278A242F1D132798B4680466446009261
:1041D000002A00D171E1002B00DCF2E63400E24657
:1041E0002378E418009B4B4500D861E143461B1B34
:1041F000002B00DCE5E66378052BF1D121002800D7
:10420000FFF74EFB002800D1DBE6A3782800190059
:104210000193FFF7ADFB019BDB09012B00D100E10E
:104220005B4601993B747973637922791B021343CE
:104230005B055B0D2800BA6DFB81FFF773FB00285F
:1042400000D1BEE64B460133DBB29946C8E7B04623
:10425000FA6A0123210028004244FFF7DDFB65E6EE
:104260006014002064462023FE5C012E54D12123DB
:10427000FB5C002B50D02223FB5C002B4CD0FB7F3F
:10428000002B49D07B69002B46D0FEF733FE002877
:1042900000D01BE1FE7F7B6973439846FEF72AFE40
:1042A00041424141904B494299461940FA235B01F2
:1042B0009C4640466144FDF7ADFD83B298467B695C
:1042C0009B46FEF717FE414241414B464942194089
:1042D000FA235B019C462123FA5C0133FB5C6144B9
:1042E0005A434346013353439BB298467B899146D8
:1042F000434511D3434658469B1A9BB270439A4696
:10430000FDF788FD5346002900D1E4E052461B0426
:104310001343BB614346BB8321002800FFF764FBC6
:10432000012003E61B0A2BD0704FDBB27A68984657
:10433000002A00D145E69078B04200D041E61078DE
:104340001218D6799079360206431078331A002B6A
:1043500000DC36E696194346121805E0107812186C
:10436000B01A002800DC2CE6D0789842F6D149B289
:10437000002900DB57E621002800FCF779F8D5E595
:104380005A4F7B689C46002B00D11AE662467B8A16
:10439000083BD018002B00DC13E663468C46110066
:1043A00005E01A789B18C21A002A00DC09E65A7840
:1043B000042AF6D18A78B242F3D1614649B2002983
:1043C00000DB30E621002800FFF7D6FCAEE54B46C7
:1043D000397A28003B73FFF7E7FA3800443000F0E1
:1043E00025FF21002800FCF71FF9002800D1E8E58F
:1043F0004B463B72BB61BB83C0E60023797B280040
:104400003B74FFF7D1FA3800303000F00FFF210085
:104410002800FCF709F9002800D1D2E500237B73BE
:10442000B0E63022E3781A4200D00BE7019B414608
:104430003B725B463B73637922791B02134342460E
:104440005B055B0D7B813378F318D21A002A05DCFB
:104450001BE01A789B18CA1A002A15DD5A78042A1C
:1044600012D0242AF5D19A78012A16D0022AF0D146
:10447000DA78012AEDD122201A793A54E9E72100AD
:104480002800FFF777FC51E588462800FFF7BAFBC4
:10449000002800D0D6E6002048E521209A7A3A5438
:1044A0005A7901383A545A78242AD2D19A78DDE7D9
:1044B000009B54464B4500D083E521002800FCF7C3
:1044C000C3F8002800D0CEE600202FE5FB7F013B9B
:1044D0009E40F6B2DFE64A469B1A3B8353467B83F7
:1044E0004346BB8318E7C046A8E4FFFF60140020E2
:1044F000F0B5304D06002A7A83B08A422ED06A7B0E
:104500008A4228D16A68002A25D0688A1478083837
:1045100010181219D479977924023C431219841A7D
:10452000002C18DD2C7C0027A44604E01478121916
:10453000841A002C0FDD5478042CF7D1D478002C89
:10454000F4D1947864450FD0147801371219FFB272
:10455000841A002CEFDC002003B0F0BDEA6A002AC8
:10456000CDD0FFF74FFBF7E79CB2EB6A0022DB5D93
:10457000300000930B002100FCF792F80028EAD0ED
:1045800028002200A96D303000F09CFD0028E2D008
:104590003000EB89697BAA6DFFF7C4F90028DAD0F7
:1045A000EA6A6B7BD25D2100009230000022FFF7A7
:1045B000DBFBD1E760140020F8B54546DE465746E0
:1045C0004E460C78E0B580460E0093469A4600258C
:1045D0007F2C44D948790A790002E4061043E40E9E
:1045E000012C45D0022C3AD14A4F7C68002C36D0A1
:1045F0002378788A9C4620186444A3799946E37905
:104600001B029C464B4661460B439C466444031B7D
:10461000002B05DC23E025786419051B002D25DD22
:104620006578052DF7D1A5789542F4D12822BA5C9A
:10463000141C52453CD8A4B2786AA24216D3220078
:104640005946FDF7F5FE7F2332781340212B31D0F8
:104650007A6A230031004046FFF7DEF905002800A2
:10466000F0BCBB46B246A946A046F8BD0025F6E719
:10467000000A36D0274FC0B27C68002CEFD0A37858
:104680009342ECD12278A218D479937924021C4366
:104690001378E11A0029E2DD1519D21804E0147824
:1046A0001219AC1A002CE1DDD4788442F7D1BDE7B1
:1046B0005446C0E7BA7F73799A42C9D1F378012B87
:1046C000C6D17378012BC3D17A6A51781378090265
:1046D000194393781B041943D3781B060B437B6162
:1046E000B7E70C4F7B689946002BB8D0788A08381A
:1046F0001B180028B3DD4C4604E020782418181B52
:104700000028B3DD60780428F7D1484680789042CD
:10471000F3D18BE76014002070B50400FEF7F0FBC6
:10472000002800D170BDFEF7F3FB0028FAD1E37832
:10473000002BF7D025001035280000F0A3FB3F2800
:10474000F0D90020E178FFF7C5F80028EAD028006A
:1047500000F098FB3F2807D922004023E178C832B7
:104760000020FFF7DFF8DDE7E1780020FFF7C6F86B
:10477000D8E7C04610B50400FEF7C2FB002801D1FF
:10478000002010BDFEF7C4FB0028F9D1A0000019DD
:10479000C000044B0019C00018180379012018400C
:1047A000EFE7C046C4140020020083001B1810B5B8
:1047B000D8008018034BC0001030C01800F044FB34
:1047C00010BDC046C4140020F8B5CE468146840012
:1047D0002518ED004D44224BED002E00474698462B
:1047E000204B103680B546449A4200D91E4A30000C
:1047F00092B200F0ADFB0700FEF782FB002804D167
:104800003800C0BCB946B046F8BDFEF781FB0028B1
:10481000F6D14C44E4004C44E4004444E378002BDB
:10482000EED0300000F02EFB3F28E9D90020E178DF
:10483000FFF750F80028E3D0300000F023FB3F28BA
:1048400008D92A00C8324023E17842440020FFF70B
:1048500069F8D5E7E1780020FFF750F8D0E7C046C7
:10486000C4140020FEFF0000FFFF0000F8B50500A3
:10487000FEF746FB002801D10020F8BDFEF748FBFB
:104880000028F9D1AB005B19DC006419E4002500B5
:10489000134E2435AD19280000F0D6FA0028EBD0CD
:1048A00037190020B978FFF715F80028E4D009344B
:1048B000FF34A41921002800402200F049FBB978F8
:1048C000051E08D0030022000020FFF72BF8002867
:1048D000D2D02800D1E70020FFF710F8CCE7C0467F
:1048E000C414002070B584002418E40024180C4B74
:1048F000E4002434E4180B4B05009A4200D90A4A1C
:10490000200092B200F0DEFB0600200000F09CFACE
:104910003F2801D8300070BD2800FFF7A7FFF9E756
:10492000C4140020FEFF0000FFFF0000A422F0B529
:104930000025194C83B0002120005200FDF772FDC4
:10494000164B21001D70FF236371E1235B02A360FE
:10495000200008234022A37338310095073B103014
:1049600000F03AFA2700012321002000260040220F
:1049700078310093B837243000F02EFAC036380072
:10498000FCF76CFB3000FCF769FBE56127622663EE
:10499000656303B0F0BDC046C4140020C0140020FD
:1049A000074B1A6A196B002A02D00022DA611A62D8
:1049B000002902D000221A635A6301207047C046C2
:1049C000C414002070B50F4C052200212000FDF713
:1049D00029FD0D4D2B78DA0707D50C4C9B070CD51C
:1049E0000121200000F042FC70BD2000103000F0DA
:1049F0001DFC2B78054C9B07F2D4200000F016FC20
:104A0000EEE7C046C4140020C0140020E8140020C3
:104A1000F0B5C64600B54B79060082B0022B02D134
:104A20008B79022B05D00025280002B080BCB84647
:104A3000F0BD224FBB78002BF5D18B7809253B7058
:104A40000C780C196378242B0BD1082A02D80FE0BC
:104A5000AA420DD32378E418ED186378ADB2242B65
:104A6000F6D0052B08D0042B02D163790A2B11D084
:104A70003800FFF751FED7E721003000FEF710FFA6
:104A80000028D0D0A3787B702378ED18E4186378E1
:104A9000ADB2E8E7237821009846094B0222019342
:104AA00001330093300002234144FEF7ABFE00289F
:104AB000B9D00E354544ADB2DAE7C046C414002083
:104AC000C6140020F8B560231400127805001340C6
:104AD0000020202B12D12F4A6379277916781B02E8
:104AE0003B439E420AD16378222B28D007D8202B43
:104AF00017D0212B02D101293ED00120F8BD232B54
:104B0000FCD1012940D00329F7D1234B002BF4D04D
:104B1000E178A37809020020194300E000BF0120DA
:104B2000ECE7012928D00329E7D11C4B002BE4D066
:104B300008320020110000E000BF0120DEE701295B
:104B400022D00329D9D101252E00A378E478023997
:104B500024021C431471264024321000714000F0DE
:104B600085FB0F4B002BC8D06208002031002A4083
:104B7000FBF7D6FB0120C1E7072321002800094AE3
:104B8000FEF74AFF0120B9E721002800FEF72CFFBD
:104B90000120B3E7C4140020000000000000000062
:104BA00021030010CC140020F0B54F464646D646EF
:104BB000C0B5364D8046EA780C001F008A425CD1B1
:104BC0009AB210232E009A46C836AA4431005046A5
:104BD00000F078FA2E4B002B17D06B79FF2B14D0F6
:104BE000002F12D0F219914603E001364E450CD049
:104BF0006B7932789A42F8D1504600F03BF90028A0
:104C0000F3D1697900E000BFEFE7224B002B04D01D
:104C1000214800F02FF9002834D02800FFF77CFD50
:104C2000AB78A34206D001242000E0BCBA46B146CE
:104C3000A846F0BD194B002B02D0002000E000BFB9
:104C40000020FFF713FE0028EDD1154D280000F0DD
:104C5000FBF80028E7D1002FE5D0BB06E3D1243DC7
:104C60004046A978FEF736FE041EDCD00023002261
:104C70004046A978FEF756FED6E7AB788B42D9D0EE
:104C80000024D1E7FBF74EFBC7E7C046C414002061
:104C90000000000025030010D414002000000000D4
:104CA000E8140020037870B5DB0704000E00DD0F68
:104CB000002B17D103785B0701D5280070BD0121B7
:104CC0003000494200F038FC2378DB07DD0F002B71
:104CD0000AD123785B0708D40422237801251343E3
:104CE000237002E00025E8E70025300000F004FC16
:104CF000E3E7C04670B50D000121040049422800D9
:104D000000F01AFC23785B07DE0F002B04DB280081
:104D100000F0F2FB300070BD2378DB0704D40422DE
:104D2000237893432370F2E70026F0E710B5437928
:104D300004791B0223435B055A0DC3789B079B0F25
:104D4000022B05D0032B15D00020012B08D010BD5D
:104D500002291CD00020402393424041C0B2F6E714
:104D600002394B4259410D4B9C46614491424041AE
:104D7000C0B2ECE702394B425941F02300204942CE
:104D80009B001940403191424041C0B2DFE7044BE3
:104D9000D3185A425341D8B2D9E7C046FF030000A6
:104DA00000FEFFFF8A1870B5914207D27F264C782B
:104DB000052C04D00C7809198A42F8D870BD34004B
:104DC0008D782C4064000419ED0963550C7809199D
:104DD0008A42ECD8F2E7C046F0B5C64600B50400FA
:104DE00006A805788020884617001E00000282422F
:104DF00027D8E068002803D00121494200F09CFB3D
:104E00002069002803D00121494200F095FB434668
:104E1000236073045B0CED031D430023E068638192
:104E2000A780E5802381002801D000F065FB206980
:104E30000124002801D000F05FFB200080BCB846B0
:104E4000F0BD0024F9E7C04610B504894189828885
:104E5000A3B288B28C4207D31B1A9BB2101C9A4291
:104E600000D9181C80B210BD5100091A5B189BB202
:104E7000F4E7C046030000895B89C01A43425841E9
:104E8000C0B2704710B5048941898288A3B288B244
:104E90008C4207D31B1A9BB200209A4201D9D31A25
:104EA00098B210BD5100091A5B189BB2F4E7C046D6
:104EB00070B5040000690E00002803D001214942AA
:104EC00000F03AFB25896089A288A9B283B28542A5
:104ED0002CD3CD1AADB2002D2ED0AA4208D29142C9
:104EE00031D38B1A9BB263819A4203D89B1A9BB22F
:104EF0009A42FBD9E28821685204520C5343300095
:104F0000C918FDF795FA618901254B1C9BB2A2884F
:104F1000994214D9002352009B1A9BB220696381E5
:104F2000002801D000F0E8FA280070BD5500ED1A05
:104F30004D19ADB2002DD0D1002563899BB252002E
:104F40009342EBDBE8E789188BB26381CCE7C0467C
:104F5000F0B546464F46D646C0B5060000698946BC
:104F60009046002803D00121494200F0E5FA31893A
:104F70007289B5888BB294B2914257D31F1BBFB2CE
:104F8000002F4DD0BD4205D2AB4254D25B199CB22A
:104F90002F0074814346B84540D89FB2A54203D83C
:104FA000641BA4B2A542FBD9F288281B5204530CFF
:104FB00019009846336861439C4680B26144874239
:104FC00026D94346584383B21A0048469A46FDF70D
:104FD0002FFA434648467D1B64195C4331685044B0
:104FE000A2B2FDF725FA7189B588CB199BB26A0088
:104FF000994217D99B1A9BB230697381002801D05E
:1050000000F07AFA3800E0BCBA46B146A846F0BDD6
:10501000424648467A43FDF70BFAE4E73B1CBCE7FF
:1050200073899BB26A009342E6DBE3E76F003F1BA4
:10503000DF19BFB2A4E75B1B9CB2A9E7F8B5040077
:10504000C0680E00002803D00121494200F074FA24
:10505000258920896189A288ADB283B28FB2884246
:1050600028D3DB1B9BB29A4209D8E779FF0906D106
:10507000E068002801D000F03FFA3800F8BD2B00AE
:10508000954203D39B1A9BB29342FBD2E2882168DC
:105090005204520C5343C8183100FDF7C9F9A288D5
:1050A0006B1C9BB252009D4209D99B1A9BB20127EF
:1050B0002381DDE75100C91B5B189BB2D3E7934204
:1050C000F5DBF2E7F0B54E464546DE465746E0B51D
:1050D00089460500140083B0002A6ED0C0680028FD
:1050E00003D00121494200F027FA2F89EA796B8920
:1050F000BFB29BB2D20942D1AE889F4267D2720042
:10510000D31AFB189BB2002290469E4231D9F31A63
:105110001A1C9BB2A34200D9221C93B29846E8887D
:105120004346DB199BB29B463C00BE4203D8A41BFE
:10513000A4B2B442FBD24004430C18009A462B6838
:1051400060439C46311B89B2604441454ED3524670
:10515000434649465A43FDF76BF9AB885B00BB45B4
:1051600001D39B4503DB5A46D31A9BB29B465B4651
:105170002B81E868002822D000F0BEF91FE0AA8841
:105180009046944226D29F4244D34146FA1A92B2A4
:10519000490012198A4209DB42469A1892B2171B3B
:1051A000BFB29346BB423AD97F1ABFB2E3199BB252
:1051B00046469B46A046E888B6E700239846404608
:1051C00003B0F0BCBB46B246A946A046F0BDFB1AF0
:1051D0009BB298E7E888A21A4404640C5443424600
:1051E000A144002AC5D046461F0099E753465943BB
:1051F00089B20A0001914946FDF71AF943469A1B04
:105200005346A2185A430199286892B24944FDF7BF
:105210000FF9A2E75100CA1ABA1892B2B9E7B94217
:10522000C2DD4646E888A0467EE7C04610B50400C9
:10523000C068002803D00121494200F07DF92069AF
:10524000002803D00121494200F076F90023E068EC
:1052500063812381002801D000F04EF920690028E5
:1052600001D000F049F9012010BDC04670B504001E
:10527000C0680D00002803D00121494200F05CF90C
:105280002069002803D00121494200F055F97F210F
:10529000E379ED011940E0682943E171002801D06C
:1052A00000F02AF92069002801D000F025F901203A
:1052B00070BDC04680210A4A4902136D0B42FCD0E2
:1052C000092353670422074B00201A60064B002174
:1052D0001A68064BDA67064B1A68064B1A64704761
:1052E0000000115080301150EC1A002000400140A5
:1052F0008420002000C0014070B5102084B0FBF76E
:10530000DBFA08285DD0324B324DDB6F324C2B601C
:10531000324B01221B6C01210F202360FBF7D6FAD0
:1053200002210F20FBF7FEFA08222D4B03211B68F8
:105330000F205A401F2313402A4A1360FBF7E0FA5C
:1053400002220421284BDA677E329950274B743AA7
:105350005A671B6D1B079B0F012B2FD1FCF7A6F87B
:105360000600FCF723FAFA220023920012184B41A0
:10537000002B29DB01210291002101911C49300001
:105380000091FCF797F8002801DB04B070BDFA200B
:1053900000218000FCF714FA8021144A4902136DA1
:1053A0000B42FCD0092353670422124B1A602A686F
:1053B000074BDA672268094B1A64E6E7FCF74CFCF6
:1053C000CCE7FCF749FC9EE701220B4B5242D1E7A8
:1053D00000400140EC1A00208420002000C0014061
:1053E0007C4001407C5001400020115000001150D1
:1053F000B552001080301150FFFFFF7F074B10B5F2
:105400001B6D1B079B0F03D1FA200021800010BDEC
:10541000FFF772FF00200021F9E7C046000011509D
:1054200010B584B0FBF7B0FA012801D004B010BD6C
:10543000FCF73CF80400FCF7B9F9FA2200239200CB
:1054400012184B41002B13DB012102910021019125
:10545000094920000091FCF72DF80028E6DA032224
:1054600006490B6D9B081A42FBD0FFF745FFDDE7AD
:105470000122034B5242E7E7FD5300100000115098
:10548000FFFFFF7F10B583070AD00300032102E06E
:1054900001330B4205D01A78002AF9D1181A10BD31
:1054A000030019680C4A0D4C8A188A4322420FD116
:1054B0005968094A04338A188A43224208D1596834
:1054C000054A04338A188A432242F1D000E00133AE
:1054D0001A78002AFBD1E1E7FFFEFEFE8080808083
:1054E000F8B5C0460000000001B40248844601BC83
:1054F000604700BF8D02002001B40248844601BC11
:10550000604700BFED01002001B40248844601BCA1
:10551000604700BFE50B002001B40248844601BC8F
:10552000604700BF410F002001B40248844601BC1F
:10553000604700BF410F002001B40248844601BC0F
:10554000604700BF5D01002001B40248844601BCF1
:10555000604700BFC100002001B40248844601BC7E
:10556000604700BF0D0C002001B40248844601BC16
:10557000604700BF9D0C002001B40248844601BC76
:10558000604700BF410C002001B40248844601BCC2
:10559000604700BF4D0C002001B40248844601BCA6
:1055A000604700BF510300208D1C0010B91C001083
:1055B000051E001015240010852200108523001000
:1055C0002D1D0010D51C0010F51C0010091D001029
:1055D00005100010111D0010D1130010551C0010F3
:0C55E000F90A0010FD020010112A001052
:1055EC00010000CE00000001100000003031323309
:1055FC0034353637383941424344454600000000C3
:10560C0054696E795553420054696E795553422052
:10561C00686561647365740054696E7955534220F2
:10562C00537065616B6572730000000054696E798C
:10563C00555342204D6963726F70686F6E65000040
:10564C0054696E79555342204344430009040000C9
:10565C00090283010501008032080B0003010020C0
:10566C0000090400000001012002092401000204C9
:10567C005D000008240A0403070000112402010144
:10568C0001000402000000000000000012240602C9
:10569C00010F0000000F0000000F000000000C24A0
:1056AC000303020300020400000011240211010292
:1056BC0000040100000000000000000C2403130192
:1056CC000100110400000009040100000102200582
:1056DC00090401010101022005102401010001014E
:1056EC000000000100000000000624020102100767
:1056FC00050109C20001082501000001010009048F
:10570C000102010102200510240101000101000029
:10571C000001000000000006240201041807050126
:10572C00098401010825010000010100090402009F
:10573C0000010220040904020101010220041024CA
:10574C00011300010100000001000000000006240C
:10575C000201021007058105C200010825010000A5
:10576C0000000009040202010102200410240113AC
:10577C0000010100000001000000000006240201ED
:10578C0004180705810584010108250100000000AB
:10579C0000080B03020202000009040300010202CC
:1057AC00000605240020010524010004042402063F
:1057BC0005240603040705830308001009040400EC
:1057CC00020A0000000705040240000007058402DD
:1057DC004000000012010002EF020140FECA11401D
:1057EC0000010102030100000A2A2A2A2050414E1E
:1057FC004943202A2A2A0A000A0000004E6F20730F
:10580C0070696E6C6F636B73206172652061766179
:10581C00696C61626C6500004861726477617265E5
:10582C0020616C61726D20256420616C726561640D
:10583C007920636C61696D65640000004861726475
:10584C00206173736572740052656C6561736500D9
:10585C00626F6F74325F7732357130383000000010
:10586C00322E312E300000007069636F0000000092
:10587C0074696E797573625F6465765F6364635F88
:10588C0075616332000000004665622020342032CE
:10589C003032350005005250DE65F468CC6A0010D9
:1058AC00060052505422A29D9458001006005250EB
:1058BC00861C03027C58001006005250BBFF3CB6FD
:1058CC007458001006005250ABB360536C58001063
:1058DC0006005250E182887F5C580010060052503E
:1058EC00D3F07542545800100D0A00005541525423
:1058FC0020737464696E00005541525420737464B3
:10590C006F7574005541525420737464696E202F66
:10591C00207374646F7574000600525053B4F4A174
:10592C00105900100800525012000000080052508C
:10593C00921000004C454400090052500000000237
:10594C00405900100800525012100200556E686148
:10595C006E646C65642049525120307825780A00B9
:10596C00657020253032582077617320616C726528
:10597C0061647920617661696C61626C650000001C
:10598C0043616E277420636F6E74696E7565207841
:10599C00666572206F6E20696E616374697665202E
:1059AC0065702025303258002430001084310010EE
:1059BC00D03100105C3100106E3100104C310010F1
:1059CC00C230001072300010663000102A35001002
:1059DC00143500103A3100104C3500103A310010DB
:1059EC00F8340010E43400103A310010CE340010BA
:1059FC00DE3300103A310010CA370010BC370010EB
:105A0C00B03700103A3100103A3100109A370010BC
:105A1C00BC3700103A3100103A3100103A31001006
:105A2C003A3100103A3100103A3100103A3100107E
:105A3C004A370010820D0020820D0020640D0020DA
:105A4C00D80D0020E80E0020FC0E0020CC0D00200C
:105A5C00000000002D490010A1490010C54900109C
:105A6C00114A0010C54A0010A94B0010000000009C
:105A7C0000000000BD3D0010493E00104D3E0010DE
:105A8C00713E0010113F0010F14400103D0F00203A
:105A9C00A0580010AC580010B8580010C458001092
:105AAC00D0580010DC580010E85800104459001071
:105ABC00505900102459001030590010385900105A
:105ACC00F0B5C646150000B504001E000268EFF3E1
