:020000041000EA
:1000000000B5324B212058609868022188439860DF
:10001000D860186158612E4B002199600221596106
:100020000121F02299502B49196001219960352056
:1000300000F044F80222904214D00621196600F024
:1000400034F8196E01211966002018661A6600F04E
:100050002CF8196E196E196E052000F02FF8012189
:100060000842F9D1002199601B49196000215960AB
:100070001A491B48016001219960EB211966A021F2
:10008000196600F012F800219960164914480160C1
:100090000121996001BC002800D000471248134993
:1000A000086003C880F30888084703B5996A0420EC
:1000B0000142FBD001200142F8D103BD02B5186610
:1000C0001866FFF7F2FF186E186E02BD00000240BE
:1000D000000000180000070000035F00212200005C
:1000E000F4000018222000A00001001008ED00E03C
:1000F00000000000000000000000000074B24E7A12
:1001000000200420F7010010C3010010C5010010F9
:10011000C1010010C1010010C1010010C101001097
:10012000C1010010C1010010C1010010C701001081
:10013000C1010010C1010010C9010010CB01001065
:10014000CD010010CD010010CD010010CD01001037
:10015000CD010010CD010010CD010010CD01001027
:10016000CD010010CD010010CD010010CD01001017
:10017000CD010010CD010010CD010010CD01001007
:10018000CD010010CD010010CD010010CD010010F7
:10019000CD010010CD010010CD010010CD010010E7
:1001A000CD010010CD010010CD010010CD010010D7
:1001B000CD010010CD010010CD010010CD010010C7
:1001C00000BE00BE00BE00BE00BE00BEEFF3058054
:1001D000103800BEF2EB88714445001070450010E5
:1001E0003802001090A31AE71E481F49086006C88D
:1001F00081F3088810471D480068002801D019487D
:10020000F3E70DA40ECC002902D000F012F8F9E7B4
:100210001749184A002000E001C19142FCD116495B
:100220008847164988471649884700BEFDE701C937
:1002300001C29A42FBD3704770450010C0000020F5
:1002400040020020F04600100000042000000420BE
:10025000F0460010001004200010042000000000F0
:10026000704700000000000008ED00E0000000D032
:100270004002002040060020A9390010D9030010D8
:10028000A1390010F8B5C0460448054B10B58342AB
:1002900003D0044B002B00D0984710BD4002002033
:1002A000400200200000000006480749091A8B1090
:1002B000C90FC91810B5491003D0044B002B00D04A
:1002C000984710BD400200204002002000000000BE
:1002D00010B5074C2378002B09D1FFF7D5FF054B4C
:1002E000002B02D0044800E000BF0123237010BDA2
:1002F000C005002000000000C0400010054B10B5F4
:10030000002B03D00449054800E000BFFFF7CCFFF5
:1003100010BDC04600000000C4050020C040001011
:10032000F8B5DE4657464E4645460120E0B501F099
:100330000DF88346022001F009F88246032001F0FF
:1003400005F88146092001F001F880460A2000F0F6
:10035000FDFF07000B2000F0F9FF06000C2000F065
:10036000F5FF05000D2000F0F1FF0400594612488A
:1003700003F038FD5146114803F034FD494610485A
:1003800003F030FD41460F4803F02CFD39000E48C4
:1003900003F028FD31000D4803F024FD29000C482E
:1003A00003F020FD21000B4803F01CFDF0BCBB4610
:1003B000B246A946A046F8BDC0400010D440001087
:1003C000E8400010FC4000101041001024410010D3
:1003D000384100104C41001010B5124C82B003F0AF
:1003E00025FC114803F074FCFFF79AFF230001225B
:1003F00001210094052000F02DFE0C4801F01AF8B0
:100400002300002200210094062000F023FE03F0C8
:100410000DFCFFF785FF064803F0E4FC002002B066
:1004200010BDC046006CDC0260410010008002403C
:100430007041001010B54024084A83009A181268D1
:10044000C0005440C0222240054CA44663441A60B8
:10045000044B9C466044416010BDC04604C001404E
:1004600004D00140004001400FB400B5084883B0FB
:1004700003F02EFC049B002B07D005A91800019166
:1004800003F074FA034803F023FC012003F086FA1A
:1004900080410010F840001070B5EFF3108C72B678
:1004A0000D4D2B68002BFCD0BFF35F8F0724CB08CA
:1004B000C618C05C01230C40A3401C00044003424A
:1004C00007D103433370BFF35F8F2C608CF3108828
:1004D00070BD1000FFF7C8FF2C0100D0044A10784F
:1004E000431CDBB2172B00D9102313707047C04692
:1004F000980100200021044B044ABFF35F8F02C320
:100500009342FAD17047C046000100D0800100D06C
:10051000054B064A1360064A136053609360D3602C
:1005200013615361936170478080808000E400E034
:1005300004E400E01F2318401E3B8340002905D03F
:10054000C021044A4900535013607047802201497A
:100550008B50FAE700E100E070B50D00EFF3108674
:1005600072B60F4A1368002BFCD0BFF35F8F0D4BA0
:1005700010309B6884001B590B4A934203D09D4264
:1005800001D000F0ABFF074B9B681D51BFF35F8F9D
:10059000BFF35F8F0022024B1A6086F3108870BD94
:1005A000240100D000ED00E0CD010010F0B5DE46E2
:1005B00057464E464546E0B50C0083B0EFF3108930
:1005C00072B65F4A1368002BFCD0BFF35F8F5D4BA0
:1005D0009A68030010339F00D5595B4A90469542B4
:1005E0003DD0A5424ED0594EAA1B2F2A37D8584A83
:1005F0009346126894460122614692468240114019
:100600001F2210405246824092460191802251465C
:1006100058468150BFF35F8FEFF305829346002A5F
:1006200032D101232A009A439068844208D17CE0A9
:100630004B005B189B00F318986884422ED01A0078
:10064000062151560029F3DA84424DD0019B002B3C
:100650001FD0C02251463E4B520099501960394B71
:100660009B68DD51BFF35F8FBFF35F8F0022344B78
:100670001A6089F3108803B0F0BCBB46B246A946A5
:10068000A046F0BD1500EAE79342CAD000F026FF6D
:10069000C7E7802351462E4AD150E0E7062159563C
:1006A000002922DB4A005018800034188046A068D8
:1006B0009860E079D871062020569871002825DBD3
:1006C000A488F01A6405241544440019E0240005A8
:1006D000400D24022043988052181E4B9200B618F9
:1006E0001A781970B271B1E71300594600290FD179
:1006F000FF3191711849918016490A789A71174A09
:100700009B1B5B415A43120D0A709FE71448E2E7B6
:10071000144A1549D21A083A5002400D01439980F3
:10072000124952080A43DA8090E706215156130015
:100730000029B7DA5A46002AEAD14546DCE7C04626
:10074000240100D000ED00E0CD0100109C0100204C
:1007500000E100E03C06002001BDFFFFAAAA000066
:1007600001BD0000D601002000F0FFFF00F8FFFFF0
:1007700070B501240443EFF30581EFF3108C72B6DA
:10078000214A1368002BFCD0BFF35F8F1F4B05007D
:100790001F4AED1A6D416A43120D1E4D8900AE6865
:1007A00052B27658A6421CD00621595691421CD00E
:1007B00012215956914222D01E215956914220D0E1
:1007C0002A2159560324914210D0134B19781A70DC
:1007D0008171BFF35F8F00220B4B1A608CF310887E
:1007E00070BDAB680D4C5C50EFE700246100091947
:1007F00089005B18FF21997109499980E5E7012477
:10080000F4E70224F2E7C046240100D09C01002056
:10081000AAAA000000ED00E03C060020CD01001077
:1008200001BDFFFF024B9C46614489000160704797
:1008300040000034F8B5134D134E2C00FF27B5428D
:100840001ED22368002B0FD0FFF748FE01002800BE
:10085000FFF7E8FFA780BFF35F8F0834B4420FD2E1
:1008600023682500002BEFD1FFF738FE0100280098
:10087000FFF7D8FF2771BFF35F8F0834B442EFD37F
:10088000F8BDC04638020020400200200A4B19681B
:10089000EFF3108072B60A68002AFCD0BFF35F8FB6
:1008A0001B68BFF35F8F00221A6080F3108840BF7F
:1008B000002000217047C04630060020F0B5DE461B
:1008C00057464E464546E0B585B0EFF30582032313
:1008D00013409A0011000392B64A525890460122E2
:1008E0009A40B54B91461A6031E043469B881BB253
:1008F000002B00DB9DE043469B79002B00D0EFE00E
:10090000434608241C5F002C00DA17E14246526976
:10091000630094461B19DB0063449C68DD68631C1C
:1009200000D113E1A54B03999C4661449A6A0B6977
:10093000A01A9B1A984200D20C61A04800F0C0FA9D
:10094000241A8D41002D00DDF8E000D12EE14B4648
:100950009A484363434608229B5E9A46002BC4DBB9
:10096000424652695B0093465344DB009B445B461E
:100970009E68DF6800F0A4FA801BB9410029B4DB4F
:10098000002F00DAEDE05B468D4A1B69934200D1EF
:10099000E0E041465A460820085E528800041043B1
:1009A0005A465169984704000D0023002B4300D19B
:1009B000D7E0002D00DBF0E0361BAF4134003D00F6
:1009C0005B469C60DD600021595E00298DDB43465B
:1009D0005B6922009C462B0048004018C000604420
:1009E0008668C768921BBB41002B00DA7DE743464F
:1009F000664602000094019519810CE07B00DB192A
:100A0000DB00F318009801999C68DD68001BA94180
:100A1000002904DB1A000023D75E002FEEDA5B46C4
:100A20001F805346138043469B881BB2002B00DA7D
:100A300061E743461A69EFF3108172B61368002B21
:100A4000FCD0BFF35F8F43469B8842461BB29A4659
:100A500001235B4293801369BFF35F8F00221A600A
:100A600081F310885346002B00DA44E743465B6964
:100A70009C46082343449B4653465F0043465744E5
:100A8000FF0008229A5E67445E46BC68FD68002A43
:100A900019DB3B000094019567469C4604E01E006C
:100AA0000023F25E002A0BDB0098019953009B188B
:100AB000DB00FB189C68DD68001BA9410029EEDA09
:100AC0006346BC461F005346338000217B5E3A805C
:100AD0009A46002BD0DA43469B79002B00D10FE7D2
:100AE000002342469371434646460821595E083624
:100AF0004B1C23D047468C46556902E006004B1C30
:100B000017D04B005B18DB00E8180A00E95E438849
:100B10001BB2002BF2DA01235B42DC178360C46056
:100B20006245ECD031803B89944603803A814B1C6E
:100B3000E7D16446B846002C00DBE7E640BF05B0CD
:100B4000F0BCBB46B246A946A046F0BD6B1C00D027
:100B5000E8E6F2E65B465C692000236998470028D6
:100B600021D15B4642461B8813811269EFF3108343
:100B700072B611680029FCD0BFF35F8F4246594618
:100B800052880A804246514651801269BFF35F8FF6
:100B90000021116083F31088A7E6084800F090F95F
:100BA00024184D410CE765682468FEE6002C00D14E
:100BB000CDE6C3E71C0600203C7005400040054020
:100BC000BD08001070B52E4C2569002D04D00A21F7
:100BD0002C48FFF727FE70BD2B4E0321300000F09C
:100BE00065F9E660FFF77AFC284B03229C46D02388
:100BF00022701B061B6801216370254B6044A360B3
:100C00000F23800020610220638063694942A18034
:100C100019800231198647311D83585218315A52B2
:100C200075325C39995218320131995218320131BA
:100C30009952183201319952083518329D520231B9
:100C400018329952183201319952183201319952A1
:100C5000183201319952183201319952183201314A
:100C600099520C4B0C49DC6001303562FFF774FC83
:100C700001210320FFF75EFC084B1D60A7E7C0467B
:100C8000E401002030060020004005404000003410
:100C9000FFFF10001C060020BD0800103860054052
:100CA00070B5C646010000B50469EFF3108C72B64A
:100CB00020680028FCD0BFF35F8F02200D5E4869DA
:100CC0006C0080466419E4004444002D01DB208858
:100CD00048800869BFF35F8F002606608CF3108898
:100CE000002D30DBE36063880598013320615B04ED
:100CF00006985B0CA26060611A1C002B21D090B298
:100D00002B04628018430A69EFF3108672B61368E9
:100D1000002BFCD0BFF35F8F8B8823808D800B6905
:100D2000BFF35F8F00221A6086F310880B780132C0
:100D30009A40CB6805498C4663441A6040BCB04673
:100D400070BD0122DBE701204042F7E73C200000B4
:100D500010B543890A14934233DD53009B1842694E
:100D6000DB00944604696344EFF3108C72B622688A
:100D7000002AFCD0BFF35F8F5A88090494B2090C93
:100D80008A4208D00369BFF35F8F00221A608CF398
:100D90001088002010BD8022120214435C800123C1
:100DA00002698371BFF35F8F002111608CF310889B
:100DB000054902788C469340C26801206244136062
:100DC000E8E70020E6E7C0463C200000F0B5CE464C
:100DD000474680B504000D0083B0EFF30587002F70
:100DE0003BD12F4E81463378F26804339B00916AE1
:100DF0009B58421A5B1A9A420ED320BF294A002000
:100E0000536AAB4203D3926A013091453CD803B098
:100E1000C0BCB946B046F0BD00F05AF822002B0025
:100E2000121A8B41002B26DB1F4B2200009330004F
:100E30002B000197FFF734FF011E1CDD194BA8465C
:100E40005A6A954225D920BF3000FFF781FF154A25
:100E50000020536A9845DAD8D5E7124A0020536A31
:100E60008B42D4D3926A0130A242D0D2581A421E89
:100E70009041C0B2CBE70B4A0020536AAB42C6D3C5
:100E8000926A01209145C2D9E81A421E9041C0B22F
:100E9000BDE79B6A9C42D7D99542D5D1D3E7C046DE
:100EA000E4010020004005408D08001010B5024A02
:100EB0000248FFF7F1FA10BD90410010E405002050
:100EC0000300416A0A00986A596A8A42FAD1704757
:100ED000034B596A0A00986A596A9142FAD17047DD
:100EE0000040054070B504000D00124A536A190015
:100EF000966A536A8B42FAD13000190024184D418A
:100F0000AB4211D80ED02B000A494A6A9A42FCD350
:100F100007D1084A02E0516A994202D1916AA1427E
:100F2000F9D370BDA642EED9012301246442E5172E
:100F30005B42E9E700400540F8B5040006200D00DB
:100F400000F0FEF9002842D0364B3749E2185342F0
:100F50005A418023DB039C469205344B62441A605D
:100F6000334B1A6010000B689843FBD12D4B802146
:100F7000E3185A4253412F4A5B0049009952062018
:100F800000F0DEF92900C00000F0AEFB0130C3091B
:100F90001ED1402701226262A362266BF30722D48E
:100FA000E36A254B0620E51800232B60266300F03A
:100FB000C7F93900800000F097FB7022E36A5A40BD
:100FC0007E2313402B601D4B23630323A364F8BDD2
:100FD0001B4A93421ED900231A4A1B4F6262A36226
:100FE000266BF307DCD5194B144AE3181A60656ABF
:100FF000A26A0620AD01AD1800F0A2F9144900F074
:1010000073FBAD020100280000F06EFB0021FFF72A
:1010100069FFC5E74006800E9F011A003F180300D4
:10102000B9E7C0460080FCBF08C0004000E00040B7
:1010300000F00040340600202C10000001030000E6
:10104000FEFF0000FFFF0000C0FF3F003030000047
:101050004E0E0000F8B557464E464546DE46E0B512
:1010600016000A9A05000F0000209A4205D9F0BC2C
:10107000BB46B246A946A046F8BD1A0E92461C02CF
:101080002000002351460A9A00F06CFB0023020066
:1010900051468046200000F065FB304B6C009C46BA
:1010A0006419A400644463688246984501D94346A4
:1010B00063602B1FDBB29946012B2CD9C023802201
:1010C0009B01E31812011A60254BAD0059599B464C
:1010D000002907D0586900F007FB431C5800C018CE
:1010E0000338FDD2226876017240E0268023164044
:1010F0004A465B01E3181E60012A23D9802380221F
:101100009B01E31812011A604346524663605B4636
:1011100001205A51ABE7012FD0D1C02303229B01FC
:10112000E3181A60023AA3681A42FCD0E02322684E
:10113000760156401E408023094A5B019346E3181E
:101140001E60AD000322216879400A401A60012226
:10115000BA40A3681A42FCD0D0E7C04600800040E5
:10116000E8050020F8B5DE464E4657464546E0B550
:101170008B4605000A991800160000F0B5FA0A9B84
:101180006C001F02324B64199C46A40064446368DF
:1011900081469F4200D967602B1FDBB29846012B26
:1011A00030D9C02380229B01E31812011A60294B19
:1011B000AD0059599A4600291BD122687601724028
:1011C000E0268023164042465B01E3181E60012A98
:1011D00030D9802380229B01E31812011A60534604
:1011E0004A4667605A51F0BCBB46B246A946A04683
:1011F000F8BD586900F078FA431C5800C01803384D
:10120000FDD2DAE75B46012BCBD1C02303229B0141
:10121000E3181A60023AA3681A42FCD0E02322685D
:10122000760156401E4080230A4A5B019246E3182D
:101230001E60AD005A462168514003220A401A60E0
:1012400001225B469A40A3681A42FCD0C1E7C0461F
:1012500000800040E8050020F0B546464F46D646DF
:10126000C0B51F00344B44009C462418A4006444BD
:10127000636888461600FF2B02D880235B006360FA
:10128000031FDBB29A46012B30D9C02380229B0179
:10129000E31812011A60294B850059599946002913
:1012A0001BD1226876017240E02680231640524608
:1012B0005B01E3181E60012A30D9802380229B0144
:1012C000E31812011A6080235B0063604B465F5194
:1012D000E0BCBA46B146A846F0BD586900F004FA31
:1012E000431C5800C0180338FDD2DAE74346012BEF
:1012F000CBD1C02303229B01E3181A60023AA368F2
:101300001A42FCD0E0232268760156401E4080231A
:101310000A4A5B019146E3181E6085004246216837
:10132000514003220A401A60012342469340A268BA
:101330001342FCD0C1E7C04600800040E805002011
:10134000014B8000C0587047E8050020802270B52E
:1013500006000E4C5200A3691D0015401342FAD13D
:10136000FA210B4B8900186900F0BEF90A231021FD
:101370002060064A23610B3B6560A3606661936948
:101380001942FCD0D069400970BDC0468080004041
:10139000E8050020F8B5040020481D0017000E00E5
:1013A00000F0A2F90100380000F09EF9069B290424
:1013B0001B0319432368002B1EDB194B194DE21840
:1013C00053425A4180235B019C461203164B6244F0
:1013D0001A60164B1A6017002B689F43FBD1144B01
:1013E0002660E2182123A06013602368002BFCDA3A
:1013F0000823E1601360F8BD3F2322681340B34225
:10140000DBD1A3681B051B0D8342D6D1EE22E36816
:10141000D20213408B42D0D1EDE7C046001BB7008B
:101420000040FDBF08C0004000E0004000F0004068
:10143000043000002D2343607047C0468023024AD9
:101440009B000B43D362704700800540142310B506
:101450000100188804331B88984710BD162310B567
:101460000100188802331B88984710BDF8B547461D
:10147000CE4680B50F1E19D01423994604330400BC
:101480000025012698464B461888434621681B884C
:10149000984701C4431E9841013540420640AF427F
:1014A000F1D13000C0BCB946B046F8BD0126F8E71E
:1014B000AA23064A1B0113602F230549D360054B5D
:1014C00019605368002BFCDA7047C04600400240A8
:1014D00000B0FA00006002407047C04610B50148F5
:1014E000FEF7C2FFB441001070B5074D074EB5427C
:1014F00009D20024013E761BB60808CD9847230088
:101500000134B342F9D170BD80400010BC400010DE
:10151000054B064A06491A60064A074B1A60100036
:101520000B689843FBD1704700E00040BFCDFBFE45
:1015300008C00040FE7F3C0000F00040044BDB6C24
:10154000002B03D18022034BD2021A607047C046A1
:10155000000011504C201150044A054B1A60054AF6
:101560001368DB018033FBD17047C046FFFFFF01EA
:1015700000F0004008C000404022034B9A675A67C1
:101580001A67DA667047C04600F0014010B5FEF7F2
:10159000B1FF10BD70B5044D044C2800C022A168F5
:1015A00000F014FFA56070BD0000002000ED00E019
:1015B000002310B5294C82B0A367FFF779FF012201
:1015C000274B1A60636C012BFCD10322254B1A6058
:1015D000224A936B012BFCD1013300930121224A53
:1015E00022480433FFF7D6FE052301210093204A49
:1015F0002048FFF7CFFE0022022104201E4BFFF7F8
:101600002BFE0022012105201C4BFFF725FE0022A6
:10161000002107201A4BFFF71FFE0022002108209F
:10162000174BFFF719FE8023DB00009300220021F7
:101630000920134BFFF796FD0022104B00210620D6
:10164000FFF70AFE0420FFF77BFE0E4900F04CF87E
:1016500001000020FFF7F2FE02B010BD0080004044
:101660003CB0004030B00040002F6859008002407C
:10167000008C864700C00240001BB700405973072A
:10168000006CDC0240420F0001480421014B184766
:10169000000200206D140010124A936F9B0815D2AF
:1016A0009066D166002905D0FFE7FFE7FFE7516F9D
:1016B000106F704704B580210906C21751400028F9
:1016C00000D0C84302F0CCFC002104BDF0B5146E7C
:1016D000556E576F166FFFF7E3FF14665566576731
:1016E0001667F0BD000000D0114A936F9B0813D21B
:1016F00010665166002905D0FFE7FFE7FFE7516F4D
:10170000106F704704B5002801D00020C04302F0DC
:10171000A7FC002104BDC046F0B5146E556E576F8E
:10172000166FFFF7E5FF1466556657671667F0BD3D
:10173000000000D094464A4A926F9208624601D255
:1017400028E0C046F0B5464E346E756E776F366F42
:1017500000F020F89446424A1466556657671667AB
:101760006246F0BD94463E4A926F9208624601D2AC
:1017700054E0C046F0B53A4E346E756E776F366FF2
:1017800000F04CF89446364A14665566576716675B
:101790006246F0BD002B24DB11D000293EDA00B5F3
:1017A000C943404200D1013100F038F8C9434042FA
:1017B00000D10131DB43524200D1013300BD002A88
:1017C000EBD1002801D1002905D00020C90FC9079D
:1017D00001D1C043410800B502F03AFC00220023C9
:1017E00000BD00B500290ADBDB43524200D10133C2
:1017F00000F014F8C943404200D1013100BDC94393
:10180000404200D10131DB43524200D1013300F0AC
:1018100005F8DB43524200D1013300BD002923D13A
:10182000002B18D1002A0CD0BC460D4F38667A66C2
:1018300000210023FFE7FFE7FFE77A6F386F674675
:101840007047002801D00748010000B502F000FCF5
:101850000022002300BD02000B0000200021704781
:10186000000000D0FFFFFFFF002B00D0BFE0130CF3
:1018700028D1002AE7D080B4114F39667A66FFE795
:10188000FFE730B4040C7B6F396F1B0423433B66C6
:101890007A66FFE7FFE7FFE7C04684B27B6F3D6FE4
:1018A0001B0423433B667A66FFE7FFE7C04600233D
:1018B0002C042D0C7A6F386F00196941B0BC704749
:1018C000000000D0F0B594460025140E01D112029C
:1018D0000835140F01D112010435940F01D1920083
:1018E0000235D40F01D152000135D40B0134254FFC
:1018F0007C66254C3C660E0C93B2FFE7FFE7FFE7E2
:101900003C6F6643360C7703BE467343DF0B5B04C4
:10191000C01AB941130C7343DB18C91ACE086643C9
:10192000360CB64493B273431F0F1B01C01AB94162
:10193000130C73431F0B1B05C01AB941860D8F0290
:101940003E436643360C092D24DB520A7243801A4B
:101950007703460A6643360C16235B1BDE40DF40E6
:10196000BF1964466643821B704604350633010086
:10197000D940A840C01900D30131A24206D20023A9
:10198000F0BD0000000000D0FFFFFFFF121B013080
:10199000F3D3F1E709277F1BFE406446A2B27243EE
:1019A000801A00D20139220C7243130C1204821ADD
:1019B00099410B007046043513370100F940A840E7
:1019C000801900D30131002B02D1A2420AD2F0BD0E
:1019D000013000D30131121BFAD2013BF8D1A242EF
:1019E00000D2F0BD013000D30131121BF7E7F0B592
:1019F0001C0C00D080E00CB400251C0A04D11B0292
:101A0000160E3343120208351C0B04D11B01160FAE
:101A10003343120104359C0B04D19B00960F3343D2
:101A200092000235DC0B02D192185B4101351C009B
:101A3000971864410134464F7C66464C3C660E0C58
:101A4000FFE7FFE7FFE7C0463C6F6643360C7703CE
:101A5000BE4697B27743C01B00D20139C01B00D2EB
:101A600001399FB27743C91BC91B170C77437E040A
:101A7000FF0B801BB941CE086643360C0C2D33DBBF
:101A8000B644120B1F053A431B0B97B27743C01B9A
:101A900000D201399FB27743C91B170C77433E042C
:101AA0003F0C801BB941860D8F023E4366432927B8
:101AB0007F1BFE400C3D7746AF40BF1930BCA2B241
:101AC000ABB272437343801A9941220C7243130CD8
:101AD0001204801A994102000B000137001BA94132
:101AE000F9D2781E0021F0BD0C277F1BFE407746FF
:101AF0007F0BAF40FF19E0E700245D1C07D0144FB7
:101B00007D663966FFE7FFE7FFE7FFE73C6F95B2C9
:101B10009EB265436643401BB141150C1E0C6543E4
:101B2000664336042F0C3E432D04401BB1419942BD
:101B300004D202000B0020000021F0BD01D1904230
:101B4000F7D3801A994101349942F2D3F6E70000A5
:101B5000000000D0FFFFFFFF48404140484018B45C
:101B60001B4B5B68FC46019308BD04DFFF1D0010A2
:101B700018B4174B1B68FC46019308BD00DF091E13
:101B800000109446134A926F920809D2624618B424
:101B90000F4BDB68FC46019308BD0CDFC120001031
:101BA0000C4AF0B5146E556E576F166F6246FFF70C
:101BB000EEFF084A1466556657671667F0BD18B4FD
:101BC000034B9B68FC46019308BD08DF651F0010AE
:101BD000C0030020000000D0FFB5504042405040FC
:101BE00059404B40594000E0FFB5154F4C00640D83
:101BF00003D0BC4204D10C0314D80020090D090500
:101C00005C00640D03D0BC4204D11C030AD800223E
:101C10001B0D1B0501264B4009D44B4003D58B42BD
:101C200000D18242FFBD9942FCD19042FFBD0B43DF
:101C3000DB1803431343F5D0C9434918FFBD000027
:101C4000FF07000000B5FFF7CFFF804100BDC04691
:101C500000B5FFF7C9FF01D9002000BD012000BD7C
:101C600000B5FFF7B9FF01D9002000BD012000BD7C
:101C700000B5FFF7B1FF804100BD012040054A00DB
:101C8000121804D85A00121801D8002070470120F9
:101C9000704700000021002805D17047C117484057
:101CA000401AFAD0C90713B5064B1B6898470CBCFD
:101CB000441CA2401005120B0349091B09051943D6
:101CC000114310BD2C0600201F04000010B54C006D
:101CD000620D8023D218DB00D21A5B057E2A10DD4C
:101CE0009E3A13DACC170903490819435242D140EE
:101CF000640001341532202A05DAD04008436043DD
:101D000010BD002010BD0846604310BDC80FC018AC
:101D1000013810BD18B4044B5B6AFC46019308BD42
:101D200024DF712200100000C0030020132370B5CF
:101D30001D78012D19D014DD1E48FFF78FFB06001A
:101D40001D48FFF78BFB1D4C80223100200000F066
:101D50003DFB022D06D01A48FFF778FB194B18609F
:101D600070BD164C184BA364F5E7174B134C23605A
:101D70006360A360E36023616361A361E361236245
:101D80006362A362E36223636363A363E363236425
:101D90006364A364E36423656365A365E365236605
:101DA0006366A366E36623676367A367E367A36469
:101DB000D1E7C0465344000053460000C003002052
:101DC0004C3300002C060020CD1D001007B56046E6
:101DD00001880A0A0230DF2AFAD1C9B2820804D384
:101DE000028840880004104300E00068014A505017
:101DF000039007BDC00300200FB403BC0CBCF0B5BA
:101E00000124E407634000E0F0B50C0DCF0F661E1F
:101E10003605891B640503D3C943404200D3013111
:101E2000640D03D0661CF60A07D0E41B00207F0077
:101E3000791C89078912803C24031D0DDF0F6E1E5B
:101E400036059B1B6D0503D3DB43524200D30133A0
:101E50006D0D03D06E1CF60A07D0ED1B00227F002B
:101E60007B1C9B079B12803D2D032F1B661B58D4A8
:101E7000A446202E46DA20371400BC401D00BD4089
:101E8000F24033412A4380185941CB0F05D0C94352
:101E9000C043002264425041514162464D0D28D159
:101EA0000D0D07D100281FD0241940414941013AA6
:101EB0000D0DF9D0640006D3013000D30131002CA0
:101EC00001D140084000013A0BD4941CE40A04D12B
:101ED00012051144DB071944F0BDD907204B194303
:101EE00000E0D9070020F0BD0029DDD1002CDBD1B6
:101EF000F0BD0132C6074008CD0728434908002E2F
:101F0000E1D0D9E73C2E29DA203E40371400BC400E
:101F100000D00124F24014431A00BB401C43D317E5
:101F2000ACE7AC46202F08DA20360400B4400D00A0
:101F3000B540F84039412843A5E73C2F0CDA203F53
:101F400040360400B44000D00124F84004430800A7
:101F5000B1400C43C117EAE710001900002494E7D0
:101F60000000F07FF0B50C0D661E3605891BE60AF1
:101F70006405640D02D0651CED0A04D00020012127
:101F80000905803C2403A4461C0D671E3F05DB1B8E
:101F9000E70A6405640D02D0651CED0A04D0002236
:101FA00001231B05803C24037740644497B484B22A
:101FB00096B27443070C7E43150C6F4380B268439E
:101FC000361802D3012000043F183004350C0019E4
:101FD0007D41844688B29AB250430C0C62431F0C78
:101FE0007C438EB27E43921902D301263604A41993
:101FF0001604170C3618674101BC81B29AB25143DE
:10200000040C62431B0C5C4380B25843121802D389
:102010000120000424181004130C401863412D18EB
:102020005E410020474106BC88B293B258430C0C75
:102030006343120C544389B251435B1802D301210C
:102040000904641819041A0C091862416D185641E4
:102050000020474118BCF902720D1143F0026A0DCD
:102060001043ED020A0D03D16D1940414941013B76
:10207000124E9B1B7600B3420ED26D0007D3013087
:10208000002671416646354301D1400840001B05DA
:10209000C918E4072144F0BD0BDA013306D1013041
:1020A00004D101314F0D01D04908F2E7E1070020CA
:1020B000F0BD013631050020EBE70000FF03000012
:1020C000F0B51C0D671E3F05DB1BE70A6405640DB8
:1020D00002D0661CF60A04D0002201231B05803CB6
:1020E0002403D0252D060026F6432E661E096E66B3
:1020F000CE0FF619B44649004F0D02D07E1CF60AE9
:1021000003D000200021403F3F033E1BB600B444F3
:10211000013F7F05C91B49082E6F013676089C02D6
:10212000950D25437543ED137543AD1301356D10C2
:10213000F603761B0CB4CC02450D2C43A2B2B3B20D
:102140005A43270C7B43350C6F43A4B26C431B19D5
:1021500002D3012424043F191C041D0CA4187D4142
:1021600024196D41009A91B2ACB26143170C7C43C3
:102170002B0C5F4392B25A43A41802D301221204DB
:10218000BF182204230C52187B41019C6C431B197D
:10219000520ED9010A434401A01A81B2B2B251438E
:1021A00003145A43360C734387B27743D617D219B8
:1021B00000277E4136049B191704160C7F185E41D8
:1021C0007316ED18F301002680337541A90F06D16F
:1021D0006400690AE8055B0A184309D22FE004226B
:1021E000944480337541A90AA8059B0A184326D355
:1021F000404149412404009A019B0D005543641B52
:102200004343E41A95B286B27543170C7E43030C20
:102210005F4392B25A43B61802D301221204BF1888
:102220003204330C52197B4152429C41002C02D49F
:102230000022013051414008CA071043490802B04A
:102240006246D7079210084BD218084B9A4203D225
:1022500012058918C919F0BD0020002A01DC3900D7
:10226000F0BD01331905F5E7FD030000FE0700008E
:10227000002200B5203200F004F8080000BD000084
:1022800000220B150AD410B5944600F031F814144E
:10229000013400DA0021CB17144C20470020002124
:1022A00070476244343A0CD40C2A07DA0400914097
:1022B000904052422032D440214310BDD843D943EC
:1022C00010BD203207D40C469440524220321141B6
:1022D000D040204310BD0800C917203203D4524219
:1022E0002032104110BD1800190010BDA3220010AB
:1022F0000A0DCC0F531E1B05C91A520503D3C9433F
:10230000404200D30131520D03D0531CDB0A07D0E9
:10231000121B00206400611C89078912803A120395
:10232000014BD21A70470000FF030000132310B5C1
:1023300012481C78FFF792F80100012C0AD003DD47
:1023400080220F4800F042F80E48FFF77FF80E4B4E
:10235000186010BD0A4C5422200000F037F80B4BD7
:102360006365A365E36523666366A366E366236727
:102370006367A367E3672362E361E5E75346000011
:10238000C00400204C3300002C06002091230010D4
:1023900007B5604601880A0A0230DF2AFAD1C9B2BD
:1023A000820804D3028840880004104300E00068DB
:1023B000014A5050039007BDC00400200148042189
:1023C000014B1847100200206D140010014B5B6890
:1023D00018470000100200207047C046F8B5574665
:1023E0004E464546DE46E0B599460A9B07009A46AA
:1023F0000D9B8846934615000B9E9B0710D10C9BA6
:102400009E420DD29D1B14000E005D4422004B46DF
:10241000013431002020B847A542F7D1B0460B9EC9
:10242000002E27D0444675195346AA1B013E985DDD
:1024300021004B46B847002EF6D123002C009846C9
:102440000D9B9B070FD55B46E51A0C9BAB420AD947
:102450004646984622004B46310020200135B847B9
:102460000134A845F6D82000F0BCBB46B246A946C8
:10247000A046F8BD2C00E3E7F0B54F464646D646E9
:10248000C0B584B098460EAB1B78129F994694460F
:102490000D9C109B119EBA0725D4002E4BD19C4257
:1024A00000D3BFE001223A4092461F2C00D9B8E089
:1024B0000C9A551E302201E0202C03D001342A55FD
:1024C000A342F9D85246002A0DD0A6420BD9202C9F
:1024D00044D00C9A551E302201E0202C3ED001340D
:1024E0002A55B442F9D1FA064DD57A053FD4002CCD
:1024F00039D10F9B102B00D179E00F9B022B00D11B
:102500008AE030230C9A012413704B46002B3FD0F5
:102510002D230C9A135501340C9B624600930397AC
:10252000434602960194FFF759FF04B0E0BCBA4657
:10253000B146A846F0BD012215003D40AA463A42E8
:102540002FD04A46002A02D10C323A4200D0013E36
:102550009C42BAD21F2CABD9202E27D92024FA06B0
:10256000DAD57A0503D4A3422DD0A6422BD00F9BF7
:10257000102B32D0022B20D0202CCDD030220C9B1F
:102580001B191A700134202CC6D04B46002BBFD12A
:102590007B070DD43B07BFD520230C9A135501347C
:1025A000BAE79C429FD21F2C00D881E720249AE7EB
:1025B0002B230C9A13550134AEE7202CACD00C9B86
:1025C0001B1901343AE0631E012C92D00F9A102A95
:1025D0002AD0022A2FD01C00D0E7BB060ED4202C14
:1025E0009AD00C9B1A19013478231370C4E7BB06E8
:1025F0000DD478230C9A01241370BFE7202C00D14E
:102600008AE758220C9B1B191A700134B4E758232F
:102610000C9A01241370B1E70C9A603301241370F3
:10262000ACE7202400265EE7023CBA06E9D40C9A07
:1026300012191C00D8E70C9A9246534462221A7071
:102640009AE7C04610B5002800D110BD01F0F4FA99
:10265000FBE7C0460B0010B5002802D049681B6894
:10266000984710BDF0B5DE4657464E464546E0B5A4
:102670009BB09B46249B89469846259B0B900C92C9
:102680004046424619009A46FFF7F7FA002800D064
:10269000D8E0012240465146774B5242FFF7E8FA14
:1026A000002800D0CEE0012240465146734B5242F2
:1026B000FFF7C8FA002800D0C4E0002200234046FB
:1026C0005146FFF7BFFA002800D0B9E14246534611
:1026D0000A9209938023289ADB001A400E92289AC6
:1026E0001A4201D1062326930A9A099B1600134326
:1026F00000D0C7E0289B002500261B0500D49BE1E5
:1027000000230D93269A0D9B9A4200DC9FE1D01A7C
:10271000431E26938023289ADB001A4300230027B8
:1027200028920D93279B0024BB4200D9DC1B022377
:10273000289A1A400E92289A134203D07B427B417A
:102740005B421C400D9B002B07D00A9809992A0078
:102750003300FFF716FA0A90099100220023404641
:102760005146FFF76FFA002805D080200006844606
:10277000099961440991289A414B0B9D1340049398
:10278000269B0A9A0293099B03940092019349465F
:102790005B4628000C9A00F08BF90400002F62D0F1
:1027A000289B220098061F23C0179843631C984655
:1027B00049465B466530A8470D9B0025DA179C18F3
:1027C000DB0F9A465440013F01E0202D13D00AAAA6
:1027D00094461F23200063440A2101355E19FEF749
:1027E00083FF3031317020000A21FEF77DFF260083
:1027F0000400092EE9D805230693002304930A3325
:102800000393534605970B9F029312AB00934246E6
:102810005B46494638000195FFF72EFE0E9B0400EB
:10282000002B20D00C9BC51A279BAB421BD91E0046
:1028300022005B46494620200135B8470134AE42AC
:10284000F6D810E0289B42460493279B4946039301
:10285000269B0B9802935346009201935B460C9A79
:1028600000F026F9040020001BB0F0BCBB46B246C5
:10287000A946A046F0BDC046FFFFEF7FFFFFEFFF78
:10288000FFF7FFFF734B099F9C467800400D6044A3
:10289000FFF704FA704A714BFFF791F9704A714BD8
:1028A000FFF766F93B03704A1B0B1A4304000D0047
:1028B000300011006D4B0022FFF751F96C4A6D4B4F
:1028C000FFF77DF902000B0020002900FFF750F907
:1028D000FFF7FCF90D90FFF7E1F9674A674B040039
:1028E0000D00FFF76CF90022654BFFF741F9FFF788
:1028F000EDF9644A0600644B20002900FFF75FF9F8
:10290000040030000D000F96FFF7C8F95F4A604BD6
:10291000FFF755F902000B0020002900FFF71FF90F
:1029200002000B0006000F00FFF749F93200040017
:102930000D003B0030003900FFF71AF9002210901B
:102940001191544B20002900FFF71BF90022524B34
:10295000FFF70EF902000B0020002900FFF711F924
:1029600000224E4BFFF704F902000B002000290063
:10297000FFF707F90D008021040032003B00002022
:10298000C905FFF7ECF802000B0020002900FFF753
:10299000EFF802000B0010981199FFF7F2F80022EF
:1029A000314BFFF7E5F83E4B0F9C9C4664440022F8
:1029B0002305FFF704F905000E0002000B000A983A
:1029C0000999FFF73FF900280AD00D9B2800013B29
:1029D00031000D930022304BFFF7D3F805000E00B5
:1029E000C6270D992B0063318F42BF4128997F4242
:1029F0000437090500D495E6334300D182E6099CEB
:102A0000284A2100284B0A98FFF72AF9002808D005
:102A100000222100254B0A98FFF714F9002800D066
:102A200070E6269B002B00D17CE60E9B5A1E93413C
:102A3000269AD31A269375E6002304270D9371E690
:102A400043460A9380231B065344099342E600231E
:102A500026935FE601FCFFFFFB799F501344D33FB1
:102A6000B3C8608B288AC63F0000F03F0000F83FE3
:102A700061436F63A787D23F71A379094F930A40DF
:102A80000000E03F1655B5BBB16B0240EF39FAFECE
:102A9000422EE63F00002C40000024400000184079
:102AA000FF0300002D431CEBE2361A3F80842E41C9
:102AB000F0B54E46DE4657464546E0B597B09946D6
:102AC000209E219F229B8346984607910C923B00B3
:102AD000320030003900FFF7D0F8002800D0A9E11B
:102AE000012230003900CA4B5242FFF7ABF80028F0
:102AF00000D0E1E0012230003900C64B5242FFF71E
:102B0000B7F8002800D0B7E0002230003900C24BEF
:102B1000FFF7AEF8002800D099E00022300039001D
:102B2000BE4BFFF78FF8002800D090E00022002372
:102B300030003900FFF786F8002800D0B1E000230C
:102B40000D93249B5B0501D40623984608AB9C4655
:102B50001722002430234146624404E00134135517
:102B60000139202C01D00929F8D8884630003900D5
:102B7000FFF7ACF84346DA00A94B05009B181A682A
:102B80005B6808920993FFF789F802000B00300098
:102B90003900FEF7E4FF089A099BFFF710F80A9046
:102BA0000B91FFF7B7F88246FFF774F802000B00AD
:102BB0000A980B99FEF7D3FF00229A4B0A900B91CB
:102BC000FFF756F8002800D1C0E001239C46E244FC
:102BD0005046FFF75FF802000B0008980999FFF7CD
:102BE00037F8002802D000239A4601354346002BCF
:102BF0006AD008AB17269C4608956644554614E0F3
:102C000001235B4243440A2128009A46FEF76CFDEB
:102C1000013430313719397028000A21FEF764FD7C
:102C2000092D00D8D0E0D0460500202CE8D10EAB0D
:102C300098460323249A1340012B00D196E02023C9
:102C4000249A01930392239A434602921EE0249B06
:102C500058460493239B00960197039343460C9A8E
:102C6000029307994B46FFF7FDFC17B0F0BCBB463B
:102C7000B246A946A046F0BD249B5B070ED40322B2
:102C8000694B24990192039123990291009358462C
:102C90004B460C9A0799FFF7A1FBE6E70422634B2A
:102CA000EFE73B00320000200021FEF758FF012330
:102CB00006000F000D9344E7249B0393239B02938C
:102CC000042301935A4BE1E72800FEF7E7FF0200D7
:102CD0000B0030003900FEF742FF524B0022060085
:102CE0000F00FEF7AFFF0EAB984600280AD1002276
:102CF000300039004B4BFEF7BBFF002802D1EB0739
:102D000000D50135202C94D008AA9446172328001A
:102D100063440A2101341E19FEF7BEFC303128003D
:102D200031700A21FEF7B8FC051EEBD10323249A6B
:102D30001340012B1BD0202C00D180E70D9B002BD2
:102D400035D02D224146631C0A5579E700220A98A6
:102D50000B99344BFEF776FF002800D046E7534628
:102D6000002B51D101239C46E2443FE72024239BC2
:102D7000002BE0D00D9B002B03D1249A0C3313427F
:102D800002D0239B013B2393239BA342D3D908ABBF
:102D90009C46172230236244202C00D14FE7239910
:102DA000013413558C42C6D0202CF8D147E7249B20
:102DB0005B0724D4249A2300120700D440E7202282
:102DC000414601330A553BE75746089D202C00D168
:102DD0002DE7220030214046002F09D00132B154A6
:102DE000202A00D123E7D3431B191B18002BF5D150
:102DF0000EAB98462E234146541C8B5482E72B225F
:102E00004146631C0A551BE7DB0700D4EEE6A9E741
:102E1000FFFFEFFFFFFFEF7F65CDCD4165CDCDC15A
:102E2000A84400100000E03FAC420010B042001087
:102E3000BC420010249B0393239B02930323019322
:102E4000004B23E7B8420010F0B5DE464E46574629
:102E50004546E0B59FB01C00289B91460993C94A9E
:102E6000C94B8B4608901A60002900D118E2002354
:102E700020789A46002800D11AE226001D005C4600
:102E80000AE02A006F1C4B46089D2100A8473D0020
:102E900001363078002870D02528F2D110239B46C7
:102EA000083B9A46043B9846023B00219C46721C14
:102EB000107816000300203BDBB2102B03D8B34F71
:102EC0009B00FB589F460300303B092B32D900235F
:102ED0000A932A2868D0002398462E283ED0030063
:102EE000683BDBB2122B1CD8A94A9B00D3589F46E3
:102EF000012301321943DBE7634601321943D7E767
:102F0000434601321943D3E75B4601321943CFE709
:102F1000534601321943CBE780235B007078194395
:102F200001360300253BDBB2532BAAD8994A9B00FC
:102F3000D3589F4600270300B800C019013640004F
:102F4000C018337830381A00303A0700092AF3D90C
:102F50000A901800002398462E28C0D1802370784C
:102F6000DB0019430300303B721C092B00D8A1E1A0
:102F70002A2800D1B2E11600B1E7A346AA462C00E8
:102F8000D14503D801235B424B449A464B465246F7
:102F900059460020089DA84720001FB0F0BCBB4642
:102FA000B246A946A046F0BD099B40CB0A96002E2A
:102FB00003DB50780993561C8DE728380143704293
:102FC0000A9009935078561C85E7782800D1DFE1F4
:102FD000582800D14CE26F2800D14FE3622801D17C
:102FE00000F030FC10230A009A430B92692801D0AC
:102FF00000F0A9FC0A230C934B0500D5D0E10B9AF5
:10300000802311009B0019408B461A4200D0A1E298
:10301000802311005B0019408A461A4200D0B6E3B3
:1030200013005B0600D5EDE2130009991B0601D4DD
:1030300000F076FC08C91BB2D8171A18424092B2A9
:1030400009919346DA0F1292002B09D180231022A6
:103050000B99DB000B4091430B91002B00D0E4E275
:103060000B9A6123920600D541230EA91F228C469C
:10307000DBB262440A3B5F461395A34655460C9C5F
:10308000B2460D9316000AE03033DBB201357355BA
:10309000A74200D2EDE2202D00D1EAE20700210094
:1030A0003800FEF721FBCBB20929EDD90D9A9446E1
:1030B0006344DBB2EAE780239B0070781943013652
:1030C0002FE77078682800D1CDE1802301361943BD
:1030D00027E770786C2800D1BFE180235B0019439B
:1030E00001361EE7462800D19BE10722099B049187
:1030F000073393430A9A19000392424602920CC97D
:1031000008980092019309912A004B462100FFF78D
:10311000CFFC01360500BCE62A006F1C4B46089D1B
:1031200021002520A84701363D00B2E68B0700D4D8
:10313000ADE1099B2A009A466B1C9846534601CB89
:1031400021009A46089F4B46C0B2B8470A9B9C464E
:103150006544012B00D886E2089B4746B04626000E
:103160004C4699463A002300013731002020C847D9
:10317000AF42F7D1A1465346340046460993013683
:1031800087E6C046492E001018060020C4420010F1
:103190000843001054430010099B04CB9B46434650
:1031A0000992002B00D1C6E013789C46002B00D179
:1031B000BDE34346013B099A0133D0180A9F13002F
:1031C00001E0834203D05A780133002AF9D1099AE9
:1031D0000A979B1A0B9380230A00DB001A400C927B
:1031E000194204D00B9B434501D943460B9302235C
:1031F0001A000A400D920B4200D187E16046002878
:1032000000D168E10C9B002B00D10DE1A844C2461F
:10321000099B57465B1B9846089BB2462A0026002E
:103220004C46994609E023003100551CC8474346E7
:10323000585D002800D126E12A009742F3D1A1462B
:103240003D00340056460D9B002B00D043E15B4609
:10325000013609931DE6099B1A0008CA9246002B05
:1032600048D0212211438B460EA884461F21614479
:10327000099500220F27A4460D0002E0202A0CD059
:103280000B003C001C4020003730092C00D80738C8
:103290000132A85419090F2BF0D86446099D32E079
:1032A000DC4B2078089300239A46002800D0E4E500
:1032B000002465E6434606000A9F9800C0180132C4
:1032C000400080191678030030003038303B092860
:1032D000F3D93000984616000A9700E6099B02369B
:1032E00004CB9046D2434046D21710408046099303
:1032F0003078F4E5102208009043113210438346E1
:1033000000224905B0D55B46069308230593434642
:103310000493102303930023029316AB01920093AE
:103320002A004B4621000898FFF7A6F853460500EF
:1033300001360993ADE513789C46002B00D1F7E2E6
:1033400002235B4237E7202302009A43472A04D135
:1033500080231B01194302239843452801D12023D0
:1033600019430722099B0491073393430A9A1900D2
:103370000392424602920CC9089800920193099167
:103380002A004B462100FFF76DF90136050080E564
:1033900010230C930C230A009A430B924B0503D580
:1033A00001230B9A9A430B92692800D127E66428DF
:1033B00000D124E60B9A802311009B0019408B4614
:1033C0001A4200D066E1802311005B0019408A4652
:1033D0001A4200D039E213005B0600D53CE113002D
:1033E0001B0600D4A6E2099B04CB1204120C9346E0
:1033F00009935B46002B00D09AE10B9A1033110021
:1034000099430B91520500D492E100239A460B9BFD
:1034100006930A9B0593434604930C9B0393002356
:103420000CE12023194360E6099B0A9A5B1B98462E
:103430004B4691461F00B2462600089C2A003B00DE
:103440003100A04743460135585D0028F6D14A4671
:103450003400B94656460A92F5E6C0239B00B07880
:10346000194302365DE5C023B0781943023658E5AA
:103470000C230A009A4314331A43103B0B920C930B
:103480004B058DD496E7A14634005646DBE60A9AF2
:10349000012A00D853E26B1E9F18089BB0462600F5
:1034A0004C4699462A002300013531002020C847A8
:1034B000BD42F7D1A14634004646099B3A0001CBF4
:1034C000210098467D1C4B46089FC0B2B847434632
:1034D00001360993DDE40B9B0A9AA8469A4200D86C
:1034E000B5E694466544ED1A089B4746B04626006B
:1034F0004C4699463A002300013731002020C84746
:10350000AF42F7D1A14634004646A0E60B9A0A998D
:10351000531C914200D814E24B199B1A1F00089BC0
:10352000B24626004C4699462A0023000135310058
:103530002020C847BD42F7D10A9BA14601330B9317
:10354000099B34001B7856469C466046002800D0F4
:1035500058E67CE60722099B0733934301329446E1
:103560009C4462465F6809921A68FB171093119396
:1035700010981199030053400E930B007B400F935A
:1035800094460E9A0F9B121A8B410E920F93FB0FCB
:103590006246129300233A439B463DD00B9A612327
:1035A000920600D541230022DBB20EA90A3B8C46CD
:1035B00092460D9343461F32624413951596554625
:1035C0000E9E0F9FA24690460C9C14930CE0303246
:1035D000D2B2434601355A55BB4500D18AE1202D70
:1035E00000D18AE106000F002200002330003900DC
:1035F000FEF7B8F8D2B2092AE9D90D9B9C4662447D
:10360000D2B2E6E7FF23099904C913401A000991D1
:1036100017E5C046D92300100B9A103311009943C7
:103620000B915205BAD500239A460B9B06930A9B31
:103630000593434604930C9B0393129B02935346BA
:10364000019316AB2A00009321004B460898FEF721
:1036500013FF013605001CE4FF22099B02CB114039
:103660008B460993C5E65346454609930136FFF755
:1036700010FC56465C46AA46139DD6E708230C93D9
:103680000B910B99642800D084E60B9B5B0500D559
:1036900086E6B4E40722099B07339343013294463C
:1036A0009C44624609921A685B6810009B461300AE
:1036B0005A46134307D10B9A1033110099430B91CB
:1036C000520500D5A1E60B9A6123920600D541234D
:1036D0000022DBB20EA90A3B8C4692460D9343466C
:1036E0001F3262445F461295A34655460400B24617
:1036F00090460C9E13930DE03032D2B24346013512
:103700005A550023BB4200D100E1202D00D100E139
:1037100004000F003200002320003900FEF722F8D9
:10372000D2B2092AE8D90D9B9C466244D2B2E5E7A1
:103730000B9A6123920600D54123DBB20EA90A3B06
:103740001F228C460D93230062445C46129517009D
:1037500055469B46B2460C9E08E03033DBB201353D
:103760007B55B4420ED3202D0CD004003100200034
:10377000FDF7BAFFCBB20929EFD90D9A94466344FD
:10378000DBB2ECE756465C46AA46129D3FE6099B33
:103790001A0008CAD91713925A184A409246DA0FEB
:1037A0001292002B08D1802310220B99DB000B40D2
:1037B00091430B91002B2BD10B9A6123920600D5DC
:1037C00041230EAA1F279446DBB20A3B0D9567449E
:1037D0005D460993A3465446B2460C9E08E030333A
:1037E000DBB201357B55B4420ED3202D0CD0040042
:1037F00031002000FDF778FFCBB20929EFD9099AF3
:1038000094466344DBB2ECE756465C46AB460D9DFE
:103810000B9B2A0006930A9B2100059343460493C1
:103820000C9B08980393129B013602935B4601930D
:1038300016AB00934B46FEF71FFE139B0500099342
:10384000FFF727FB02230C931AE7099B04CB924650
:103850001293002A08D1802310220B99DB000B4021
:1038600091430B91002B2BD10B9A6123920600D52B
:1038700041230EAA1F279446DBB20A3B0D956744ED
:103880005D460993A3465446B2460C9E08E0303389
:10389000DBB201357B55B4420ED3202D0CD0040091
:1038A00031002000FDF720FFCBB20929EFD9099A9A
:1038B00094466344DBB2ECE756465C46AB460D9D4E
:1038C0000B9B2A0006930A9B210005934346049311
:1038D0000C9B08980393002302935B46019316AB5D
:1038E00000934B46FEF7C8FD129B05000993013675
:1038F000FFF7CFFAB44200D871E6149B54460E96F7
:103900000F97AA469846159E139D8EE6A64200D8AC
:10391000FBE6139B56469846AA465C46129D76E502
:1039200008C9D8171A1842400991FFF78AFB0023EB
:103930000B9350E4099B04CB9346099359E52F0060
:10394000BBE50B9301E6063B0C939AE600B585B008
:103950000391012102900093034813004A4202A9F7
:10396000FFF772FA05B000BD5526001010B5094AE0
:103970000300146884B0002C08D00122009106488E
:10398000524203A9A047012004B010BD00F0A0F9E5
:103990000020F9E7180600204526001000BEFDE7CC
:1039A00010B5FFF7FBFFC04670B5FDF79DFD074D55
:1039B000074EB54209D20024013E761BB60808CD59
:1039C000984723000134B342F9D170BDBC400010C8
:1039D000C0400010030010B5080011001B68984794
:1039E00010BDC046F0B546464F46D646C0B5437DED
:1039F00080460E001700002B46D0002A3FDD4B1EEC
:103A00009946244B0125002400209A460DE04B46A0
:103A10001B5D0D3B5A425341325DDBB20A2A0BD08B
:103A20002B00013401359F421ADD002CEFD14346B3
:103A3000325D1B7D0A2AF3D1002BF1D1A04204DABA
:103A40004346211A1B6830189847434650461B6866
:103A500002219847013428002B0001359F42E4DC05
:103A6000874204DD4346391A1B6830189847F61917
:103A7000013E33780D3B5A42534142461375E0BC38
:103A8000BA46B146A846F0BD036811003000984719
:103A9000F5E7C046F8440010F0B5C6460C000968CA
:103AA000060000B5802906D04B1C236064182671DF
:103AB00080BCB846F0BD0F4B1D68002D16D0231DED
:103AC00098460D4F02E02D69002D0FD02B68002B7A
:103AD000F9D03B68002B01D0AB42F4D1280041461D
:103AE0002268FFF77FFF2D69002DEFD10123002110
:103AF000DBE7C0461006002014060020F0B5DE46C5
:103B000057464E464546E0B585B017001C000600F6
:103B10000D00FDF7DDF90023314A12184B41002B4F
:103B200059DB304908008A4600F0A2FA01906B1C6C
:103B300003D1300000F054FA0500002C26D12A4BA6
:103B400098462A4B1C68002C15D0002F21D1284FF5
:103B500002E02469002C0ED02368002BF9D03B68CA
:103B6000002B01D0A342F4D120002A003100C0472D
:103B70002469002CF0D1019B002B28D1280005B02E
:103B8000F0BCBB46B246A946A046F0BD194B9846CC
:103B9000D7E7174B994602ABDF1D0A239B4602E08D
:103BA0002469002CE7D02368002BF9D04B461B6812
:103BB000002B01D0A342F3D12A0031002000C047DE
:103BC0005B460122390020003B70C047E8E75046C1
:103BD00000F036FAD2E70122074B5242A1E7C04675
:103BE00040420F0038020020D53900101006002096
:103BF00014060020E5390010FFFFFF7F0A4A136812
:103C0000002B05D10CE01A001B691032002B07D0E5
:103C10009842F8D1002902D103691360016170470D
:103C20000029FCD01060FAE71006002010B500F063
:103C3000AFF9012010BDC046F0B5CE46474680B56D
:103C400083B06B460600DD1D2870FDF741F90023A7
:103C50001A4A12184B41002B2BDB194908008846E1
:103C600000F006FA174B81461C68002C14D0164F42
:103C700002E02469002C0FD02368002BF9D03B68A8
:103C8000002B01D0A342F4D1200001222900FFF72C
:103C9000A9FE2469002CEFD14B46002B05D1300042
:103CA00003B0C0BCB946B046F0BD404600F0C8F90C
:103CB000F5E70122054B5242CFE7C04640420F00D4
:103CC000380200201006002014060020FFFFFF7FAE
:103CD00070B5040000F084F9012301000500012201
:103CE0002000FFF70BFF084B1C68002C06D0636810
:103CF000002B05D098472469002CF8D1280070BD0E
:103D00002469002CF3D1F9E710060020F0B5CE4667
:103D1000474680B5A5B004000D00FDF7D9F8002393
:103D20002A4A12184B41002B49DB294E300000F083
:103D30009FF900230700039322002B00254803A9C5
:103D4000FFF704FE039B8046002B14D1224B1C6816
:103D5000002C06D06368002B0BD098472469002CF8
:103D6000F8D1002F27D1404625B0C0BCB946B04697
:103D7000F0BD2469ECE7184B1D689946002D22D050
:103D8000164C02E02D69002D11D02B68002BF9D0C4
:103D90002368002B01D09D42F4D1039B28001A0018
:103DA00004A90193FFF71EFE2D69002DEDD14B46AE
:103DB00003951C68CCE7300000F042F9D3E70122FC
:103DC000074B5242B1E70395CBE7C04640420F0094
:103DD00038020020993A0010100600201406002036
:103DE000FFFFFF7F0FB400B583B004A901C90191A3
:103DF000FFF78CFF03B008BC04B01847F0B50D1EE8
:103E000015DD0E4B0D271A680D4B4519D318594275
:103E10004B410C495B005E5E20210478A64207D02E
:103E200093691942FCD101301460A842F5D1F0BD6C
:103E300093691942FCD11760F2E7C04638060020AA
:103E40000080FCBF3406002030B504000D1E24DDC8
:103E5000002010211A4B013C1A689369194217D1AE
:103E6000013093691942FCD1136823548542F4D17F
:103E7000144B1B68002B0AD050239363516B183BE3
:103E80000B4011498C4662441360002814D030BDA9
:103E90000C4B1B68002BEFD1F7E70A4B1B68002B7C
:103EA0000AD05022064B1B689A63596B183A0A4095
:103EB00005498C4663441A6003204042E7E7C04648
:103EC00038060020DC05002034100000064B10B539
:103ED0001B68002B06D00021044A12689163044A33
:103EE0001068984710BDC046DC0500203806002049
:103EF000E00500200822034B19688B691A42FCD1A7
:103F00007047C0463806002070B51B4E1B4B326808
:103F10000500D3185842434114331C00002D04D02F
:103F2000174B1A68002A11D070BD154E3368002B4C
:103F3000FAD0002120009563FCF7FCFA200011491B
:103F4000FCF734FB104B35601D60EDE71D600E4B38
:103F5000200019600B49FCF7FFFA01212000FCF753
:103F6000E9FA502233689A63596B183A0A400749B4
:103F70008C4663441A60D7E7380600200080FCBFF7
:103F8000DC050020CD3E0010E005002034100000CC
:103F90000D4B10B51B780D4B0D4C1B780D4B0221B2
:103FA0001B780D4B00202360FCF744FA022101200E
:103FB000FCF740FAE12120684902FCF7BDFF01212E
:103FC0000648FFF71BFE10BD644500106845001051
:103FD000380600206C4500100040034020020020FD
:103FE00010B583070AD00300032102E001330B421E
:103FF00005D01A78002AF9D1181A10BD03001968E3
:104000000C4A0D4C8A188A4322420FD15968094A3A
:1040100004338A188A43224208D15968054A043376
:104020008A188A432242F1D000E001331A78002A2C
:10403000FBD1E1E7FFFEFEFE80808080F8B5C04640
:1040400001B40248844601BC604700BF5D01002006
:1040500001B40248844601BC604700BF85010020CE
:1040600001B40248844601BC604700BF85010020BE
:1040700001B40248844601BC604700BFC100002073
:10408000111500103D15001089160010BD230010F9
:104090002D1D00102D230010B11500105915001012
:1040A000791500108D1500103508001095150010B9
:1040B000C50B0010D914001011050010FD020010EE
:1040C000706C6C5F73797320203D2025646B487A97
:1040D0000A000000706C6C5F75736220203D202523
:1040E000646B487A0A000000726F736320202020FE
:1040F000203D2025646B487A0A000000636C6B5FEA
:1041000073797320203D2025646B487A0A000000F3
:10411000636C6B5F70657269203D2025646B487A23
:104120000A000000636C6B5F75736220203D2025E0
:10413000646B487A0A000000636C6B5F6164632003
:10414000203D2025646B487A0A000000636C6B5F99
:1041500072746320203D2025646B487A0A000000B9
:1041600048656C6C6F2C20776F726C6421000000C6
:1041700048656C6C6F2C2034384D487A0000000084
:104180000A2A2A2A2050414E4943202A2A2A0A0074
:10419000486172647761726520616C61726D20257F
:1041A0006420616C726561647920636C61696D651E
:1041B000640000004861726420617373657274006A
:1041C00052656C6561736500626F6F74325F773240
:1041D000357130383000000068747470733A2F2FD6
:1041E0006769746875622E636F6D2F726173706298
:1041F0006572727970692F7069636F2D6578616D72
:10420000706C65732F747265652F484541442F6348
:104210006C6F636B732F68656C6C6F5F34384D48DF
:104220007A000000322E312E300000007069636F7A
:104230000000000068656C6C6F5F34384D487A0090
:10424000466562202034203230323500050052505D
:10425000DE65F468F0460010060052505422A29D1C
:104260004042001006005250861C030234420010E7
:1042700006005250BBFF3CB62C42001006005250C4
:10428000ABB3605324420010060052509A235618D4
:10429000D841001006005250E182887FC8410010CA
:1042A00006005250D3F07542C0410010666E69009E
:1042B000666E692B000000006E616E00666E692DEF
:1042C00000000000102F0010C62E0010C62E001097
:1042D000082F0010C62E0010C62E0010C62E00108B
:1042E000C62E0010C62E0010C62E0010C62E0010BE
:1042F000002F0010C62E0010F82E0010C62E001041
:10430000C62E0010F02E0010C2300010222F001018
:10431000B6300010222F0010D2300010222F0010D3
:10432000222F0010222F0010222F0010222F001009
:10433000222F0010222F0010182F0010222F001003
:10434000222F0010222F0010222F0010222F0010E9
:10435000182F001018310010822E0010822E00102D
:10436000822E0010822E0010822E0010822E00104D
:10437000822E0010822E0010822E0010822E00103D
:10438000822E0010822E0010822E0010822E00102D
:10439000822E0010822E0010822E0010822E00101D
:1043A000822E0010822E0010822E0010822E00100D
:1043B000822E0010822E0010822E0010822E0010FD
:1043C000822E0010822E0010822E0010822E0010ED
:1043D000822E001046330010E430001046330010E7
:1043E000822E0010822E0010822E0010822E0010CD
:1043F000822E0010822E0010822E0010822E0010BD
:10440000822E0010822E0010822E0010822E0010AC
:10441000822E0010822E0010822E0010822E00109C
:10442000CA2F0010822E0010822E0010822E001043
:10443000822E0010822E0010822E0010822E00107C
:10444000822E0010822E0010CA2F00102C31001076
:10445000CA2F001046330010E4300010463300101D
:10446000822E0010CA2F0010822E0010822E001003
:10447000822E0010822E0010822E0010CA2F0010F3
:1044800056320010822E0010822E0010983100103B
:10449000822E0010CA2F0010822E0010822E0010D3
:1044A000CA2F001000000000000000000000F03FD4
:1044B00000000000000024400000000000005940FF
:1044C0000000000000408F40000000000088C34052
:1044D00000000000006AF8400000000080842E41C7
:1044E00000000000D01263410000000084D7974113
:1044F0000000000065CDCD410D0A00005541525429
:1045000020737464696E00005541525420737464C2
:104510006F7574005541525420737464696E202F76
:10452000207374646F7574000600525053B4F4A184
:1045300014450010080052501200000008005250AC
:0445400092100000D5
:104544004C420010584200106442001070420010A7
:104554007C4200108842001094420010A0420010D7
:0C45640028450010344500103C450010B4
:10457000F0B5C646150000B504001E000268EFF352
:10458000108172B61368002BFCD0BFF35F8F042339
:10459000E356002B2DDB2268BFF35F8F00201060F5
:1045A00081F31088D0221206127852B290469A42B5
:1045B00003D1002080BCB846F0BD00270BE0236883
:1045C000BFF35F8F1F6081F310882800310000F077
:1045D00033F80028EDD12268EFF3108172B613682A
:1045E000002BFCD0BFF35F8F23797F2BE7D94346A5
:1045F00002E0D0231B061B6823712368BFF35F8F83
:1046000000221A6081F310880120D3E70268EFF3DB
:10461000108172B61368002BFCD0BFF35F8FFF23AD
:1046200003710368BFF35F8F00221A6081F3108863
:1046300040BF70477047C04601B40248844601BC81
:10464000604700BFCD0D001010000000000000000A
:104650000000010000000000000000000000020057
:104660000000000000000000000003000000000047
:10467000000000000000FF000000000001B54868D5
:1046800001318E460047704609380149884701BD0F
:104690007107001000000000000000000000000092
:1046A00000000000000000004002002000000000A8
:1046B000503300004C3300005433000052330000EC
:1046C0004D5300004D4300005334000043340000BC
:1046D000FD3D0010F53E0010493E0010093F00105E
:1046E00000000000000100000000000000000000C9
:04000005100001E9FD
:00000001FF
