:020000041000EA
:1000000000B5324B212058609868022188439860DF
:10001000D860186158612E4B002199600221596106
:100020000121F02299502B49196001219960352056
:1000300000F044F80222904214D00621196600F024
:1000400034F8196E01211966002018661A6600F04E
:100050002CF8196E196E196E052000F02FF8012189
:100060000842F9D1002199601B49196000215960AB
:100070001A491B48016001219960EB211966A021F2
:10008000196600F012F800219960164914480160C1
:100090000121996001BC002800D000471248134993
:1000A000086003C880F30888084703B5996A0420EC
:1000B0000142FBD001200142F8D103BD02B5186610
:1000C0001866FFF7F2FF186E186E02BD00000240BE
:1000D000000000180000070000035F00212200005C
:1000E000F4000018222000A00001001008ED00E03C
:1000F00000000000000000000000000074B24E7A12
:1001000000200420F7010010C3010010C5010010F9
:10011000C1010010C1010010C1010010C101001097
:10012000C1010010C1010010C1010010C701001081
:10013000C1010010C1010010C9010010CB01001065
:10014000CD010010CD010010CD010010CD01001037
:10015000CD010010CD010010CD010010CD01001027
:10016000CD010010CD010010CD010010CD01001017
:10017000CD010010CD010010CD010010CD01001007
:10018000CD010010CD010010CD010010CD010010F7
:10019000CD010010CD010010CD010010CD010010E7
:1001A000CD010010CD010010CD010010CD010010D7
:1001B000CD010010CD010010CD010010CD010010C7
:1001C00000BE00BE00BE00BE00BE00BEEFF3058054
:1001D000103800BEF2EB8871B4810010D881001095
:1001E0003802001090A31AE71E481F49086006C88D
:1001F00081F3088810471D480068002801D019487D
:10020000F3E70DA40ECC002902D000F012F8F9E7B4
:100210001749184A002000E001C19142FCD116495B
:100220008847164988471649884700BEFDE701C937
:1002300001C29A42FBD37047D8810010C000002051
:10024000E00A0020F88B00100000042000000420C9
:10025000F88B0010001004200010042000000000A3
:10026000704700000000000008ED00E0000000D032
:10027000E00A0020B8180020214100107505001088
:1002800019410010F8B5C0460448054B10B583422B
:1002900003D0044B002B00D0984710BDE00A00208B
:1002A000E00A00200000000006480749091A8B10E8
:1002B000C90FC91810B5491003D0044B002B00D04A
:1002C000984710BDE00A0020E00A0020000000006E
:1002D00010B5074C2378002B09D1FFF7D5FF054B4C
:1002E000002B02D0044800E000BF0123237010BDA2
:1002F000600E002000000000B47A0010054B10B51D
:10030000002B03D00449054800E000BFFFF7CCFFF5
:1003100010BDC04600000000640E0020B47A00103A
:10032000F8B54746CE4680B5436905009846C37880
:10033000002B0AD04023AB6043462800EB6005F059
:100340008DF9C0BCB946B046F8BD427801780F4877
:1003500004F0FEF86B68002B14D00D4B00240F2620
:1003600099460C4F08E043463800195D04F0F0F858
:100370006B680134A34205D92642F4D1484604F003
:10038000E7F8F0E7044804F059F8D3E7B87A00102A
:10039000D87A0010E07A0010247B0010F0B55746A0
:1003A0004E46DE464546E0B50C7807000C196378EA
:1003B0000E0087B0212B2ED123780A79E418002A69
:1003C00029D02F4B002598462E4B9A462E4B994606
:1003D00004E023780135E41895421CDA6378052B94
:1003E00019D1A378DB09012BF3D12100380006F0E5
:1003F000CDF900280FD043461B78002B33D043465D
:100400005B78002B33D043469B78002B33D0434698
:10041000DB78002B06D007B0F0BCBB46B246A9463D
:10042000A046F0BD194B9B46032342460021D754FA
:100430006846082202F080FB6B466A461F70A3786C
:1004400068465370402302935B46039353460493DC
:100450005B46059305F002F9A2783900484604F09E
:1004600077F83279B5E70A4B9B460023DDE7094B65
:100470009B460123D9E7084B9B460223D5E7C0469C
:100480001015002021030010E87A0010D415002078
:10049000141500205415002094150020F0B5454691
:1004A000DE4657464E46E0B5057883B00190002DF4
:1004B00046D0023D6D0858D08027821C6D00130085
:1004C00000260020AD183F0103E002330136AB42A5
:1004D0000AD01C887F2CF8D90100BC42414102336C
:1004E0008C19A61CAB42F4D180231B019C4620230F
:1004F0005B429946603B9B4640333F279846019CB0
:1005000004E0237001340232954210D013887F2B0F
:10051000F7D963451BD240469909014321705946DA
:100520003B400B430232637002349542EED1019B93
:100530009C461900664400230D48337004F008F807
:1005400003B0F0BCBB46B246A946A046F0BD484643
:10055000190B014358462170990939403B4001432A
:1005600003436170A3700334CDE706000100E2E7A6
:10057000087B0010F8B504F0DFF81B4803F05EFFBD
:10058000002004F0D7FF194B002B01D000E000BF82
:10059000FA27174D174EBF0001200021404205F0F9
:1005A00073FB01F0D1F82C68002914D0FA22002343
:1005B000920001F073FC001BB842EDD3FA239B00BC
:1005C0009C46307864442C6004F0CEF801223378E5
:1005D00053403370E0E7FA21890001F021FC001B51
:1005E000B842D9D3EAE7C0460C7B001000000000F7
:1005F000A0180020B418002010B5010082B004003B
:10060000064803F0A5FF0023122200932000044BAC
:10061000044906F0E3F802B010BDC046287B001084
:100620001D0700104C160020010010B504000C48F6
:1006300003F08EFF0B4B1A78A24201D100221A70F0
:100640005A78A24201D100225A709A78A24201D16E
:1006500000229A70DA78A24201D10022DA7010BD2D
:10066000487B001010150020F0B5C6460D0000B5FF
:10067000CE788B7836021E438E19097880466D1825
:10068000AE422FD96B780B2B2FD0042B2AD1002010
:10069000711B89B22A782B00170000240138C0B2E0
:1006A0003C19A4B29B188C4206D30DE01A78A4180A
:1006B000A4B29B188C4207D25A780B2A0AD0042A7B
:1006C000F4D1DA78002AF1D1FF2803D001381A7862
:1006D000C0B2E5E7082C05D96B79032B12D02D1990
:1006E000AE42CFD880BCB846F0BD2A78EB78AD18C2
:1006F0006A78042AF6D1711B581E89B2C0B2002B49
:10070000C8D1EFE72A79D3009B1A12339BB2A342D8
:10071000E5D829004046FFF741FEE0E770B5C37811
:10072000C0B0002B00D083E0434C05786389228958
:100730002900424803F00CFF414803F07FFE217876
:10074000404803F005FF61783F4803F001FF6188EE
:100750003E4803F0FDFE21793D4803F0F9FE617942
:100760003C4803F0F5FEA1793B4803F0F1FEE17946
:100770003A4803F0EDFE2189394803F0E9FE61892A
:10078000384803F0E5FEA189374803F0E1FEA17B7C
:10079000364803F0DDFE80236A46280034495B00BA
:1007A00006F04EF900283FD0324E300003F046FEEE
:1007B000E17B314803F0CCFE80236A4628002C49B7
:1007C0005B0006F0CBF900282AD0300003F036FE9B
:1007D000217C2A4803F0BCFE80236A462800244975
:1007E0005B0006F049FA002816D0300003F026FE20
:1007F000617C234803F0ACFE80236A460021280078
:100800005B0006F08BF8002801D040B070BD69464F
:100810002800FFF729FFF8E76846FFF73FFEE4E707
:100820006846FFF73BFED0E76846FFF737FEBBE7B9
:10083000144803F003FEE8E74C1600208C7B001000
:10084000A87B0010BC7B0010D87B0010F47B00104C
:10085000147C0010307C00104C7C0010687C001070
:10086000847C0010A47C0010C47C0010E47C001088
:1008700009040000247B0010047D0010247D00107A
:10088000447D0010687B001010B54024084A8300A6
:100890009A181268C0005440C0222240054CA44659
:1008A00063441A60044B9C466044416010BDC046DE
:1008B00004C0014004D00140004001400123D02287
:1008C00083404021120693629361094A83009A187B
:1008D0001268C0005140C0220A4006498C46634459
:1008E0001A60054B9C460523604443607047C04630
:1008F00004C0014004D00140004001400FB400B5E5
:10090000084883B003F09AFD049B002B07D005A98B
:100910001800019103F0E6FB034803F08FFD01206E
:1009200003F0F8FB607D0010047B001070B5EFF35E
:10093000108C72B60D4D2B68002BFCD0BFF35F8F6F
:100940000724CB08C618C05C01230C40A3401C0040
:100950000440034207D103433370BFF35F8F2C6021
:100960008CF3108870BD1000FFF7C8FF2C0100D079
:10097000F8B54746CE46884680B5EFF3108C72B680
:10098000214D2C68002CFCD0BFF35F8F9A422CD8ED
:10099000D4080727055D061901241740BC402C42E6
:1009A0001FD007210127894609E0D408055D0619F3
:1009B0004C4639001440A1400C00294211D00132AC
:1009C0009342F2D201204042BFF35F8F00220E4BD0
:1009D0001A608CF3108800280FDBC0BCB946B04603
:1009E000F8BD2C4310003470EEE7BFF35F8F002397
:1009F0002B608CF31088012040424346002BECD042
:100A00000898FFF77BFFC0462C0100D0044A1078FD
:100A1000431CDBB2172B00D9102313707047C0465C
:100A2000100A002000B5054B83B001000093182286
:100A30001F230348FFF79CFF03B000BD707D00102B
:100A40001C1600200021044B044ABFF35F8F02C331
:100A50009342FAD17047C046000100D0800100D017
:100A6000054B064A1360064A136053609360D360D7
:100A700013615361936170478080808000E400E0DF
:100A800004E400E01F2318401E3B8340002905D0EA
:100A9000C021044A49005350136070478022014925
:100AA0008B50FAE700E100E070B50D00EFF310861F
:100AB00072B60F4A1368002BFCD0BFF35F8F0D4B4B
:100AC00010309B6884001B590B4A934203D09D420F
:100AD00001D001F09FF8074B9B681D51BFF35F8F5A
:100AE000BFF35F8F0022024B1A6086F3108870BD3F
:100AF000240100D000ED00E0CD010010F0B5574614
:100B00004E46DE464546E0B585B006000291170028
:100B1000EFF3108B72B6674A1368002BFCD0BFF35B
:100B20005F8F0025644B5D579A46002D00DAA4E0E4
:100B30006B00624C03935B199B009846A146C1442D
:100B40004B4652469B79103613705D4BB2009B6842
:100B5000019299580B1B2F2B34D95A4B994200D034
:100B6000A4E0039B584A9C46584B6544AD00635330
:100B7000434602336519E418554B0121043B1B1B06
:100B80001B055B0D13436B80524BEF71AB80FF2352
:100B9000AB71029BAB604B460B431900484B019A6B
:100BA0009B689950BFF35F8FBFF35F8F0022414B6B
:100BB0001A608BF3108805B0F0BCBB46B246A9465C
:100BC000A046F0BD01200A008243D379BB422FD852
:100BD00045464E46130040491B1B5B415943090DD6
:100BE0003A4B63533A4B02356519043B5B1B1B05BB
:100BF000354D5B0D2B4373800426B446E0444444DA
:100C0000131F1B1B4C46A17102991B05A16049468D
:100C10005B0D2B43A380314BE77101431360BDE7AC
:100C20005800C01880002018C679BE422BD9020097
:100C30000623D356002BF3DA101D8246284880463F
:100C400004267642B446E14450464E46361A3005F4
:100C5000400D824656461C48957106439680039A7D
:100C6000944665441D4AAD00641922604246A37152
:100C7000029BA280E771A36090E700F0CBFF002504
:100C800053465D5754E7101D824690884005001575
:100C900084464046D444664604302018301AE02684
:100CA0000005400D360230438046C9E700F0B2FF30
:100CB00057E7C046240100D0B3180020140A0020D2
:100CC00000ED00E0CD01001000E0FFFF00A1FFFFFC
:100CD000440A002001BDFFFFAAAA00000148804786
:100CE00001BD0000F0B5DE4657464E464546E0B52C
:100CF0000C0083B0EFF3108972B65F4A1368002BC3
:100D0000FCD0BFF35F8F5D4B9A68030010339F00E8
:100D1000D5595B4A904695423DD0A5424ED0594E9A
:100D2000AA1B2F2A37D8584A9346126894460122A4
:100D300061469246824011401F2210405246824036
:100D4000924601918022514658468150BFF35F8FF1
:100D5000EFF305829346002A32D101232A009A43F9
:100D60009068844208D17CE04B005B189B00F3182C
:100D7000986884422ED01A00062151560029F3DAD1
:100D800084424DD0019B002B1FD0C02251463E4BC8
:100D9000520099501960394B9B68DD51BFF35F8F4A
:100DA000BFF35F8F0022344B1A6089F3108803B0C1
:100DB000F0BCBB46B246A946A046F0BD1500EAE726
:100DC0009342CAD000F026FFC7E7802351462E4A3F
:100DD000D150E0E706215956002922DB4A0050187D
:100DE000800034188046A0689860E079D8710620A9
:100DF00020569871002825DBA488F01A6405241574
:100E000044440019E0240005400D2402204398804A
:100E100052181E4B9200B6181A781970B271B1E7C9
:100E20001300594600290FD1FF3191711849918063
:100E300016490A789A71174A9B1B5B415A43120D57
:100E40000A709FE71448E2E7144A1549D21A083A93
:100E50005002400D01439980124952080A43DA803A
:100E600090E70621515613000029B7DA5A46002AA6
:100E7000EAD14546DCE7C046240100D000ED00E0A1
:100E8000CD010010140A002000E100E0B31800209A
:100E900001BDFFFFAAAA000001BD00004E0A00200C
:100EA00000F0FFFF00F8FFFF70B501240443EFF3EB
:100EB0000581EFF3108C72B6214A1368002BFCD029
:100EC000BFF35F8F1F4B05001F4AED1A6D416A4348
:100ED000120D1E4D8900AE6852B27658A6421CD043
:100EE0000621595691421CD012215956914222D0C6
:100EF0001E215956914220D02A215956032491424D
:100F000010D0134B19781A708171BFF35F8F0022D4
:100F10000B4B1A608CF3108870BDAB680D4C5C50A5
:100F2000EFE700246100091989005B18FF2199711E
:100F300009499980E5E70124F4E70224F2E7C04675
:100F4000240100D0140A0020AAAA000000ED00E04D
:100F5000B3180020CD01001001BDFFFF024B9C46DD
:100F6000614489000160704740000034F8B5134DBA
:100F7000134E2C00FF27B5421ED22368002B0FD042
:100F8000FFF744FD01002800FFF7E8FFA780BFF34B
:100F90005F8F0834B4420FD223682500002BEFD1B5
:100FA000FFF734FD01002800FFF7D8FF2771BFF3DA
:100FB0005F8F0834B442EFD3F8BDC046D80A002092
:100FC000E00A002010B50400FFF720FD010020001A
:100FD000FFF7C4FFFF232371BFF35F8F10BDC0462F
:100FE00010B504000120FFF71DFD044B9C46604432
:100FF00080002060BFF35F8F10BDC046400000340A
:101000000A4B1968EFF3108072B60A68002AFCD008
:10101000BFF35F8F1B68BFF35F8F00221A6080F3FE
:10102000108840BF002000217047C0469C18002057
:10103000F0B5DE4657464E464546E0B585B0EFF37F
:101040000582032313409A0011000392B64A5258B6
:10105000904601229A40B54B91461A6031E04346D2
:101060009B881BB2002B00DB9DE043469B79002B45
:1010700000D0EFE0434608241C5F002C00DA17E1A3
:1010800042465269630094461B19DB0063449C6826
:10109000DD68631C00D113E1A54B03999C466144B4
:1010A0009A6A0B69A01A9B1A984200D20C61A04858
:1010B00000F042FB241A8D41002D00DDF8E000D144
:1010C0002EE14B469A484363434608229B5E9A466C
:1010D000002BC4DB424652695B0093465344DB005D
:1010E0009B445B469E68DF6800F026FB801BB9418D
:1010F0000029B4DB002F00DAEDE05B468D4A1B6966
:10110000934200D1E0E041465A460820085E5288EA
:10111000000410435A465169984704000D0023000B
:101120002B4300D1D7E0002D00DBF0E0361BAF41B0
:1011300034003D005B469C60DD600021595E002963
:101140008DDB43465B6922009C462B00480040181B
:10115000C00060448668C768921BBB41002B00DA60
:101160007DE74346664602000094019519810CE034
:101170007B00DB19DB00F318009801999C68DD689F
:10118000001BA941002904DB1A000023D75E002FB1
:10119000EEDA5B461F805346138043469B881BB2A2
:1011A000002B00DA61E743461A69EFF3108172B64B
:1011B0001368002BFCD0BFF35F8F43469B884246E9
:1011C0001BB29A4601235B4293801369BFF35F8F82
:1011D00000221A6081F310885346002B00DA44E79E
:1011E00043465B699C46082343449B4653465F0045
:1011F00043465744FF0008229A5E67445E46BC6837
:10120000FD68002A19DB3B000094019567469C4667
:1012100004E01E000023F25E002A0BDB0098019917
:1012200053009B18DB00FB189C68DD68001BA9417C
:101230000029EEDA6346BC461F0053463380002186
:101240007B5E3A809A46002BD0DA43469B79002B8E
:1012500000D10FE7002342469371434646460821DA
:10126000595E08364B1C23D047468C46556902E030
:1012700006004B1C17D04B005B18DB00E8180A0077
:10128000E95E43881BB2002BF2DA01235B42DC17D4
:101290008360C4606245ECD031803B899446038012
:1012A0003A814B1CE7D16446B846002C00DBE7E6E8
:1012B00040BF05B0F0BCBB46B246A946A046F0BD53
:1012C0006B1C00D0E8E6F2E65B465C69200023690F
:1012D0009847002821D15B4642461B88138112693A
:1012E000EFF3108372B611680029FCD0BFF35F8F53
:1012F0004246594652880A804246514651801269F8
:10130000BFF35F8F0021116083F31088A7E60848C0
:1013100000F012FA24184D410CE765682468FEE6D7
:10132000002C00D1CDE6C3E7801800203C700540BA
:10133000004005403110001070B52E4C2569002D7D
:1013400004D00A212C48FFF709FE70BD2B4E032163
:10135000300000F0E7F9E660FFF758FB284B032266
:101360009C46D02322701B061B6801216370254B0D
:101370006044A3600F2380002061022063806369C2
:101380004942A18019800231198647311D83585284
:1013900018315A5275325C399952183201319952CA
:1013A00018320131995218320131995208351832E8
:1013B0009D52023118329952183201319952183225
:1013C0000131995218320131995218320131995232
:1013D0001832013199520C4B0C49DC6001303562F6
:1013E000FFF762FB01210320FFF74CFB084B1D6058
:1013F000A7E7C0465C0A00209C180020004005407A
:1014000040000034FFFF1000801800203110001051
:101410003860054070B5C646010000B50469EFF3B9
:10142000108C72B620680028FCD0BFF35F8F0220BA
:101430000D5E48696C0080466419E4004444002D48
:1014400001DB208848800869BFF35F8F00260660B3
:101450008CF31088002D30DBE3606388059801333E
:1014600020615B0406985B0CA26060611A1C002B73
:1014700021D090B22B04628018430A69EFF31086E2
:1014800072B61368002BFCD0BFF35F8F8B8823806C
:101490008D800B69BFF35F8F00221A6086F310887E
:1014A0000B7801329A40CB6805498C4663441A6038
:1014B00040BCB04670BD0122DBE701204042F7E7A7
:1014C0003C20000010B543890A14934233DD5300D9
:1014D0009B184269DB00944604696344EFF3108C67
:1014E00072B62268002AFCD0BFF35F8F5A880904C5
:1014F00094B2090C8A4208D00369BFF35F8F0022BF
:101500001A608CF31088002010BD80221202144350
:101510005C80012302698371BFF35F8F002111603A
:101520008CF31088054902788C469340C2680120EC
:1015300062441360E8E70020E6E7C0463C20000074
:10154000F0B504000D0006267642F717C646361998
:101550006F4100B582B08F4214D811D000F0F4F87A
:1015600032003B00121A8B41002B15DC002B44D0BB
:101570002000290000F01CF902B080BCB846F0BD84
:101580008642EBD90026002700F0DEF832003B004F
:10159000121A8B41002BE9DD00F0D6F832003B0037
:1015A000121A8B41002B0ADB00230193144B3200EB
:1015B000009314483B00FFF72DFF0028D8DBB0460E
:1015C0000026BC46104A114F7B6A9C4504D8B96A74
:1015D0008845CDD99C45CBD11168EFF3108072B608
:1015E0000B68002BFCD0BFF35F8F1368BFF35F8FD6
:1015F0001E6080F3108820BFE6E7002AB8D0CBE752
:10160000011000105C0A00209C18002000400540DA
:1016100070B5060000F098F8FA2204000D000023CF
:1016200030000021920001F01DFA001969410029E3
:1016300002DBFFF785FF70BD012001494042F8E75A
:10164000FFFFFF7FF0B5CE46474680B504000D0092
:1016500083B0EFF30587002F3BD12F4E81463378BF
:10166000F26804339B00916A9B58421A5B1A9A42B3
:101670000ED320BF294A0020536AAB4203D3926A9B
:10168000013091453CD803B0C0BCB946B046F0BD6E
:1016900000F05AF822002B00121A8B41002B26DB97
:1016A0001F4B2200009330002B000197FFF7B2FE82
:1016B000011E1CDD194BA8465A6A954225D920BF48
:1016C0003000FFF7FFFE154A0020536A9845DAD82C
:1016D000D5E7124A0020536A8B42D4D3926A013074
:1016E000A242D0D2581A421E9041C0B2CBE70B4A58
:1016F0000020536AAB42C6D3926A01209145C2D9F9
:10170000E81A421E9041C0B2BDE79B6A9C42D7D9FD
:101710009542D5D1D3E7C0465C0A00200040054081
:101720000110001010B5024A0248FFF7FFF810BD83
:101730008C7D0010201600200300416A0A00986A80
:10174000596A8A42FAD17047034B596A0A00986A6B
:10175000596A9142FAD170470040054070B50400C3
:101760000D00124A536A1900966A536A8B42FAD1E5
:101770003000190024184D41AB4211D80ED02B0077
:101780000A494A6A9A42FCD307D1084A02E0516AE0
:10179000994202D1916AA142F9D370BDA642EED915
:1017A000012301246442E5175B42E9E7004005405C
:1017B000064A536A9942FCD807D1044B02E05A6AA0
:1017C000914202D19A6A8242F9D3704700400540A3
:1017D000F8B5040006200D0000F076F9002842D08C
:1017E000364B3749E21853425A418023DB039C466B
:1017F0009205344B62441A60334B1A6010000B6838
:101800009843FBD12D4B8021E3185A4253412F4A74
:101810005B0049009952062000F056F92900C000EB
:1018200000F0FEFA0130C3091ED140270122626296
:10183000A362266BF30722D4E36A254B0620E51842
:1018400000232B60266300F03FF93900800000F090
:10185000E7FA7022E36A5A407E2313402B601D4B47
:1018600023630323A364F8BD1B4A93421ED90023BC
:101870001A4A1B4F6262A362266BF307DCD5194B31
:10188000144AE3181A60656AA26A0620AD01AD1811
:1018900000F01AF9144900F0C3FAAD020100280063
:1018A00000F0BEFA0021FFF759FFC5E74006800EA1
:1018B0009F011A003F180300B9E7C0460080FCBF33
:1018C00008C0004000E0004000F00040A4180020E4
:1018D0002C10000001030000FEFF0000FFFF0000CD
:1018E000C0FF3F00303000004E0E0000F8B5DE466D
:1018F0004E4657464546E0B58B4605000A99180006
:10190000160000F08DFA0A9B6C001F02324B64191E
:101910009C46A4006444636881469F4200D9676086
:101920002B1FDBB29846012B30D9C02380229B01AC
:10193000E31812011A60294BAD0059599A46002943
:101940001BD1226876017240E02680231640424671
:101950005B01E3181E60012A30D9802380229B019D
:10196000E31812011A6053464A4667605A51F0BCA8
:10197000BB46B246A946A046F8BD586900F050FAE9
:10198000431C5800C0180338FDD2DAE75B46012B30
:10199000CBD1C02303229B01E3181A60023AA3684B
:1019A0001A42FCD0E0232268760156401E40802374
:1019B0000A4A5B019246E3181E60AD005A46216850
:1019C000514003220A401A6001225B469A40A368F4
:1019D0001A42FCD0C1E7C046008000402416002017
:1019E000F0B546464F46D646C0B51F00344B4400BE
:1019F0009C462418A4006444636888461600FF2BA4
:101A000002D880235B006360031FDBB29A46012B80
:101A100030D9C02380229B01E31812011A60294BA0
:101A200085005959994600291BD1226876017240D8
:101A3000E0268023164052465B01E3181E60012A0F
:101A400030D9802380229B01E31812011A60802381
:101A50005B0063604B465F51E0BCBA46B146A846A6
:101A6000F0BD586900F0DCF9431C5800C018033879
:101A7000FDD2DAE74346012BCBD1C02303229B01E1
:101A8000E3181A60023AA3681A42FCD0E0232268E5
:101A9000760156401E4080230A4A5B019146E318B6
:101AA0001E60850042462168514003220A401A60A8
:101AB000012342469340A2681342FCD0C1E7C046CE
:101AC0000080004024160020014B8000C058704761
:101AD00024160020F8B5040020481D0017000E0051
:101AE00000F09EF90100380000F09AF9069B2904E5
:101AF0001B0319432368002B1EDB194B194DE218F9
:101B000053425A4180235B019C461203164B6244A8
:101B10001A60164B1A6017002B689F43FBD1144BB9
:101B20002660E2182123A06013602368002BFCDAF2
:101B30000823E1601360F8BD3F2322681340B342DD
:101B4000DBD1A3681B051B0D8342D6D1EE22E368CF
:101B5000D20213408B42D0D1EDE7C046001BB70044
:101B60000040FDBF08C0004000E0004000F0004021
:101B7000043000008023024A9B000B43D36270476D
:101B800000800540142310B50100188804331B8819
:101B9000984710BD162310B50100188802331B8822
:101BA000984710BDF8B54746CE4680B50F1E19D0F0
:101BB00014239946043304000025012698464B4619
:101BC0001888434621681B88984701C4431E9841E2
:101BD000013540420640AF42F1D13000C0BCB946A9
:101BE000B046F8BD0126F8E7AA23064A1B01136098
:101BF0002F230549D360054B19605368002BFCDA8D
:101C00007047C0460040024000B0FA000060024049
:101C10007047C04610B50148FEF770FEB07D001059
:101C200070B5074D074EB54209D20024013E761B20
:101C3000B60808CD984723000134B342F9D170BDEE
:101C4000707A0010AC7A0010054B064A06491A60FB
:101C5000064A074B1A6010000B689843FBD1704787
:101C600000E00040BFCDFBFE08C00040FE7F3C000E
:101C700000F00040044BDB6C002B03D18022034BAF
:101C8000D2021A607047C046000011504C2011501B
:101C9000044A054B1A60054A1368DB018033FBD107
:101CA0007047C046FFFFFF0100F0004008C0004041
:101CB0004022034B9A675A671A67DA667047C04634
:101CC00000F0014010B5FEF7BDFE10BD70B5044D2B
:101CD000044C2800C022A16800F034FFA56070BD4C
:101CE0000000002000ED00E0002310B5294C82B078
:101CF000A367FFF779FF0122274B1A60636C012B62
:101D0000FCD10322254B1A60224A936B012BFCD194
:101D1000013300930121224A22480433FFF7DAFEFF
:101D2000052301210093204A2048FFF7D3FE00221B
:101D3000022104201E4BFFF753FE00220121052043
:101D40001C4BFFF74DFE0022002107201A4BFFF726
:101D500047FE002200210820174BFFF741FE802399
:101D6000DB000093002200210920134BFFF7BEFD8A
:101D70000022104B00210620FFF732FE0420FFF75F
:101D8000A3FE0E4900F04CF801000020FFF7F2FE20
:101D900002B010BD008000403CB0004030B00040B8
:101DA000002F685900800240008C864700C0024026
:101DB000001BB70040597307006CDC0240420F0063
:101DC00001480421014B1847800A0020A51B001080
:101DD000124A936F9B0815D29066D166002905D0F0
:101DE000FFE7FFE7FFE7516F106F704704B58021F1
:101DF0000906C2175140002800D0C84305F008FE6C
:101E0000002104BDF0B5146E556E576F166FFFF7C5
:101E1000E3FF1466556657671667F0BD000000D0F3
:101E2000114A936F9B0813D210665166002905D0A2
:101E3000FFE7FFE7FFE7516F106F704704B5002819
:101E400001D00020C04305F0E3FD002104BDC046E1
:101E5000F0B5146E556E576F166FFFF7E5FF1466F9
:101E6000556657671667F0BD000000D094464A4A91
:101E7000926F9208624601D228E0C046F0B5464E05
:101E8000346E756E776F366F00F020F89446424AD4
:101E900014665566576716676246F0BD94463E4A1B
:101EA000926F9208624601D254E0C046F0B53A4EB5
:101EB000346E756E776F366F00F04CF89446364A84
:101EC00014665566576716676246F0BD002B24DB23
:101ED00011D000293EDA00B5C943404200D101319A
:101EE00000F038F8C943404200D10131DB4352428F
:101EF00000D1013300BD002AEBD1002801D1002917
:101F000005D00020C90FC90701D1C043410800B561
:101F100005F06EFD0022002300BD00B500290ADB9C
:101F2000DB43524200D1013300F014F8C943404270
:101F300000D1013100BDC943404200D10131DB4332
:101F4000524200D1013300F005F8DB43524200D188
:101F5000013300BD002923D1002B18D1002A0CD059
:101F6000BC460D4F38667A6600210023FFE7FFE785
:101F7000FFE77A6F386F67467047002801D007483F
:101F8000010000B505F034FD0022002300BD020071
:101F90000B00002000217047000000D0FFFFFFFF72
:101FA000002B00D0BFE0130C28D1002AE7D080B46A
:101FB000114F39667A66FFE7FFE730B4040C7B6F98
:101FC000396F1B0423433B667A66FFE7FFE7FFE7B1
:101FD000C04684B27B6F3D6F1B0423433B667A6629
:101FE000FFE7FFE7C04600232C042D0C7A6F386F03
:101FF00000196941B0BC7047000000D0F0B59446AC
:102000000025140E01D112020835140F01D112015E
:102010000435940F01D192000235D40F01D1520042
:102020000135D40B0134254F7C66254C3C660E0CE3
:1020300093B2FFE7FFE7FFE73C6F6643360C770399
:10204000BE467343DF0B5B04C01AB941130C7343E4
:10205000DB18C91ACE086643360CB64493B27343F4
:102060001F0F1B01C01AB941130C73431F0B1B0533
:10207000C01AB941860D8F023E436643360C092DC6
:1020800024DB520A7243801A7703460A6643360CF1
:1020900016235B1BDE40DF40BF1964466643821B8C
:1020A0007046043506330100D940A840C01900D35A
:1020B0000131A24206D20023F0BD0000000000D092
:1020C000FFFFFFFF121B0130F3D3F1E709277F1B4E
:1020D000FE406446A2B27243801A00D20139220C3B
:1020E0007243130C1204821A99410B007046043596
:1020F00013370100F940A840801900D30131002BAB
:1021000002D1A2420AD2F0BD013000D30131121B2C
:10211000FAD2013BF8D1A24200D2F0BD013000D387
:102120000131121BF7E7F0B51C0C00D080E00CB4B5
:1021300000251C0A04D11B02160E33431202083577
:102140001C0B04D11B01160F3343120104359C0BE9
:1021500004D19B00960F334392000235DC0B02D171
:1021600092185B4101351C00971864410134464FB9
:102170007C66464C3C660E0CFFE7FFE7FFE7C04677
:102180003C6F6643360C7703BE4697B27743C01B5D
:1021900000D20139C01B00D201399FB27743C91B5D
:1021A000C91B170C77437E04FF0B801BB941CE0877
:1021B0006643360C0C2D33DBB644120B1F053A4335
:1021C0001B0B97B27743C01B00D201399FB27743F4
:1021D000C91B170C77433E043F0C801BB941860D89
:1021E0008F023E43664329277F1BFE400C3D774606
:1021F000AF40BF1930BCA2B2ABB272437343801A76
:102200009941220C7243130C1204801A9941020066
:102210000B000137001BA941F9D2781E0021F0BD47
:102220000C277F1BFE4077467F0BAF40FF19E0E78E
:1022300000245D1C07D0144F7D663966FFE7FFE779
:10224000FFE7FFE73C6F95B29EB265436643401BD4
:10225000B141150C1E0C6543664336042F0C3E43FA
:102260002D04401BB141994204D202000B00200012
:102270000021F0BD01D19042F7D3801A9941013479
:102280009942F2D3F6E70000000000D0FFFFFFFF05
:1022900048404140484018B41B4B5B68FC460193E2
:1022A00008BD04DF3725001018B4174B1B68FC4627
:1022B000019308BD00DF412500109446134A926F38
:1022C000920809D2624618B40F4BDB68FC460193B2
:1022D00008BD0CDFF92700100C4AF0B5146E556EDE
:1022E000576F166F6246FFF7EEFF084A1466556691
:1022F00057671667F0BD18B4034B9B68FC46019303
:1023000008BD08DF9D260010600C0020000000D0F2
:10231000FFB550404240504059404B40594000E0CA
:10232000FFB5154F4C00640D03D0BC4204D10C0323
:1023300014D80020090D09055C00640D03D0BC42CF
:1023400004D11C030AD800221B0D1B0501264B409B
:1023500009D44B4003D58B4200D18242FFBD994244
:10236000FCD19042FFBD0B43DB1803431343F5D070
:10237000C9434918FFBD0000FF07000000B5FFF783
:10238000CFFF804100BDC04600B5FFF7C9FF01D9AE
:10239000002000BD012000BD00B5FFF7B9FF01D945
:1023A000002000BD012000BD00B5FFF7B1FF804156
:1023B00000BD012040054A00121804D85A00121826
:1023C00001D800207047012070470000002100283C
:1023D00005D17047C1174840401AFAD0C90713B554
:1023E000064B1B6898470CBC441CA2401005120BFE
:1023F0000349091B09051943114310BD9818002012
:102400001F04000010B54C00620D8023D218DB00C1
:10241000D21A5B057E2A10DD9E3A13DACC17090327
:10242000490819435242D140640001341532202A30
:1024300005DAD0400843604310BD002010BD0846B7
:10244000604310BDC80FC018013810BD18B4044B4C
:102450005B6AFC46019308BD24DFA9290010000037
:10246000600C0020132370B51D78012D19D014DDE8
:102470001E48FFF78FFB06001D48FFF78BFB1D4C26
:1024800080223100200000F05DFB022D06D01A48AA
:10249000FFF778FB194B186070BD164C184BA364FE
:1024A000F5E7174B134C23606360A360E36023617F
:1024B0006361A361E36123626362A362E3622363F6
:1024C0006363A363E36323646364A364E3642365D6
:1024D0006365A365E36523666366A366E3662367B6
:1024E0006367A367E367A364D1E7C0465344000072
:1024F00053460000600C00204C3300009818002068
:102500000525001007B5604601880A0A0230DF2A57
:10251000FAD1C9B2820804D302884088000410436B
:1025200000E00068014A5050039007BD600C002095
:102530000FB403BC0CBCF0B50124E407634000E019
:10254000F0B50C0DCF0F661E3605891B640503D34D
:10255000C943404200D30131640D03D0661CF60A22
:1025600007D0E41B00207F00791C89078912803C7A
:1025700024031D0DDF0F6E1E36059B1B6D0503D357
:10258000DB43524200D301336D0D03D06E1CF60ABB
:1025900007D0ED1B00227F007B1C9B079B12803D18
:1025A0002D032F1B661B58D4A446202E46DA203755
:1025B0001400BC401D00BD40F24033412A43801846
:1025C0005941CB0F05D0C943C0430022644250415A
:1025D000514162464D0D28D10D0D07D100281FD065
:1025E000241940414941013A0D0DF9D0640006D348
:1025F000013000D30131002C01D140084000013AE4
:102600000BD4941CE40A04D112051144DB071944CD
:10261000F0BDD907204B194300E0D9070020F0BDD9
:102620000029DDD1002CDBD1F0BD0132C607400806
:10263000CD0728434908002EE1D0D9E73C2E29DAFE
:10264000203E40371400BC4000D00124F240144327
:102650001A00BB401C43D317ACE7AC46202F08DA66
:1026600020360400B4400D00B540F84039412843FD
:10267000A5E73C2F0CDA203F40360400B44000D0E0
:102680000124F84004430800B1400C43C117EAE7B5
:1026900010001900002494E70000F07FF0B50C0D45
:1026A000661E3605891BE60A6405640D02D0651CAA
:1026B000ED0A04D0002001210905803C2403A44632
:1026C0001C0D671E3F05DB1BE70A6405640D02D085
:1026D000651CED0A04D0002201231B05803C240365
:1026E0007740644497B484B296B27443070C7E4337
:1026F000150C6F4380B26843361802D301200004E2
:102700003F183004350C00197D41844688B29AB2D6
:1027100050430C0C62431F0C7C438EB27E439219D3
:1027200002D301263604A4191604170C3618674183
:1027300001BC81B29AB25143040C62431B0C5C434E
:1027400080B25843121802D3012000042418100448
:10275000130C401863412D185E410020474106BC10
:1027600088B293B258430C0C6343120C544389B2A1
:1027700051435B1802D301210904641819041A0C8F
:10278000091862416D1856410020474118BCF902F2
:10279000720D1143F0026A0D1043ED020A0D03D1D0
:1027A0006D1940414941013B124E9B1B7600B342DB
:1027B0000ED26D0007D301300026714166463543C5
:1027C00001D1400840001B05C918E4072144F0BDB1
:1027D0000BDA013306D1013004D101314F0D01D0A4
:1027E0004908F2E7E1070020F0BD0136310500207D
:1027F000EBE70000FF030000F0B51C0D671E3F056E
:10280000DB1BE70A6405640D02D0661CF60A04D0DF
:10281000002201231B05803C2403D0252D06002621
:10282000F6432E661E096E66CE0FF619B4464900B1
:102830004F0D02D07E1CF60A03D000200021403F3D
:102840003F033E1BB600B444013F7F05C91B490846
:102850002E6F013676089C02950D25437543ED13C6
:102860007543AD1301356D10F603761B0CB4CC0225
:10287000450D2C43A2B2B3B25A43270C7B43350C0F
:102880006F43A4B26C431B1902D3012424043F19E3
:102890001C041D0CA4187D4124196D41009A91B2AD
:1028A000ACB26143170C7C432B0C5F4392B25A438A
:1028B000A41802D301221204BF182204230C5218B8
:1028C0007B41019C6C431B19520ED9010A43440100
:1028D000A01A81B2B2B2514303145A43360C734367
:1028E00087B27743D617D21900277E4136049B1949
:1028F0001704160C7F185E417316ED18F3010026BD
:1029000080337541A90F06D16400690AE8055B0AA6
:10291000184309D22FE00422944480337541A90A58
:10292000A8059B0A184326D3404149412404009A34
:10293000019B0D005543641B4343E41A95B286B2D4
:102940007543170C7E43030C5F4392B25A43B6188B
:1029500002D301221204BF183204330C52197B41F6
:1029600052429C41002C02D40022013051414008C7
:10297000CA071043490802B06246D7079210084BB5
:10298000D218084B9A4203D212058918C919F0BD12
:102990000020002A01DC3900F0BD01331905F5E7FC
:1029A000FD030000FE070000002200B5203200F009
:1029B00004F8080000BD000000220B150AD410B571
:1029C000944600F031F81414013400DA0021CB17DA
:1029D000144C20470020002170476244343A0CD444
:1029E0000C2A07DA04009140904052422032D44031
:1029F000214310BDD843D94310BD203207D40C4623
:102A00009440524220321141D040204310BD080072
:102A1000C917203203D452422032104110BD180091
:102A2000190010BDDB2900100A0DCC0F531E1B0529
:102A3000C91A520503D3C943404200D30131520D94
:102A400003D0531CDB0A07D0121B00206400611C5A
:102A500089078912803A1203014BD21A704700008D
:102A6000FF03000051434343C9188C46110C83B245
:102A70004B4310B4040C614392B280B250436243A2
:102A80001C041B0C001910BC59411304120CC01873
:102A90005141614470470000132310B512481C785F
:102AA000FFF778F80100012C0AD003DD80220F48DF
:102AB00000F048F80E48FFF765F80E4B186010BD9F
:102AC0000A4C5422200000F03DF80B4B6365A365CF
:102AD000E36523666366A366E36623676367A367AC
:102AE000E3672362E361E5E753460000600D0020E1
:102AF0004C33000098180020FD2A001007B56046EE
:102B000001880A0A0230DF2AFAD1C9B2820804D346
:102B1000028840880004104300E00068014A5050D9
:102B2000039007BD600D002001480421014B1847A8
:102B3000900A0020A51B0010014B1B6818470000DD
:102B4000900A0020014B5B6818470000900A0020A3
:102B50007047C046F8B557464E464546DE46E0B596
:102B600099460A9B07009A460D9B88469346150096
:102B70000B9E9B0710D10C9B9E420DD29D1B1400F7
:102B80000E005D4422004B46013431002020B8473E
:102B9000A542F7D1B0460B9E002E27D044467519AA
:102BA0005346AA1B013E985D21004B46B847002EB4
:102BB000F6D123002C0098460D9B9B070FD55B4652
:102BC000E51A0C9BAB420AD94646984622004B4672
:102BD000310020200135B8470134A845F6D820003F
:102BE000F0BCBB46B246A946A046F8BD2C00E3E7C0
:102BF000F0B54F464646D646C0B584B098460EABB3
:102C00001B78129F994694460D9C109B119EBA0703
:102C100025D4002E4BD19C4200D3BFE001223A4084
:102C200092461F2C00D9B8E00C9A551E302201E0C4
:102C3000202C03D001342A55A342F9D85246002A49
:102C40000DD0A6420BD9202C44D00C9A551E302210
:102C500001E0202C3ED001342A55B442F9D1FA06C5
:102C60004DD57A053FD4002C39D10F9B102B00D1C4
:102C700079E00F9B022B00D18AE030230C9A0124CB
:102C800013704B46002B3FD02D230C9A1355013463
:102C90000C9B624600930397434602960194FFF70C
:102CA00059FF04B0E0BCBA46B146A846F0BD0122C7
:102CB00015003D40AA463A422FD04A46002A02D18A
:102CC0000C323A4200D0013E9C42BAD21F2CABD902
:102CD000202E27D92024FA06DAD57A0503D4A34278
:102CE0002DD0A6422BD00F9B102B32D0022B20D000
:102CF000202CCDD030220C9B1B191A700134202CB3
:102D0000C6D04B46002BBFD17B070DD43B07BFD5A8
:102D100020230C9A13550134BAE79C429FD21F2CF2
:102D200000D881E720249AE72B230C9A135501340D
:102D3000AEE7202CACD00C9B1B1901343AE0631E8B
:102D4000012C92D00F9A102A2AD0022A2FD01C00D0
:102D5000D0E7BB060ED4202C9AD00C9B1A19013454
:102D600078231370C4E7BB060DD478230C9A012492
:102D70001370BFE7202C00D18AE758220C9B1B1947
:102D80001A700134B4E758230C9A01241370B1E788
:102D90000C9A603301241370ACE7202400265EE710
:102DA000023CBA06E9D40C9A12191C00D8E70C9A16
:102DB0009246534462221A709AE7C04610B5002822
:102DC00000D110BD01F0EEFAFBE7C0460B0010B5D4
:102DD000002802D049681B68984710BDF0B5DE4650
:102DE00057464E464546E0B59BB09B46249B8946D8
:102DF0009846259B0B900C924046424619009A46F5
:102E0000FFF7D7FA002800D0D8E00122404651460B
:102E1000774B5242FFF7C8FA002800D0CEE00122DB
:102E200040465146734B5242FFF7A8FA002800D0A3
:102E3000C4E00022002340465146FFF79FFA0028D5
:102E400000D0B9E1424653460A9209938023289A5A
:102E5000DB001A400E92289A1A4201D106232693CB
:102E60000A9A099B1600134300D0C7E0289B00254F
:102E700000261B0500D49BE100230D93269A0D9B91
:102E80009A4200DC9FE1D01A431E26938023289AA1
:102E9000DB001A430023002728920D93279B002470
:102EA000BB4200D9DC1B0223289A1A400E92289AB2
:102EB000134203D07B427B415B421C400D9B002BA5
:102EC00007D00A9809992A003300FFF7F6F90A900B
:102ED00009910022002340465146FFF74FFA00288F
:102EE00005D0802000068446099961440991289AFA
:102EF000414B0B9D13400493269B0A9A0293099B16
:102F000003940092019349465B4628000C9A00F016
:102F10008BF90400002F62D0289B220098061F2303
:102F2000C0179843631C984649465B466530A847DE
:102F30000D9B0025DA179C18DB0F9A465440013F81
:102F400001E0202D13D00AAA94461F2320006344D9
:102F50000A2101355E19FEF763FF30313170200020
:102F60000A21FEF75DFF26000400092EE9D805239B
:102F70000693002304930A330393534605970B9F4C
:102F8000029312AB009342465B46494638000195D6
:102F9000FFF72EFE0E9B0400002B20D00C9BC51AC1
:102FA000279BAB421BD91E0022005B4649462020CE
:102FB0000135B8470134AE42F6D810E0289B4246AE
:102FC0000493279B49460393269B0B9802935346F1
:102FD000009201935B460C9A00F026F90400200051
:102FE0001BB0F0BCBB46B246A946A046F0BDC046E9
:102FF000FFFFEF7FFFFFEFFFFFF7FFFF734B099F1F
:103000009C467800400D6044FFF7E4F9704A714B2C
:10301000FFF771F9704A714BFFF746F93B03704AAD
:103020001B0B1A4304000D00300011006D4B0022F1
:10303000FFF731F96C4A6D4BFFF75DF902000B00A9
:1030400020002900FFF730F9FFF7DCF90D90FFF7BA
:10305000C1F9674A674B04000D00FFF74CF90022E5
:10306000654BFFF721F9FFF7CDF9644A0600644B81
:1030700020002900FFF73FF9040030000D000F96F3
:10308000FFF7A8F95F4A604BFFF735F902000B0024
:1030900020002900FFF7FFF802000B0006000F00D8
:1030A000FFF729F9320004000D003B003000390021
:1030B000FFF7FAF8002210901191544B20002900DC
:1030C000FFF7FBF80022524BFFF7EEF802000B006F
:1030D00020002900FFF7F1F800224E4BFFF7E4F83B
:1030E00002000B0020002900FFF7E7F80D00802107
:1030F000040032003B000020C905FFF7CCF80200B5
:103100000B0020002900FFF7CFF802000B001098F9
:103110001199FFF7D2F80022314BFFF7C5F83E4B6B
:103120000F9C9C46644400222305FFF7E4F8050049
:103130000E0002000B000A980999FFF71FF90028FA
:103140000AD00D9B2800013B31000D930022304B2B
:10315000FFF7B3F805000E00C6270D992B00633169
:103160008F42BF4128997F420437090500D495E674
:10317000334300D182E6099C284A2100284B0A9853
:10318000FFF70AF9002808D000222100254B0A98F1
:10319000FFF7F4F8002800D070E6269B002B00D142
:1031A0007CE60E9B5A1E9341269AD31A269375E607
:1031B000002304270D9371E643460A9380231B06E0
:1031C0005344099342E6002326935FE601FCFFFF88
:1031D000FB799F501344D33FB3C8608B288AC63F06
:1031E0000000F03F0000F83F61436F63A787D23FC4
:1031F00071A379094F930A400000E03F1655B5BB13
:10320000B16B0240EF39FAFE422EE63F00002C403F
:103210000000244000001840FF0300002D431CEB79
:10322000E2361A3F80842E41F0B54E46DE465746C0
:103230004546E0B597B09946209E219F229B834644
:10324000984607910C923B00320030003900FFF79E
:10325000B0F8002800D0A9E1012230003900CA4BA3
:103260005242FFF78BF8002800D0E1E00122300045
:103270003900C64B5242FFF797F8002800D0B7E05C
:10328000002230003900C24BFFF78EF8002800D032
:1032900099E0002230003900BE4BFFF76FF800289C
:1032A00000D090E00022002330003900FFF766F8DC
:1032B000002800D0B1E000230D93249B5B0501D4CE
:1032C0000623984608AB9C4617220024302341462B
:1032D000624404E0013413550139202C01D009293E
:1032E000F8D8884630003900FFF78CF84346DA00FA
:1032F000A94B05009B181A685B6808920993FFF7B1
:1033000069F802000B0030003900FEF7C4FF089A8C
:10331000099BFEF7F0FF0A900B91FFF797F88246A2
:10332000FFF754F802000B000A980B99FEF7B3FF61
:1033300000229A4B0A900B91FFF736F8002800D133
:10334000C0E001239C46E2445046FFF73FF80200EC
:103350000B0008980999FFF717F8002802D00023FE
:103360009A4601354346002B6AD008AB17269C4687
:1033700008956644554614E001235B4243440A2104
:1033800028009A46FEF74CFD013430313719397068
:1033900028000A21FEF744FD092D00D8D0E0D046D0
:1033A0000500202CE8D10EAB98460323249A134045
:1033B000012B00D196E02023249A01930392239AB3
:1033C000434602921EE0249B58460493239B00969A
:1033D0000197039343460C9A029307994B46FFF7D4
:1033E000FDFC17B0F0BCBB46B246A946A046F0BDF6
:1033F000249B5B070ED40322694B2499019203910D
:1034000023990291009358464B460C9A0799FFF76F
:10341000A1FBE6E70422634BEFE73B00320000200C
:103420000021FEF738FF012306000F000D9344E74B
:10343000249B0393239B0293042301935A4BE1E7BC
:103440002800FEF7C7FF02000B0030003900FEF72E
:1034500022FF524B002206000F00FEF78FFF0EAB3B
:10346000984600280AD10022300039004B4BFEF765
:103470009BFF002802D1EB0700D50135202C94D00A
:1034800008AA94461723280063440A2101341E1910
:10349000FEF79EFC3031280031700A21FEF798FCBF
:1034A000051EEBD10323249A1340012B1BD0202CA3
:1034B00000D180E70D9B002B35D02D224146631CA7
:1034C0000A5579E700220A980B99344BFEF756FF0C
:1034D000002800D046E75346002B51D101239C46DB
:1034E000E2443FE72024239B002BE0D00D9B002BE0
:1034F00003D1249A0C33134202D0239B013B239324
:10350000239BA342D3D908AB9C46172230236244A5
:10351000202C00D14FE72399013413558C42C6D09B
:10352000202CF8D147E7249B5B0724D4249A23005E
:10353000120700D440E72022414601330A553BE7F9
:103540005746089D202C00D12DE72200302140460F
:10355000002F09D00132B154202A00D123E7D343F0
:103560001B191B18002BF5D10EAB98462E23414694
:10357000541C8B5482E72B224146631C0A551BE7DF
:10358000DB0700D4EEE6A9E7FFFFEFFFFFFFEF7FC9
:1035900065CDCD4165CDCDC1588000100000E03F24
:1035A0005C7E0010607E00106C7E0010249B0393F4
:1035B000239B029303230193004B23E7687E0010B3
:1035C000F0B5DE464E4657464546E0B59FB01C0076
:1035D000289B91460993C94AC94B8B4608901A60AB
:1035E000002900D118E2002320789A46002800D153
:1035F0001AE226001D005C460AE02A006F1C4B46BA
:10360000089D2100A8473D0001363078002870D081
:103610002528F2D110239B46083B9A46043B984646
:10362000023B00219C46721C107816000300203BD0
:10363000DBB2102B03D8B34F9B00FB589F4603000F
:10364000303B092B32D900230A932A2868D0002363
:1036500098462E283ED00300683BDBB2122B1CD8C4
:10366000A94A9B00D3589F46012301321943DBE747
:10367000634601321943D7E7434601321943D3E782
:103680005B4601321943CFE7534601321943CBE77A
:1036900080235B007078194301360300253BDBB2C1
:1036A000532BAAD8994A9B00D3589F460027030062
:1036B000B800C01901364000C018337830381A00FD
:1036C000303A0700092AF3D90A90180000239846D7
:1036D0002E28C0D180237078DB0019430300303BD3
:1036E000721C092B00D8A1E12A2800D1B2E11600F2
:1036F000B1E7A346AA462C00D14503D801235B427B
:103700004B449A464B46524659460020089DA847CE
:1037100020001FB0F0BCBB46B246A946A046F0BD93
:10372000099B40CB0A96002E03DB50780993561C68
:103730008DE72838014370420A9009935078561C4F
:1037400085E7782800D1DFE1582800D14CE26F28C6
:1037500000D14FE3622801D100F030FC10230A00B1
:103760009A430B92692801D000F0A9FC0A230C931C
:103770004B0500D5D0E10B9A802311009B00194026
:103780008B461A4200D0A1E2802311005B00194051
:103790008A461A4200D0B6E313005B0600D5EDE27C
:1037A000130009991B0601D400F076FC08C91BB26E
:1037B000D8171A18424092B209919346DA0F129222
:1037C000002B09D1802310220B99DB000B40914381
:1037D0000B91002B00D0E4E20B9A6123920600D5F6
:1037E00041230EA91F228C46DBB262440A3B5F468E
:1037F0001395A34655460C9CB2460D9316000AE05D
:103800003033DBB201357355A74200D2EDE2202DF3
:1038100000D1EAE2070021003800FEF701FBCBB23D
:103820000929EDD90D9A94466344DBB2EAE7802377
:103830009B007078194301362FE77078682800D113
:10384000CDE180230136194327E770786C2800D139
:10385000BFE180235B00194301361EE7462800D1F3
:103860009BE10722099B0491073393430A9A1900AD
:103870000392424602920CC9089800920193099162
:103880002A004B462100FFF7CFFC01360500BCE6BD
:103890002A006F1C4B46089D21002520A8470136B1
:1038A0003D00B2E68B0700D4ADE1099B2A009A46A1
:1038B0006B1C9846534601CB21009A46089F4B4605
:1038C000C0B2B8470A9B9C466544012B00D886E2EB
:1038D000089B4746B04626004C4699463A002300CE
:1038E000013731002020C847AF42F7D1A1465346E7
:1038F000340046460993013687E6C046C1350010BC
:103900007C180020747E0010B87E0010047F001028
:10391000099B04CB9B4643460992002B00D1C6E08D
:1039200013789C46002B00D1BDE34346013B099A26
:103930000133D0180A9F130001E0834203D05A7864
:103940000133002AF9D1099A0A979B1A0B93802315
:103950000A00DB001A400C92194204D00B9B43452D
:1039600001D943460B9302231A000A400D920B42E1
:1039700000D187E16046002800D168E10C9B002B54
:1039800000D10DE1A844C246099B57465B1B9846EF
:10399000089BB2462A0026004C46994609E02300BF
:1039A0003100551CC8474346585D002800D126E128
:1039B0002A009742F3D1A1463D00340056460D9BA4
:1039C000002B00D043E15B46013609931DE6099BBD
:1039D0001A0008CA9246002B48D0212211438B4678
:1039E0000EA884461F216144099500220F27A44692
:1039F0000D0002E0202A0CD00B003C001C402000EF
:103A00003730092C00D807380132A85419090F2B78
:103A1000F0D86446099D32E0DC4B207808930023FF
:103A20009A46002800D0E4E5002465E643460600F7
:103A30000A9F9800C01801324000801916780300D0
:103A400030003038303B0928F3D930009846160052
:103A50000A9700E6099B023604CB9046D2434046C3
:103A6000D2171040804609933078F4E51022080000
:103A7000904311321043834600224905B0D55B467E
:103A800006930823059343460493102303930023CE
:103A9000029316AB019200932A004B46210008982E
:103AA000FFF7A6F85346050001360993ADE51378F4
:103AB0009C46002B00D1F7E202235B4237E720232C
:103AC00002009A43472A04D180231B011943022391
:103AD0009843452801D1202319430722099B0491CB
:103AE000073393430A9A19000392424602920CC983
:103AF00008980092019309912A004B462100FFF794
:103B00006DF90136050080E510230C930C230A00A3
:103B10009A430B924B0503D501230B9A9A430B92C0
:103B2000692800D127E6642800D124E60B9A802377
:103B300011009B0019408B461A4200D066E1802399
:103B400011005B0019408A461A4200D039E2130086
:103B50005B0600D53CE113001B0600D4A6E2099BDE
:103B600004CB1204120C934609935B46002B00D041
:103B70009AE10B9A1033110099430B91520500D42E
:103B800092E100239A460B9B06930A9B05934346BA
:103B900004930C9B039300230CE12023194360E65C
:103BA000099B0A9A5B1B98464B4691461F00B246FA
:103BB0002600089C2A003B003100A04743460135FF
:103BC000585D0028F6D14A463400B94656460A9256
:103BD000F5E6C0239B00B078194302365DE5C023AB
:103BE000B0781943023658E50C230A009A4314337F
:103BF0001A43103B0B920C934B058DD496E7A146CC
:103C000034005646DBE60A9A012A00D853E26B1EBE
:103C10009F18089BB04626004C4699462A00230070
:103C2000013531002020C847BD42F7D1A1463400FC
:103C30004646099B3A0001CB210098467D1C4B4625
:103C4000089FC0B2B847434601360993DDE40B9B99
:103C50000A9AA8469A4200D8B5E694466544ED1AF9
:103C6000089B4746B04626004C4699463A0023003A
:103C7000013731002020C847AF42F7D1A1463400B8
:103C80004646A0E60B9A0A99531C914200D814E2CA
:103C90004B199B1A1F00089BB24626004C469946BA
:103CA0002A002300013531002020C847BD42F7D14A
:103CB0000A9BA14601330B93099B34001B7856469F
:103CC0009C466046002800D058E67CE60722099B07
:103CD00007339343013294469C4462465F680992DD
:103CE0001A68FB1710931193109811990300534011
:103CF0000E930B007B400F9394460E9A0F9B121A63
:103D00008B410E920F93FB0F6246129300233A43AE
:103D10009B463DD00B9A6123920600D54123002299
:103D2000DBB20EA90A3B8C4692460D9343461F32E6
:103D300062441395159655460E9E0F9FA2469046D7
:103D40000C9C14930CE03032D2B2434601355A55E4
:103D5000BB4500D18AE1202D00D18AE106000F0089
:103D60002200002330003900FEF798F8D2B2092A69
:103D7000E9D90D9B9C466244D2B2E6E7FF2309993C
:103D800004C913401A00099117E5C046512B0010D1
:103D90000B9A1033110099430B915205BAD50023A9
:103DA0009A460B9B06930A9B0593434604930C9BF0
:103DB0000393129B02935346019316AB2A00009380
:103DC00021004B460898FEF713FF013605001CE45E
:103DD000FF22099B02CB11408B460993C5E653464F
:103DE000454609930136FFF710FC56465C46AA4645
:103DF000139DD6E708230C930B910B99642800D0F0
:103E000084E60B9B5B0500D586E6B4E40722099B9C
:103E100007339343013294469C44624609921A68E0
:103E20005B6810009B4613005A46134307D10B9A58
:103E30001033110099430B91520500D5A1E60B9A5E
:103E40006123920600D541230022DBB20EA90A3B72
:103E50008C4692460D9343461F3262445F4612954C
:103E6000A34655460400B24690460C9E13930DE0BF
:103E70003032D2B2434601355A550023BB4200D1FD
:103E800000E1202D00D100E104000F0032000023EA
:103E900020003900FEF702F8D2B2092AE8D90D9BBA
:103EA0009C466244D2B2E5E70B9A6123920600D5A4
:103EB0004123DBB20EA90A3B1F228C460D9323003F
:103EC00062445C461295170055469B46B2460C9ECE
:103ED00008E03033DBB201357B55B4420ED3202DE0
:103EE0000CD0040031002000FDF79AFFCBB2092965
:103EF000EFD90D9A94466344DBB2ECE756465C4634
:103F0000AA46129D3FE6099B1A0008CAD9171392C8
:103F10005A184A409246DA0F1292002B08D1802399
:103F200010220B99DB000B4091430B91002B2BD1FE
:103F30000B9A6123920600D541230EAA1F279446AF
:103F4000DBB20A3B0D9567445D460993A346544690
:103F5000B2460C9E08E03033DBB201357B55B442EB
:103F60000ED3202D0CD0040031002000FDF758FFA7
:103F7000CBB20929EFD9099A94466344DBB2ECE746
:103F800056465C46AB460D9D0B9B2A0006930A9B4A
:103F900021000593434604930C9B08980393129BBE
:103FA000013602935B46019316AB00934B46FEF736
:103FB0001FFE139B05000993FFF727FB02230C93B9
:103FC0001AE7099B04CB92461293002A08D180235A
:103FD00010220B99DB000B4091430B91002B2BD14E
:103FE0000B9A6123920600D541230EAA1F279446FF
:103FF000DBB20A3B0D9567445D460993A3465446E0
:10400000B2460C9E08E03033DBB201357B55B4423A
:104010000ED3202D0CD0040031002000FDF700FF4E
:10402000CBB20929EFD9099A94466344DBB2ECE795
:1040300056465C46AB460D9D0B9B2A0006930A9B99
:1040400021000593434604930C9B08980393002397
:1040500002935B46019316AB00934B46FEF7C8FDF7
:10406000129B050009930136FFF7CFFAB44200D83E
:1040700071E6149B54460E960F97AA469846159ED5
:10408000139D8EE6A64200D8FBE6139B5646984643
:10409000AA465C46129D76E508C9D8171A18424010
:1040A0000991FFF78AFB00230B9350E4099B04CB93
:1040B0009346099359E52F00BBE50B9301E6063BB8
:1040C0000C939AE600B585B003910121029000930C
:1040D000034813004A4202A9FFF772FA05B000BD77
:1040E000CD2D001010B5094A0300146884B0002CCF
:1040F00008D0012200910648524203A9A04701209E
:1041000004B010BD00F09AF90020F9E77C180020F7
:10411000BD2D001000BEFDE710B5FFF7FBFFC04648
:1041200070B5FDF77DFD074D074EB54209D200245D
:10413000013E761BB60808CD984723000134B342F0
:10414000F9D170BDAC7A0010B47A0010030010B53C
:10415000080011001B68984710BDC046F0B54646E0
:104160004F46D646C0B5437D80460E001700002B53
:1041700046D0002A3FDD4B1E9946244B01250024E2
:1041800000209A460DE04B461B5D0D3B5A425341C1
:10419000325DDBB20A2A0BD02B00013401359F427D
:1041A0001ADD002CEFD14346325D1B7D0A2AF3D184
:1041B000002BF1D1A04204DA4346211A1B683018C3
:1041C0009847434650461B6802219847013428000F
:1041D0002B0001359F42E4DC874204DD4346391A57
:1041E0001B6830189847F619013E33780D3B5A4248
:1041F000534142461375E0BCBA46B146A846F0BDED
:104200000368110030009847F5E7C046A880001009
:10421000F0B5C6460C000968060000B5802906D036
:104220004B1C23606418267180BCB846F0BD0F4B50
:104230001D68002D16D0231D98460D4F02E02D69F4
:10424000002D0FD02B68002BF9D03B68002B01D03C
:10425000AB42F4D1280041462268FFF77FFF2D6969
:10426000002DEFD101230021DBE7C04660160020BE
:1042700068180020F0B5DE4657464E464546E0B584
:1042800085B017001C0006000D00FDF75DFA002345
:10429000314A12184B41002B59DB304908008A463D
:1042A00003F0C6FB01906B1C03D1300003F056FBFA
:1042B0000500002C26D12A4B98462A4B1C68002C5E
:1042C00015D0002F21D1284F02E02469002C0ED0F8
:1042D0002368002BF9D03B68002B01D0A342F4D116
:1042E00020002A003100C0472469002CF0D1019B36
:1042F000002B28D1280005B0F0BCBB46B246A94629
:10430000A046F0BD194B9846D7E7174B994602AB2C
:10431000DF1D0A239B4602E02469002CE7D02368B6
:10432000002BF9D04B461B68002B01D0A342F3D1E0
:104330002A0031002000C0475B46012239002000DE
:104340003B70C047E8E7504603F04AFBD2E7012242
:10435000074B5242A1E7C04640420F00D80A002056
:104360004D41001060160020681800205D410010CB
:10437000FFFFFF7F0A4A1368002B05D10CE01A00EB
:104380001B691032002B07D09842F8D1002902D1C6
:1043900003691360016170470029FCD01060FAE7DF
:1043A00060160020F0B5CE46474680B583B06B4618
:1043B0000600DD1D2870FDF7C7F900231A4A121800
:1043C0004B41002B2BDB19490800884603F030FBDA
:1043D000174B81461C68002C14D0164F02E024694C
:1043E000002C0FD02368002BF9D03B68002B01D0A4
:1043F000A342F4D1200001222900FFF7AFFE246977
:10440000002CEFD14B46002B05D1300003B0C0BCCF
:10441000B946B046F0BD404603F0E2FAF5E70122A6
:10442000054B5242CFE7C04640420F00D80A002059
:104430006016002068180020FFFFFF7F70B50400A1
:1044400003F08CFA01230100050001222000FFF790
:1044500011FF084B1C68002C06D06368002B05D0A8
:1044600098472469002CF8D1280070BD2469002CDD
:10447000F3D1F9E760160020F0B5CE46474680B587
:10448000A5B004000D00FDF75FF900232A4A1218B9
:104490004B41002B49DB294E300003F0C9FA0023C1
:1044A0000700039322002B00254803A9FFF70AFE0B
:1044B000039B8046002B14D1224B1C68002C06D095
:1044C0006368002B0BD098472469002CF8D1002F8B
:1044D00027D1404625B0C0BCB946B046F0BD2469DE
:1044E000ECE7184B1D689946002D22D0164C02E0CF
:1044F0002D69002D11D02B68002BF9D02368002BDB
:1045000001D09D42F4D1039B28001A0004A9019315
:10451000FFF724FE2D69002DEDD14B4603951C6855
:10452000CCE7300003F05CFAD3E70122074B52429C
:10453000B1E70395CBE7C04640420F00D80A002000
:10454000114200106016002068180020FFFFFF7F56
:104550000FB400B583B004A901C90191FFF78CFF26
:1045600003B008BC04B01847F0B50D1E15DD0E4BA6
:104570000D271A680D4B4519D31859424B410C4968
:104580005B005E5E20210478A64207D09369194241
:10459000FCD101301460A842F5D1F0BD93691942F5
:1045A000FCD11760F2E7C046AC1800200080FCBFC9
:1045B000A418002030B504000D1E24DD00201021B9
:1045C0001A4B013C1A689369194217D1013093695B
:1045D0001942FCD1136823548542F4D1144B1B6853
:1045E000002B0AD050239363516B183B0B401149A9
:1045F0008C4662441360002814D030BD0C4B1B68FD
:10460000002BEFD1F7E70A4B1B68002B0AD0502292
:10461000064B1B689A63596B183A0A4005498C4649
:1046200063441A6003204042E7E7C046AC1800200C
:104630001416002034100000064B10B51B68002B28
:1046400006D00021044A12689163044A1068984712
:1046500010BDC04614160020AC180020181600200B
:104660000822034B19688B691A42FCD17047C04677
:10467000AC18002070B51B4E1B4B32680500D318D8
:104680005842434114331C00002D04D0174B1A68C4
:10469000002A11D070BD154E3368002BFAD00021CE
:1046A00020009563FCF7EEF920001149FCF71AFB96
:1046B000104B35601D60EDE71D600E4B200019604A
:1046C0000B49FCF7F1F901212000FCF7DBF950223E
:1046D00033689A63596B183A0A4007498C46634419
:1046E0001A60D7E7AC1800200080FCBF1416002029
:1046F00039460010181600203410000070B50C4E1A
:104700000D001C003060002A03DB02211000FCF7C2
:10471000BBF8002C03DB02212000FCF7B5F82900D0
:104720003068FDF755F801210248FFF723FE70BD00
:10473000AC180020A00A002010B51920FCF7BEF824
:10474000D0238022E1211B0692045A620448054BC3
:104750000022186049020123FFF7D0FF10BDC046B8
:1047600000400340A8180020D02380221B0692049A
:10477000002801D05A6170479A61FCE710B50248E1
:1047800000F004F810BDC0469018002030B5002598
:1047900089B004000922002101A80095FEF7CCF998
:1047A0000922002105A80495FEF7C6F94B236A46A5
:1047B0006846137004A90D2203F00AF91521082296
:1047C00020006944FEF7BEF909B030BD70B500F0B5
:1047D000A5FD0C230D4C0E4DA36729000520FCF709
:1047E00081FA2900FF220520FCF788F980220021A8
:1047F00092000848FEF7A0F903232364064B074AFA
:10480000E36490230120E25070BDC04600001150C7
:104810005904002068160020008600207B04000058
:104820007047C0467047C046044B186DC0239B00BC
:104830001840431E9841C0B27047C0460000115056
:10484000064B10B5186D8005800F012802D0022894
:1048500001D1002010BD0248FCF750F800001150B3
:104860000481001070B50D1E50D03D23DB4CE35C7D
:104870008B4200D10EE25D23E35CAB4200D1EDE15F
:104880007D23E35CAB4200D1CCE19D23E35CAB42F2
:1048900000D1A9E1BD23E35CAB4200D17FE1DD2380
:1048A000E35CAB4200D15CE1FD23E35CAB4200D1B1
:1048B00039E11E23FF33E35CAB4200D112E13E231A
:1048C000FF33E35CAB4200D1EAE05E23FF33E35CFD
:1048D000AB4200D1C2E07E23FF33E35CAB4200D1A8
:1048E0009AE09E23FF33E35CAB4200D172E0BE232B
:1048F000FF33E35CAB424CD0DE23FF33E35CAB42DF
:1049000026D0FE23FF33E35CAB4200D070BDF02322
:104910005B00E25C002AF9D0FF2201215200A25C78
:10492000501C8140AE4892004165AE4920008C4643
:10493000002162445160E1540433E358E1301960CE
:10494000F4235B00E358FF30196003F089F8DDE7DA
:10495000E0235B00E25C002AD3D0EF220121520069
:10496000A25C501C81409E48920041659D492000F8
:104970008C46002162445160E1540433E358C13055
:104980001960E4235B00E358FF30196003F068F816
:10499000B7E7D0235B00E25C002AADD0DF22012123
:1049A0005200A25C501C81408D48920041658D49A7
:1049B00020008C46002162445160E1540433E358E6
:1049C000A1301960D4235B00E358FF30196003F075
:1049D00047F891E7C0235B00E25C002A00D186E73C
:1049E000CF2201215200A25C501C81407C489200E1
:1049F00041657C4920008C46002162445160E154AD
:104A00000433E35881301960C4235B00E358FF305E
:104A1000196003F025F86AE7B0235B00E25C002A26
:104A200000D15EE7BF2201215200A25C501C8140F0
:104A30006B48920041656B4920008C46002162441E
:104A40005160E1540433E35861301960B4235B00D2
:104A5000E358FF30196003F003F842E7A0235B003E
:104A6000E25C002A00D136E7AF2201215200A25CAD
:104A7000501C81405A48920041655A4920008C469A
:104A8000002162445160E1540433E358413019601D
:104A9000A4235B00E358FF30196002F0E1FF1AE73E
:104AA00090235B00E25C002A00D10EE79F220121E7
:104AB0005200A25C501C814049489200416549491E
:104AC00020008C46002162445160E1540433E358D5
:104AD0002130196094235B00E358FF30196002F025
:104AE000BFFFF2E680235B00E25C002A00D1E6E62D
:104AF0008F2201215200A25C501C81403848920054
:104B000041653849601C8C46002162445160E15483
:104B10000433E358FF30196084235B00E3581960C5
:104B200002F09EFFCBE6E023E25C002A00D1C0E663
:104B3000FE220121A25C501C81402948920041655F
:104B4000284920008C46002162445160E15404331E
:104B5000E358E0301960E823E358196002F080FF61
:104B6000A7E6C023E25C002A00D19DE6DE220121F7
:104B7000A25C501C81401A489200416519492000EE
:104B80008C46002162445160E1540433E358C03044
:104B90001960C823E358196002F062FF84E6A0237D
:104BA000E25C002A00D17AE6BE220121A25C501C00
:104BB00081400B48920041650A4920008C46002143
:104BC00062445160E1540433E358A0301960A823D3
:104BD000E358196002F044FF61E6C0466816002001
:104BE00000301150000011508023E25C002A00D1F7
:104BF00050E69E220121A25C501C81403348920065
:104C00004165334920008C46002162445160E154E3
:104C10000433E358803019608823E358196002F0A8
:104C20001FFF37E66023E25C002A00D12DE67E22DA
:104C30000121A25C501C8140244892004165244916
:104C400020008C46002162445160E154636E603064
:104C50001960A36E196002F003FF16E64023E25CC0
:104C6000002A00D10CE65E220121A25C501C81408A
:104C7000164892004165164920008C460021624486
:104C80005160E154636C40301960A36C196002F00C
:104C9000E7FEF5E52023E25C002A00D1EBE53E22A9
:104CA0000121A25C501C81400848920041650849DE
:104CB00020008C46002162445160E154636A203038
:104CC0001960A36A196002F0CBFED4E500301150E0
:104CD0000000115010B501210520FBF7D3FE10BDD7
:104CE000F0B5DE4657464E464546E0B5D378080057
:104CF0009B07990F83B08C460191002B68D020242C
:104D0000784B1C5D002C00D1C4E040241C5D002CBD
:104D100000D1C6E060241C5D002C00D1C3E08024DB
:104D20001C5D002C00D1C0E0A0241C5D002C00D133
:104D3000BDE0C0241C5D002C00D1BAE0E0241C5D65
:104D4000002C00D1B7E0802464001C5D002C00D151
:104D5000B3E0902464001C5D002C00D1AFE0A024DF
:104D600064001C5D002C00D1ABE0B02464001C5D2D
:104D7000002C00D1A7E0C02464001C5D002C00D1F1
:104D8000A3E0D02464001C5D002C00D19FE0E0244F
:104D900064001C5D002C00D19BE0F02464001D5DCC
:104DA000002D00D197E0FF256D005D5D4E49EE00BE
:104DB00077184E491C1988464D4946448846A760D5
:104DC000AD014C4F45446F40B8466660E5600AE06F
:104DD000C021444B484C49009C60484C8846DC60EC
:104DE0001C00474E5E6015799778A946494655796B
:104DF00092792D020D43F9098A46617061466D056D
:104E00006D0D25834546E176019991468906294332
:104E10007F22A0253A402D06A770294357425741CB
:104E20004D466077E770002D03D04D46013D2D04BF
:104E300029433160012121709C4223D0534616043E
:104E40000643002B02D180239B041E432D4B1D6D76
:104E5000AD05AD0F012D02D0022D3FD1002500F090
:104E600055FBA84202D08023DB041E432549A37FC3
:104E70008C469A0062445660012201339A40130026
:104E8000214A5365012003B0F0BCBB46B246A94697
:104E9000A046F0BD0124651E6401EDB21E19B57770
:104EA00084E70224F7E70324F5E70424F3E7052465
:104EB000F1E70624EFE70724EDE70824EBE70924F0
:104EC000E9E70A24E7E70B24E5E70C24E3E70D24F0
:104ED000E1E70E24DFE7D23CFF3CDCE70B48FBF7C1
:104EE0000DFDC046681600208800105008001050C4
:104EF000000210500000105080001050800110502F
:104F000000011050000011500020115004810010C9
:104F1000F0B54F46D6464646C0B5984608AB1B8806
:104F20000D009A467F231F00D1098946BF4C1740C8
:104F3000134200D19CE05F3BE35C002B04D03D2397
:104F4000E35CAB4200D103E14023E35C002B04D0DF
:104F50005D23E35CAB4200D101E16023E35C002B05
:104F600004D07D23E35CAB4200D1FFE08023E35C0F
:104F7000002B04D09D23E35CAB4200D102E1A023CF
:104F8000E35C002B04D0BD23E35CAB4200D100E125
:104F9000C023E35C002B04D0DD23E35CAB4200D1F3
:104FA000FEE0E023E35C002B04D0FD23E35CAB4296
:104FB00000D1FCE080235B00E35C002B05D01E23C6
:104FC000FF33E35CAB4200D1F8E090235B00E35C8D
:104FD000002B05D03E23FF33E35CAB4200D1F5E06C
:104FE000A0235B00E35C002B05D05E23FF33E35C72
:104FF000AB4200D1F2E0B0235B00E35C002B05D0B4
:105000007E23FF33E35CAB4200D1EFE0C0235B00C3
:10501000E35C002B05D09E23FF33E35CAB4200D161
:10502000ECE0D0235B00E35C002B05D0BE23FF3314
:10503000E35CAB4200D1E9E0E0235B00E35C002BE2
:1050400005D0DE23FF33E35CAB4200D1E6E0F02382
:105050005B00E05C002806D0FE23FF33E35C002009
:10506000AB4200D1ECE0E0BCBA46B146A846F0BD88
:10507000A3782600934242D04B46B27073707B42B5
:105080007B41F268F3706A4BF17E5340A02289069F
:1050900012060B4313437268757713600123337054
:1050A000A6422CD04B463F042F43002B02D1802335
:1050B0009B041F435F4B1C6DA405A40F012C03D060
:1050C000022C00D0C4E00024280000F01FFAA04207
:1050D00002D08023DB041F435649B37F8C469A00DD
:1050E00062445760012201339A401300524A5365CB
:1050F00030005246414600F031F90120B3E75246F4
:105100002000414600F02AF94A4696004B4A494B96
:1051100094463F042F431F601C6D6644A405A40FF2
:10512000012C03D0022C00D092E00024280000F0D3
:10513000EDF9A04201D040231E43012332009A43DF
:105140003C4BDA640C22033AFDD20120DE648AE78C
:105150002223E35C934200D0F6E601260CE04223D2
:10516000E35C934200D0F8E6022605E06223E35CAC
:10517000934200D0FAE603267601A619B37893424B
:10518000B6D079E78223E35C934200D0F7E60426A9
:10519000F2E7A223E35C934200D0F9E60526EBE7B1
:1051A000C223E35C934200D0FBE60626E4E7E22359
:1051B000E35C934200D0FDE60726DDE781235B0038
:1051C000E35C934200D000E70826D5E791235B001B
:1051D000E35C934200D003E70926CDE7A1235B00FF
:1051E000E35C934200D006E70A26C5E7B1235B00E3
:1051F000E35C934200D009E70B26BDE7C1235B00C7
:10520000E35C934200D00CE70C26B5E7D1235B00AA
:10521000E35C934200D00FE70D26ADE7E1235B008E
:10522000E35C934200D012E70E26A5E76816002043
:105230000000105000001150002011500586002081
:10524000F1235B00E35C934200D00CE70F2693E769
:105250000148FBF753FBC046048100100020704753
:1052600010B5224B08001178802419705178640021
:10527000597091789970D178D970117919715179E3
:10528000597191799971D2791949DA71194B1A4A80
:10529000D96000219A605970184AD97618495C8003
:1052A0005A6058771160012208211A7099829A7603
:1052B000144B18601C6DA405A40F012C02D0022C05
:1052C00011D1002400F022F9A04209D00E4A0F4962
:1052D0000C4BDA640C22033AFDD20120D96410BDD4
:1052E0000B4A0C49F4E70C48FBF708FB0000105090
:1052F00080011050681600208000105000011050EE
:10530000800100A00000115042860020438600204A
:1053100002860020038600200481001080220A4BB0
:10532000520410B51A60094B09491A6010000B6845
:105330009843FBD18022002152010648FDF7FCFB77
:105340000922054B5A6710BD00E0004000F0004004
:1053500008C00040000010500000115070B5837E5E
:1053600004000D001600002B17D10023E382013347
:105370002000A682A376256102F042FB002804D01B
:1053800080219023084A8902D150200002F018FBA6
:10539000002805D00123237770BD02F061FBE4E70C
:1053A000200002F055FBF7E700201150C278436956
:1053B0001A707047F0B55746DE464E4645464B4B91
:1053C000E0B59B464A4B070099468A4685B0029253
:1053D00000235D460026002401932B780134E4B2BB
:1053E000BB420BD00136B835052CF6D10023029311
:1053F000019B002B70D005239A46E9E7B82373433D
:105400005B441B79DB07EDD55346002B02D06B784C
:105410005345E7D1029A002A02D0AB789342E1D1FA
:10542000052C60D0334B002B02D02000FBF7FCF89A
:10543000314B1A78002398462B00250044469846A5
:105440000CE049460968E3008C461B1B9B00634443
:10545000002B0CD10134E4B2944211D89442F0D321
:10546000A21AD3009B1A254A9B00944663449B6969
:1054700028009847204B01341A78E4B29442EDD9C1
:105480002C0038002100FFF7EDF9B822002140463A
:10549000FDF752FB40460822FF210D30FDF74CFB83
:1054A00040461022FF211530FDF746FB144B4546C0
:1054B00098461B7DA34295D10121124B49421B689E
:1054C0001800039302F0ACFA434600225A750D4BC4
:1054D000186802F085FA85E705B0F0BCBB46B24615
:1054E000A946A046F0BD01230193A1E7A80F002023
:1054F0007C0E002029060010B018002090810010BA
:10550000800E0020401300207047C0460138C3B20F
:10551000042B05D8B82343430448C018C07870470B
:10552000034BD8780007000FF9E7C046A80F00200A
:10553000980E0020F8B5CE46474680B53B4E050094
:105540003378984210D0FF2B10D028003570FFF729
:105550003DF9041E04D12000C0BCB946B046F8BDD8
:105560002800FFF7B7FBF6E70124F4E7304C2000F2
:105570001430FBF735FD200002F0D0F92D4B1C60F4
:105580002D4C2000FBF71EFD2C4B2D4F1C602D4B8E
:10559000002B04D0380000E000BF2B4B1860002225
:1055A0002A4B2B4C1A60E622002192002000FDF7C6
:1055B000C3FA182200212748FDF7BEFAE6239B0014
:1055C0009846A044B82200212000FDF7B5FA20003B
:1055D0000822FF210D30FDF7AFFA20001022FF2135
:1055E0001530B834FDF7A8FAA045EBD11A4B0024CA
:1055F0009946154B3A7898460CE041460968E30015
:105600008C461B1B9B006344002B0AD10134E4B27F
:1056100094429AD8A242F0D8A21AD3009B1A9B00B7
:105620004B445B6898473A78F0E7C046B80A0020D8
:10563000BC0A00204C13002044130020401300201B
:10564000B0180020000000007C0E0020980E002002
:10565000A80F0020800E002090810010F0B54E466B
:105660004546DE465746E0B506780400751EEBB2A7
:1056700087B0042B02D84778002F07D1002007B04D
:10568000F0BCBB46B246A946A046F0BD344B9A4694
:10569000B8236B439846534643441B79DB07EDD54B
:1056A0007F23F9093B405A000B009446253363449D
:1056B000434418002B4B0291504419689B460392B7
:1056C000049001F0CFFF0028D8D02021029889460D
:1056D0008446039B434453446344994449464B796D
:1056E000D9070BD5B8235D4355442B79DB07C5D5C6
:1056F0005B460498196801F0DDFFBFE7A1682069E7
:10570000E368059161694C466279012422434C4665
:105710006271039C6A00A4465219029CD200521B7B
:105720006244A446544662440732D200A050524418
:1057300051604146059A605C92B2009231003A0095
:10574000FFF7E6FB00289AD14B4601225B79934391
:105750004A4653715379042293434A465371C1E731
:10576000A80F002040130020F8B5CE464746431E40
:105770000A00D9B280B504290BD87F210D0015404D
:1057800011420CD1214C217D814202D1607D002843
:1057900028D100273800C0BCB946B046F8BDD109B1
:1057A0008946B82159431A4E6D006C1834194C447F
:1057B000203463798846DB07EBD58B5D0100180048
:1057C000FFF74CFD071EE4D00122484663792530DF
:1057D0009343637128180F4B40441968801901F0F6
:1057E00069FFD7E7B82043430948185CFFF736FD47
:1057F000071ECED00121074E4942306802F010F951
:105800003068657502F0ECF8C4E7C046800E0020F1
:10581000A80F002040130020F0B5C64600B50D00CB
:10582000411ECBB204008AB0042B00D99CE0B823FF
:105830004B4359495F5C002D0CD1584E717DCBB262
:10584000022930D0032B66D0012B47D00AB080BC90
:10585000B846F0BD514E02AF3B00320003CA03C34D
:105860001120022200216844FDF766F96B460121F0
:105870001C74DD74F38A4A4C0593B368494207935C
:10588000F3682068089333690697099302F0C8F813
:1058900000232068737502F0A3F8089B002BD5D075
:1058A00004A89847D2E701213D4B92B218684942BB
:1058B0009846F28202F0B4F80323737543461868E1
:1058C00002F08EF83378DB0900D1802500232A000E
:1058D000210038000093FFF71BFBB7E7F388002B8C
:1058E000E1D001212E4B49421868984602F098F801
:1058F000022373754346186802F072F83378DB09A7
:1059000000D08025F288B3682100009238002A0078
:10591000FFF7FEFA9AE77378092B28D002AD2B0027
:10592000320003CA03C31120022200216844FDF79C
:1059300003F900276B4601211C74DF74F38A184CAD
:105940000593B36849420793F36820680893336965
:105950000695099302F064F82068777502F040F824
:10596000089B002B9CD171E70E4B1F7863E73378BF
:10597000002BD3D1802701257F4229002000FFF78B
:10598000F3FE3900294301352000C9B2EDB2FFF71B
:10599000EBFE082DF1D1C1E7A80F0020800E0020FA
:1059A00040130020980E0020F0B557464546DE46CD
:1059B0004E46AB4BE0B59A4693B0AA4D079009AC62
:1059C0002E687269EFF3108172B61368002BFCD059
:1059D000BFF35F8FB1613000210001F00BFF7269EE
:1059E000B369BFF35F8F0021116083F31088002833
:1059F00000D1DBE06378022B45D00FD8002B15D007
:105A0000207862792179FFF7D5FC20790028D7D05A
:105A10006379002BD4D001F033FDD1E7032BCFD134
:105A20006368002BCCD0A0689847C9E78E4EF37806
:105A3000DB0600D595E01022F37827791343F37045
:105A40002078637930707770B370002F7CD1FEF7C7
:105A5000E7FE3220FBF7DCFD3078FEF7E3FEE120C5
:105A60004000FBF7D5FD3078FEF7DEFE002800D0C1
:105A7000A3E01022F37870789343F37000289FD04E
:105A800001F0FEFC9CE77F22237999461A40A37817
:105A90009846002B08D1002A00D087E000206179C9
:105AA000A268FFF7B9FE8BE7581EC3B2042B00D9DA
:105AB0007CE0B82351464343C9180979C90775D515
:105AC0004946CF0951008C4663445344DB191E00FC
:105AD00020360693737905919C4601239B466346C5
