:020000041000EA
:1000000000B5324B212058609868022188439860DF
:10001000D860186158612E4B002199600221596106
:100020000121F02299502B49196001219960352056
:1000300000F044F80222904214D00621196600F024
:1000400034F8196E01211966002018661A6600F04E
:100050002CF8196E196E196E052000F02FF8012189
:100060000842F9D1002199601B49196000215960AB
:100070001A491B48016001219960EB211966A021F2
:10008000196600F012F800219960164914480160C1
:100090000121996001BC002800D000471248134993
:1000A000086003C880F30888084703B5996A0420EC
:1000B0000142FBD001200142F8D103BD02B5186610
:1000C0001866FFF7F2FF186E186E02BD00000240BE
:1000D000000000180000070000035F00212200005C
:1000E000F4000018222000A00001001008ED00E03C
:1000F00000000000000000000000000074B24E7A12
:1001000000200420F7010010C3010010C5010010F9
:10011000C1010010C1010010C1010010C101001097
:10012000C1010010C1010010C1010010C701001081
:10013000C1010010C1010010C9010010CB01001065
:10014000CD010010CD010010CD010010CD01001037
:10015000CD010010CD010010CD010010CD01001027
:10016000CD010010CD010010CD010010CD01001017
:10017000CD010010CD010010CD010010CD01001007
:10018000CD010010CD010010CD010010CD010010F7
:10019000CD010010CD010010CD010010CD010010E7
:1001A000CD010010CD010010CD010010CD010010D7
:1001B000CD010010CD010010CD010010CD010010C7
:1001C00000BE00BE00BE00BE00BE00BEEFF3058054
:1001D000103800BEF2EB8871C8550010EC550010C5
:1001E0003802001090A31AE71E481F49086006C88D
:1001F00081F3088810471D480068002801D019487D
:10020000F3E70DA40ECC002902D000F012F8F9E7B4
:100210001749184A002000E001C19142FCD116495B
:100220008847164988471649884700BEFDE701C937
:1002300001C29A42FBD37047EC550010C000002069
:10024000B0100020DC650010000004200000042035
:10025000DC650010001004200010042000000000E5
:10026000704700000000000008ED00E0000000D032
:10027000B0100020B0250020D5260010210300106A
:10028000CD260010F8B5C0460448054B10B5834292
:1002900003D0044B002B00D0984710BDB0100020B5
:1002A000B01000200000000006480749091A8B1012
:1002B000C90FC91810B5491003D0044B002B00D04A
:1002C000984710BDB0100020B010002000000000C2
:1002D00010B5074C2378002B09D1FFF7D5FF054B4C
:1002E000002B02D0044800E000BF0123237010BDA2
:1002F000301400200000000094520010054B10B58F
:10030000002B03D00449054800E000BFFFF7CCFFF5
:1003100010BDC046000000003414002094520010AC
:10032000F8B5CE46474680B502F048FC002002F002
:10033000E7FE554B002B01D000E000BF534B544A61
:10034000544D1A600122544B54491A70544B2C00DE
:100350001A800022CB209A801A815A819A81598072
:10036000D9802A000023C0340001C11A13805180B3
:10037000203304329BB2A242F7D14A4B0124994662
:10038000494B00269846494F1BE0434630003B80CE
:1003900001F0F4FF464901F0EAFF464901F0D3FFBE
:1003A00002F04CF8444901F0E2FF02F009F8434B37
:1003B0009C4660447880302C1CD001340136A4B2B5
:1003C0000437172EE1D84B4630003B8001F0D6FFB2
:1003D000374901F0CCFF374901F0B5FF02F02EF8A4
:1003E000354901F0C4FF01F0EBFF344B9C466044FB
:1003F0007880E2E7324B334E9846334F334C01203E
:100400000021404202F0EAFE01F080F900292ED0DE
:10041000FA220023920001F013FD4246336812686D
:10042000C01A904208D39B183878336002F0DEFB84
:1004300001223B7853403B7001F068F900291BD042
:10044000FA220023920001F0FBFC23689842D6D0E8
:100450002A002060C0230021002003F065FE2A004E
:10046000C0230121C032002003F05EFEC7E7FA215D
:10047000890001F0A7FCD0E7FA21890001F0A2FC75
:1004800023689842E4D1BAE700000000141F00205E
:1004900080BB0000E01B0020AA25002080BBFFFFDE
:1004A000181F0020480D000088130000A01C002029
:1004B000560EC9400000404200803B4470170000C7
:1004C000D00F0020301F0020AC250020341F00205A
:1004D000FA22024B92001A607047C046D00F0020EB
:1004E000FA22014B1A607047D00F0020014B024ADC
:1004F0001A607047D00F0020C409000010B502F048
:10050000F7FD431E9841034B40421840024BFA301E
:10051000186010BDEE020000D00F002000207047D0
:100520000020704730B54B780020012B02D14B7969
:10053000022B00D030BDCC788D78012C10D0022C4D
:10054000F8D1CB798C791B022343022BF2D153785B
:1005500011781B02094A6D000B4301205353E9E750
:10056000CB798C791B022343012BE3D10023D35693
:1005700001205A1E9341024A5355DBE79C25002077
:10058000EC1E00200020704700207047F0B5CB78AB
:100590008A784C791B021A43050083B01B0A012C90
:1005A0000FD0DFB2E6B2022C04D00020042E34D0EB
:1005B00003B0F0BDD2B2012B29D0022F12D00020FF
:1005C000F6E70020022BF3D16B461C705870987030
:1005D000D87018716B466A4658710623280004F0DB
:1005E000A5F9E5E74B78012B21D0022BE7D10123B8
:1005F0006A4613805A22684652424280B432828050
:10060000C3806A462800073304F090F9D0E7144B02
:100610009A18012303F056FACAE7012B0ED0022FD5
:10062000C6D1012328000F4A03F04CFAC0E70E4B55
:1006300052009A18022303F045FAB9E74B78012BD0
:1006400007D0022BB4D10E232800084A03F03AFA4F
:10065000AEE704232800064A04F068F9A8E7C0467C
:10066000EC1E0020AA2500209C250020181F002039
:10067000141F00200120704701207047012070479F
:10068000004870476C53001000487047D05200106B
:10069000F0B5DE4657464E464546E0B58DB00028DB
:1006A0002DD0032837D0042800D983E0454B8000A3
:1006B000C558280004F03AFD0400202800D977E04E
:1006C000002800D178E0404B98469A1C0023E95C52
:1006D0000133118002329C42F9D8C02301349B00BF
:1006E00064001C43A3B2039343464046039A1A8016
:1006F0000DB0F0BCBB46B246A946A046F0BD324B99
:100700000222981C98462F4B196801F0B7FFC123AD
:100710009B000393E8E72D4B002B3FD004AD102145
:10072000280002F039FA8446102801D910239C468B
:10073000002841D063469A00C02302329B00134335
:100740009BB203930F22002691461F4B01969846B9
:100750009C1C009508AB18001D4F62CF62C04D462F
:100760003968029001600099194E087805405D5D76
:10077000834665801D0007CE07C53D68029A156057
:100780005A461111595C019A2180009901320131B8
:100790000192009104346245DDD3A5E70D4B0E4A6A
:1007A00004AD049205930D4B039308239C46C9E7BF
:1007B000202485E700209BE7094B0393024B9846D2
:1007C00092E7C046D40F0020A8140020992B0010F7
:1007D0009452001089ABCDEF01234567220300003E
:1007E0000203000010B54024084A83009A181268DA
:1007F000C0005440C0222240054CA44663441A6005
:10080000044B9C466044416010BDC04604C001409A
:1008100004D0014000400140034BC0009C466044AE
:1008200043681F2018407047004001400B4B800078
:100830009C46604400290ED100230431002A00D1D7
:100840001900802203685201594094460C236044E9
:100850000B40036070470C210823EFE704C0014000
:10086000064BC000C3181B6809045940C0239B02F3
:100870001940034B9C4660440160704704400140AE
:1008800004500140064BC000C3181B6809035940BF
:10089000C0239B011940034B9C4660440160704794
:1008A00004400140045001400123D02283404021F4
:1008B000120693629361094A83009A181268C00075
:1008C0005140C0220A4006498C4663441A60054BD9
:1008D0009C460523604443607047C04604C0014005
:1008E00004D00140004001408023DB051868000F60
:1008F0007047C0460FB400B5084883B002F046F810
:10090000049B002B07D005A91800019101F0C4FE3B
:10091000034802F03BF8012001F0D6FE805300109E
:100920009053001070B5EFF3108C72B60D4D2B681C
:10093000002BFCD0BFF35F8F0724CB08C618C05C28
:1009400001230C40A3401C000440034207D1034391
:100950003370BFF35F8F2C608CF3108870BD100074
:10096000FFF7C8FF2C0100D0F8B54746CE468846B1
:1009700080B5EFF3108C72B6214D2C68002CFCD0A2
:10098000BFF35F8F9A422CD8D4080727055D06195C
:1009900001241740BC402C421FD007210127894663
:1009A00009E0D408055D06194C4639001440A14001
:1009B0000C00294211D001329342F2D20120404270
:1009C000BFF35F8F00220E4B1A608CF31088002853
:1009D0000FDBC0BCB946B046F8BD2C4310003470E4
:1009E000EEE7BFF35F8F00232B608CF310880120AC
:1009F00040424346002BECD00898FFF77BFFC046EF
:100A00002C0100D0044A1078431CDBB2172B00D90C
:100A1000102313707047C046E80F002000B5054B47
:100A200083B00100009318221F230348FFF79CFFA7
:100A300003B000BD945300105C1700200021044B4C
:100A4000044ABFF35F8F02C39342FAD17047C04696
:100A5000000100D0800100D0054B064A1360064A11
:100A6000136053609360D360136153619361704767
:100A70008080808000E400E004E400E01F23184050
:100A80001E3B8340002905D0C021044A4900535031
:100A900013607047802201498B50FAE700E100E0C3
:100AA00070B50D00EFF3108672B60F4A1368002B75
:100AB000FCD0BFF35F8F0D4B10309B6884001B5937
:100AC0000B4A934203D09D4201D001F075F8074BC9
:100AD0009B681D51BFF35F8FBFF35F8F0022024BF6
:100AE0001A6086F3108870BD240100D000ED00E08C
:100AF000CD010010F0B557464E46DE464546E0B5FE
:100B000085B0060002911700EFF3108B72B6674AAA
:100B10001368002BFCD0BFF35F8F0025644B5D573B
:100B20009A46002D00DAA4E06B00624C03935B1937
:100B30009B009846A146C1444B4652469B791036CD
:100B400013705D4BB2009B68019299580B1B2F2BC1
:100B500034D95A4B994200D0A4E0039B584A9C4692
:100B6000584B6544AD006353434602336519E4189E
:100B7000554B0121043B1B1B1B055B0D13436B8075
:100B8000524BEF71AB80FF23AB71029BAB604B46C6
:100B90000B431900484B019A9B689950BFF35F8F34
:100BA000BFF35F8F0022414B1A608BF3108805B0B2
:100BB000F0BCBB46B246A946A046F0BD01200A00E3
:100BC0008243D379BB422FD845464E461300404955
:100BD0001B1B5B415943090D3A4B63533A4B02359A
:100BE0006519043B5B1B1B05354D5B0D2B43738067
:100BF0000426B446E0444444131F1B1B4C46A17119
:100C000002991B05A16049465B0D2B43A380314B24
:100C1000E77101431360BDE75800C0188000201839
:100C2000C679BE422BD902000623D356002BF3DA35
:100C3000101D82462848804604267642B446E14488
:100C400050464E46361A3005400D824656461C48E0
:100C5000957106439680039A944665441D4AAD00FB
:100C6000641922604246A371029BA280E771A360CF
:100C700090E700F0A1FF002553465D5754E7101D93
:100C8000824690884005001584464046D444664616
:100C900004302018301AE0260005400D360230439B
:100CA0008046C9E700F088FF57E7C046240100D01E
:100CB000AB250020EC0F002000ED00E0CD0100107E
:100CC00000E0FFFF00A1FFFF1C10002001BDFFFF9F
:100CD000AAAA00000148804701BD0000F0B5DE4629
:100CE00057464E464546E0B50C0083B0EFF31089F9
:100CF00072B65F4A1368002BFCD0BFF35F8F5D4B69
:100D00009A68030010339F00D5595B4A904695427C
:100D10003DD0A5424ED0594EAA1B2F2A37D8584A4B
:100D200093461268944601226146924682401140E1
:100D30001F22104052468240924601918022514625
:100D400058468150BFF35F8FEFF305829346002A28
:100D500032D101232A009A439068844208D17CE072
:100D60004B005B189B00F318986884422ED01A0041
:100D7000062151560029F3DA84424DD0019B002B05
:100D80001FD0C02251463E4B520099501960394B3A
:100D90009B68DD51BFF35F8FBFF35F8F0022344B41
:100DA0001A6089F3108803B0F0BCBB46B246A9466E
:100DB000A046F0BD1500EAE79342CAD000F0FCFE61
:100DC000C7E7802351462E4AD150E0E70621595605
:100DD000002922DB4A005018800034188046A068A1
:100DE0009860E079D871062020569871002825DB9C
:100DF000A488F01A6405241544440019E024000571
:100E0000400D24022043988052181E4B9200B618C1
:100E10001A781970B271B1E71300594600290FD141
:100E2000FF3191711849918016490A789A71174AD1
:100E30009B1B5B415A43120D0A709FE71448E2E77F
:100E4000144A1549D21A083A5002400D01439980BC
:100E5000124952080A43DA8090E7062151561300DE
:100E60000029B7DA5A46002AEAD14546DCE7C046EF
:100E7000240100D000ED00E0CD010010EC0F0020B7
:100E800000E100E0AB25002001BDFFFFAAAA0000A1
:100E900001BD00002610002000F0FFFF00F8FFFF5A
:100EA00070B501240443EFF30581EFF3108C72B6A3
:100EB000214A1368002BFCD0BFF35F8F1F4B050046
:100EC0001F4AED1A6D416A43120D1E4D8900AE682E
:100ED00052B27658A6421CD00621595691421CD0D7
:100EE00012215956914222D01E215956914220D0AA
:100EF0002A2159560324914210D0134B19781A70A5
:100F00008171BFF35F8F00220B4B1A608CF3108846
:100F100070BDAB680D4C5C50EFE70024610009190F
:100F200089005B18FF21997109499980E5E701243F
:100F3000F4E70224F2E7C046240100D0EC0F0020C1
:100F4000AAAA000000ED00E0AB250020CD010010B2
:100F500001BDFFFF024B9C46614489000160704760
:100F600040000034F8B5134D134E2C00FF27B54256
:100F70001ED22368002B0FD0FFF744FD010028008C
:100F8000FFF7E8FFA780BFF35F8F0834B4420FD2AA
:100F900023682500002BEFD1FFF734FD0100280066
:100FA000FFF7D8FF2771BFF35F8F0834B442EFD348
:100FB000F8BDC046A8100020B010002010B50400F5
:100FC000FFF720FD01002000FFF7C4FFFF2323717E
:100FD000BFF35F8F10BDC04610B504000120FFF7BE
:100FE0001DFD044B9C46604480002060BFF35F8F72
:100FF00010BDC046400000340A4B1968EFF3108062
:1010000072B60A68002AFCD0BFF35F8F1B68BFF37B
:101010005F8F00221A6080F3108840BF00200021FB
:101020007047C0462C1F0020F0B5DE4657464E469E
:101030004546E0B585B0EFF30582032313409A00DF
:1010400011000392B64A5258904601229A40B54B7D
:1010500091461A6031E043469B881BB2002B00DBAF
:101060009DE043469B79002B00D0EFE043460824E7
:101070001C5F002C00DA17E1424652696300944677
:101080001B19DB0063449C68DD68631C00D113E11D
:10109000A54B03999C4661449A6A0B69A01A9B1A56
:1010A000984200D20C61A04800F028FB241A8D4120
:1010B000002D00DDF8E000D12EE14B469A48436355
:1010C000434608229B5E9A46002BC4DB4246526987
:1010D0005B0093465344DB009B445B469E68DF689D
:1010E00000F00CFB801BB9410029B4DB002F00DAB3
:1010F000EDE05B468D4A1B69934200D1E0E041463A
:101100005A460820085E5288000410435A46516926
:10111000984704000D0023002B4300D1D7E0002D99
:1011200000DBF0E0361BAF4134003D005B469C60C5
:10113000DD600021595E00298DDB43465B6922009A
:101140009C462B0048004018C00060448668C76871
:10115000921BBB41002B00DA7DE743466646020046
:101160000094019519810CE07B00DB19DB00F3187A
:10117000009801999C68DD68001BA941002904DBE7
:101180001A000023D75E002FEEDA5B461F8053461D
:10119000138043469B881BB2002B00DA61E743466D
:1011A0001A69EFF3108172B61368002BFCD0BFF3FD
:1011B0005F8F43469B8842461BB29A4601235B429F
:1011C00093801369BFF35F8F00221A6081F3108848
:1011D0005346002B00DA44E743465B699C460823EC
:1011E00043449B4653465F0043465744FF00082252
:1011F0009A5E67445E46BC68FD68002A19DB3B00C6
:101200000094019567469C4604E01E000023F25EB0
:10121000002A0BDB0098019953009B18DB00FB1898
:101220009C68DD68001BA9410029EEDA6346BC46D4
:101230001F005346338000217B5E3A809A46002B84
:10124000D0DA43469B79002B00D10FE700234246BA
:101250009371434646460821595E08364B1C23D0FD
:1012600047468C46556902E006004B1C17D04B00E0
:101270005B18DB00E8180A00E95E43881BB2002B0C
:10128000F2DA01235B42DC178360C4606245ECD074
:1012900031803B89944603803A814B1CE7D16446F8
:1012A000B846002C00DBE7E640BF05B0F0BCBB460B
:1012B000B246A946A046F0BD6B1C00D0E8E6F2E6B7
:1012C0005B465C69200023699847002821D15B4672
:1012D00042461B8813811269EFF3108372B61168BE
:1012E0000029FCD0BFF35F8F4246594652880A80DE
:1012F0004246514651801269BFF35F8F0021116051
:1013000083F31088A7E6084800F0F8F924184D4147
:101310000CE765682468FEE6002C00D1CDE6C3E743
:10132000FC1E00203C7005400040054029100010C4
:1013300070B52E4C2569002D04D00A212C48FFF7EA
:1013400009FE70BD2B4E0321300000F0CDF9E660A0
:10135000FFF758FB284B03229C46D02322701B0624
:101360001B6801216370254B6044A3600F2380003C
:1013700020610220638063694942A18019800231A3
:10138000198647311D83585218315A5275325C39CB
:10139000995218320131995218320131995218324A
:1013A00001319952083518329D5202311832995242
:1013B00018320131995218320131995218320131E3
:1013C00099521832013199521832013199520C4B0D
:1013D0000C49DC6001303562FFF762FB012103201C
:1013E000FFF74CFB084B1D60A7E7C04634100020F8
:1013F0002C1F00200040054040000034FFFF10007B
:10140000FC1E00202910001038600540004870477D
:1014100034100020F8B51F0008AB1B78040016003C
:10142000002B07D100F072F932003B00121A8B41F9
:10143000002B4CDB2269EFF3108072B61368002B8F
:10144000FCD0BFF35F8F62690223E15E94464B00DC
:101450005B18DB006344002901DB1A886280226983
:10146000BFF35F8F0025156080F31088002930DB03
:10147000069A9E60DF601A61079A5A615A880132A3
:101480005204520C161C002A1FD0B0B20A045E800F
:1014900010432669EFF3108572B63268002AFCD03B
:1014A000BFF35F8FA2881A80A1802369BFF35F8F8B
:1014B00000221A6085F31088074923788C46013290
:1014C0009A40E36863441A60F8BD0126DDE7002016
:1014D000FAE701204042F7E73C20000070B5C6461D
:1014E000010000B50469EFF3108C72B62068002883
:1014F000FCD0BFF35F8F02200D5E48696C00804610
:101500006419E4004444002D01DB20884880086908
:10151000BFF35F8F002606608CF31088002D30DB50
:10152000E36063880598013320615B0406985B0CD7
:10153000A26060611A1C002B21D090B22B04628043
:1015400018430A69EFF3108672B61368002BFCD0BB
:10155000BFF35F8F8B8823808D800B69BFF35F8F14
:1015600000221A6086F310880B7801329A40CB680B
:1015700005498C4663441A6040BCB04670BD0122E8
:10158000DBE701204042F7E73C20000010B543892B
:101590000A14934233DD53009B184269DB009446E2
:1015A00004696344EFF3108C72B62268002AFCD001
:1015B000BFF35F8F5A88090494B2090C8A4208D09D
:1015C0000369BFF35F8F00221A608CF3108800203C
:1015D00010BD8022120214435C80012302698371D2
:1015E000BFF35F8F002111608CF3108805490278EA
:1015F0008C469340C268012062441360E8E70020F3
:10160000E6E7C0463C200000F0B5CE46474680B530
:1016100004000D0083B0EFF30587002F3BD12F4E60
:1016200081463378F26804339B00916A9B58421AD2
:101630005B1A9A420ED320BF294A0020536AAB425C
:1016400003D3926A013091453CD803B0C0BCB9467F
:10165000B046F0BD00F05AF822002B00121A8B4160
:10166000002B26DB1F4B2200009330002B0001973C
:10167000FFF734FF011E1CDD194BA8465A6A95423C
:1016800025D920BF3000FFF781FF154A0020536A9B
:101690009845DAD8D5E7124A0020536A8B42D4D352
:1016A000926A0130A242D0D2581A421E9041C0B272
:1016B000CBE70B4A0020536AAB42C6D3926A0120A3
:1016C0009145C2D9E81A421E9041C0B2BDE79B6A5B
:1016D0009C42D7D99542D5D1D3E7C04634100020DB
:1016E00000400540F90F001010B5024A0248FFF70C
:1016F00019F910BDB0530010601700200300416AB3
:101700000A00986A596A8A42FAD17047034B596AAB
:101710000A00986A596A9142FAD170470040054020
:1017200070B504000D00124A536A1900966A536A94
:101730008B42FAD13000190024184D41AB4211D828
:101740000ED02B000A494A6A9A42FCD307D1084AB4
:1017500002E0516A994202D1916AA142F9D370BD67
:10176000A642EED9012301246442E5175B42E9E772
:1017700000400540F8B5040006200D0000F076F9A1
:10178000002842D0364B3749E21853425A41802351
:10179000DB039C469205344B62441A60334B1A605B
:1017A00010000B689843FBD12D4B8021E3185A425F
:1017B00053412F4A5B0049009952062000F056F928
:1017C0002900C00000F0FEFA0130C3091ED14027F5
:1017D00001226262A362266BF30722D4E36A254BDF
:1017E0000620E51800232B60266300F03FF939003E
:1017F000800000F0E7FA7022E36A5A407E2313402B
:101800002B601D4B23630323A364F8BD1B4A934243
:101810001ED900231A4A1B4F6262A362266BF3078C
:10182000DCD5194B144AE3181A60656AA26A0620CF
:10183000AD01AD1800F01AF9144900F0C3FAAD0279
:101840000100280000F0BEFA0021FFF769FFC5E79C
:101850004006800E9F011A003F180300B9E7C046FA
:101860000080FCBF08C0004000E0004000F00040E5
:10187000902500202C10000001030000FEFF000056
:10188000FFFF0000C0FF3F00303000004E0E0000A0
:10189000F8B5DE464E4657464546E0B58B46050050
:1018A0000A991800160000F08DFA0A9B6C001F02BE
:1018B000324B64199C46A4006444636881469F428D
:1018C00000D967602B1FDBB29846012B30D9C023AB
:1018D00080229B01E31812011A60294BAD0059596F
:1018E0009A4600291BD1226876017240E0268023A7
:1018F000164042465B01E3181E60012A30D980235E
:1019000080229B01E31812011A6053464A46676021
:101910005A51F0BCBB46B246A946A046F8BD58692C
:1019200000F050FA431C5800C0180338FDD2DAE723
:101930005B46012BCBD1C02303229B01E3181A6025
:10194000023AA3681A42FCD0E0232268760156408E
:101950001E4080230A4A5B019246E3181E60AD00D8
:101960005A462168514003220A401A6001225B4610
:101970009A40A3681A42FCD0C1E7C04600800040EC
:1019800064170020F0B546464F46D646C0B51F0046
:10199000344B44009C462418A40064446368884681
:1019A0001600FF2B02D880235B006360031FDBB2AD
:1019B0009A46012B30D9C02380229B01E3181201E3
:1019C0001A60294B85005959994600291BD1226874
:1019D00076017240E0268023164052465B01E318F0
:1019E0001E60012A30D9802380229B01E318120156
:1019F0001A6080235B0063604B465F51E0BCBA46CF
:101A0000B146A846F0BD586900F0DCF9431C580007
:101A1000C0180338FDD2DAE74346012BCBD1C023EF
:101A200003229B01E3181A60023AA3681A42FCD011
:101A3000E0232268760156401E4080230A4A5B015B
:101A40009146E3181E6085004246216851400322FA
:101A50000A401A60012342469340A2681342FCD018
:101A6000C1E7C0460080004064170020014B8000A1
:101A7000C058704764170020F8B5040020481D00C6
:101A800017000E0000F09EF90100380000F09AF9EE
:101A9000069B29041B0319432368002B1EDB194BEB
:101AA000194DE21853425A4180235B019C461203B0
:101AB000164B62441A60164B1A6017002B689F433E
:101AC000FBD1144B2660E2182123A0601360236829
:101AD000002BFCDA0823E1601360F8BD3F23226885
:101AE0001340B342DBD1A3681B051B0D8342D6D143
:101AF000EE22E368D20213408B42D0D1EDE7C0461C
:101B0000001BB7000040FDBF08C0004000E00040DF
:101B100000F00040043000008023024A9B000B4389
:101B2000D362704700800540142310B50100188867
:101B300004331B88984710BD162310B50100188880
:101B400002331B88984710BDF8B54746CE4680B58E
:101B50000F1E19D0142399460433040000250126D2
:101B600098464B461888434621681B88984701C40D
:101B7000431E9841013540420640AF42F1D130004A
:101B8000C0BCB946B046F8BD0126F8E7AA23064A0C
:101B90001B0113602F230549D360054B196053685F
:101BA000002BFCDA7047C0460040024000B0FA004B
:101BB000006002407047C04610B50148FEF79AFE2B
:101BC000D453001070B5074D074EB54209D200241A
:101BD000013E761BB60808CD984723000134B34276
:101BE000F9D170BD505200108C520010054B064ABE
:101BF00006491A60064A074B1A6010000B689843A2
:101C0000FBD1704700E00040BFCDFBFE08C00040A4
:101C1000FE7F3C0000F00040044BDB6C002B03D146
:101C20008022034BD2021A607047C0460000115058
:101C30004C201150044A054B1A60054A1368DB0119
:101C40008033FBD17047C046FFFFFF0100F000402A
:101C500008C000404022034B9A675A671A67DA6649
:101C60007047C04600F0014010B5FEF7E7FE10BD1A
:101C700070B5044D044C2800C022A16800F0FEFCA1
:101C8000A56070BD0000002000ED00E0002310B54D
:101C9000294C82B0A367FFF779FF0122274B1A6016
:101CA000636C012BFCD10322254B1A60224A936BF3
:101CB000012BFCD1013300930121224A2248043335
:101CC000FFF7DAFE052301210093204A2048FFF7A1
:101CD000D3FE0022022104201E4BFFF753FE0022F8
:101CE000012105201C4BFFF74DFE0022002107209B
:101CF0001A4BFFF747FE002200210820174BFFF781
:101D000041FE8023DB000093002200210920134BB9
:101D1000FFF7BEFD0022104B00210620FFF732FE28
:101D20000420FFF7A3FE0E4900F04CF8010000204C
:101D3000FFF7F2FE02B010BD008000403CB0004052
:101D400030B00040002F685900800240008C864768
:101D500000C00240001BB70040597307006CDC0252
:101D600040420F0001480421014B18475010002049
:101D7000491B0010124A936F9B0815D29066D166DA
:101D8000002905D0FFE7FFE7FFE7516F106F7047AD
:101D900004B580210906C2175140002800D0C8436D
:101DA00003F00EFA002104BDF0B5146E556E576FA6
:101DB000166FFFF7E3FF1466556657671667F0BDA9
:101DC000000000D0114A936F9B0813D21066516631
:101DD000002905D0FFE7FFE7FFE7516F106F70475D
:101DE00004B5002801D00020C04303F0E9F9002128
:101DF00004BDC046F0B5146E556E576F166FFFF7F1
:101E0000E5FF1466556657671667F0BD000000D001
:101E100094464A4A926F9208624601D228E0C04630
:101E2000F0B5464E346E756E776F366F00F020F861
:101E30009446424A14665566576716676246F0BD77
:101E400094463E4A926F9208624601D254E0C046E0
:101E5000F0B53A4E346E756E776F366F00F04CF811
:101E60009446364A14665566576716676246F0BD53
:101E7000002B24DB11D000293EDA00B5C9434042D3
:101E800000D1013100F038F8C943404200D101319E
:101E9000DB43524200D1013300BD002AEBD10028C0
:101EA00001D1002905D00020C90FC90701D1C043C5
:101EB000410800B503F07CF90022002300BD00B505
:101EC00000290ADBDB43524200D1013300F014F851
:101ED000C943404200D1013100BDC943404200D155
:101EE0000131DB43524200D1013300F005F8DB43FE
:101EF000524200D1013300BD002923D1002B18D15B
:101F0000002A0CD0BC460D4F38667A6600210023AB
:101F1000FFE7FFE7FFE77A6F386F674670470028F3
:101F200001D00748010000B503F042F90022002368
:101F300000BD02000B00002000217047000000D00F
:101F4000FFFFFFFF002B00D0BFE0130C28D1002AB9
:101F5000E7D080B4114F39667A66FFE7FFE730B407
:101F6000040C7B6F396F1B0423433B667A66FFE7E3
:101F7000FFE7FFE7C04684B27B6F3D6F1B0423433E
:101F80003B667A66FFE7FFE7C04600232C042D0C72
:101F90007A6F386F00196941B0BC7047000000D0FB
:101FA000F0B594460025140E01D112020835140F25
:101FB00001D112010435940F01D192000235D40FE2
:101FC00001D152000135D40B0134254F7C66254CDC
:101FD0003C660E0C93B2FFE7FFE7FFE73C6F6643FA
:101FE000360C7703BE467343DF0B5B04C01AB9415E
:101FF000130C7343DB18C91ACE086643360CB6447B
:1020000093B273431F0F1B01C01AB941130C7343E2
:102010001F0B1B05C01AB941860D8F023E43664354
:10202000360C092D24DB520A7243801A7703460AC4
:102030006643360C16235B1BDE40DF40BF19644647
:102040006643821B7046043506330100D940A84020
:10205000C01900D30131A24206D20023F0BD000016
:10206000000000D0FFFFFFFF121B0130F3D3F1E7A8
:1020700009277F1BFE406446A2B27243801A00D239
:102080000139220C7243130C1204821A99410B007D
:102090007046043513370100F940A840801900D379
:1020A0000131002B02D1A2420AD2F0BD013000D38F
:1020B0000131121BFAD2013BF8D1A24200D2F0BD8D
:1020C000013000D30131121BF7E7F0B51C0C00D032
:1020D00080E00CB400251C0A04D11B02160E334309
:1020E000120208351C0B04D11B01160F33431201D9
:1020F00004359C0B04D19B00960F334392000235AC
:10210000DC0B02D192185B4101351C009718644129
:102110000134464F7C66464C3C660E0CFFE7FFE7F9
:10212000FFE7C0463C6F6643360C7703BE4697B266
:102130007743C01B00D20139C01B00D201399FB2C6
:102140007743C91BC91B170C77437E04FF0B801B09
:10215000B941CE086643360C0C2D33DBB644120B66
:102160001F053A431B0B97B27743C01B00D20139BE
:102170009FB27743C91B170C77433E043F0C801B6B
:10218000B941860D8F023E43664329277F1BFE40DF
:102190000C3D7746AF40BF1930BCA2B2ABB2724320
:1021A0007343801A9941220C7243130C1204801A53
:1021B000994102000B000137001BA941F9D2781E9A
:1021C0000021F0BD0C277F1BFE4077467F0BAF4000
:1021D000FF19E0E700245D1C07D0144F7D663966C7
:1021E000FFE7FFE7FFE7FFE73C6F95B29EB265436D
:1021F0006643401BB141150C1E0C65436643360413
:102200002F0C3E432D04401BB141994204D20200E1
:102210000B0020000021F0BD01D19042F7D3801ABD
:10222000994101349942F2D3F6E70000000000D052
:10223000FFFFFFFF132370B51D78012D19D014DDAA
:102240001E48FFF779FC06001D48FFF775FC1D4C82
:1022500080223100200000F011FA022D06D01A4829
:10226000FFF762FC194B186070BD164C184BA36445
:10227000F5E7174B134C23606360A360E3602361B1
:102280006361A361E36123626362A362E362236328
:102290006363A363E36323646364A364E364236508
:1022A0006365A365E36523666366A366E3662367E8
:1022B0006367A367E367A364D1E7C04653440000A4
:1022C00053460000301200204C330000281F00202D
:1022D000D522001007B5604601880A0A0230DF2ABD
:1022E000FAD1C9B2820804D302884088000410439E
:1022F00000E00068014A5050039007BD30120020F2
:1023000051434343C9188C46110C83B24B4310B45C
:10231000040C614392B280B2504362431C041B0C14
:10232000001910BC59411304120CC01851416144EA
:10233000704700004840414048400E4B5B681847DA
:102340000C4B1B6818470C4A936F9B0802D2094B31
:10235000DB681847F0B5146E556E576F166FFFF7B0
:10236000F6FF054A1466556657671667F0BD014BC0
:102370009B68184730130020000000D0C10FC90728
:1023800000D54042002817D0F44603B40B4B1B681D
:10239000984706BC81409E384042803107D20B06E8
:1023A00007D04900490AC00510430843604701307F
:1023B000F8E7490A8902F5E770470000281F002066
:1023C00041000A0E80231B067E2A0BDD9E3A0BDAA3
:1023D000C1174002400818435242D0404900013121
:1023E0004843704700207047C00FC018013870473D
:1023F000C0420DD300B540004008002100F012F8A3
:10240000002801D4404200BD8020000600BD00002D
:10241000034BDB69FC4618471CDF4926001000000F
:1024200030130020014B5B6A184700003013002076
:10243000014B1B6B18470000301300204100090EB0
:10244000862902DA044B1B6C1847044900B500F0DA
:10245000DFF802BC8E46F5E730130020DB0FC940E1
:10246000132310B512481C78FFF766FB0100012CFE
:102470000AD003DD80220F4800F000F90E48FFF774
:1024800053FB0E4B186010BD0A4C5422200000F084
:10249000F5F80B4B6365A365E36523666366A36686
:1024A000E36623676367A367E3672362E361E5E7A6
:1024B00053460000301300204C330000281F00203A
:1024C0001D260010F8B5454657464E46DE46E0B597
:1024D000FF268846C50DC90D35401700041C0E4067
:1024E000002A01D000231360FF2D60D0002E5ED0A3
:1024F000002D5FD0201CFF2E53D0731EAB4250DC4A
:10250000E20F94468022120491466402640A144346
:10251000424649465202520A11438946AB4251D0C3
:102520006346002B58D000216442AD1B002D5CDDBA
:102530004B460120D9114042FFF744FC1D2383463E
:1025400000219C462A000C2D00DD0C225846631207
:10255000944043436046A246801A03414C4650468D
:10256000914001335B105C435918041BAD1A002DD8
:10257000E8DCA14537DC4B46E41AA14546DCE41A09
:10258000023163004B4519DC16D04346002B00DABC
:102590004942002F00D0396096212000891BFFF7A7
:1025A00047FFF0BCBB46B246A946A046F8BDFF2097
:1025B000C005F6E70020F4E7CB07E6D54B4601312E
:1025C000E41AE2E78C42ECDD6346002B13D14B00AA
:1025D0002E000121E41AD8E7AD1B002DA8DC8C42A7
:1025E00011DA0021CDE7002CCBDA4B46E41808D5F0
:1025F0004C440239C5E74B0001212E001C1B494207
:10260000C3E70139BDE74B460021E41A0131B8E7C1
:1026100010B50022FFF756FF10BDC04607B5604653
:1026200001880A0A0230DF2AFAD1C9B2820804D32B
:10263000028840880004104300E00068014A5050BE
:10264000039007BD301300200021C2158032803274
:1026500001D0024A1047002070470000CD2A000038
:1026600001480421014B184760100020491B00104D
:10267000014B1B681847000060100020014B5B688D
:10268000184700006010002010B5002800D110BDD0
:1026900000F030F9FBE7C04610B5094A03001468A2
:1026A00084B0002C08D0012200910648524203A9B0
:1026B000A047012004B010BD00F068F90020F9E740
:1026C000601D00208926001000BEFDE710B5FFF751
:1026D000FBFFC04670B5FFF775FA074D074EB542D0
:1026E00009D20024013E761BB60808CD9847230086
:1026F0000134B342F9D170BD8C52001094520010D5
:10270000030010B5080011001B68984710BDC046B3
:10271000F0B546464F46D646C0B5437D80460E00CE
:102720001700002B46D0002A3FDD4B1E9946244B54
:102730000125002400209A460DE04B461B5D0D3B11
:102740005A425341325DDBB20A2A0BD02B000134CE
:1027500001359F421ADD002CEFD14346325D1B7DCF
:102760000A2AF3D1002BF1D1A04204DA4346211A00
:102770001B6830189847434650461B68022198470B
:10278000013428002B0001359F42E4DC874204DD40
:102790004346391A1B6830189847F619013E3378BA
:1027A0000D3B5A42534142461375E0BCBA46B1460E
:1027B000A846F0BD0368110030009847F5E7C04611
:1027C00088540010F0B5DE4657464E464546E0B503
:1027D00085B017001C0006000D00FEF797FF0023D0
:1027E000314A12184B41002B59DB304908008A4608
:1027F00002F0FEFC01906B1C03D1300002F096FC4D
:102800000500002C26D12A4B98462A4B1C68002C28
:1028100015D0002F21D1284F02E02469002C0ED0C2
:102820002368002BF9D03B68002B01D0A342F4D1E0
:1028300020002A003100C0472469002CF0D1019B00
:10284000002B28D1280005B0F0BCBB46B246A946F3
:10285000A046F0BD194B9846D7E7174B994602ABF7
:10286000DF1D0A239B4602E02469002CE7D0236881
:10287000002BF9D04B461B68002B01D0A342F3D1AB
:102880002A0031002000C0475B46012239002000A9
:102890003B70C047E8E7504602F082FCD2E70122D5
:1028A000074B5242A1E7C04640420F00A81000204B
:1028B00001270010D0170020D81700201127001082
:1028C000FFFFFF7F0A4A1368002B05D10CE01A00B6
:1028D0001B691032002B07D09842F8D1002902D191
:1028E00003691360016170470029FCD01060FAE7AA
:1028F000D0170020F0B5CE46474680B583B06B4672
:102900000600DD1D2870FEF701FF00231A4A121889
:102910004B41002B2BDB19490800884602F068FC6C
:10292000174B81461C68002C14D0164F02E0246916
:10293000002C0FD02368002BF9D03B68002B01D06E
:10294000A342F4D1200001222900FFF7E1FE24690F
:10295000002CEFD14B46002B05D1300003B0C0BC9A
:10296000B946B046F0BD404602F01AFCF5E7012238
:10297000054B5242CFE7C04640420F00A81000204E
:10298000D0170020D8170020FFFFFF7F70B504008C
:1029900002F0CCFB01230100050001222000FFF71B
:1029A00011FF084B1C68002C06D06368002B05D073
:1029B00098472469002CF8D1280070BD2469002CA8
:1029C000F3D1F9E7D0170020F0B50D1E15DD0E4B41
:1029D0000D271A680D4B4519D31859424B410C4924
:1029E0005B005E5E20210478A64207D093691942FD
:1029F000FCD101301460A842F5D1F0BD93691942B1
:102A0000FCD11760F2E7C046982500200080FCBF8B
:102A10009025002030B504000D1E24DD002010217B
:102A20001A4B013C1A689369194217D10130936916
:102A30001942FCD1136823548542F4D1144B1B680E
:102A4000002B0AD050239363516B183B0B40114964
:102A50008C4662441360002814D030BD0C4B1B68B8
:102A6000002BEFD1F7E70A4B1B68002B0AD050224E
:102A7000064B1B689A63596B183A0A4005498C4605
:102A800063441A6003204042E7E7C04698250020CF
:102A90005417002034100000064B10B51B68002BA3
:102AA00006D00021044A12689163044A10689847CE
:102AB00010BDC0465417002098250020581700204C
:102AC0000822034B19688B691A42FCD17047C04633
:102AD0009825002070B51B4E1B4B32680500D3189B
:102AE0005842434114331C00002D04D0174B1A6880
:102AF000002A11D070BD154E3368002BFAD000218A
:102B000020009563FDF7BAFF20001149FEF7E6F8B3
:102B1000104B35601D60EDE71D600E4B2000196005
:102B20000B49FDF7BDFF01212000FDF7A7FF502253
:102B300033689A63596B183A0A4007498C466344D4
:102B40001A60D7E7982500200080FCBF54170020AA
:102B5000992A0010581700203410000070B50C4E50
:102B60000D001C003060002A03DB02211000FDF77D
:102B700039FE002C03DB02212000FDF733FE290083
:102B80003068FEF7F7FD01210248FFF79BFE70BD9C
:102B9000982500207010002030B583B005006846ED
:102BA0000C0000F035F8072C00D9082422006946F3
:102BB0002800FFF763FD200003B030BD10B51920D9
:102BC000FDF772FED0238022E1211B0692045A6297
:102BD0000448054B0022186049020123FFF7BEFF9D
:102BE00010BDC0460040034094250020D023802221
:102BF0001B069204002801D05A6170479A61FCE7D5
:102C000010B5024800F00CF810BDC0460C1F0020A3
:102C100010B508220149FFF731FD10BD0C1F00203F
:102C200030B5002589B004000922002101A80095D3
:102C3000FFF71EFD0922002105A80495FFF718FDE6
:102C40004B236A466846137004A90D2202F0A0FACD
:102C50001521082220006944FFF710FD09B030BD9E
:102C6000F8B500F0EBF90C23184DFF22AB670520F7
:102C70001749FDF73FFF174C402200212000FFF7C6
:102C8000F7FC4027002301262121134A6670278381
:102C9000A260136063545F316184453963540F4A05
:102CA0000F496360E2602787A1620B606362E262A2
:102CB00002F096FA80239B052E64EB649023094A68
:102CC000EA508022084B5202DA64F8BD000011502D
:102CD000B5040020E01700208400105000011050BF
:102CE0008000105010D001000020115010B50121BB
:102CF0000520FDF7C3FE10BD10B5002200210248DB
:102D000000F0BCF910BDC04600180020044B19703B
:102D1000002904D080219023024A8902D1507047B3
:102D2000A7250020002011500B785B0602D14B78BC
:102D3000052B00D070478A78014B1A60FAE7C0462D
:102D400000001150F0B5C64600B54B790C791B0256
:102D500088782343CC787F21A4070140C509A20FBE
:102D60004F001400324E7A195201B21890700120AF
:102D70006840507000205B055B0DD0701383D476E3
:102D80008046CA00012D33D02A4884468801624417
:102D90008446B4446046826040461060002933D0C7
:102DA000254AC90090466246414451603F223F3364
:102DB0009343022C00D15B0020487A19016852012C
:102DC000B218D1601E4ACB18036051405340802294
:102DD00088465201934228D84346A4061C438023C8
:102DE0007F197F011B06F6191C4373681C6011E0F4
:102DF00014488446880162448446B4446046826232
:102E000040461060002909D100236D0176197360D6
:102E10000D4BF360012080BCB846F0BD084AC900E4
:102E20009046624641445162C0E7FEF7C5FED3E7D3
:102E3000E01700208400105004001050F41E002001
:102E400000001050800010500001105010B502F02A
:102E5000C7F910BD10B57F200C0020404000E409E8
:102E6000110000191A00034B4001C01800F006F9C8
:102E7000012010BDE01700207F22130010B50B4089
:102E80000A420BD0C9098022580040180649400167
:102E900040181201002102F0CBF910BD02220348B4
:102EA000C909521A8266EEE7E0170020002011508F
:102EB0007F22100010B508400A4200D110BD002347
:102EC000C90940004018044940010818002203497C
:102ED000C37002F0ADF9F1E7E0170020FFF7FFFF44
:102EE0007F20002308404000C90910B54018504C0D
:102EF000400120184268002113608268136020227C
:102F0000FFF7B6FBE36C002B00D090E0E36E002BE4
:102F100000D08CE08C33E358002B00D087E0AC333A
:102F2000E358002B00D082E0CC33E358002B7ED155
:102F3000EC33E358002B7AD10D33FF33E358002BE9
:102F400075D12D33FF33E358002B70D14D33FF3350
:102F5000E358002B6BD16D33FF33E358002B66D160
:102F60008D33FF33E358002B61D1AD33FF33E3588A
:102F7000002B5CD1CD33FF33E358002B57D1ED3319
:102F8000FF33E358002B52D183239B00E358002BDF
:102F90004DD18B239B00E358002B48D193239B00FA
:102FA000E358002B43D19B239B00E358002B3ED1D9
:102FB000A3239B00E358002B39D1AB239B00E3589C
:102FC000002B34D1B3239B00E358002B2FD1BB231C
:102FD0009B00E358002B2AD1C3239B00E358002B0E
:102FE00025D1CB239B00E358002B20D1D3239B007A
:102FF000E358002B1BD1DB239B00E358002B16D199
:10300000E3239B00E358002B11D1EB239B00E358F3
:10301000002B0CD1F3239B00E358002B07D1FB239B
:103020009B00E358002B02D1024B034A1A6010BDEB
:10303000E0170020F41E00208001105080220A4B6F
:10304000520410B51A60094B09491A6010000B6848
:103050009843FBD18022002152010648FFF708FB6C
:103060000922054B5A6710BD00E0004000F0004007
:1030700008C00040000010500000115070B5837E61
:1030800004000D001600002B17D10023E38201334A
:103090002000A682A376256102F0BAF8002804D0A9
:1030A00080219023084A8902D150200002F0C8F8FC
:1030B000002805D00123237770BD02F0B1F8E4E7C2
:1030C000200002F09DF8F7E7002011500020704723
:1030D0007047C0467047C0460020704700207047C8
:1030E00000207047014B98787047C0463415002087
:1030F000024B5878431E9841C0B2704734150020E7
:10310000F8B54746CE4680B5294F80463B7801202A
:10311000FF2B03D0C0BCB946B046F8BD00215422F5
:103120002448FFF7A5FA0022234C244B20001A70F4
:10313000FDF744FF224B1C60224C20001430FDF7A9
:103140004BFF200001F08EFE1F4B204D1C60204BDA
:10315000002B04D0280000E000BF1E4B18601E4A60
:10316000002491462B781B4E0EE032686301944692
:103170006344002B10D05B68002B0DD098470134BE
:103180002B78E4B2A34209D39C42EED3E31A5B014D
:103190004B445B68002BF1D10020BBE7434640461F
:1031A0003B70FFF75DFD4046FFF7A0FD0120B1E752
:1031B000A410002034150020EC140020A8250020C5
:1031C00088150020881000208C150020A6250020DE
:1031D000000000004C140020A8550010F0B5DE4699
:1031E00057464E464546E0B5BC4B87B01B78FF2B93
:1031F00000D124E1BA4D03AC2E687269EFF310815F
:1032000072B61368002BFCD0BFF35F8FB161300042
:10321000210001F0DFFC7269B369BFF35F8F002109
:10322000116083F31088002800D108E16378082B2F
:10323000E2D8AC4A9B00D3589F466368002BDBD092
:10324000A0689847D8E77F232179A74E0B40580004
:10325000CA093618B6183200012730321079B8433F
:10326000107110790337B8431071002B00D1EFE0D3
:103270009E4A337D1278934200D3DEE09C4A5B0184
:103280001268D318002B00D1D9E09E6962792078AA
:10329000A368B047B0E7974A1378002B00D1CEE07F
:1032A0001378013BDBB213701378002BA4D10122F9
:1032B0008D4B01201B788C4913438B4A8A4E137027
:1032C0003423D25C8243CA54CA5C04218A43F25438
:1032D0000133F25C8243F254F25C00208A43F254E0
:1032E000267800F057FC602223791A40602A0DD01E
:1032F000402A00D1B4E0DB06DB0E012B00D101E156
:10330000022B00D1C6E0002B00D1B5E020780021CF
:10331000FFF7B2FD80212078FFF7AEFD6CE7724E1B
:103320003378DB0700D467E7FDF7E8F864E76E4B16
:10333000DB78DB0700D45FE76068FFF7CBFE5BE775
:10334000694E3378DB0700D456E730780007C00FAA
:10335000FDF7CCF850E7684A644F23789246644AF8
:10336000984691463A003B780026474690460FE043
:103370004A461268730194466344002B66D0DB68AA
:1033800038009847434601361B78F6B2B3423ED325
:10339000B342EDD8F31A5B015344F0E7564A534F5A
:1033A00023789246524A984691463A003B78002646
:1033B000474690460FE04A461268730194466344BC
:1033C000002B1FD0DB6838009847434601361B7836
:1033D000F6B2B34205D39E42EDD3F31A5B015344D8
:1033E000F0E7414E542200213000FFF741F910224E
:1033F000FF21301DFFF73CF930002022FF2114305F
:10340000FFF736F900F0BCFBFDF76AF8F4E6364E3C
:10341000542200213000FFF72BF91022FF21301D2C
:10342000FFF726F930002022FF211430FFF720F9A2
:1034300000F0A6FB2379B370DEE693420ED007B00E
:10344000F0BCBB46B246A946A046F0BD264EEFE70B
:1034500062792078A36800F0B1FBCDE6264B14E733
:10346000264800F097FB0121300004AAFFF72EFE4A
:10347000002800D0C0E649E7202A00D143E1002A15
:1034800000D043E76379092B00D93FE71C4A9B0032
:10349000D3589F467023217A0B4200D036E77F270E
:1034A000CB0999460F40104B7F001048DB194B4465
:1034B0001B7D0078834256D300D040E10E4B9846E6
:1034C000002A00D140E14346586900F063FB4346BF
:1034D000012130005B6904AA9847C9E7A4100020C5
:1034E0008C1500200055001034150020A625002062
:1034F0004C140020A8250020A8550010CD30001045
:1035000024550010237A0F2B00D9FFE6D74A9446A2
:10351000D74A63441B791278934231D300D0F5E641
:10352000D44F786900F036FB012130007B6904AA92
:103530009847002800D05FE66022170023791F40DB
:103540001A4200D0E2E663790A3B012B00D9DDE69E
:1035500000F020FB63790A2B00D14FE1300004A971
:1035600000F098FA48E6C4485B0100688046984439
:10357000002A00D1E8E04346002B00D1C6E6A2E7CE
:10358000BD4A5B011768FF18002F00D1BEE6C8E7EF
:10359000A3799846B54B5B789845DFD0B34B5B7801
:1035A000002B00D04EE14246B04B5A70002A00D1A9
:1035B00045E140460138C0B2FDF766F8002800D169
:1035C00039E14378022B00D035E10121C2790700AF
:1035D000931152110B400A4012015B011343A34A9D
:1035E0002F311278B3468A431343A04A0937137028
:1035F000C37882781B021343C31801939E4B9946EC
:10360000019BBB4200D854E101227B7890460B2BF2
:1036100004D1FB7898463B78FF187B78042B00D0C8
:1036200009E1019B0026DB1B9BB29A46904B1B785D
:1036300019E04A461268730194466344002B00D196
:10364000F9E05246390058461B699847082803D9C3
:103650005346834200D3DAE0854B01361B78F6B23D
:10366000B34200D2E7E0B342E3D8824AF31A944669
:103670005B016344E5E77D4B02AA5B78023213707D
:103680003000012304A900F01DFAB5E5E088030A23
:10369000C0B20F2B00D939E678499A008A5897466C
:1036A00004A800F07DFA3000A179FFF725FB022283
:1036B0006E4B1B7813436D4A13709DE5E388012B15
:1036C00000D023E60822694B1B789343674A1370A6
:1036D00044E70220654B197802AB9A1C8B068908D7
:1036E000DB0F01400B4313803000022304A900F0DC
:1036F000E9F981E5E388012B00D007E608225B4B5E
:103700001B781343E2E7237A0F2B00D9FEE5574AD3
:10371000944663441F79564B1B789F422BD2564ADE
:103720007B011768FF18002F00D1EFE5786900F0E2
:1037300031FA012130007B6904AA984798E6002AF3
:1037400000D0E3E50023984663799A4602239B461E
:1037500053465A469343012B12D05346002B00D0B8
:10376000D4E5424B02AADB194B4430331B790232B9
:103770009B07DB0FB7E79F4200D0C7E53D4FD5E77A
:10378000E388002B12D15346012B26D03C4B1878EE
:10379000FFF772FB0221354BDB194B4430331A79AA
:1037A0000A4301211A711A790A431A714346002B00
:1037B00000D121E5586900F0EDF9434604AA5B69A0
:1037C000012130009847002000F0E4F93523274A12
:1037D000D35CDB0700D50FE5C0E6294B1878FFF76F
:1037E00067FB5946214BDB194B4430331A798A4326
:1037F00051461A711A798A431A71D7E702AB9A1C9B
:103800003000012304A9177000F05CF9F4E443468A
:103810008246002B00D186E0BA78D318DBB205E0EF
:103820000132D2B20E71934200D17CE00F49891867
:103830000879FF28F4D000230C4A537066E5FCF7A2
:103840004FFE8BE630000021FFF760FA3000FFF7F3
:10385000FDFA00229146084A044B93464A469B785B
:10386000034F9A46B1463B7816001AE03415002003
:10387000A6250020A85500104C1400204C5500101F
:10388000A41000205A461268730194466344002B2A
:103890006BD0DB684846984701363B78F6B2B342B6
:1038A0004ED39E42EED3324AF31A94465B016344F0
:1038B000EFE75E46FCF70CFE50E6FFF70FFC021E3A
:1038C00000D123E53000137804A900F0FBF8CFE520
:1038D0002189FCF7DDFE021EF4D117E5022B18D07A
:1038E000FFF7FEFB021E00D110E5D37891781B0292
:1038F0000B43300004A900F0E5F8B9E5FCF7C0FE81
:10390000021E00D102E51223300004A900F0DAF80B
:10391000AEE5FCF7B9FE021EE7D1F7E4FFF7DCFBEA
:10392000021EE2D1F2E4330039005246114801F0A0
:10393000E9F8114B57441B78B34200D360E67AE7AD
:10394000542200210D48FEF793FE0C4B1022FF215C
:10395000181DFEF78DFE2022FF2106484E46FEF779
:1039600087FE5246054B9A701DE64E46F9E7C04663
:10397000A855001048150020A62500203415002069
:10398000702270B58B780C001A4201D0002070BDF7
:10399000064B20001D78064B997801F077F8002837
:1039A000F4D021002800FFF7CDF9F0E7A4100020A3
:1039B000341500207F2070B508400F4C4000CD0921
:1039C00024186419303425790020ED0700D570BD26
:1039D000012625790948354300782571FFF73AFA21
:1039E0000028F4D1012223799343237123790332F0
:1039F00093432371EBE7C04634150020A410002048
:103A00007F22CB090A40044952008918C918303175
:103A10000879C007C00F70473415002010B50B4B54
:103A20000C001878FFF744FA7F21022221404B0056
:103A30000749E409C918091930310B7993430B710F
:103A40000B79013A93430B7110BDC046A4100020BE
:103A50003415002010B50D4B0C001878FFF740FA14
:103A60007F21022221404B000949E409C9180919A4
:103A700030310B7993430B710B79013A93430B71FE
:103A80000B79033293430B7110BDC046A410002084
:103A90003415002070B50A4E0500300008220C00D5
:103AA000FEF7ECFD00237F21F3602278B3609142A2
:103AB0005B412800D90100220023FFF77BFF70BD86
:103AC00094140020F8B5CE46474691462A4E80B55C
:103AD0000822070030000D009846FEF7CFFD4B4648
:103AE000B3600023F381EC79A97924020C43231CF1
:103AF000444500D943469AB29046B381002C13D076
:103B0000002A1FD04B46002B34D0131C402A1FD84C
:103B10009BB2984633787F2B20D80021174A434622
:103B20003800FFF747FF09E07F222B7838009A42E0
:103B3000644100230022E101FFF73CFFC0BCB9460D
:103B4000B046F8BD33787F2B11D980210022E6E7FB
:103B500040239BB2984633787F2BDED9074C4246F0
:103B600049462000FEF78AFD80212200D7E7002188
:103B70000022D4E70020E1E794140020F414002090
:103B800010B5142200210248FEF772FD10BDC04698
:103B900094140020014B18617047C0469414002013
:103BA00010B5054C010008222000FEF767FD002338
:103BB000A360E36010BDC04694140020F8B5394CF2
:103BC0001D0023780600DA09C9098A4210D00020B6
:103BD000002D00D0F8BD21003000FFF7A5F82369C3
:103BE000002B42D022000321300098470120F1E74A
:103BF0007F2B06D8A068002839D02A002A49FEF772
:103C00003DFDA368E28959195219E38892B2E28115
:103C1000A160934214D03F2D12D9A589A81A071C80
:103C200080B240282FD82378BFB27F2B2DD8002117
:103C3000AA4235D01C4A3B003000FFF7BBFEC9E763
:103C40002369002B05D0220002213000984700286C
:103C50000FD07F220021237830009A42494100236F
:103C60000022C901FFF7A6FEB4E70120B2E7002059
:103C7000B0E700213000FFF7FFF830008021FFF7A8
:103C8000FBF80120A6E74027CDE7AA4207D0064C63
:103C90003A002000FEF7F2FC80212200CBE78021D1
:103CA0000022C8E794140020F4140020F0B54E461A
:103CB0004546DE465746E0B5C54D06006B688FB0F9
:103CC000002B24D0E9891A78083959189B18DA7919
:103CD0009879120202439B18CA1A002A17DD0024A1
:103CE000287B04E01A789B18CA1A002A0FDD5A783C
:103CF000042AF7D1DA78002AF4D19A7882420ED0D9
:103D00001A7801349B18E4B2CA1A002AEFDC0020AA
:103D10000FB0F0BCBB46B246A946A046F0BD2B6B27
:103D20001B5D002BF3D0002130002A7AFCF7A2FCA7
:103D30000028ECD02B7F0027012B11D03B00300056
:103D4000297A2A6CFFF736FE0028E0D02A6B2B7AFE
:103D5000125D3900009230000022FCF78DFCD7E79D
:103D60002B6A012BEAD13000297AFFF749FE00289F
:103D700000D0EBE02423EB5C686B9A4600F014FF64
:103D800053460700012B1BD99A1ED2B293009B18F1
:103D9000282291469B00994432001423A0464E46A7
:103DA0001C0091466B6B181900F0FEFE3B1C87420D
:103DB00000D9031C14349FB2A642F3D144464E46A8
:103DC0005146E88AFDF7D6FF6B6B834651466889FA
:103DD0009946FDF7CFFF83B298465B46002B00D192
:103DE000BEE04B469B8803939B009B4500DDB7E0FC
:103DF000A88A5146FDF7BEFF83B202939F4200D2CC
:103E0000A4E0594689B28B46288B5146FDF7B2FF94
:103E1000039A80B2520894465A46811A624689B281
:103E2000531A9F4200DB59E16A4A1368002B00D005
:103E300066E10A331360029A131C424500D993E0ED
:103E40009BB29846002B00D180E05346002B00D156
:103E500081E05A1E5300D1009B18524692000692F0
:103E600052465200039200225B0006330831484656
:103E7000A346D1460BAFB24608931600029104E068
:103E80000136F3B2994563D9686B2B6C3900049302
:103E90003C23EB5C0593B3009B199B009C4660445C
:103EA000AC7F079301F00CF83B88002BE8D0059A13
:103EB00072435443049A94461A1C6444434500D9FF
:103EC00042463A807B68A87F91B25A18012800D1F7
:103ED000CFE0022800D190E0032847D0049393421A
:103EE0001BD209911900484623008C46059004987E
:103EF00001681960416808305960029989464B444D
:103F00008242F5D8059B099999466346DB43D3184D
:103F1000DB08029A01335343E41843465B1A1A1C28
:103F20009BB2788804937B889C46049B634500D9A8
:103F3000021C93B27A80002B4ED1C9186B6B079884
:103F40009C4689B2604400F0ADFF99E70027F5E692
:103F500056465C46CA46574643465F43BFB2EDE607
:103F60003B1C474500D86BE7434669E793420BD2B9
:103F7000198821805988618099880633A180089921
:103F80008C4664449A42F3D84346398878885B1A51
:103F90000490021C98B284460498604500D91A1C0B
:103FA00093B27A80002BC8D0BA68D0189042C4D996
:103FB000138823805388638093880632A380089BEC
:103FC0009C4664449042F3D839887B88B5E7C04664
:103FD000501400208C170020BA68D0188242ACD24E
:103FE000049313682360536808326360029B9C4605
:103FF00064449042F5D8049B9FE7934219D29C46B3
:1040000005934346200004910993634602CB9C46E6
:10401000069B0160984640446245F6D8059B099886
:10402000DB438046D3189B08069A01335343049917
:10403000E41843465B1A1A1C9BB2788804937B8869
:104040009C46049B634500D9021C93B27A80002BE6
:1040500000D172E7BA68D018824200D36DE70493AA
:1040600008CA2360069B9C4664449042F8D8049B8F
:1040700063E7934212D21900200004930B880231A7
:104080000380039B9C4660448A42F7D8049BDB4331
:10409000D3185B08039A01335343E4184346398825
:1040A00078885B1A1A1C9BB204937B889C46049BFD
:1040B000634500D9021C93B27A80002B00D13CE703
:1040C000BA68D018824200D337E7138802322380BF
:1040D000039B9C4664449042F7D875E76144104ABC
:1040E0008F4218DD1368002B0DD1029B5B4501D078
:1040F0000A231360031C404500D8A1E643469FE60F
:1041000061448F4207DD013B13605B46C34500D825
:1041100096E6434694E61368002BF6D0F3E7C046D4
:104120008C1700200120704770B50C00110000288A
:1041300011D10A4D6A68002A0DD03822AA5CA24229
:1041400000D870BDA00000196C6B80001A00201808
:1041500000F0D4FDF5E70020F3E7C046501400203E
:10416000F0B5DE4657464E464546E0B5224C83B094
:10417000402200212000FEF77BFA204B4022A36260
:104180002C23E2541E4B1F4D23631F4B1F4F2364F0
:10419000022399464A463633E254C4239B0098468C
:1041A00063870123424639006563280000939B46DC
:1041B00000F0C2FC164E3000FCF700FF00232B611C
:1041C0009A4643462800F9185B464246EE60143092
:1041D0000093083600F0B0FC3000FCF7EFFE5346C9
:1041E0004A466B623C332E62E25403B0F0BCBB46DD
:1041F000B246A946A046F0BD5014002090170020FA
:1042000050160020381F0020641D0020601F002071
:10421000802500200020704770B50D4D2822002118
:104220002800FEF725FA3823EB5C002B0ED0002483
:1042300038266B6BA0009C4600198000604400F09B
:1042400011FE0134AB5DE4B2A342F2D870BDC046AA
:10425000501400204A790300F0B50020012A02D151
:104260008A79012A00D0F0BDCA79202AFBD10A79C7
:10427000002AF8D1CA78002AF5D11B4C6268002ABE
:10428000F1D10A00022723709023032530266160B4
:10429000E3818832FF3706E0242B15D00B78C9184C
:1042A000531A002B1CDD4B78052BF5D12800CB7859
:1042B00018400128F2D11E42F0D18B78DB09012B86
:1042C000ECD18B79E376E9E78B78032BE6D14B7958
:1042D00008791B020343BB42E0D10B7AA376DDE7EA
:1042E000012388206373BEE750140020F0B54546D3
:1042F000DE4657464E46E0B51400050087B001295A
:1043000009D00120022918D007B0F0BCBB46B24644
:10431000A946A046F0BD602311781A000A409046D5
:104320000B423AD160780A2800D198E00B2870D06F
:10433000013843425841C0B2E6E713781F22190002
:1043400091432029E0D1DB06DB0E012B00D1ACE04C
:10435000022B24D1AD4F20797B68002B1FD01A7817
:10436000F98959189B18DA799E79120232439B1801
:10437000CA1A002A05DC12E01A789B18CA1A002A09
:104380000DDD5A78052AF7D19A788242F4D12100BE
:104390002800BA6AFCF7C2F8B6E7202A01D000204C
:1043A000B2E7637926791B02CA063343D20E012A8B
:1043B00000D193E1022AF2D1944F7B68002BEED01A
:1043C000F8891A78804698449B189A7994466046F2
:1043D000DA79120202439B184246D21A002ADEDD25
:1043E000404604E01A789B18C21A002AD7DD5A7892
:1043F000052AF7D19A78B242F4D149B2002900DAFD
:1044000016E22C2321002800FB5CBA6AFFF75AFB56
:104410007AE77E4F7E68002EC1D0F989337808395B
:104420007118F618F379B0791B020343F6188B1B49
:10443000002BB4DD2379A4461C0004E03378F61881
:104440008B1B002BABDD7378042BF7D1F378002B9B
:10445000F4D1B078A04272D00132D2B2EEE76B4F05
:104460007B68002B9BD0F9891A78083959189B185A
:10447000DA799E79120232439B18CA1A002A8EDD1D
:104480004646207904E01A789B18CA1A002A86DD6D
:104490005A78042AF7D1DA78002AF4D19A7882423D
:1044A00000D1A9E00136F6B2EDE76179267900295D
:1044B00026D0564FC9B27B68002B00D16FE79A789F
:1044C000B24200D06BE71A789B18D8799A7900022B
:1044D00010431A78861A002E00DC60E718189B1823
:1044E00005E01A789B18C21A002A00DC57E7DA7830
:1044F0008A42F6D121002800BA6AFCF713F803E7D4
:10450000424F7868002800D149E7FB89083BC11871
:10451000002B00DC43E7030005E01A789B18CA1A59
:10452000002A00DC3BE75A78042AF6D18278B242AE
:10453000F3D121002800BA6AFBF7F2FFE4E6A346B4
:1045400064469A46E3789046A2781B02134302938E
:104550003B7B5B4500D116E16B464246197A3B6BCB
:1045600099547A68FB899046083B984443469B1BC4
:10457000002B59DD8C464046594604E03378F61846
:10458000831B002B50DD7278042AF7D1B2788A425F
:10459000F4D1F2786245F1D132798B4680460292AD
:1045A000002A3AD0002B00DCF9E6230034009946BB
:1045B0002378E418029B53452AD943461B1B002B42
:1045C00000DCECE66378052BF2D121002800FFF730
:1045D000D7F9002800D1E2E6A37828001900039358
:1045E000FFF71CFA039BDB09012B00D1F4E05346D3
:1045F0000133DBB29A46DBE7B0463A6B0123210078
:1046000028004244FFF75EFA7EE6C04650140020C0
:10461000029B4C46534500D0C1E621002800FFF71D
:1046200081FD002800D1BAE63E7F012E50D17B7F6C
:10463000002B4DD0BB7F002B4AD0FB7E002B47D0F8
:104640003B69002B44D0FEF74DFD002800D0F4E07C
:10465000FE7E3B6973439846FEF744FD414241416B
:10466000A64B494299461940FA235B019C464046B5
:104670006144FDF7A7FB83B298463B699B46FEF772
:1046800031FD414241414B4649421940FA235B0109
:104690009C467A7FBB7F61445A4343460133534370
:1046A0009BB298467B899146434511D34346584671
:1046B0009B1A9BB270439A46FDF784FB5346002930
:1046C00000D1BFE052461B0413437B6143463B834A
:1046D00021002800FFF7DEF9012015E61B0A2BD088
:1046E000874FDBB27A689846002A00D157E6907867
:1046F000B04200D053E610781218D679907936027D
:1047000006431078331A002B00DC48E6961943461E
:10471000121805E010781218B01A002800DC3EE6E6
:10472000D0789842F6D149B2002900DB69E6210031
:104730002800FBF72BFFE7E5714F7B689C46002BB9
:1047400000D12CE66246FB89083BD018002B00DC28
:1047500025E663468C46110005E01A789B18C21ABC
:10476000002A00DC1BE65A78042AF6D18A78B24285
:10477000F3D1614649B2002900DB42E6210028005E
:10478000FBF702FFC0E5534628003B73397AFFF779
:1047900061F93823FB5C0022002B11D023001400A8
:1047A00099467B6BA0009C4600198000604400F095
:1047B00059FB38230134FB5CE4B2A342F1D84C46E8
:1047C00021002800FBF75AFF002800D1E7E500236D
:1047D0003B727B613B83BFE630221100E3781940D6
:1047E00004911A4200D002E7039B40463B725B46AD
:1047F0003B73637922791B0213435B055B0D7B815D
:104800003378F31801E01A789B18C21A002A21DDC8
:104810005A78042A1ED0242AF5D19A78012A58D031
:10482000022AF0D1DA78012AEDD11A79BA77EAE7CB
:1048300021002800FBF7A6FE66E5FB7E013B9E40BB
:10484000F6B206E74A469B1ABB825346FB824346B2
:104850003B833DE73C23BA7FFB5C80465A43788F1D
:1048600011000392FDF786FA039A504383B2059331
:104870003823FB5C0393002B17D0049B7A6B9C4678
:10488000980060449446012280006044012301683E
:104890000092059A00F050F93822049B0133DBB2F4
:1048A0000493BA5C03929342E7D33C23787FF95C8C
:1048B000FDF788FA2423C0B2F854039B984200D92C
:1048C0006DE52800FFF7F2F9002800D08FE6002000
:1048D0001AE59A7A7A775A793A77D9799A790902E0
:1048E00011431A7A120411435A7A12060A433A62A1
:1048F0005A78242A87D19A7892E7C046A8E4FFFF25
:104900005014002010B5084B0200187A884208D1D4
:104910001B6B0020002B00D110BD1000FFF7C6F963
:10492000FAE70020F8E7C04650140020F8B54546E5
:10493000DE4657464E460C78E0B580460E0093465C
:104940009A4600257F2C44D948790A790002E4066A
:104950001043E40E012C45D0022C3AD14A4F7C681A
:10496000002C36D02378F8899C4620186444A3791B
:104970009946E3791B029C464B4661460B439C4695
:104980006444031B002B05DC23E025786419051B18
:10499000002D25DD6578052DF7D1A5789542F4D158
:1049A0002C22BA5C141C52453CD8A4B2B86AA2426C
:1049B00016D322005946FDF761FE7F23327813405B
:1049C000212B31D0BA6A230031004046FFF77AF834
:1049D00005002800F0BCBB46B246A946A046F8BD7B
:1049E0000025F6E7000A36D0274FC0B27C68002CBD
:1049F000EFD0A3789342ECD12278A218D47993799E
:104A000024021C431378E11A0029E2DD1519D2189B
:104A100004E014781219AC1A002CE1DDD478844239
:104A2000F7D1BDE75446C0E7BA7E73799A42C9D13F
:104A3000F378012BC6D17378012BC3D1BA6A5178B0
:104A400013780902194393781B041943D3781B0682
:104A50000B433B61B7E70C4F7B689946002BB8D0FE
:104A6000F88908381B180028B3DD4C4604E020788C
:104A70002418181B0028B3DD60780428F7D14846B5
:104A800080789042F3D18BE75014002010B5437921
:104A900004791B0223435B055A0DC3789B079B0FC8
:104AA000022B05D0032B15D00020012B08D010BD00
:104AB00002291CD00020402393424041C0B2F6E7B7
:104AC00002394B4259410D4B9C4661449142404151
:104AD000C0B2ECE702394B425941F0230020494271
:104AE0009B001940403191424041C0B2DFE7044B86
:104AF000D3185A425341D8B2D9E7C046FF03000049
:104B000000FEFFFF8A1870B5914207D27F264C78CD
:104B1000052C04D00C7809198A42F8D870BD3400ED
:104B20008D782C4064000419ED0963550C7809193F
:104B30008A42ECD8F2E7C046F0B5C64600B504009C
:104B400006A805788020884617001E0000028242D1
:104B500027D8E068002803D00121494200F038FB43
:104B60002069002803D00121494200F031FB43466F
:104B7000236073045B0CED031D430023E068638135
:104B8000A780E5802381002801D000F009FB20697F
:104B90000124002801D000F003FB200080BCB846AF
:104BA000F0BD0024F9E7C04610B504894189828828
:104BB000A3B288B28C4207D31B1A9BB2101C9A4234
:104BC00000D9181C80B210BD5100091A5B189BB2A5
:104BD000F4E7C04670B5040000690E00002803D059
:104BE0000121494200F0F4FA25896089A288A9B21E
:104BF00083B285422CD3CD1AADB2002D2ED0AA425D
:104C000008D2914231D38B1A9BB263819A4203D866
:104C10009B1A9BB29A42FBD9E28821685204520C3B
:104C200053433000C918FDF729FD618901254B1C4C
:104C30009BB2A288994214D9002352009B1A9BB2BE
:104C400020696381002801D000F0AAFA280070BD15
:104C50005500ED1A4D19ADB2002DD0D10025638954
:104C60009BB252009342EBDBE8E789188BB2638179
:104C7000CCE7C046F8B50400C0680E00002803D099
:104C80000121494200F0A4FA258920896189A2887E
:104C9000ADB283B28FB2884228D3DB1B9BB29A425B
:104CA00009D8E779FF0906D1E068002801D000F0B3
:104CB00077FA3800F8BD2B00954203D39B1A9BB2BC
:104CC0009342FBD2E28821685204520C5343C81825
:104CD0003100FDF7D3FCA2886B1C9BB252009D42B1
:104CE00009D99B1A9BB201272381DDE75100C91B1B
:104CF0005B189BB2D3E79342F5DBF2E7F0B54E4683
:104D00004546DE465746E0B589460500140083B0A7
:104D1000002A6ED0C068002803D00121494200F06B
:104D200057FA2F89EA796B89BFB29BB2D20942D177
:104D3000AE889F4267D27200D31AFB189BB2002242
:104D400090469E4231D9F31A1A1C9BB2A34200D955
:104D5000221C93B29846E8884346DB199BB29B46D7
:104D60003C00BE4203D8A41BA4B2B442FBD2400410
:104D7000430C18009A462B6860439C46311B89B24D
:104D8000604441454ED35246434649465A43FDF797
:104D900075FCAB885B00BB4501D39B4503DB5A46E2
:104DA000D31A9BB29B465B462B81E868002822D031
:104DB00000F0F6F91FE0AA889046944226D29F425E
:104DC00044D34146FA1A92B2490012198A4209DBC9
:104DD00042469A1892B2171BBFB29346BB423AD9C9
:104DE0007F1ABFB2E3199BB246469B46A046E888AD
:104DF000B6E700239846404603B0F0BCBB46B24637
:104E0000A946A046F0BDFB1A9BB298E7E888A21A13
:104E10004404640C54434246A144002AC5D046468B
:104E20001F0099E75346594389B20A000191494648
:104E3000FDF724FC43469A1B5346A2185A43019996
:104E4000286892B24944FDF719FCA2E75100CA1A3A
:104E5000BA1892B2B9E7B942C2DD4646E888A04620
:104E60007EE7C04610B50400C068002803D00121C9
:104E7000494200F0ADF92069002803D001214942E0
:104E800000F0A6F90023E06863812381002801D0A7
:104E900000F086F92069002801D000F081F9012096
:104EA00010BDC04642898388511889B25B008A428E
:104EB00001D8994201DBC91A89B241817047C046C5
:104EC000F8B50E0001894289070083888DB294B23B
:104ED000914236D32A1B92B2934214D238691A00F7
:104EE000002805D00121494200F072F93869BA88DA
:104EF00095422FD3AC1AA4B27C81002802D000F0D6
:104F00004FF9BA881300002A02D11FE0ED1AADB2A2
:104F10009D42FBD29C4203D3E41AA4B29C42FBD232
:104F2000396808197060AC4206D3181BD31AE4180C
:104F300030807480B160F8BD002332807380B3602C
:104F4000F9E75A00121BAA1892B2C5E732607260E4
:104F5000B260F0E7AC18A4B2CEE7C04680210A4A9E
:104F60004902136D0B42FCD0092353670422074BFF
:104F700000201A60064B00211A68064BDA67064BC0
:104F80001A68064B1A6470470000115080301150A7
:104F9000DC17002000400140F81E002000C0014046
:104FA00070B5102084B0FBF737FC08285DD0324B79
:104FB000324DDB6F324C2B60324B01221B6C0121D6
:104FC0000F202360FBF732FC02210F20FBF75AFC75
:104FD00008222D4B03211B680F205A401F2313402A
:104FE0002A4A1360FBF73CFC02220421284BDA67B3
:104FF0007E329950274B743A5A671B6D1B079B0FE3
:10500000012B2FD1FCF702FA0600FCF77FFBFA22F6
:105010000023920012184B41002B29DB0121029141
:10502000002101911C4930000091FCF7F3F90028A0
:1050300001DB04B070BDFA2000218000FCF770FB9A
:105040008021144A4902136D0B42FCD00923536797
:105050000422124B1A602A68074BDA672268094B50
:105060001A64E6E7FCF7A8FDCCE7FCF7A5FD9EE790
:1050700001220B4B5242D1E700400140DC170020D7
:10508000F81E002000C001407C4001407C500140DF
:1050900000201150000011505D4F00108030115061
:1050A000FFFFFF7F074B10B51B6D1B079B0F03D145
:1050B000FA200021800010BDFFF772FF00200021C0
:1050C000F9E7C0460000115010B584B0FBF70CFCA6
:1050D000012801D004B010BDFCF798F90400FCF7DA
:1050E00015FBFA220023920012184B41002B13DB10
:1050F0000121029100210191094920000091FCF752
:1051000089F90028E6DA032206490B6D9B081A424A
:10511000FBD0FFF745FFDDE70122034B5242E7E7F3
:10512000A550001000001150FFFFFF7F10B583074E
:105130000AD00300032102E001330B4205D01A78A4
:10514000002AF9D1181A10BD030019680C4A0D4C39
:105150008A188A4322420FD15968094A04338A18AF
:105160008A43224208D15968054A04338A188A437F
:105170002242F1D000E001331A78002AFBD1E1E7A6
:10518000FFFEFEFE80808080F8B5C0460000000073
:1051900001B40248844601BC604700BF8D02002074
:1051A00001B40248844601BC604700BFED01002005
:1051B00001B40248844601BC604700BF390F00209B
:1051C00001B40248844601BC604700BF390F00208B
:1051D00001B40248844601BC604700BF5D01002065
:1051E00001B40248844601BC604700BF510300205F
:1051F00001B40248844601BC604700BFC1000020E2
:1052000001B40248844601BC604700BF9D0C0020E9
:1052100001B40248844601BC604700BFE50B002092
:1052200001B40248844601BC604700BF410C002025
:1052300001B40248844601BC604700BF4D0C002009
:1052400001B40248844601BC604700BF0D0C002039
:10525000ED1B0010191C0010651D001061260010C8
:1052600035220010612400108D1C0010351C001028
:10527000551C0010691C0010650F0010711C0010F7
:1052800031130010B51B0010590A0010FD02001068
:04529000012C0010DD
:105294003031323334353637383941424344454668
:1052A4000000000050616E6952436F72700000008C
:1052B4004D69634E6F64655F345F436800000000AE
:1052C400554143320000000009040000090299001E
:1052D4000201008032080B000201002000090400D2
:1052E4000000010120000924010002034800000815
:1052F400240A04010101001124020101020304042F
:1053040000000000000400000C240303010101025A
:10531400040000001A240602010F0000000F000020
:10532400000F0000000F0000000F0000000009043F
:105334000100000102200009040101010102200012
:10534400102401030001010000000400000000001B
:1053540006240201021007058105880101082501C0
:10536400000000000000000012010002EF020140F2
:10537400FECA104000010102030100000A2A2A2A81
:105384002050414E4943202A2A2A0A000A000000DC
:105394004E6F207370696E6C6F636B7320617265FE
:1053A40020617661696C61626C65000048617264B9
:1053B4007761726520616C61726D20256420616C77
:1053C400726561647920636C61696D6564000000D5
:1053D40048617264206173736572740052656C6510
:1053E40061736500626F6F74325F77323571303884
:1053F40030000000322E312E300000007069636FDF
:105404000000000074696E797573625F6465765F8D
:10541400617564696F5F345F6368616E6E656C5F4C
:105424006D696300466562202034203230323500D5
:1054340005005250DE65F468DC6500100600525029
:105444005422A29D2854001006005250861C0302C8
:105454000854001006005250BBFF3CB60054001024
:1054640006005250ABB36053F8530010060052507C
:10547400E182887FE853001006005250D3F0754251
:10548400E05300100D0A00004C454400090052503E
:10549400000000028C540010080052501210020048
:1054A400556E68616E646C65642049525120307891
:1054B40025780A00657020253032582077617320E2
:1054C400616C726561647920617661696C61626C9A
:1054D4006500000043616E277420636F6E74696E0B
:1054E40075652078666572206F6E20696E616374DD
:1054F400697665206570202530325800F831001037
:10550400563300109C3300102E330010403300102B
:105514001E33001096320010463200103A3200104A
:10552400D2360010BC3600100C330010F4360010D4
:105534000C330010A03600108C3600100C33001011
:1055440076360010903500100C330010FC38001033
:10555400DC380010D03800100C3300100C3300106D
:10556400BA380010DC3800100C3300100C33001073
:105574000C3300100C3300100C3300100C330010EB
:105584000C3300101C390010820D0020820D002005
:10559400640D0020D80D0020DE0E0020F20E002045
:1055A400CC0D0020000000006141001015420010E5
:1055B4001942001055420010ED4200100549001038
:0455C400350F00207F
:1055C80034540010405400104C540010585400102B
:1055D80064540010705400107C5400109054001053
:0455E8009C540010BF
:1055EC00F0B5C646150000B504001E000268EFF3C6
:1055FC00108172B61368002BFCD0BFF35F8F0423AD
:10560C00E356002B2DDB2268BFF35F8F0020106068
:10561C0081F31088D0221206127852B290469A4228
:10562C0003D1002080BCB846F0BD00270BE02368F6
:10563C00BFF35F8F1F6081F310882800310000F0EA
:10564C003FFF0028EDD12268EFF3108172B613688A
:10565C00002BFCD0BFF35F8F23797F2BE7D9434618
:10566C0002E0D0231B061B6823712368BFF35F8FF6
:10567C0000221A6081F310880120D3E7F0B5C646EA
:10568C0000B50D00040000F0F3FEFA2206000F0036
:10569C00002328000021920000F022FF36184F4111
:1056AC00002F2CDBD0231B061B68002598460BE033
:1056BC002368BFF35F8F1D6081F3108830003900C1
:1056CC0000F0FEFE002818D12268EFF3108172B6AC
:1056DC001368002BFCD0BFF35F8F23797F2BE7D9A6
:1056EC00434623712368BFF35F8F00221A6081F356
:1056FC001088012080BCB846F0BD0020FAE70126D6
:10570C00014F7642CEE7C046FFFFFF7F0268EFF302
:10571C00108172B61368002BFCD0BFF35F8FFF2390
:10572C0003710368BFF35F8F00221A6081F3108846
:10573C0040BF704710B5084C2378002B0AD180234A
:10574C00064807495B051A68C25004338B42FAD1EC
:10575C000123237010BDC046A9250020541600104B
:10576C000001001010B5024B0133984710BDC04624
:10577C0054160020034B1A68C0239B009343024A23
:10578C00136070470C8001400C900140054B1A6867
:10579C0080239B005340C02292001340024A1360A6
:1057AC007047C0460C8001400C9001401423F0B5AA
:1057BC00D6464F4646469A46814618880433C0B5AD
:1057CC0098460E001B88274914009847534607003B
:1057DC001888434624491B88984753460500188867
:1057EC00434622491B8898478046FFF7A3FFB847DA
:1057FC00A847FFF7CBFF002C1BD0C02122000827A5
:10580C00022049053D008B6A1D4018420BD0002C2C
:10581C0009D0131B0D2B1FD84B461B78013C0B6674
:10582C0001239C46E1442300002D0CD11343002B93
:10583C00E8D1FFF79FFFC047FFF794FFE0BCBA46E3
:10584C00B146A846F0BD002AF1D00B6E013A337078
:10585C00130001362343EAE7002DD3D0002AD1D020
:10586C00F3E7C04649460000455800004643000097
:10587C0000231C4A10B59360D3601B4A002193602F
:10588C00D3601A4A1A489360D3601A4A9360D36063
:10589C00194A9360D360194A9360D360184A936095
:1058AC00D360184A9360D360174A9360D360174A49
:1058BC009360D360164A9360D360164A9360D360AA
:1058CC00154A9360D360154A9360D360144A936071
:1058DC00D360F022920000F0D3FD124B124A1A60F2
:1058EC0010BDC046000010500800105010001050A1
:1058FC0020180020180010502000105028001050C4
:10590C00300010503800105040001050480010501B
:10591C00500010505800105060001050680010508B
:10592C0070001050F41E002080011050F0B5574646
:10593C00DE464E464546E0B5234B87B09F6D002FA3
:10594C0023D0224B0024994601239846204B012654
:10595C009A4604E001347600E4B2202C15D03E4285
:10596C00F8D04B469E65434665086D00A343ED1881
:10597C006D015544280000F057FC00280CD101346F
:10598C00B743E4B27600002FE7D107B0F0BCBB46BA
:10599C00B246A946A046F0BDAB7808229B46EB8ADE
:1059AC00002103A8019300F06BFD0723594602AABE
:1059BC005371019B117203A80121059300F054FC53
:1059CC00280000F0CDFBDAE7000011500030115038
:1059DC00E01700209823F0B54646D6464F46D04AED
:1059EC00C0B5D55880232C009B02102684B01C40D7
:1059FC001D4278D0CB4BCC4C9A6ACC4B00261A600B
:105A0C003B23E35C022B00D115E17B23E35C022BEF
:105A1C0000D137E1BB23E35C022B00D1A6E1FB23D1
:105A2C00E35C022B00D169E13C23FF33E35C022BE6
:105A3C0000D14EE17C23FF33E35C022B00D133E138
:105A4C00BC23FF33E35C022B00D12EE2FC23FF339B
:105A5C00E35C022B00D113E2B54BE35C022B00D1CB
:105A6C00FAE1B44BE35C022B00D1E1E1B24BE35C15
:105A7C00022B00D1C8E1B14BE35C022B00D1AFE1AA
:105A8C00AF4BE35C022B00D196E1AE4BE35C022BF7
:105A9C0000D17DE1AC4BE35C022B00D1DCE0AB4BE5
:105AAC00E35C022B00D115E2002E08D1A84B1B7829
:105ABC00002B04D18021A74A90338902D15001AE2A
