:020000042000DA
:1000000018481949086006C881F30888104717483E
:100010000068002801D01648F3E71649164A002068
:1000200000E001C19142FCD1144988471449884736
:100030001449884700BEFDE7B0190020B019002020
:10004000301A0020000004200000042000000420DA
:100050000010042000100420001004200000000004
:10006000704700000001002008ED00E0000000D013
:1000700000000000301A0020001E0020891400201B
:10008000A90300208114002006005250ABB3605336
:100090003C19002006005250861C03024C19002017
:1000A000060052505422A29D58190020F2EB88718C
:1000B0008C190020A41900203800002090A31AE712
:1000C0000000000000000000000000000000000030
:1000D0000000000000000000000000000000000020
:1000E0000000000000000000000000000000000010
:1000F0000000000000000000000000000000000000
:10010000002004200F000020C3010020C5010020B2
:10011000C1010020C1010020C1010020C101002057
:10012000C1010020C1010020C1010020C701002041
:10013000C1010020C1010020C9010020CB01002025
:10014000CD010020CD010020CD010020CD010020F7
:10015000CD010020CD010020CD010020CD010020E7
:10016000CD010020CD010020CD010020CD010020D7
:10017000CD010020CD010020CD010020CD010020C7
:10018000CD010020CD010020CD010020CD010020B7
:10019000CD010020CD010020CD010020CD010020A7
:1001A000CD010020CD010020CD010020CD01002097
:1001B000CD010020CD010020CD010020CD01002087
:1001C00000BE00BE00BE00BE00BE00BEEFF3058054
:1001D000103800BEF0B5C646150000B504001E007C
:1001E0000268EFF3108172B61368002BFCD0BFF3E6
:1001F0005F8F0423E356002B2DDB2268BFF35F8F54
:100200000020106081F31088D0221206127852B2BA
:1002100090469A4203D1002080BCB846F0BD00272A
:100220000BE02368BFF35F8F1F6081F31088280005
:10023000310000F0F7FC0028EDD12268EFF31081C7
:1002400072B61368002BFCD0BFF35F8F23797F2B2E
:10025000E7D9434602E0D0231B061B6823712368BD
:10026000BFF35F8F00221A6081F310880120D3E76B
:100270000268EFF3108172B61368002BFCD0BFF355
:100280005F8FFF2303710368BFF35F8F00221A6043
:1002900081F3108840BF7047142310B518880433C9
:1002A0001B8802499847804710BDC046435800004C
:1002B000F0B58023D6464F464646421804000D004E
:1002C000C0B59B039A4225D814271826388833884E
:1002D00012499847338882461149388898473388AD
:1002E0008146104938889847338880460E493888B7
:1002F00098470600D047C84780222900D82320000D
:100300005202C047B047FFF7C7FFE0BCBA46B1464C
:10031000A846F0BD00F0C6FED6E7C046494600003C
:10032000455800005245000046430000F8B54E46CF
:100330004546DE4657468023E0B515008218040086
:1003400089469B039A4224D8142718263888338874
:10035000114998473388834610493888984733882D
:1003600082460F4938889847338880460D49388837
:1003700098470600D847D0472A0049462000C04782
:10038000B047FFF789FFF0BCBB46B246A946A0467E
:10039000F8BD00F087FED7E7494600004558000049
:1003A0005250000046430000802170B500208903B0
:1003B000FFF77EFF8022D0258026032400200C49F1
:1003C0005200FFF7B3FF2D061920B60400F012F813
:1003D0006E6264206E6100F00BFC013C6420AE6133
:1003E00000F006FC002CF4D10021002000F034FEC7
:1003F000AC1700200123D0228340402112069362D3
:100400009361094A83009A181268C0005140C022C3
:100410000A4006498C4663441A60054B9C460523F6
:10042000604443607047C04604C0014004D00140AE
:10043000004001400FB400B5084883B001F068F9EE
:10044000049B002B07D005A91800019100F0FEFFC6
:10045000034801F05DF9012001F010F8AC1800200C
:10046000BC18002070B5EFF3108C72B60D4D2B68E0
:10047000002BFCD0BFF35F8F0724CB08C618C05CED
:1004800001230C40A3401C000440034207D1034356
:100490003370BFF35F8F2C608CF3108870BD100039
:1004A000FFF7C8FF2C0100D0044A1078431CDBB2D0
:1004B000172B00D9102313707047C046B0190020C5
:1004C0000021044B044ABFF35F8F02C39342FAD169
:1004D0007047C046000100D0800100D0054B064A9D
:1004E0001360064A136053609360D36013615361D5
:1004F000936170478080808000E400E004E400E0C5
:100500001F2318401E3B8340002905D0C021044A08
:100510004900535013607047802201498B50FAE71D
:1005200000E100E070B50D00EFF3108672B60F4ADF
:100530001368002BFCD0BFF35F8F0D4B10309B680E
:1005400084001B590B4A934203D09D4201D000F016
:10055000A9FD074B9B681D51BFF35F8FBFF35F8FF2
:100560000022024B1A6086F3108870BD240100D06F
:1005700000ED00E0CD010020024B9C466144890063
:100580000160704740000034F8B5134D134E2C0045
:10059000FF27B5421ED22368002B0FD0FFF784FF40
:1005A00001002800FFF7E8FFA780BFF35F8F083442
:1005B000B4420FD223682500002BEFD1FFF774FF60
:1005C00001002800FFF7D8FF2771BFF35F8F0834C1
:1005D000B442EFD3F8BDC046F0190020F81900204E
:1005E0000A4B1968EFF3108072B60A68002AFCD033
:1005F000BFF35F8F1B68BFF35F8F00221A6080F329
:10060000108840BF002000217047C046FC1D00201C
:10061000F0B5DE4657464E464546E0B585B0EFF3A9
:100620000582032313409A0011000392B64A5258E0
:10063000904601229A40B54B91461A6031E04346FC
:100640009B881BB2002B00DB9DE043469B79002B6F
:1006500000D0EFE0434608241C5F002C00DA17E1CD
:1006600042465269630094461B19DB0063449C6850
:10067000DD68631C00D113E1A54B03999C466144DE
:100680009A6A0B69A01A9B1A984200D20C61A04882
:1006900000F042FB241A8D41002D00DDF8E000D16E
:1006A0002EE14B469A484363434608229B5E9A4696
:1006B000002BC4DB424652695B0093465344DB0087
:1006C0009B445B469E68DF6800F026FB801BB941B7
:1006D0000029B4DB002F00DAEDE05B468D4A1B6990
:1006E000934200D1E0E041465A460820085E528815
:1006F000000410435A465169984704000D00230036
:100700002B4300D1D7E0002D00DBF0E0361BAF41DA
:1007100034003D005B469C60DD600021595E00298D
:100720008DDB43465B6922009C462B004800401845
:10073000C00060448668C768921BBB41002B00DA8A
:100740007DE74346664602000094019519810CE05E
:100750007B00DB19DB00F318009801999C68DD68C9
:10076000001BA941002904DB1A000023D75E002FDB
:10077000EEDA5B461F805346138043469B881BB2CC
:10078000002B00DA61E743461A69EFF3108172B675
:100790001368002BFCD0BFF35F8F43469B88424613
:1007A0001BB29A4601235B4293801369BFF35F8FAC
:1007B00000221A6081F310885346002B00DA44E7C8
:1007C00043465B699C46082343449B4653465F006F
:1007D00043465744FF0008229A5E67445E46BC6861
:1007E000FD68002A19DB3B000094019567469C4692
:1007F00004E01E000023F25E002A0BDB0098019942
:1008000053009B18DB00FB189C68DD68001BA941A6
:100810000029EEDA6346BC461F00534633800021B0
:100820007B5E3A809A46002BD0DA43469B79002BB8
:1008300000D10FE700234246937143464646082104
:10084000595E08364B1C23D047468C46556902E05A
:1008500006004B1C17D04B005B18DB00E8180A00A1
:10086000E95E43881BB2002BF2DA01235B42DC17FE
:100870008360C4606245ECD031803B89944603803C
:100880003A814B1CE7D16446B846002C00DBE7E612
:1008900040BF05B0F0BCBB46B246A946A046F0BD7D
:1008A0006B1C00D0E8E6F2E65B465C692000236939
:1008B0009847002821D15B4642461B881381126964
:1008C000EFF3108372B611680029FCD0BFF35F8F7D
:1008D0004246594652880A80424651465180126922
:1008E000BFF35F8F0021116083F31088A7E60848EB
:1008F00000F012FA24184D410CE765682468FEE602
:10090000002C00D1CDE6C3E7E81D00203C70054077
:10091000004005401106002070B52E4C2569002DC1
:1009200004D00A212C48FFF727FE70BD2B4E03216F
:10093000300000F0E7F9E660FFF7B6FD284B032230
:100940009C46D02322701B061B6801216370254B37
:100950006044A3600F2380002061022063806369EC
:100960004942A18019800231198647311D835852AE
:1009700018315A5275325C399952183201319952F4
:100980001832013199521832013199520835183212
:100990009D5202311832995218320131995218324F
:1009A000013199521832013199521832013199525C
:1009B0001832013199520C4B0C49DC600130356220
:1009C000FFF7B0FD01210320FFF79AFD084B1D60E2
:1009D000A7E7C046B4190020FC1D002000400540D8
:1009E00040000034FFFF1000E81D00201106002029
:1009F0003860054070B5C646010000B50469EFF3E4
:100A0000108C72B620680028FCD0BFF35F8F0220E4
:100A10000D5E48696C0080466419E4004444002D72
:100A200001DB208848800869BFF35F8F00260660DD
:100A30008CF31088002D30DBE36063880598013368
:100A400020615B0406985B0CA26060611A1C002B9D
:100A500021D090B22B04628018430A69EFF310860C
:100A600072B61368002BFCD0BFF35F8F8B88238096
:100A70008D800B69BFF35F8F00221A6086F31088A8
:100A80000B7801329A40CB6805498C4663441A6062
:100A900040BCB04670BD0122DBE701204042F7E7D1
:100AA0003C20000010B543890A14934233DD530003
:100AB0009B184269DB00944604696344EFF3108C91
:100AC00072B62268002AFCD0BFF35F8F5A880904EF
:100AD00094B2090C8A4208D00369BFF35F8F0022E9
:100AE0001A608CF31088002010BD8022120214437B
:100AF0005C80012302698371BFF35F8F0021116065
:100B00008CF31088054902788C469340C268012016
:100B100062441360E8E70020E6E7C0463C2000009E
:100B2000F0B504000D0006267642F717C6463619C2
:100B30006F4100B582B08F4214D811D000F0F4F8A4
:100B400032003B00121A8B41002B15DC002B44D0E5
:100B50002000290000F0F2F802B080BCB846F0BDD9
:100B60008642EBD90026002700F0DEF832003B0079
:100B7000121A8B41002BE9DD00F0D6F832003B0061
:100B8000121A8B41002B0ADB00230193144B320015
:100B9000009314483B00FFF72DFF0028D8DBB04638
:100BA0000026BC46104A114F7B6A9C4504D8B96A9E
:100BB0008845CDD99C45CBD11168EFF3108072B632
:100BC0000B68002BFCD0BFF35F8F1368BFF35F8F00
:100BD0001E6080F3108820BFE6E7002AB8D0CBE77C
:100BE000E1050020B4190020FC1D00200040054054
:100BF00070B5060000F098F8FA2204000D000023FA
:100C000030000021920000F0A9FB00196941002981
:100C100002DBFFF785FF70BD012001494042F8E784
:100C2000FFFFFF7FF0B5CE46474680B504000D00BC
:100C300083B0EFF30587002F3BD12F4E81463378E9
:100C4000F26804339B00916A9B58421A5B1A9A42DD
:100C50000ED320BF294A0020536AAB4203D3926AC5
:100C6000013091453CD803B0C0BCB946B046F0BD98
:100C700000F05AF822002B00121A8B41002B26DBC1
:100C80001F4B2200009330002B000197FFF7B2FEAC
:100C9000011E1CDD194BA8465A6A954225D920BF72
:100CA0003000FFF7FFFE154A0020536A9845DAD856
:100CB000D5E7124A0020536A8B42D4D3926A01309E
:100CC000A242D0D2581A421E9041C0B2CBE70B4A82
:100CD0000020536AAB42C6D3926A01209145C2D923
:100CE000E81A421E9041C0B2BDE79B6A9C42D7D928
:100CF0009542D5D1D3E7C046B41900200040054045
:100D0000E105002010B5024A0248FFF7ABFB10BD19
:100D1000C0180020B01D00200300416A0A00986A34
:100D2000596A8A42FAD17047034B596A0A00986A95
:100D3000596A9142FAD1704700400540064A536A09
:100D40009942FCD807D1044B02E05A6A914202D181
:100D50009A6A8242F9D3704700400540F8B5DE46F2
:100D60004E4657464546E0B58B4605000A991800A1
:100D7000160000F067FA0A9B6C001F02324B6419E0
:100D80009C46A4006444636881469F4200D9676022
:100D90002B1FDBB29846012B30D9C02380229B0148
:100DA000E31812011A60294BAD0059599A460029DF
:100DB0001BD1226876017240E0268023164042460D
:100DC0005B01E3181E60012A30D9802380229B0139
:100DD000E31812011A6053464A4667605A51F0BC44
:100DE000BB46B246A946A046F8BD586900F02AFAAB
:100DF000431C5800C0180338FDD2DAE75B46012BCC
:100E0000CBD1C02303229B01E3181A60023AA368E6
:100E10001A42FCD0E0232268760156401E4080230F
:100E20000A4A5B019246E3181E60AD005A462168EB
:100E3000514003220A401A6001225B469A40A3688F
:100E40001A42FCD0C1E7C04600800040B41D00201B
:100E5000F0B546464F46D646C0B51F00344B440059
:100E60009C462418A4006444636888461600FF2B3F
:100E700002D880235B006360031FDBB29A46012B1C
:100E800030D9C02380229B01E31812011A60294B3C
:100E900085005959994600291BD122687601724074
:100EA000E0268023164052465B01E3181E60012AAB
:100EB00030D9802380229B01E31812011A6080231D
:100EC0005B0063604B465F51E0BCBA46B146A84642
:100ED000F0BD586900F0B6F9431C5800C01803383B
:100EE000FDD2DAE74346012BCBD1C02303229B017D
:100EF000E3181A60023AA3681A42FCD0E023226881
:100F0000760156401E4080230A4A5B019146E31851
:100F10001E60850042462168514003220A401A6043
:100F2000012342469340A2681342FCD0C1E7C04669
:100F300000800040B41D0020014B8000C058704765
:100F4000B41D0020F8B5040020481D0017000E0055
:100F500000F078F90100380000F074F9069B2904CC
:100F60001B0319432368002B1EDB194B194DE21894
:100F700053425A4180235B019C461203164B624444
:100F80001A60164B1A6017002B689F43FBD1144B55
:100F90002660E2182123A06013602368002BFCDA8E
:100FA0000823E1601360F8BD3F2322681340B34279
:100FB000DBD1A3681B051B0D8342D6D1EE22E3686B
:100FC000D20213408B42D0D1EDE7C046001BB700E0
:100FD0000040FDBF08C0004000E0004000F00040BD
:100FE000043000008023024A9B000B43D362704709
:100FF00000800540142310B50100188804331B88B5
:10100000984710BD162310B50100188802331B88BD
:10101000984710BDF8B54746CE4680B50F1E19D08B
:1010200014239946043304000025012698464B46B4
:101030001888434621681B88984701C4431E98417D
:10104000013540420640AF42F1D13000C0BCB94644
:10105000B046F8BD0126F8E7142370B504001888DF
:1010600004330D001B880349984729000300200022
:101070009847C04655420000AA23064A1B01136048
:101080002F230549D360054B19605368002BFCDA08
:101090007047C0460040024000B0FA0000600240C5
:1010A0007047C04610B50148FFF7C4F9E4180020A6
:1010B00070B5074D074EB54209D20024013E761B9C
:1010C000B60808CD984723000134B342F9D170BD6A
:1010D000F8190020301A0020054B064A06491A600C
:1010E000064A074B1A6010000B689843FBD1704703
:1010F00000E00040BFCDFBFE08C00040FE7F3C008A
:1011000000F00040044BDB6C002B03D18022034B2A
:10111000D2021A607047C046000011504C20115096
:10112000044A054B1A60054A1368DB018033FBD182
:101130007047C046FFFFFF0100F0004008C00040BC
:101140004022034B9A675A671A67DA667047C046AF
:1011500000F0014010B5FFF7B3F910BD002310B542
:10116000294C82B0A367FFF787FF0122274B1A6043
:10117000636C012BFCD10322254B1A60224A936B2E
:10118000012BFCD1013300930121224A2248043370
:10119000FFF7D8FE052301210093204A2048FFF7DE
:1011A000D1FE0022022104201E4BFFF751FE002237
:1011B000012105201C4BFFF74BFE002200210720D8
:1011C0001A4BFFF745FE002200210820174BFFF7BE
:1011D0003FFE8023DB000093002200210920134BF7
:1011E000FFF7BCFD0022104B00210620FFF730FE68
:1011F0000420FFF7A1FE0E4900F024F801000020B2
:10120000FFF7F0FE02B010BD008000403CB000408F
:1012100030B00040002F685900800240008C8647A3
:1012200000C00240001BB70040597307006CDC028D
:1012300040420F0001480421014B1847D0190020FB
:1012400015100020114A936F9B0813D21066516647
:10125000002905D0FFE7FFE7FFE7516F106F7047E8
:1012600004B5002801D00020C04300F06FFA00212F
:1012700004BDC046F0B5146E556E576F166FFFF77C
:10128000E5FF1466556657671667F0BD000000D08D
:10129000132370B51D78012D19D014DD1E48FFF7FA
:1012A000B1FE06001D48FFF7ADFE1D4C8022310047
:1012B000200000F0BDF8022D06D01A48FFF79AFE74
:1012C000194B186070BD164C184BA364F5E7174B0B
:1012D000134C23606360A360E36023616361A361D7
:1012E000E36123626362A362E36223636363A363D4
:1012F000E36323646364A364E36423656365A365B4
:10130000E36523666366A366E36623676367A36793
:10131000E367A364D1E7C04653440000534600008E
:10132000B01B00204C330000F81D002031130020BA
:1013300007B5604601880A0A0230DF2AFAD1C9B22D
:10134000820804D3028840880004104300E000684B
:10135000014A5050039007BDB01B00205143434346
:10136000C9188C46110C83B24B4310B4040C614372
:1013700092B280B2504362431C041B0C001910BC93
:1013800059411304120CC0185141614470470000C8
:10139000132310B512481C78FFF734FE0100012C0E
:1013A0000AD003DD80220F4800F042F80E48FFF714
:1013B00021FE0E4B186010BD0A4C5422200000F094
:1013C00037F80B4B6365A365E36523666366A36625
:1013D000E36623676367A367E3672362E361E5E787
:1013E00053460000B01C00204C330000F81D0020C4
:1013F000F513002007B5604601880A0A0230DF2A8B
:10140000FAD1C9B2820804D302884088000410438C
:1014100000E00068014A5050039007BDB01C002056
:1014200001480421014B1847E01900201510002045
:10143000014B5B6818470000E019002010B5002838
:1014400000D110BD00F018F9FBE7C04610B5094AFD
:101450000300146884B0002C08D0012200910648D3
:10146000524203A9A047012004B010BD00F050F97A
:101470000020F9E7E41D00203D14002000BEFDE738
:1014800010B5FFF7FBFFC04670B5FFF711FE074D23
:10149000074EB54209D20024013E761BB60808CD9E
:1014A000984723000134B342F9D170BD301A0020AF
:1014B000301A0020030010B5080011001B6898477F
:1014C00010BDC046F0B546464F46D646C0B5437D32
:1014D00080460E001700002B46D0002A3FDD4B1E31
:1014E0009946244B0125002400209A460DE04B46E6
:1014F0001B5D0D3B5A425341325DDBB20A2A0BD0D1
:101500002B00013401359F421ADD002CEFD14346F8
:10151000325D1B7D0A2AF3D1002BF1D1A04204DAFF
:101520004346211A1B6830189847434650461B68AB
:1015300002219847013428002B0001359F42E4DC4A
:10154000874204DD4346391A1B6830189847F6195C
:10155000013E33780D3B5A42534142461375E0BC7D
:10156000BA46B146A846F0BD03681100300098475E
:10157000F5E7C04688190020F0B5DE4657464E46CE
:101580004546E0B585B017001C0006000D00FFF7CA
:10159000CBFB0023314A12184B41002B59DB304959
:1015A00008008A46FEF716FE01906B1C03D130003E
:1015B00000F0CEF80500002C26D12A4B98462A4B85
:1015C0001C68002C15D0002F21D1284F02E024697F
:1015D000002C0ED02368002BF9D03B68002B01D0E3
:1015E000A342F4D120002A003100C0472469002C16
:1015F000F0D1019B002B28D1280005B0F0BCBB46E0
:10160000B246A946A046F0BD194B9846D7E7174BFE
:10161000994602ABDF1D0A239B4602E02469002C99
:10162000E7D02368002BF9D04B461B68002B01D074
:10163000A342F3D12A0031002000C0475B460122BB
:10164000390020003B70C047E8E75046FEF710FE27
:10165000D2E70122074B5242A1E7C04640420F00A9
:10166000F0190020B5140020DC1D0020E01D002032
:10167000C5140020FFFFFF7FF0B5CE46474680B57A
:1016800083B06B460600DD1D2870FFF74DFB00237D
:101690001A4A12184B41002B2BDB194908008846C7
:1016A000FEF798FD174B81461C68002C14D0164F8E
:1016B00002E02469002C0FD02368002BF9D03B688E
:1016C000002B01D0A342F4D1200001222900FFF712
:1016D000F9FE2469002CEFD14B46002B05D13000D8
:1016E00003B0C0BCB946B046F0BD4046FEF7C0FDF1
:1016F000F5E70122054B5242CFE7C04640420F00BA
:10170000F0190020DC1D0020E01D0020FFFFFF7FFE
:1017100070B5040000F01CF801230100050001224F
:101720002000FFF729FF084B1C68002C06D06368D7
:10173000002B05D098472469002CF8D1280070BDF3
:101740002469002CF3D1F9E7DC1D00207047C04666
:1017500010B583070AD00300032102E001330B42D6
:1017600005D01A78002AF9D1181A10BD030019689B
:101770000C4A0D4C8A188A4322420FD15968094AF3
:1017800004338A188A43224208D15968054A04332F
:101790008A188A432242F1D000E001331A78002AE5
:0C17A000FBD1E1E7FFFEFEFE80808080B0
:1017AC004E554B45000000000000000000000000FA
:1017BC00000000000000000000000000000000001D
:1017CC00000000000000000000000000000000000D
:1017DC0000000000000000000000000000000000FD
:1017EC0000000000000000000000000000000000ED
:1017FC0000000000000000000000000000000000DD
:10180C0000000000000000000000000000000000CC
:10181C0000000000000000000000000000000000BC
:10182C0000000000000000000000000000000000AC
:10183C00000000000000000000000000000000009C
:10184C00000000000000000000000000000000008C
:10185C00000000000000000000000000000000007C
:10186C00000000000000000000000000000000006C
:10187C00000000000000000000000000000000005C
:10188C00000000000000000000000000000000004C
:10189C00000000000000000000000000000000003C
:1018AC000A2A2A2A2050414E4943202A2A2A0A0071
:1018BC000A000000486172647761726520616C6196
:1018CC00726D20256420616C726561647920636C93
:1018DC0061696D6564000000486172642061737316
:1018EC006572740052656C65617365006874747020
:1018FC00733A2F2F6769746875622E636F6D2F7240
:10190C00617370626572727970692F7069636F2D83
:10191C006578616D706C65732F747265652F4845C1
:10192C0041442F666C6173682F6E756B6500000007
:10193C00322E312E300000007069636F0000000001
:10194C00666C6173685F6E756B650000466562203E
:10195C00203420323032350006005250BBFF3CB6EA
:10196C0044190020060052509A235618F8180020EB
:10197C0006005250D3F07542F01800200D0A0000FA
:10198C00A000002094000020641900208800002092
:08199C00701900207C190020E5
:1019B0001000000000000000000000000000000017
:1019C0000000000000000000301A002000000000AD
:1019D000503300004C3300005433000052330000F9
:1019E0004D5300004D4300005334000043340000C9
:1019F0000000000000000000D910002005110020A8
:101A00003512002021140020911200209113002093
:101A10005D110020211100204111002055110020EE
:101A20008905002019090020A1100020DD040020F4
:0400000520000001D6
:00000001FF
